:100000000C9466160C9497160C9497160C949716ED
:100010000C9497160C9497160C9497160C949716AC
:100020000C9497160C9497160C9497160C9497169C
:100030000C9497160C9446690C9497160C9497168A
:100040000C9497160C940BB80C9497160C94971666
:100050000C9497160C9497160C94554B0C94DFD572
:100060000C9497160C94DC460C94A7460C949716A7
:100070000C9497160C9497160C9497160C9497164C
:100080000C9487420C9497160C9497160C94971620
:100090000C9497160C9497160C9497160C9497162C
:1000A0000C9497160C9497160C9459420C9497162E
:1000B0000C9497160C9497160C9497160C9497160C
:1000C0000C9497160C9497160C9497160C949716FC
:1000D0000C9497160C9497160C9436440C94014487
:1000E0000C9497165A2C652C852C902C9F2CC72C81
:1000F000072D652DB12DCC2DE52DEF2D202E272E92
:10010000742EBF317D2EC62EF02E262F312F622F5A
:10011000702FC430ED3016312731BF31AC31BF31D3
:10012000BF31BF31BF31B73176337D3388338F3341
:100130009633A133AE3369447B448D449E44A64438
:10014000D544AA44D544AE44B244D544B644BA4496
:10015000BE44C644D544D044224734474647574757
:100160005F478E4763478E4767476B478E476F47AA
:10017000734777477F478E478947505555555A559E
:1001800064556E55E75578558055885592559C5560
:10019000A655B555BF55E755C955D355DD554AD573
:1001A0004DD53CD540D544D584D551D555D55BD515
:1001B0005FD563D569D56DD571D584D577D57BD518
:1001C0007FD505A84CCDB2D44EB93836A9020C5013
:1001D000B9918688083CA6AAAA2ABE000000803FE2
:1001E0000C94BE440C9484D50C9448E30C946B4757
:1001F0000C94262F0C94B6440C9477D50C9496331B
:100200000C947D330C944DD50C9440D50C94EFE2B6
:100210000C946F470C94D3550C945F470C943CD5C9
:100220000C94A6440C948F330C949E440C94AA44D2
:100230000C9422470C94C4300C94C62E0C947BD59D
:100240000C9488330C94B2440C9427310C94902C69
:100250000C94C72C0C94652C0C9463D50C946455A9
:100260000C9450550C945A2C0C94CC2D0C9469D5AC
:100270000C9457470C9416310C94B7310C94272EDC
:100280000C94B12D0C9471D50C9492550C94894713
:100290000C946DD50C9463470C9451D50C94555522
:1002A0000C94BF550C9444D50C9480550C94734712
:1002B0000C94AC310C94702F0C94B5550C9476338F
:1002C0000C948D440C9446470C94852C0C94A655A4
:1002D0000C94072D0C944AD50C94BF310C94C64451
:1002E0000C94652D0C947FD50C94E7550C9488558F
:1002F0000C947D2E0C9434470C94F02E0C94742E98
:100300000C9477470C94EF2D0C94AE440C94A133CD
:100310000C94312F0C948E470C945A550C94622FE8
:100320000C94D5440C94E52D0C9467470C94202E26
:100330000C947F470C94D0440C9478550C94DD5564
:100340000C94AE330C945BD50C946E550C94ED303C
:100350000C9455D50C945FD50C9469440C94C955F4
:100360000C947B440C949C550C94BA440C949F2C94
:100370004E414E494E495459494E46CDCCCC3D0A8A
:10038000D7233C17B7D13877CC2B329595E6241F6D
:10039000B14F0A000020410000C84200401C462026
:1003A000BCBE4CCA1B0E5AAEC59D74434F4D4D5535
:1003B0004E49434154494F4E0044525952554E0004
:1003C0004552524F5253004543484F00536C6565A8
:1003D000702E2E2E004D65736820706F696E74202C
:1003E0006F7574206F662072616E67650A004D300C
:1003F0002053746F70004D312053746F7000436F41
:100400006E74696E756500436C69636B20746F2050
:10041000526573756D652E2E2E004E6F204D6F76D2
:10042000652E00456E642066696C65206C69737486
:100430000A00426567696E2066696C65206C6973A5
:10044000740A004E6F206D656469610A005265731D
:10045000756D696E6720534400286E6F2066696C65
:1004600065290043757272656E742066696C653A21
:1004700020005344207072696E74696E672062793F
:10048000746520004E6F74205344207072696E743E
:10049000696E670A0044656C6574696F6E206661F9
:1004A000696C65642C2046696C653A200046696C6D
:1004B000652064656C657465643A005072696E7499
:1004C0002074696D653A20000A53746174733A2090
:1004D00046696C616D656E7420757365643A2000C1
:1004E0002C204C6F6E67657374206A6F623A20002F
:1004F000546F74616C2074696D653A20002C20463D
:1005000061696C65643A20002C2046696E697368E5
:1005100065643A20005072696E74733A2000537417
:100520006174733A200045202553004445425547E5
:100530003A004D313133205300416E796375626961
:1005400063206933204D6567612058204F46462E51
:10055000004348414D4245525F54454D504552413C
:100560005455524500424142595354455050494E0A
:10057000470041524353004D4F54494F4E5F4D4F3A
:1005800044455300544845524D414C5F50524F54DE
:10059000454354494F4E004C4F4E475F46494C45EA
:1005A0004E414D45004155544F5245504F52545FB6
:1005B00053445F53544154555300534443415244B0
:1005C0000050524F4D50545F535550504F525400AD
:1005D000454D455247454E43595F50415253455250
:1005E00000434153455F4C494748545F4252494795
:1005F00048544E45535300544F47474C455F4C4970
:100600004748545300534F4654574152455F504F4B
:10061000574552004255494C445F50455243454E60
:1006200054004C4556454C494E475F4441544100A7
:100630005A5F50524F4245004155544F4C45564524
:100640004C005052494E545F4A4F420050524F475F
:1006500052455353004155544F5245504F52545FE9
:1006600054454D5000564F4C554D4554524943004A
:10067000454550524F4D0042494E4152595F4649FF
:100680004C455F5452414E534645520053455249E2
:10069000414C5F584F4E5F584F4646004649524DB9
:1006A000574152455F4E414D453A4D61726C696EFE
:1006B00020322E302E372E3220284A616E202037ED
:1006C00020323032312031363A33303A3439292031
:1006D000534F555243455F434F44455F55524C3A43
:1006E00068747470733A2F2F6769746875622E632B
:1006F0006F6D2F4D61726C696E4669726D776172B4
:10070000652F4D61726C696E2050524F544F434FAC
:100710004C5F56455253494F4E3A312E30204D4191
:100720004348494E455F545950453A416E79637587
:10073000626963206933204D656761205820455800
:100740005452554445525F434F554E543A3120550B
:100750005549443A63656465326132662D343161CE
:10076000322D343734382D396231322D63353563CB
:1007700036326633363766660A002F2F2000416313
:1007800063656C65726174696F6E3A205000574101
:10079000524E494E4721204C6F77205A204A6572AD
:1007A0006B206D6179206C65616420746F20756EBB
:1007B00077616E746564207061757365732E0A00CD
:1007C00046523A0020466C6F773A200020536572FB
:1007D000766F200020643A0020693A0020703A00C9
:1007E000496E76616C6964206578747275646572AF
:1007F0000A006469730043290A0061626C65642021
:10080000286D696E2074656D702000436F6C6420E4
:10081000657874727564657320617265200046693D
:100820006C616D656E742072756E6F757420004D0D
:1008300034323120696E636F727265637420706147
:1008400072616D657465722075736167650A004F2A
:10085000666673657473204170706C6965640045E9
:1008600072723A20546F6F206661722100546F6F6C
:10087000206661722066726F6D20726566657265B2
:100880006E636520706F696E740A00454550524F63
:100890004D204F4B0A00205A323A004475616C20BB
:1008A000456E6473746F702041646A7573746D650E
:1008B0006E7420286D6D293A20002028302D3130AB
:1008C00029002076616C7565206F7574206F662035
:1008D00072616E676500416476616E6365204B3DB1
:1008E000004D383400446F6E65207072696E746913
:1008F0006E672066696C650A004D3737004D3331ED
:1009000000C7039323C003B903AB034A3138004A3D
:100910003034004A3132004A323100205A3A200045
:1009200020593A20004A31340043616E6E6F7420C2
:10093000656E746572207375626469723A20004D49
:10094000313038005370656369616C204D656E7598
:100950003A2053656E64205573657220436F6E664E
:1009600069726D6174696F6E0A004D3530300A4DE1
:1009700033303020503130352053313130380A4D4A
:10098000333030205032313020533136363100533D
:1009900070656369616C204D656E753A20536176B0
:1009A0006520454550524F4D0A004D3530320A4DB5
:1009B00033303020503130352053313636310A4D06
:1009C0003330302050323130205331313038005301
:1009D00070656369616C204D656E753A204C6F617E
:1009E000642046572044656661756C74730A004D37
:1009F00033303320452D31205336352043362055B2
:100A000031005370656369616C204D656E753A20E5
:100A10004175746F2054756E6520486F746265640B
:100A2000205069640A004D31303620533230340A88
:100A3000473420503530300A4D3330332045302094
:100A400053323135204331352055310053706563C1
:100A500069616C204D656E753A204175746F205444
:100A6000756E6520486F74656E64205049440A00B5
:100A70004732380A473239005370656369616C2028
:100A80004D656E753A204175746F20426564204C47
:100A90006576656C696E670A004D313430205336D7
:100AA00035005370656369616C204D656E753A2041
:100AB00050726568656174204265640A0063616E06
:100AC00063656C005072696E742041626F72746568
:100AD00064004469736D6973730055492041626F06
:100AE00072746564004A313600726573756D650015
:100AF0004D323520500A4D323400526573756D65A4
:100B0000005549205061757365004739310A4731F6
:100B100020452D322046313830300A473930004ADE
:100B20003035002F2E2E003C5370656369616C20B8
:100B30004D656E753E003C7370656369616C6D6EEA
:100B4000753E003C4175746F2054756E6520486F8A
:100B500074626564205049443E003C30344874421D
:100B600065645049443E003C4175746F2054756E75
:100B70006520486F74656E64205049443E003C30E7
:100B8000334874456E645049443E003C4175746F6F
:100B900020426564204C6576656C696E673E003C5A
:100BA000303241424C3E003C5072656865617420B1
:100BB0006265643E003C3031507265687442656421
:100BC0003E003C457869743E003C53656E64205598
:100BD00073657220436F6E6669726D6174696F6EC2
:100BE0003E003C303753656E644D3130383E003C3A
:100BF0005361766520454550524F4D3E003C30369E
:100C00005376454550524F4D3E003C4C6F61642039
:100C100046572044656661756C74733E003C303500
:100C200046574465666C74733E00454E44003C5321
:100C300070656369616C5F4D656E753E004A303268
:100C400000464E2000322E302E372E32004A3333EB
:100C500020004F4B004739310A25730A47393000CD
:100C60004731204525694635303000473120452D34
:100C7000302E314625690047312045302E3146253A
:100C800069004731205A2569462569004731205AB5
:100C90002D302E31462569004731205A302E3146FD
:100CA00025690047312059256946256900473120CB
:100CB000592D302E314625690047312059302E31CB
:100CC0004625690047312058256946256900473186
:100CD00020582D302E314625690047312058302EBE
:100CE000314625690047323800473238205A0047DC
:100CF00032382059004732382058004132305620CF
:100D0000004731205A3130004A3230005072696E4B
:100D10007465722068616C7465642E206B696C6CFC
:100D200028292063616C6C65642100203939393AC7
:100D300039393900204D0020482000413756200025
:100D4000413656202D2D2D00413656200041355676
:100D500020583A20004134562000413356200041AB
:100D600032562000413156200041305620004D3887
:100D7000340A4D32370024F4D43050C38E20C2A23E
:100D80004017828B7011127A910D816CD90AA8617B
:100D9000E108C7586607615143061E4B5D05C14512
:100DA000A7041A411104093D9803713931034036F3
:100DB000DB0265339102D4305402802E1D02632C75
:100DC000EE01752AC501B028A001102781018F25E9
:100DD00064012B244B01E0223401AC211F018D2042
:100DE0000D01801FFC00841EED00971DDF00B81C64
:100DF000D200E61BC600201BBC00641AB200B21968
:100E0000A8000A19A0006A189900D117910040178C
:100E10008B00B516840031167E00B31579003A15A3
:100E20007300C7146F0058146A00EE13660088132D
:100E3000630025135E00C7125B006C125700151289
:100E40005400C111510070114F0021114B00D610F8
:100E500049008D1047004610440002104200C00FA8
:100E60004000800F3E00420F3C00060F3B00CB0EBF
:100E70003800930E37005C0E3500270E3400F30D5A
:100E80003200C10D3100900D3000600D2E00320D8A
:100E90002D00050D2C00D90C2B00AE0C2900850C63
:100EA00029005C0C2700350C27000E0C2600E80BEF
:100EB0002400C40B2400A00B23007D0B23005A0B3D
:100EC0002100390B2100180B2000F80A1F00D90A55
:100ED0001E00BB0A1E009D0A1D00800A1D00630A39
:100EE0001C00470A1B002C0A1B00110A1A00F709F4
:100EF0001A00DD091900C4091900AB09190092098B
:100F000017007B091800630917004C091600360901
:100F10001600200916000A091500F5081500E0085A
:100F20001400CC081400B8081400A4081400900899
:100F300013007D0812006B081300580812004608C1
:100F400012003408110023081100120811000108D2
:100F50001100F0071000E0071000D0071000C007D4
:100F60001000B0070F00A107100091070E008307C3
:100F70000F0074070F0065070E0057070E004907A2
:100F80000E003B070D002E070E0020070D00130773
:100F90000D0006070D00F9060C00ED060D00E00639
:100FA0000C00D4060C00C8060C00BC060C00B006F1
:100FB0000C00A4060B0099060C008D060B0082069F
:100FC0000B0077060B006C060B0061060A00570643
:100FD0000B004C060A0042060A0038060A002E06DC
:100FE0000A0024060A001A060A001006090007066D
:100FF0000A00FD050900F4050900EB050900E205FA
:101000000900D9050900D0050900C7050900BE057A
:101010000900B5050800AD050800A50509009C05F7
:101020000800940508008C050800840508007C056C
:101030000800740508006C050700650508005D05DB
:101040000700560508004E05070047050700400544
:10105000080038050700310507002A0507002305A9
:1010600007001C050600160507000F050700080508
:10107000060002050700FB040600F5040700EE0465
:101080000600E8040600E2040700DB040600D504BD
:101090000600CF040600C9040600C3040600BD0410
:1010A0000600B7040600B1040500AC040600A6045F
:1010B0000600A00405009B040600950405009004AA
:1010C00006008A04050085040500800406007A04F1
:1010D000050075040500700405006B040500660436
:1010E0000500610405005C04050057040500520476
:1010F00005004D04050048040500430405003E04B6
:1011000004003A04050035040500300404002C04F2
:10111000050027040400230405001E0404001A042B
:10112000040016040500110404000D040400090461
:1011300005000404040000040400FC030400F80398
:101140000400F4030400F0030400EC030400E803CB
:101150000400E4030400E0030400DC030400D803FB
:101160000400D4030400D0030400CC030400C8032B
:101170000300C503030024F404D9201BC40C5C0E37
:101180009804C4095F0265077101F405F900FB04C6
:10119000B30048048700C1036900580355000303E6
:1011A0004500BE023A008402310053022A0029029F
:1011B000250004022000E4011C00C8011900AF0151
:1011C00017009801140084011300710110006101DF
:1011D000100051010E0043010D0036010B002B01E0
:1011E0000B0020010B00150109000C01090003018F
:1011F0000800FB000800F3000800EB000700E40013
:101200000600DE000600D8000600D2000600CC0072
:101210000500C7000500C2000500BD000400B900BC
:101220000400B5000400B1000400AD000400A900F2
:101230000400A5000300A20003009F0004009B001F
:101240000300980003009500020093000300900043
:1012500003008D0002008B0003008800020086005E
:10126000020084000300810002007F0002007D0074
:1012700002007B0002007900020077000100760086
:1012800002007400020072000100710002006F0091
:1012900002006D0001006C0002006A00010069009C
:1012A00002006700010066000100650001006400A3
:1012B00002006200010061000100600001005F00A7
:1012C00002005D0001005C0001005B0001005A00AB
:1012D00001005900010058000100570001005600AC
:1012E00001005500010054000100530000005300AC
:1012F00001005200010051000100500001004F00A8
:1013000001004E0000004E0001004D0001004C00A5
:1013100001004B0000004B0001004A0001004900A1
:10132000010048000000480001004700010046009D
:101330000000460001004500000045000100440097
:101340000100430000004300010042000000420091
:1013500001004100000041000100400001003F0089
:1013600000003F0001003E0000003E0001003D0083
:1013700000003D0001003C0000003C0000003C007B
:1013800001003B0000003B0001003A0000003A0071
:101390000100390000003900010038000000380069
:1013A000000038000100370000003700010036005F
:1013B0000000360000003600010035000000350056
:1013C000000035000100340000003400000034004B
:1013D0000100330000003300000033000100320040
:1013E0000000320000003200010031000000310036
:1013F000000031000100300000003000000030002B
:1014000001002F0000002F0000002F0000002F001F
:1014100001002E0000002E0000002E0001002D0013
:1014200000002D0000002D0000002D0001002C0008
:1014300000002C0000002C0000002C0001002B00FC
:1014400000002B0000002B0000002B0001002A00F0
:1014500000002A0000002A0000002A0001002900E4
:1014600000002900000029000000290000002900D8
:1014700001002800000028000000280000002800CB
:1014800000002800010027000000270000002700BE
:1014900000002700000027000100260000002600B1
:1014A00000002600000026000000260001002500A4
:1014B0000000250000002500000025000000250098
:1014C000000025000100240000002400000024008A
:1014D000000024000000240001002300000023007D
:1014E0000000230000002300000023000000230070
:1014F0000000230001002200000022000000220062
:101500000000220000002200000022000100210053
:101510000000210000002100000021000000210047
:101520000000210000002100010020000000200038
:10153000000020000000200000002000000020002B
:10154000000020000000200001001F0000001F001C
:1015500000001F0000001F0000001F0000001F000F
:1015600000001F0001001E0000001E0000001E0001
:1015700000001E000000232C0000B82200005618B6
:1015800000003A0F0000B8080000B104000071022A
:1015900000003E0100004572726F7220777269741C
:1015A000696E6720746F20454550524F4D210A00E7
:1015B0004A3137002020506C616E6E65724275664C
:1015C00066657242797465733A20002046726565DB
:1015D000204D656D6F72793A2000436F6D70696CB4
:1015E00065643A204A616E20203720323032310A59
:1015F00000204C61737420557064617465643A20F6
:10160000323032302D31302D3135207C204175740F
:10161000686F723A20286830736368313830206808
:101620006F7363686940616E756B69732E646529B9
:101630000A00322E302E372E320A004D61726C694C
:101640006E0020536F667477617265205265736512
:10165000740A00205761746368646F672052657371
:1016600065740A002042726F776E206F7574205285
:10167000657365740A002045787465726E616C202C
:1016800052657365740A00506F77657255700A0071
:101690006175746F25632E67004732385859004DC5
:1016A00031303031006572726F72207772697469FF
:1016B0006E6720746F2066696C650A00446F6E6502
:1016C00020736176696E672066696C652E0A004D2D
:1016D00032390020503A00656E6473746F70732065
:1016E0006869743A20001000C90210012C01400101
:1016F000220170011801B0010E01F0010401500235
:10170000FA00B002F0003003E600D003DC009004E1
:10171000D2007005C800A006BE000008B400B009E1
:10172000AA00D00BA000600E960060118C0000157E
:10173000820020197800C01D6E00A0226400B0272E
:101740005A00902C500000314600E0343C00103824
:101750003200903A2800603C1E00A03D1400803EFC
:101760000A00203F000048656174696E6720466189
:10177000696C65640048656174696E6720666169BB
:101780006C6564004D3131322053687574646F7735
:101790006E00202D20496E76616C69642065787436
:1017A0007275646572206E756D62657220210A0023
:1017B000544845524D414C2052554E4157415900D5
:1017C000546865726D616C2052756E617761790045
:1017D0004572723A204D415854454D50004D415884
:1017E00054454D50207472696767657265640045A1
:1017F00072723A204D494E54454D50004D494E5459
:10180000454D502074726967676572656400202FCA
:10181000002042403A0020403A0070012C01900123
:101820002701B0012201C0011D01F00118011002C1
:10183000130130020E016002090190020401C0028E
:10184000FF000003FA004003F5008003F000D0031E
:10185000EB002004E6007004E100E004DC00400539
:10186000D700C005D2004006CD00D006C8008007D2
:10187000C3003008BE00F008B900C009B400B00AC7
:10188000AF00B00BAA00D00CA500000EA000500FB6
:101890009B00C01096005012910000148C00C015DF
:1018A0008700B0178200B0197D00D01B7800001EA1
:1018B000730040206E0090226900F02464004027ED
:1018C0005F0090295A00E02B5500102E5000203068
:1018D0004B0010324600E033410090353C00103799
:1018E000370070383200A0392D00B03A2800A03BF4
:1018F0002300603C1E00103D1900903D1400103E76
:101900000F00703E0A00C03E0500003F0000403F4F
:10191000FBFF803FF6FFC03FF1FF4E6F204368653D
:10192000636B73756D2077697468206C696E6520D0
:101930006E756D6265722C204C617374204C696EFB
:10194000653A2000636865636B73756D206D69731C
:101950006D617463682C204C617374204C696E65F2
:101960003A20004C696E65204E756D626572206983
:1019700073206E6F74204C617374204C696E652007
:101980004E756D6265722B312C204C617374204C46
:10199000696E653A20004D31313000534420726544
:1019A0006164206572726F720A002121204B494CDC
:1019B0004C2063617573656420627920746F6F20B9
:1019C0006D75636820696E616374697665207469FA
:1019D0006D65202D2063757272656E7420636F6D66
:1019E0006D616E643A2000627573793A207061759A
:1019F00073656420666F7220696E7075740A006288
:101A00007573793A2070617573656420666F722012
:101A1000757365720A00627573793A2070726F632C
:101A2000657373696E670A004D6564696120496E6C
:101A3000736572746564004D656469612052656DFB
:101A40006F766564007061757365004D36303000E7
:101A50002066696C616D656E745F72756E6F75740A
:101A6000200066696C616D656E745F72756E6F756E
:101A70007420540046696C616D656E7452756E6FAA
:101A800075742054004A313100706F7765726F664B
:101A900066005072696E7465722068616C7465646A
:101AA0002E206B696C6C28292063616C6C65642145
:101AB0000A0020746F6F206C6F6E672065787472F7
:101AC0007573696F6E2070726576656E7465640AF1
:101AD0000020636F6C6420657874727573696F6E33
:101AE0002070726576656E7465640A002053697AA9
:101AF000653A200043616E6E6F74206F70656E20D2
:101B00007375626469722000534420496E697420C1
:101B10004661696C0053442063617264206F6B0AF4
:101B2000006F70656E526F6F74206661696C6564DA
:101B30000A00766F6C756D652E696E69742066613A
:101B4000696C65640A004E6F2053442063617264BF
:101B50000A004D3233202573006F70656E20666178
:101B6000696C65642C2046696C653A200046696C96
:101B7000652073656C65637465640A0046696C650D
:101B8000206F70656E65643A2000454E44205355C1
:101B900042524F5554494E450A002220706F73003F
:101BA0002220706172656E743A2200535542524F82
:101BB0005554494E452043414C4C20746172676531
:101BC000743A220053756263616C6C204F766572C3
:101BD000666C6F77004578636565646564206D6148
:101BE0007820535542524F5554494E4520646570F4
:101BF00074683A310A0057726974696E6720746FAD
:101C00002066696C653A2000667265736800646FCF
:101C1000696E67004E6F77200002000000C0000070
:101C2000000000000000FFFDFCFAF8F6F4F2F0EE10
:101C3000ECEAE9E7E5E3E1E0DEDCDAD9D7D5D4D2B6
:101C4000D0CFCDCBCAC8C7C5C3C2C0BFBDBCBAB94F
:101C5000B7B6B4B3B2B0AFADACAAA9A8A6A5A4A2BA
:101C6000A1A09E9D9C9A99989795949392908F8EFF
:101C70008D8B8A8988878684838281807F7E7D7B25
:101C80007A797877767574737271706F6E6D6C6B2C
:101C90006A696867666564636261605F5E5D5C5B1C
:101CA0005A5958585756555453525150504F4E4DFB
:101CB0004C4B4A4A494847464645444342424140C4
:101CC0003F3E3E3D3C3B3B3A39383837363535347C
:101CD0003332323130302F2E2E2D2C2B2B2A292926
:101CE00028272726252524232322212120201F1EC3
:101CF0001E1D1C1C1B1B1A19191818171616151552
:101D000014131312121111100F0F0E0E0D0D0C0CD7
:101D10000B0A0A0909080807070606050504040353
:101D200003020201000000009B4300009B4300806F
:101D3000984353657474696E67732053746F72654A
:101D4000640053657474696E67732053746F7265B1
:101D50006420280020573A007C3C3E5E2B3D3F2FFC
:101D60005B5D3B2C2A225C0050726F62696E6720BB
:101D7000506F696E740025532025692F2569005026
:101D8000726F62696E67206D65736820706F696E2F
:101D9000742000202844525952554E2900473239A8
:101DA000204175746F20426564204C6576656C69CE
:101DB0006E67003F20284C2C522C462C4229206F65
:101DC0007574206F6620626F756E64732E0A003F13
:101DD0002856296572626F7365206C6576656C2084
:101DE000696D706C61757369626C652028302D3483
:101DF000292E0A00426164205A2076616C75650ABA
:101E0000004E6F2062696C696E656172206772694D
:101E1000640A0046696E6973686564210A003A20A5
:101E20007A3A2000206F662000476F696E67207441
:101E30006F3A20580043570A00206469723A002024
:101E4000616E676C653A00537461727420726164EC
:101E50006975733A00506F736974696F6E696E6764
:101E6000207468652070726F62652E2E2E0A003F06
:101E70004C656773206F66206D6F76656D656E7457
:101E800020696D706C61757369626C652028302DF6
:101E90003135292E0A003F2028582C5929206F75EA
:101EA00074206F6620626F756E64732E0A00507224
:101EB0006F6265206F7574206F6620626F756E6447
:101EC00073003F53616D706C652073697A65206E95
:101ED0006F7420706C61757369626C652028342D95
:101EE0003530292E0A004D3438205A2D50726F6239
:101EF00065205265706561746162696C69747920EE
:101F0000546573740A0053656E64204D3130382077
:101F1000746F20726573756D650A0052656865613E
:101F20007420446F6E6500526568656174696E6700
:101F30002E2E2E00526568656174004865617465D7
:101F4000722054696D656F75740053656E64204D21
:101F500031303820746F2068656174206E6F7A7A32
:101F60006C650A00486F74656E6420746F6F20633F
:101F70006F6C640A007061757365640072657375D7
:101F80006D656400627574746F6E004C6F616420DF
:101F900046696C616D656E74205400496E7365729C
:101FA000742066696C616D656E7420616E64207367
:101FB000656E64204D3130380A00526573756D6965
:101FC0006E67004F46460A004661646520486569B1
:101FD0006768742000426564204C6576656C696EA4
:101FE0006720004661696C656420746F20656E61CE
:101FF000626C6520426564204C6576656C696E672D
:102000000A00496E76616C6964206D6573682E0AFA
:10201000003F5A206F7574206F662072616E67658D
:102020002028003F59206F7574206F662072616E02
:10203000676520282D0020746F20003F58206F75A1
:1020400074206F662072616E676520282D005072C3
:102050006F6265204F6666736574205800656E7107
:1020600075657565696E672022006F6B0052657338
:10207000656E643A20002569792025696420256908
:10208000682025696D202569730042656420436FCF
:102090006F6C696E672E2E2E004265642048656164
:1020A00074696E672E2E2E0023646566696E652046
:1020B00044454641554C545F004B6420004B692019
:1020C000004B702000504944204175746F74756E48
:1020D000652066696E697368656421205075742097
:1020E000746865206C617374204B702C204B6920E0
:1020F000616E64204B6420636F6E7374616E7473E1
:102100002066726F6D2062656C6F7720696E746FE8
:1021100020436F6E66696775726174696F6E2E68B1
:102120000A00504944204175746F74756E652066CD
:1021300061696C6564212074696D656F75740A004E
:102140000A20436C617373696320504944200A007C
:10215000204B643A2000204B693A2000204B703A13
:1021600020000A204E6F206F76657273686F6F745F
:102170000A002054753A2000204B753A2000206D4B
:1021800061783A2000206D696E3A200020643A2080
:102190000020626961733A200050494420417574FF
:1021A0006F74756E652073746172740A00504944CF
:1021B000204175746F74756E65206661696C656425
:1021C000212054656D706572617475726520746F3D
:1021D0006F20686967680A00504944204175746F30
:1021E00074756E6500504944204175746F74756E46
:1021F00065206661696C65642120426164206578B0
:10220000747275646572206E756D6265720A006F16
:1022100070656E005452494747455245440066690F
:102220006C616D656E74007A5F70726F6265007AC2
:10223000325F6D696E007A5F6D696E00795F6D69FE
:102240006E00785F6D696E005265706F7274696EB2
:102250006720656E6473746F702073746174757336
:102260000A006563686F3A004572726F723A004205
:10227000696C696E656172204C6576656C696E6724
:1022800020477269643A0A0053544F505045442E17
:1022900020005072696E7465722073746F7070657F
:1022A000642064756520746F206572726F72732E7E
:1022B0002046697820746865206572726F722061AB
:1022C0006E6420757365204D39393920746F207222
:1022D0006573746172742E202854656D7065726127
:1022E000747572652069732072657365742E20534E
:1022F00065742069742061667465722072657374F8
:10230000617274696E67290A0021212053544F506D
:102310002063616C6C656420626563617573652020
:102320006F6620424C546F756368206572726F72DD
:10233000202D20726573746172742077697468202F
:102340004D3939390A002F2F616374696F6E3A0075
:10235000626567696E00656E640070726F6D70749F
:102360005F0073686F770044697361626C655275D2
:102370006E6F75740050757267654D6F72650055AC
:102380004E4B4E4F574E2053544154450047434FF8
:1023900044455F494E464F004C43445F50415553BE
:1023A000455F524553554D450046494C414D454EBC
:1023B000545F52554E4F55545F434F4E54494E55FE
:1023C000450046494C414D454E545F52554E4F5580
:1023D00054004D38373620526573706F6E64696EE5
:1023E000672050524F4D50545F00486F6D696E67C3
:1023F000204661696C6564005761726E696E673A68
:1024000020486F6D696E672042756D702044697653
:1024100069736F72203C20310A0020456E6473742A
:102420006F703F0A004261642000000048420000D3
:102430004842000080400202040000A0400000A0CA
:10244000400000004000009C4300009B4300809837
:1024500043FFFFFF000000010000000100008000BA
:10246000555555000000400033333300AAAA2A0016
:102470004992240000002000C7711C00999919009E
:10248000D1451700555515003BB1130024491200E2
:1024900011111100000010000F0F0F00E3380E00A3
:1024A00043790D00CCCC0C00C3300C00E8A20B002B
:1024B00064210B00AAAA0A00703D0A009DD80900F9
:1024C000427B090092240900DCD3080088880800B8
:1024D0001042080000000800F0C1070087870700CD
:1024E00075500700711C07003EEB0600A1BC0600FA
:1024F0006990060066660600703E060061180600D8
:1025000017F4050074D105005BB00500B29005001A
:10251000627205005555050078390500B81E0500A2
:10252000050505004EEC040087D40400A1BD04009D
:1025300090A7040049920400C17D0400EE690400E4
:10254000C7560400444404005C320400082104001F
:1025500041100400000004003FF00300F8E0030015
:1025600026D20300C3C30300CCB503003AA803007E
:102570000A9B0300388E0300C08103009F7503008F
:10258000D0690300505E03001D530300344803006C
:10259000913D03003333030016290300381F030065
:1025A00097150300300C0300030303000BFA02002D
:1025B00049F10200BAE802005CE002002DD80200F6
:1025C0002DD0020059C80200B0C0020031B902008B
:1025D000DAB10200AAAA0200A0A30200BC9C020079
:1025E000FA9502005C8F0200DF88020082820200FE
:1025F000457C02002776020027700200436A020031
:102600007C640200D05E02003F590200C853020001
:10261000205200454550524F4D20496E6974696102
:102620006C697A65640A0048617264636F6465640A
:102630002044656661756C742053657474696E67B7
:1026400073204C6F616465640A003B200020204DBC
:10265000363033200020204D34313220530046697B
:102660006C616D656E742072756E6F757420736524
:102670006E736F723A0020550046696C616D656E2D
:1026800074206C6F61642F756E6C6F6164206C6573
:102690006E677468733A0020204D393030204B004B
:1026A0004C696E65617220416476616E63653A00C3
:1026B00020204D3835312058005A2D50726F6265F8
:1026C000204F66667365740020204D3330342050EF
:1026D0000020204D33303120500050494420736594
:1026E0007474696E67733A0020204D3636360045A3
:1026F0006E6473746F702061646A7573746D656E57
:10270000743A00204A0020204732392057204900DF
:1027100020204D3432302053004175746F204265C3
:1027200064204C6576656C696E673A0020204D32F6
:102730003036205800486F6D65206F66667365748B
:102740003A0020204D323035204200416476616EDF
:102750006365643A20423C6D696E5F7365676D65C1
:102760006E745F74696D655F75733E20533C6D696F
:102770006E5F66656564726174653E20543C6D6988
:102780006E5F74726176656C5F66656564726174B4
:10279000653E20583C6D61785F785F6A65726B3E7C
:1027A00020593C6D61785F795F6A65726B3E205A93
:1027B0003C6D61785F7A5F6A65726B3E20453C6D67
:1027C00061785F655F6A65726B3E0020204D323034
:1027D00034205000416363656C65726174696F6E8B
:1027E0002028756E6974732F7332293A20503C701B
:1027F00072696E745F616363656C3E20523C726502
:1028000074726163745F616363656C3E20543C74F1
:10281000726176656C5F616363656C3E0020204D7C
:102820003230312058004D6178696D756D204163FB
:1028300063656C65726174696F6E2028756E69746A
:10284000732F7332293A0020450020204D32303357
:102850002058004D6178696D756D206665656472FC
:10286000617465732028756E6974732F73293A003B
:1028700053746570732070657220756E69743A00C8
:1028800020440020204D3230302053002044697312
:1028900061626C65640A0046696C616D656E7420E6
:1028A00073657474696E67733A0020286D6D290032
:1028B0002020473231202020203B20556E69747340
:1028C00020696E206D6D000000FA430000F04200A8
:1028D00000C0400000F0410000A0420000A0420003
:1028E00000C84314EEC443B80B0000D00700003CFE
:1028F000000000102700002062797465733B20639C
:10290000726320004E6F20454550524F4D2E0A00F5
:10291000454550524F4D206461746173697A65205A
:102920006572726F722E0A002073746F7265642074
:1029300073657474696E6773207265747269657605
:102940006564202800202863616C63756C61746580
:102950006429210A0020213D2000454550524F4D59
:1029600020435243206D69736D61746368202D208C
:102970002873746F726564292000496E6465783A23
:10298000200044494749504F5453204C6F616465BF
:10299000640A0044494749504F5453204C6F6164C6
:1029A000696E670A00204D61726C696E3D5638325F
:1029B000290A00454550524F4D2076657273696F64
:1029C0006E206D69736D61746368202845455052AF
:1029D0004F4D3D006E6F74696669636174696F6E17
:1029E000200000002200250028002B002E003100CE
:1029F000340002010000050108010B010000210064
:102A0000240027002A002D003000330001010000BF
:102A1000040107010A01050505050705080808085E
:102A2000020202020A0A0808040404040101010166
:102A30000101010103030303030303030407070761
:102A40000C0C0C0C0C0C0C0C020202020606060606
:102A5000060606060B0B0B0B0B0B0B0B01021020D3
:102A600020080810204010204080020102010804C4
:102A70000201010204081020408080402010080458
:102A800002018004020180402010080402010804B1
:102A900002010102040810204080010204081020F5
:102AA00040804A3031004A3030004A3233000A4D0B
:102AB00033303020503230302053313536370A4DE4
:102AC00033303020503230302053313137340A4DDA
:102AD00033303020503230302053313536370A4DC4
:102AE00033303020503230302053313137340A4DBA
:102AF00033303020503230303020533135363700CB
:102B00004A3135005374616E6461726420446576A5
:102B1000696174696F6E3A20002052616E67653A90
:102B20002000205369676D613A20004D65616E3A5F
:102B30002000204D393220580020204D61783A2065
:102B40000020204D696E3A2000536F667420656E38
:102B50006473746F70733A200020496E76616C69FB
:102B60006420657874727564657220004265642023
:102B7000583A20005265686561742066696E697311
:102B80006865642E004C6F61642046696C616D65F8
:102B90006E74004E6F7A7A6C65205061726B65645A
:102BA0000050726F62696E67204661696C65640AE5
:102BB0000050726F62696E67204661696C656400DF
:102BC000486F6D65202573257325732046697273E0
:102BD000740048656174657254696D656F75740041
:102BE00046696C616D656E742050757267696E67B9
:102BF0002E2E2E0000000A0B02090C0D0E080703F2
:102C000004010000000000000000000000000000BF
:102C100000000000000000000000000000000000B4
:102C20001211100000000000000000000000000071
:102C3000000000000000000000004361703A002026
:102C4000436F756E7420583A004265640045310048
:102C5000626564002C2073797374656D2073746FE2
:102C60007070656421204865617465725F49443AFB
:102C70002000005072696E742050617573656400A5
:102C8000416E796375626963206933204D656761C0
:102C900020582052656164792E005072696E746903
:102CA0006E672E2E2E00220A00556E6B6E6F776EA9
:102CB00020636F6D6D616E643A20220020453A00FA
:102CC000205A3A0020593A0048E3EFE211241FBE8F
:102CD000CFEFD1E2DEBFCDBF00E00CBF12E0A0E03D
:102CE000B2E0E4E8F2EE01E00BBF02C007900D9203
:102CF000AC3EB107D9F72DE1ACEEB2E001C01D92B8
:102D0000AB33B207E1F716E1C5E6D6E100E006C055
:102D100021970109802FFE010E941DEEC436D107C4
:102D200080E00807A9F70E94B8DB0C9430F10C94FE
:102D300000002F923F924F925F926F927F928F92FC
:102D40009F92AF92BF92CF92DF92EF92FF920F933A
:102D50001F93CF93DF93CDB7DEB7A7970FB6F89445
:102D6000DEBF0FBECDBF8FA32091F7022EA311E0CF
:102D70001093F7028091881C8D3409F4C1C3843507
:102D800011F40C946328873411F00C9488288091F6
:102D9000861C9091871C8C31910509F45BC18CF4E1
:102DA0008430910509F4FDC01CF4029738F1A4C3E6
:102DB0008531910511F40C948A284B9709F430C1A0
:102DC0009BC38A32910509F470C244F48D31910598
:102DD00009F450C14E9709F46BC18EC38B35910530
:102DE00009F4E0C18C35910509F4E1C18A359105FA
:102DF00009F082C31092F6020C948A288091C10ACD
:102E0000813011F00C948A2820E4C22E25E1D22EC4
:102E100038E0E32E32E0F32E49E2A42E4DE1B42E49
:102E200010E088E5810F0E94E690882311F10E944E
:102E3000858E2B013C01812F0E94EACD882351F021
:102E4000F7012081318142815381C301B2010E9487
:102E500026EE09C0F5012081318142815381C301F1
:102E6000B2010E9425EEF601608371838283938311
:102E70000AC0F70180819181A281B381F60180832C
:102E80009183A283B3831F5FF4E0CF0ED11C24E0B3
:102E9000E20EF11C34E0A30EB11C133011F685E4F0
:102EA0000E94E690882301F10E94858E6B017C01CF
:102EB00083E00E94EACD882371F0209114023091C2
:102EC00015024091160250911702C701B6010E94E7
:102ED00026EE6B017C01C0924C15D0924D15E0920C
:102EE0004E15F0924F1510C080911402909115026A
:102EF000A0911602B091170280934C1590934D1536
:102F0000A0934E15B0934F1540E050E0BA0186E40F
:102F10000E94B89420E030E0A9010E94EDEF18165D
:102F200084F40E94858E20E030E040E752E40E9465
:102F3000AEEE609375027093760280937702909361
:102F400078028091E51183FD28C080919D0488233B
:102F500021F12091140230911502409116025091F6
:102F6000170260914C1570914D1580914E159091FE
:102F70004F150E9425EE2091AA043091AB04409198
:102F8000AC045091AD040E9426EE6093AA047093A5
:102F9000AB048093AC049093AD040E9481A00C9488
:102FA0008A2880E50E94E690882329F00E940ED1AD
:102FB0006B017C0103C0C12CD12C760183E50E94FA
:102FC000E690882361F00E94858E20E030E04AE799
:102FD00054E40E94E5E90E9427EF6B017C010E9406
:102FE000BCB08091201C811105C060E08CEC93E0A6
:102FF0000E940AC90E94D3D5C60ED71EE81EF91E2C
:103000000E94D3D5DC01CB018C199D09AE09BF0903
:10301000B7FD02C00C948A2880E00E943252F0CFA3
:103020000E943AD281110C948A288CE0EDE7F2E0FC
:10303000DE01119601900D928A95E1F760E070E053
:1030400080E50E94D1CFBE016F5F7F4F0E9466C4B2
:103050000C948A2880913F158770873011F00C946A
:10306000932860E08FE40E940E9181110C948A28CD
:103070000C9493280E94D3D56093C3127093C4120A
:103080008093C5129093C6120E943AD281110C947B
:103090008A288091241D882311F40C94FE2860E076
:1030A0008FE40E940E9181110C948A280C94FE28C2
:1030B0002091141C3091151C4091161C5091171C26
:1030C000609108027091090280910A0290910B02AE
:1030D0000E9426EEAB01BC0188E50E94B89469838A
:1030E0007A838B839C832091181C3091191C40910A
:1030F0001A1C50911B1C60910C0270910D02809162
:103100000E0290910F020E9426EEAB01BC0189E5F0
:103110000E94B8946D837E838F839887BE016B5F16
:103120007F4FCE0101960E949D8C882311F40C9450
:103130008A2880E00E94ADAA0E9417A461E085E47D
:103140000E940E9121E0482FBE016B5F7F4FCE01A0
:1031500001960E940CD36B017C019B01AC010E9483
:1031600073F0811119C049815A816B817C818CE691
:103170009BE20E9427AF4D815E816F81788580E25E
:1031800099E00E9427AFB701A6018BE199E00E9468
:1031900027AF8AE00E9419450E94FEA30E94F9A56C
:1031A0000C948A288FE08093F6020C948A280EEB08
:1031B000202E02E0302E83E3E82E85E1F82E88E011
:1031C00092E09DA38CA399E2C92E9DE1D92E00E047
:1031D00010E0F10181911F010E94E690882309F41B
:1031E0004AC00E94858E2B013C01133049F0F60144
:1031F00020813181428153810E9425EE2B013C01C7
:10320000ECA1FDA12081318142815381C301B20132
:103210000E9425EE4B015C012DEB37E346E855EBB0
:103220000E94EDEF87FD0AC02DEB37E346E855E33A
:10323000C501B4010E947FE91816ECF4133051F473
:103240004092140250921502609216027092170278
:1032500001E011C0A5019401F701608171818281B3
:1032600093810E9426EEF7016083718382839383AA
:10327000812F0E9475B61F5FF4E0EF0EF11C2CA1A8
:103280003DA12C5F3F4F3DA32CA334E0C30ED11CC6
:10329000143009F09ECF002321F084E192E00E94D7
:1032A0009CB40E94F9A50C948A288091C10A8130AF
:1032B00011F00C948A2889E40E94E690E82E882375
:1032C00021F00E94818E082F01C000E08AE40E9454
:1032D000E690F82E882321F00E94818E182F01C0DD
:1032E00010E0EE2011F0033020F4FF2041F0133005
:1032F00030F085ED93E00E94CDAD0C948A2880E1FA
:10330000E8E0F2E0A0E4B5E101900D928A95E1F7E2
:10331000EE2019F1602F000F770B880B990B0E949C
:1033200086E92091591530915A1540915B155091BD
:103330005C150E94E5E920919B1530919C15409108
:103340009D1550919E150E9426EE60934015709336
:1033500041158093421590934315FF2019F1612F79
:10336000110F770B880B990B0E9486E920915D1550
:1033700030915E1540915F15509160150E94E5E90E
:1033800020919F153091A0154091A1155091A21543
:103390000E9426EE60934415709345158093461560
:1033A0009093471560E080E50E940E918823C1F15B
:1033B000EE20D1F02091141C3091151C4091161C68
:1033C0005091171C609140157091411580914215E4
:1033D000909143150E9425EE60934015709341151E
:1033E0008093421590934315FF20D1F02091181C33
:1033F0003091191C40911A1C50911B1C609144156E
:103400007091451580914615909147150E9425EEC3
:103410006093441570934515809346159093471516
:1034200040E050E0BA0186E40E94B8946B017C0150
:1034300020E030E0A9010E94EDEF18165CF420E0D6
:1034400030E040E752E4C701B6010E94AEEE6B01E6
:103450007C0103C0C12CD12C760180907502909024
:103460007602A0907702B090780220E030E0A901C7
:10347000C701B6010E947FE9882341F0C09275021E
:10348000D0927602E0927702F092780200910602E2
:103490001091070284E690E0909307028093060261
:1034A000C0903302D0903402E0903502F0903602A2
:1034B00080E090E0A0E8BFE3809333029093340271
:1034C000A0933502B09336020E9481A080927502CB
:1034D00090927602A0927702B0927802109307023F
:1034E00000930602C0923302D0923402E092350279
:1034F000F09236020C948A280E94AADB0C948A2847
:103500008091861C9091871C8837910511F40C944A
:103510009C220CF077C18E34910509F4ABC40CF0F9
:103520006EC08A31910509F463C3BCF584319105FD
:1035300009F4D9C27CF48131910509F4C0C22CF49C
:10354000029708F476C20C946028429709F4ABC63F
:103550000C9460288731910509F4FAC294F48531FE
:10356000910509F4F1C2469711F00C9460280E946D
:10357000FD6980910F1C877F806280930F1C0C94E3
:103580008A288831910509F4F8C2499711F00C9402
:1035900060280E940BCF0C948A288F31910509F482
:1035A0003BC47CF48C31910509F483C30CF42EC325
:1035B0008D31910509F485C34E9709F489C30C94A4
:1035C00060288B34910509F447C464F48032910576
:1035D00009F4DFC3C09711F00C9460280E944D835A
:1035E0000C948A288C34910509F43AC48D349105E1
:1035F00011F00C9460280E947D770C948A288C36F8
:10360000910511F40C948A280CF047C0853591057A
:1036100009F47EC64CF58235910509F436C6D4F41A
:103620008135910511F00C9460280E94DE4B0E94B8
:103630007D770E94CDB00E94A94068EE73E080E0E3
:1036400090E00E940FAD60E089E395E00E940AC916
:103650000C948A288335910509F41EC6843591059A
:1036600009F421C60C9460288936910509F406C531
:1036700054F48C35910509F46EC68836910509F429
:103680008BC40C9460288A36910509F40BC58B36DF
:10369000910509F42BC50C9460288137910509F434
:1036A00088C58CF48E36910509F42BC50CF494C4AE
:1036B0008F36910509F438C58037910511F40C94C3
:1036C0008A280C9460288537910509F4E9C60CF026
:1036D0008CC08237910509F4DCC68337910511F05F
:1036E0000C9460288CE996E00E94CDAD60E08CE8F7
:1036F00096E00E949BD760E087E796E00E949BD708
:1037000061E080E796E00E949BD761E085E696E065
:103710000E949BD761E085E596E00E949BD760E020
:103720008CE496E00E949BD761E082E496E00E94E0
:103730009BD761E088E396E00E949BD761E08BEC29
:1037400093E20E949BD761E080E396E00E949BD7C2
:1037500061E082E296E00E949BD760E084E196E01F
:103760000E949BD760E085E096E00E949BD760E0D6
:1037700087EF95E00E949BD760E081EE95E00E9484
:103780009BD761E080ED95E00E949BD761E081ECE2
:1037900095E00E949BD761E08AEB95E00E949BD761
:1037A00060E085EA95E00E949BD760E087E995E0BC
:1037B0000E949BD761E084E895E00E949BD760E07F
:1037C00087E795E00E949BD760E082E795E00E9442
:1037D0009BD761E085E695E00E949BD760E081E59C
:1037E00095E00E949BD70C948A288637910509F4AE
:1037F00068C68737910511F00C9460280E94F9A6DD
:103800000C948A288039E1E09E0711F40C941A2662
:103810000CF07FC08E3C910509F436C7D4F58E3B81
:10382000910509F406C5E4F48D37910509F42AC51C
:103830006CF48937910511F00C9460281092AF0454
:103840001092AE040E946AA70C948A288C389105C5
:1038500009F4D1C48B39910509F4EEC40C946028A5
:103860008B3C910509F4D7C654F4883C910509F4C2
:103870006AC6893C910509F4ABC60C9460288C3C5F
:10388000910509F4E7C68D3C910509F4EDC60C9449
:103890006028823221E0920711F40C947424C4F45D
:1038A0008C3D910509F40DC74CF4833D910511F051
:1038B0000C9460280E94E4CF0C948A288D3D9105D9
:1038C00009F426C78831914009F477C70C94602821
:1038D0008E32F1E09F0711F40C94D3256CF48C32F6
:1038E00031E0930711F40C94CB248D32914011F404
:1038F0000C94E0240C9460288F32F1E09F0711F4BF
:103900000C9417268033914011F40C9460250C948C
:103910006028873F31E0930711F40C9412270CF0D4
:1039200040C0843AF1E09F0711F40C943626B4F4B9
:10393000823931E0930711F40C94272614F40C9487
:103940001D268A39F1E09F0711F40C948A288C39DE
:10395000914011F40C942C260C946028843F31E0A3
:10396000930711F40C940C276CF4853AF1E09F074F
:1039700011F40C9439268C3A914011F40C94AF2632
:103980000C946028853F31E0930711F40C940F27C5
:10399000863F914011F00C9460280E94CDB80C94A1
:1039A0008A288335F3E09F0711F40C94CC270CF59B
:1039B000883532E0930711F40C9438276CF4883F73
:1039C000F1E09F0711F40C941A278C30924011F407
:1039D0000C942B270C9460288B3532E0930711F45C
:1039E0000C943B278A39924011F40C94B3270C9421
:1039F0006028803AF3E09F0709F400C26CF48C362B
:103A000033E0930711F40C948A288438934011F41E
:103A10000C94CF270C946028873EF3E09F0711F4A5
:103A20000C943828893E934011F40C9446280C9449
:103A3000602880E50E94E690882329F00E940ED13C
:103A40006B017C0103C0C12CD12C760183E50E945F
:103A5000E690882361F00E94858E20E030E04AE7FE
:103A600054E40E94E5E90E9427EF6B017C010E946B
:103A7000BCB08091841C9091851C009719F00E9425
:103A8000C2D104C087E094E00E9485C98091861C61
:103A90009091871C892B19F066EF73E002C06EEEDF
:103AA00073E020E030E04EEF53E082E00E944EAE43
:103AB00040E0C701B6010E945D400C948A288091C5
:103AC000D81284FF02C00C9401298091DA1287FF7A
:103AD00002C00C9401298091DB12837011F00C94C8
:103AE00001290C941E2980910F1C83FF25C082E3BD
:103AF00094E00E94CDAD80910F1C83FF17C084E637
:103B000098E10E94007C8BE1E4E6F8E1DE01119689
:103B100001900D928A95E1F760E070E0CE01019688
:103B20000E94016ECE0101960E94057C83E294E022
:103B30000E94CDAD0C948A280E9428B083E494E0C2
:103B40000E94CDAD0C948A280E94B26A0C948A28F7
:103B5000E091841CF091851C8081882329F08032BB
:103B600009F410823196F8CF60E08091841C909126
:103B7000851C0E94E96C0C948A288091D11C8823B2
:103B8000F9F080E090E0A0E7B2E488A399A3AAA3AB
:103B9000BBA31C8E1D8E1E8E1F8E19821A821B8245
:103BA0001C8200E010E020E0AE01405E5F4FBE01ED
:103BB000645E7F4FCE0101960E9423910C948A2867
:103BC0000E949B40882321F00E940E6A0E94157774
:103BD00061E089EE9AE00E94DCAD42ED5AE06DE4CE
:103BE00074E085E00E94B8CD0E9432D90C948A28F6
:103BF00080910F1C83FD02C00C948A2883E50E94EB
:103C0000E69081110C942D290C948A2883E40E945B
:103C1000BC8E882319F183E694E00E94CDAD80919B
:103C20000E18882391F0BE016F5F7F4F8BE098E103
:103C30000E94C77A8E010F5F1F4FF80181918F019B
:103C4000882339F00E941945F8CF89E594E00E9455
:103C5000CDAD8AE00E9419450C948A2880910F1CF2
:103C600082FF21C082E794E00E94CDAD60910B1CE1
:103C700070910C1C80910D1C90910E1C4AE00E94CA
:103C800069458FE20E9419456091071C7091081CDC
:103C90008091091C90910A1C4AE00E9469450E948B
:103CA00067460C948A2884E894E00E94CDAD0C9479
:103CB0008A288091841C9091851C0E949F6C0C9492
:103CC0008A2880910F1C8E7F80930F1C0C948A2869
:103CD00080910F1C83FD02C00C948A280E9490DB07
:103CE00080910F1C83FD02C00C948A284091841C93
:103CF0005091851CBE01645E7F4F80E00E9460D9B8
:103D00008C01009711F40C948A286C8D7D8D19829A
:103D10001C8222E0AC01CE0101960E94B480811188
:103D200002C0F12C14C0CE0101960E9468CC8823F9
:103D3000C1F361E0CE0101960E94AB7A009789F34E
:103D400025EEFC0120831C820E94F56EF82ECE0128
:103D500001960E94057CB801FF2089F08DEA94E06D
:103D60000E9445AF8AE00E94194510920B1C1092E8
:103D70000C1C10920D1C10920E1C0C948A2885E9C4
:103D800094E00E9445AF83EE9EE10E94CDAD0C947D
:103D90008A2880910F1C82FD0E94BCB080910F1C6C
:103DA00083FD02C00C948A2860E080E50E940E9199
:103DB000182F682F8091841C9091851C0E94E96CBB
:103DC00083E50E94E690882381F00E944D8EAB012E
:103DD000BC0140930B1C50930C1C60930D1C709302
:103DE0000E1C8BE098E10E941B710E940E6A11115B
:103DF0000C948A280E9415770C948A282091841CA0
:103E00003091851C90910F1C926090930F1CC901FA
:103E10000E949F6C0C948A280E9498A76C8F7D8FBB
:103E20008E8F9F8FBE016F5F7F4FCE014C960E9499
:103E30004E9C60E0CE0101960E944CC90E9428B0C1
:103E4000BE016F5F7F4F8BEB94E00E9445AF8AE02D
:103E50000E9419450C948A280E9415770C948A2890
:103E60008091D21C813011F00C948A280E9479A78D
:103E70000C948A2860E070E083E50E94F3908E3411
:103E8000910531F40E9400780E9432D90C948A285E
:103E90008EE195E00E94CDAD60919E0470919F04EB
:103EA00085E195E00E941AAF6091A0047091A10491
:103EB00088E095E00E941AAF60919E0470919F0483
:103EC0008091A0049091A104681B790B8091D21C71
:103ED000815021E030E0823010F020E030E0621BC1
:103EE000730B8DEF94E00E941AAF8AE00E9419458F
:103EF0008EE195E00E94CDAD8091A2049091A30443
:103F0000A091A404B091A5048C8F9D8FAE8FBF8F1C
:103F1000BE016F5F7F4FCE014C960E944E9CBE014A
:103F20006F5F7F4F80EF94E00E9445AF8091A604C1
:103F30009091A704A091A804B091A9048C8F9D8FA3
:103F4000AE8FBF8FBE016F5F7F4FCE014C960E9438
:103F50004E9CBE016F5F7F4F80EE94E00E9445AFA4
:103F600020E030E04AE754E46091AA047091AB0489
:103F70008091AC049091AD040E94AEEEAB01BC0107
:103F800088EC94E00E9427AF8DE60E9419458AE0F4
:103F90000E9419450C948A288091E51183FF02C084
:103FA0000C948A280E94C1CD87FF02C00C948A28F5
:103FB00083E50E94E690882359F00E94858E0E9436
:103FC00020EFCB010E94A58161E080E00E948D4B33
:103FD0000E9409E30C948A288091E51183FF02C0B6
:103FE0000C948A280E94C1CDF82E87FF02C00C9441
:103FF0008A2883E50E94E690182F811107C082E588
:104000000E94E690811102C000E02CC00E94858EC3
:104010000E9420EFCB010E94A58161E081E00E9417
:104020008D4B6091EF157091F015072E000C880BE9
:10403000990B0E9486E94B015C014090EB15509072
:10404000EC156090ED157090EE15A30192010E94A1
:10405000EDEF181614F40C945829112311F40C9454
:104060003E2901E00E9409E3002311F40C948A2800
:10407000612F8F2D0E94B5810C948A280E94C1CD9A
:10408000182F87FD0AC08AE690E20E94CDAD812FED
:104090000E94F1488AE00E941945FEA1F093F702C0
:1040A0000C942E2B60E080E50E94029181110C940B
:1040B0008A2881E40E94BC8E882321F06091BF157C
:1040C000062F02C00FEF10E083E50E94E6908823E0
:1040D00049F00E944D8E8B016F3F710519F010F071
:1040E0000FEF10E00093BF150C948A2860E080E584
:1040F0000E94029181110C948A281092BF150C9491
:104100008A288EE40E94E690882311F40C948A2871
:104110000E944D8E6093E5147093E6148093E7142B
:104120009093E8140C948A2883E50E94BC8E88231F
:1041300031F060E083E50E9402918093E5110E94D6
:1041400028B08BE295E00E94CDAD8091E5118823E7
:1041500069F111E0E12E19E0F12E00E010E020E01D
:104160008091E51190E0A0E0B0E0002E04C0B6958B
:10417000A795979587950A94D2F780FF0EC0DD2406
:10418000D394D20E222319F08CE20E941945F70134
:10419000859194910E94CDAD2D2D0F5F1F4F32E080
:1041A000E30EF11C05301105D9F653CD8EE89AE1E6
:1041B0004ECD83E50E94E690882371F00E945D8ECB
:1041C000282F30E02D3331051CF480930002A2C764
:1041D0008CE3809300029EC70E9428B040910002A9
:1041E00050E060E070E082E395E00E9409AF8AE071
:1041F0000E9419458FC78091E51183FD8BC783E528
:104200000E94E690882309F485C70E94858E0E944B
:1042100020EF6837710514F068E770E07093C915F6
:104220006093C8150E94A64B61E080E00E948D4B10
:1042300071C70E94719A6EC783E50E94E690882339
:1042400009F468C70E945D8E182F90E0CD970CF09E
:104250001CE31093F0020E94D3D56B017C01212F47
:1042600030E0A8EEB3E00E94DAEDC60ED71EE81EDD
:10427000F91EC092EC02D092ED02E092EE02F092B2
:10428000EF0248C70E940BCF45C78091F6028F7D91
:1042900080618093F6023EC78091F6028F7E806235
:1042A0008093F60237C783E50E94E6908823E9F001
:1042B0000E94D3D56093C3127093C4128093C51229
:1042C0009093C6120E94858E20E030E04AE754E4C5
:1042D0000E94E5E90E9427EF6093010270930202B9
:1042E000809303029093040215C78091D81284FF33
:1042F00002C00C945B298091DA1287FF02C00C94F3
:104300005B298091DB12837009F0D5C70C948D294D
:1043100083E50E94BC8E882309F4FCC60E94D3D595
:104320006093C3127093C4128093C5129093C61207
:104330000E94858E20E030E04AE754E40E94E5E9DF
:104340000E9427EF6093F1027093F2028093F302D0
:104350009093F402DFC60E94C1CD87FDDBC6909129
:10436000D81294FD04C09091DA1297FF0AC0AEEB08
:10437000CA2EA2E0DA2EB6EEEB2EB1E1FB2E10E053
:1043800009C09091DB12937091F7682F81E00E9431
:10439000D3D0C0C6F60181916F010E94E6908823B8
:1043A00009F46DC0133009F063C00E94858E4B0183
:1043B0005C0120E030E040EA51E40E947FE987FFA1
:1043C0004EC0A50194016091061270910712809170
:1043D0000812909109120E94AEEE2B013C019B0144
:1043E000AC016091AA0B7091AB0B8091AC0B9091DA
:1043F000AD0B0E94E5E96093AA0B7093AB0B809321
:10440000AC0B9093AD0BA3019201609116127091C9
:10441000171280911812909119120E94E5E9609389
:1044200016127093171280931812909319126091BC
:10443000960B7091970B8091980B9091990B0E941D
:1044400084E9A30192010E94E5E90E9427EF6093AD
:10445000960B7093970B8093980B9093990B809287
:10446000061290920712A0920812B092091207C089
:104470000E94858EF701648B758B868B978B1F5FEF
:10448000F4E0EF0EF11C143009F084CF0E9465793E
:1044900041C60E94AEDA86E099E10E94CAD83AC6C7
:1044A0008091841C9091851C009741F0FC01208133
:1044B000222321F060E00E944CC92CC60E9432D910
:1044C00029C60091841C1091851C94E0F12C40E0D9
:1044D000915029F1F8018081282F2B7F213421F47C
:1044E00021812133E1F408C08035C9F4F8018181CC
:1044F00080538A3048F013C0813421F0853421F490
:1045000041E002C0FF24F39498012E5F3F4F8901E0
:104510002F5F3F4FF80180818032C9F3D9CF41111D
:104520000E9428B0FF2021F08AE797E00E94CDADDD
:10453000C8010E946D46EEC51093AF041093AE04FF
:104540000E946AA7E7C50E94C1CD182F87FDE2C56A
:104550000091951584E40E94E690882309F4E0C652
:104560000E94858E6B017C0120E030E0A9010E9451
:104570007FE9882339F124E01202F0011124EF567B
:10458000FA4EC082D182E282F38220E030E0A901BB
:104590006091911570919215809193159091941559
:1045A0000E947FE981110CC080E090E0A0EEBFE3A3
:1045B0008093911590939215A0939315B0939415B1
:1045C00001E0AEC680E0809395150E9416B1A2C5A9
:1045D0000E94C1CD87FD9EC5FEEBEF2EF2E0FF2EBF
:1045E00006EE11E1F70181917F010E94BC8E8823C4
:1045F00059F00E94858E0E9427EFF8016083718335
:10460000828393830E9475B00C5F1F4FF1E1063FD8
:104610001F0741F77FC50E94C1CD87FD7BC5EEEB2B
:10462000EE2EE2E0FE2E06EE11E1F70181917F0110
:104630000E94BC8E882339F00E94858EF80164A305
:1046400075A386A397A30C5F1F4FF1E1063F1F07D9
:1046500061F760C58091D91287FD67C68091DA1233
:104660008E7009F062C6A7C68091D812827109F0D7
:10467000CAC68091DA128C7809F0C5C68091DB1227
:10468000837009F0C0C646C571EBE72E74E0F72EC3
:1046900010E088E5810F0E94BC8E882351F00E94B3
:1046A000858EF7016083718382839383812F0E94BB
:1046B00075B61F5FF4E0EF0EF11C133051F70C9448
:1046C000511983E50E94E690882331F00E94818E83
:1046D00090930702809306028091D8129091D9128C
:1046E000A091DA12B091DB12892B8A2B8B2B09F067
:1046F00011C5609106027091070280EC97E00E945C
:1047000038AF85E20E9419458AE00E94194502C52A
:104710000E94C1CDF82E87FDFDC483E50E94E6907E
:104720000F2D0F2C000C110B882361F10E94818E3C
:10473000F801EE0FFF1FE259FD4F91838083000FB8
:10474000111F000F111F98012D5C3D4F7901BC0115
:10475000990F880B990B0E9486E92AE037ED43E216
:104760005CE30E94E5E9F801E05BFA4E20813181CB
:10477000428153810E94E5E9F7016083718382835E
:104780009383C8C40E9428B085E40E94194580E341
:104790008F0D0E941945000F111FF801E259FD4FBE
:1047A0006081718184EC97E00E9438AF85E20E94BD
:1047B00019458AE00E941945ADC480E50E94BC8E6F
:1047C000882309F4A7C40E94818E8C01892B09F0EB
:1047D0007FC083E50E94BC8E882389F00E94818E71
:1047E0008F3FFFEF9F0729F48AED98E10E94AC40CC
:1047F00091C4BC018AED98E10E946C418BC40E9477
:1048000028B060E070E08CEC97E00E9438AF8091B7
:10481000DC1828E532E06901C81AD10887FDD39475
:10482000CC0CDD1CCC0CDD1C0D2C000CEE08FF08A4
:104830008091DB1828E830E04901881A910887FD4B
:104840009394880C991C880C991C092C000CAA08BC
:10485000BB088091DA188F3FC1F090E0FC01EE0FA9
:10486000FF1F8E0F9F1FFC01EF56F74E21813281F3
:1048700083E0220F331F8A95E1F794E03695279560
:104880009A95E1F72E5F3F4F02C020E030E02F5FA6
:104890003F4FC901330FAA0BBB0B9C01AD01281977
:1048A00039094A095B09A4EBB0E00E94C7EDA701F2
:1048B0009601281939094A095B090E94A8EDB90136
:1048C00087EB98E00E9438AF8AE00E94194522C425
:1048D0000E9458AFB8018DEC97E00E9438AF8FED81
:1048E00093E00E94CDAD16C48AE50E94E690811146
:1048F00006C083E50E94E690882309F440C00E9428
:10490000858E20E030E040E050EC0E947FE987FD9A
:10491000F7C50E94858E20E030E040E050E40E9420
:10492000EDEF18160CF4E6C50E94858E6B017C0134
:1049300084E00E946EA0811122C020910212309169
:1049400003124091041250910512C701B6010E9452
:10495000E5E90E9420EF2091F8023091F902260F3C
:10496000371F3093F9022093F8022091D30A309137
:10497000D40A620F731F7093D40A6093D30A809194
:10498000DA1287FDC3C58091DB12837009F0BEC5C2
:104990000E9428B0BFC364E071E083E50E94D1CFDC
:1049A0008C0168EE73E080E50E94D1CF893823E165
:1049B000920710F088E893E1B8010E94DDC8AAC30D
:1049C00060E085E40E940291811173C080E50E943D
:1049D000BC8E882351F00E94858E6093F2157093EF
:1049E000F3158093F4159093F51589E40E94BC8E1D
:1049F000882381F00E94858E2CEA35EC47E25EE345
:104A00000E94E5E96093F6157093F7158093F81509
:104A10009093F91584E40E94BC8E882381F00E9453
:104A2000858E2CEA35EC47E25EE30E94AEEE6093A1
:104A3000FA157093FB158093FC159093FD150E9459
:104A400028B04091F2155091F3156091F4157091D2
:104A5000F5158CED97E00E9427AF2CEA35EC47E284
:104A60005EE36091F6157091F7158091F8159091BD
:104A7000F9150E94AEEEAB01BC0188ED97E00E94F3
:104A800027AF2CEA35EC47E25EE36091FA157091AE
:104A9000FB158091FC159091FD150E94E5E9AB0195
:104AA000BC0184ED97E00E9427AF8AE00E9419457F
:104AB00031C30E9458AF80EE97E00E94CDAD2AC36B
:104AC00080E50E94BC8E882351F00E94858E609301
:104AD000CB157093CC158093CD159093CE1589E4AA
:104AE0000E94BC8E882381F00E94858E2CEA35ECD2
:104AF00047E25EE30E94E5E96093CF157093D0151D
:104B00008093D1159093D21584E40E94BC8E8823A3
:104B100081F00E94858E2CEA35EC47E25EE30E942C
:104B2000AEEE6093D3157093D4158093D515909302
:104B3000D6150E9428B04091CB155091CC156091AC
:104B4000CD157091CE158CED97E00E9427AF2CEA21
:104B500035EC47E25EE36091CF157091D0158091FE
:104B6000D1159091D2150E94AEEEAB01BC0188ED3B
:104B700097E00E9427AF2CEA35EC47E25EE36091B4
:104B8000D3157091D4158091D5159091D6150E94AA
:104B9000E5E9AB01BC0184ED97E00E9427AF8AE014
:104BA0000E941945B7C283E50E94BC8E182F882346
:104BB00071F00E94858E0E9420EF709338026093FE
:104BC000370221E0672B09F020E02093BE0B80E53F
:104BD0000E94BC8E882359F0209137023091380210
:104BE000232B11F00E94718E8093BE0B93C2111182
:104BF00091C20E9428B08BE098E00E94CDAD8091D8
:104C0000BE0B882319F081E192E202C082EF97E0A7
:104C10000E94CDAD60913702709138028AEF97E023
:104C20000E9438AF86EF97E00E94CDAD73C20E941C
:104C3000CF9470C20E94BCB06DC28091131C8111D0
:104C40000C94511981E00E9452760C9451190E94E3
:104C500044830E94F9A55EC28091D81287FD71C479
:104C60008091DA12867009F06CC456C40E940A8FD3
:104C700051C26FEF7FEF89E40E94F390082F6FEF2E
:104C80007FEF8AE40E94F390182F8AE50E94E69055
:104C9000811108C081E50E94E690B82E882309F4AE
:104CA00070C401C0B12CA02E81E0800F843008F0C8
:104CB0004FC0912E81E0810F843008F049C00E94DE
:104CC000858E2B013C01F02E07FDF12C07FF02C061
:104CD000A2E0AA2E812E17FD812C17FF02C0F2E060
:104CE0009F2EAF1408F416C2E82C8F2D90E06C01B3
:104CF000CC0CDD1CC80ED91E9E1440F10E2D10E008
:104D0000BB2071F0F601E00FF11FEE0FFF1FEE0F59
:104D1000FF1FE359FA4E208131814281538103C044
:104D200020E030E0A9010C0D1D1D000F111F000F28
:104D3000111F03591A4EC301B2010E9426EEF80159
:104D40006083718382839383E394D6CFF394C9CF36
:104D50000E9458AF85ED93E00E94CDADDBC10E946B
:104D60003AD28111D7C10AE11CE128E032E03DA32B
:104D70002CA3CE0101961C0141E5C42E44E2D42EA1
:104D80007C01F8016591759185919491ECA1FDA14B
:104D900081909190A190B190FDA3ECA3A501940105
:104DA0000E9425EE2B013C01F70160837183828311
:104DB000938320E030E040EA51EC0E94EDEF87FD64
:104DC0000AC020E030E040EA51E4C301B2010E9491
:104DD0007FE918162CF4F601849118160CF4D8C348
:104DE000F70181909190A190B1907F0120E030E097
:104DF00040EA51ECC501B4010E94EDEF87FDD2C33A
:104E000020E030E040EA51E4C501B4010E947FE9AE
:104E100018160CF0D9C3C6C30E94B2717BC10E94A0
:104E20004CBA78C161E083E50E940E9181270E940F
:104E300062BA70C181E0809354150E94A0BD1092A7
:104E40005415882309F466C10E9428B08BE898E0C5
:104E50000E94CDAD5FC180910F1C82FF04C08064B1
:104E600080930F1C57C183FF55C10E9490DB52C134
:104E70000E9403CE4FC10E94C1CD082F87FD4AC1B9
:104E800085E50E94BC8E8823A9F1E02E002E000C3F
:104E9000FF080E94858E4B015C0120E030E0A901F3
:104EA0000E94EDEF87FF04C0B7FAB094B7F8B09452
:104EB000C70123E0880F991F2A95E1F79C012F591C
:104EC0003A4E7901F90180829182A282B38220E078
:104ED00030E046E154E4C501B4010E94EDEF18163C
:104EE0004CF480E090E0A6E1B4E4F7018083918384
:104EF000A283B3838CE40E94BC8E882309F40AC188
:104F0000002E000C110B0E94858E6B017C0120E0AD
:104F100030E0A9010E94EDEF87FF04C0F7FAF0949A
:104F2000F7F8F09420E030E046E154E4C701B60120
:104F30000E94EDEF980193E0220F331F9A95E1F75D
:104F4000F901EF59FA4E18162CF0C482D582E68288
:104F5000F782E0C080E090E0A6E1B4E4848395832A
:104F6000A683B783D7C08AE50E94E690882351F0D4
:104F70000E94858E6093691570936A1580936B15F6
:104F800090936C158091DA1287FDC4C08091DB127A
:104F9000837009F0BFC04EC30E942F9EBBC0A0907B
:104FA000BF0BB090C00BC090C10BD090C20B8BE474
:104FB0000E94E690882339F10E94858E7B018C0146
:104FC00020E030E0A9010E94EDEF87FD0AC020E05B
:104FD00030E040E251E4B701C8010E947FE91816B1
:104FE000A4F48FE30E9419458BE40E94194582ECDA
:104FF00098E00E94CDAD8AEB98E00E94CDAD83EEA3
:105000009EE10E94CDAD750186019701A801B50111
:10501000C6010E947FE9882361F00E94BCB0C701ED
:10502000D8018093BF0B9093C00BA093C10BB0939A
:10503000C20B8091D8129091D912A091DA12B0913E
:10504000DB12892B8A2B8B2B09F064C00E9428B0BD
:105050004091BF0B5091C00B6091C10B7091C20B7E
:1050600086ED98E00E9427AF8AE00E94194552C061
:1050700081E08093C10A1092601C60E083E50E9489
:105080000E91811147C00E94789D44C00E9498A74C
:105090006D3371058105910520F08DEF98E00E9438
:1050A000B5D789EF98E00E94B5D785EE98E00E94C9
:1050B000CDAD81EE98E090930A18809309182AC02C
:1050C0000E94AADB27C00091861C1091871C0E94B9
:1050D000D3D56093C3127093C4128093C51290937A
:1050E000C6120023B9F00E9428B084E50E94194539
:1050F000B8017727072E000C880B990B0E94D64524
:1051000080E20E94194580EE97E00E94CDAD02C07A
:105110000E94AADBFFA1F11102C00E94689D2EA18E
:105120002093F7029BC20E94BCB01092470280E01D
:105130000E94ADAA0E94D3D56093C3127093C4128B
:105140008093C5129093C6120E9417A481E08093A9
:10515000AF040E946AA78AE50E94BC8EF82E88E5FB
:105160000E94BC8E182F89E50E94BC8E181344C083
:10517000F11611F0012F04C001E011E0FF24F394B7
:1051800082E50E94E690882319F00E94858E04C073
:1051900060E070E080EA90E469837A838B839C838B
:1051A00020E030E0A9010E947FE9882341F011113D
:1051B00002C0002371F0CE0101960E9491D211230A
:1051C00019F080E00E9495B6002319F081E00E945A
:1051D00095B6FF2031F080E00E9452AD82E00E943F
:1051E00095B60E94F7A58091AE048093AF040E940B
:1051F000FEA30E94F9A58ECF082FC2CF0E9432874E
:1052000089CF88E50E94BC8E81115F9889E50E9454
:10521000BC8E81118A988AE50E94BC8E882331F069
:1052200080910801817080930601479885E40E946F
:10523000BC8E882309F46ECF12986CCF60E08AE1AF
:1052400094E00E940AC95F988A9880910801817051
:1052500080930601479812985DCF0E944D8EAB0156
:10526000BC0140930B1C50930C1C60930D1C70935D
:105270000E1C8BE098E10E941B714CCFA3019201A0
:10528000C501B4010E94EDEF181694F08EE890E28B
:105290009F938F9386E295E09F938F931F920E9436
:1052A000F6D20F900F900F900F900F900C9431202A
:1052B0008DE990E2EDCF0E94BCB088E50E94BC8EE3
:1052C000882331F05F9A8091121C8E7F8093121C8C
:1052D00089E50E94BC8E882331F08A9A8091121C45
:1052E0008D7F8093121C8AE50E94BC8E882361F01A
:1052F000809108018095817080930601479A809182
:10530000121C8B7F8093121C85E40E94BC8E882324
:1053100009F400CF0E943B40FDCE0E94CDB0FACEF2
:10532000602F83E50E940E914EC983E50E94E690AE
:10533000882391F00E94858E60931A1270931B123D
:1053400080931C1290931D1260932212709323126B
:10535000809324129093251280E50E94E690882382
:1053600051F00E94858E60931A1270931B128093E5
:105370001C1290931D1282E50E94E690882351F042
:105380000E94858E60931E1270931F1280932012CC
:105390009093211284E50E94E690882309F4BACE06
:1053A0000E94858E609322127093231280932412A0
:1053B00090932512AFCE40911A1250911B1260911A
:1053C0001C1270911D128EE797E00E9427AF40914A
:1053D0001E1250911F12609120127091211280E1D3
:1053E00096E20E9427AF40912212509123126091C1
:1053F00024127091251288E99FE10E9427AF8AE06C
:105400000E94194587CE82E40E94BC8E882351F009
:105410000E940ED16093F6117093F7118093F811EA
:105420009093F91183E50E94BC8E882351F00E946D
:10543000858E609326127093271280932812909382
:10544000291284E50E94BC8E882351F00E94858E2B
:1054500060932A1270932B1280932C1290932D122A
:1054600088E50E94BC8E882351F00E94858E60934F
:105470009E0B70939F0B8093A00B9093A10B89E5DB
:105480000E94BC8E882351F00E94858E6093A20BEF
:105490007093A30B8093A40B9093A50B8AE50E94B5
:1054A000BC8E8823B1F00E94858E6093A60B70930A
:1054B000A70B8093A80B9093A90B2DEC3CEC4CEC24
:1054C0005DE30E947FE9181624F08EE897E00E94C1
:1054D000CDAD85E40E94BC8E882309F41BCE0E94CA
:1054E000858E6093AA0B7093AB0B8093AC0B90935B
:1054F000AD0B10CEC12CD12CE12C10E4F12E18CA2A
:10550000C12CD12CE12CB0ECFB2E12CA82E50E94FA
:10551000BC8E81113DCAFECD0E9428B08EE198E07C
:105520000E94CDAD80917002811108C088E996E09B
:105530000E94CDAD8AE00E941945ECCD86EB93E048
:10554000F7CF88E40E94BC8E882321F00E94718EE0
:105550008093F50282E50E94BC8E082F83E50E94AD
:10556000BC8E182F011103C0882309F4D3CD0E94EB
:105570002CB0112309F4CECD0E94718E809370025D
:10558000C9CD0E9458AF8FE298E00E94CDADC2CD48
:10559000B7FAB094B7F8B094F70180829182A282F2
:1055A000B3821ECC0E9458AF8DE698E00E94CDAD2C
:1055B00061E08FE598E00E940AC968E270E088EC3B
:1055C00090E00E94DDC8A6CD0C5F1F4FFFEFCF1A01
:1055D000DF0A26E23CE12017310709F0D2CB31EB9C
:1055E000E32E34E0F32E10E0F10181919191A1912D
:1055F000B1911F01F70181939193A193B1937F0121
:10560000812F0E9475B61F5F133071F70E94F9A5B4
:1056100060E08FE498E00E940AC963E972E084E6E2
:1056200090E00E94DDC86AEB72E084E690E00E94A0
:10563000DDC870CD8BE998E00E94CDAD4091691531
:1056400050916A1560916B1570916C1586E998E020
:105650000E9427AF8AE00E9419455CCDA7960FB63D
:10566000F894DEBF0FBECDBFDF91CF911F910F9198
:10567000FF90EF90DF90CF90BF90AF909F908F9072
:105680007F906F905F904F903F902F9008952F9252
:105690003F924F925F926F927F928F929F92AF92C2
:1056A000BF92CF92DF92EF92FF920F931F93CF930F
:1056B000DF93CDB7DEB7C854D1090FB6F894DEBF7B
:1056C0000FBECDBF0E94D3D50091850310918603F4
:1056D00020918703309188036B017C01C01AD10AA5
:1056E000E20AF30AF7FC4EC0DC01CB0188519C4F63
:1056F000AF4FBF4F8093850390938603A09387039A
:10570000B09388038091B61A9091B71A0497D1F597
:10571000C0900802D0900902E0900A02F0900B02BB
:1057200026E636E646E050ECC701B6010E94EDEFF2
:1057300087FD28C023E333E343EF5FEBC701B601E6
:105740000E947FE91816F4F0C0900C02D0900D0270
:10575000E0900E02F0900F022DEC3CEC4CEC5DEB77
:10576000C701B6010E94EDEF87FD0CC02DEC3CECAB
:105770004CEC5DE3C701B6010E947FE9181614F0F6
:105780000C94BB338091AA1A9091AB1A039794F5AD
:105790009E012F5F3F4F19018E01095D1F4F6CE382
:1057A000462E512C612C712C80914303909144031F
:1057B000891B8F73F9F08091AA1A9091AB1A049704
:1057C000CCF49091430380914403981779F1E82F2A
:1057D000F0E0ED5BFC4F22818F5F8F738093440379
:1057E0002093B01A8091B11A9091B21A2A3001F523
:1057F000009739F58091AA1A9091AB1A009711F48D
:105800000C94113401979093AB1A8093AA1A80914B
:10581000AC1A9091AD1A019664E070E00E9409EE16
:105820009093AD1A8093AC1A0C9411342FEFD8CF0B
:105830002D30F1F22A33E1F28F3591050CF4BAC51F
:10584000D7CF2091AE1A3091AF1A40E6429F600147
:10585000439FD00C1124D601A65DB64E7D01FD01FB
:10586000E80FF91F108261E470E0CD010E94F6F0AC
:10587000009709F484C59093B41A8093B31A8E19D3
:105880009F098C0D9D1D60E070E0855D964E0E9425
:1058900009E50E9420EFCB01770FAA0BBB0B8232E8
:1058A000910508F06CC5FC018827EE58FF4F8F4F1B
:1058B0000C941DEEC090EB15D090EC15E090ED151A
:1058C000F090EE1589E69DE00EC06091EF157091A5
:1058D000F015072E000C880B990B0E9486E96B01CE
:1058E0007C0184E69DE00E9401CA20E030E040E0B7
:1058F0005FE3C701B6010E9426EE0E9420EFCB01B4
:105900000E94E7A70E9424CA3AC5C090C415D0904F
:10591000C515E090C615F090C7158FE59DE0E3CF63
:105920006091C8157091C915072E000C880B990B52
:105930000E9486E96B017C018AE59DE0D4CF8091CD
:10594000BF15B4E68B9FC001112481589F4F6FEFA4
:1059500070E00E9409EE70E080E090E00E9484E92F
:105960006B017C0120E030E048EC52E40E94EDEF56
:10597000181634F4C12CD12C58ECE52E52E4F52E37
:1059800085E59DE00E9401CAC701B601B6CFC0906F
:105990000802D0900902E0900A02F0900B022996CA
:1059A000CCAEDDAEEEAEFFAE299780900C029090AB
:1059B0000D02A0900E02B0900F02C0901002D09085
:1059C0001102E0901202F09013028DE49DE00E941B
:1059D00001CA42E029966CAD7DAD8EAD9FAD299791
:1059E0000E94724380E299E00E9401CA42E0C50130
:1059F000B4010E9472438BE199E00E9401CA42E027
:105A0000C701B6010E9472438FE491E2B6C40E94BE
:105A1000C3C9882309F456C088E49DE00E9401CAE6
:105A20000E94B7C9882309F44AC00E949B4088237A
:105A300051F18091071C9091081CA091091CB09114
:105A40000A1C0097A105B105F1F0BC01CD016D590B
:105A50007F4F8F4F9F4F24E630E040E050E00E94A0
:105A600086ED60910B1C70910C1C80910D1C909127
:105A70000E1C0E9486ED243638F0822F64E60E94C8
:105A8000E9ED805D02C020E080E280933F032A3090
:105A900048F03AE0822F632F0E94E9ED0E94E9ED81
:105AA000905D01C090E290934003822F6AE00E94D3
:105AB000E9ED905D909341038FE393E023CF8DE375
:105AC0009CE05BC480E49DE058C40E9498A74B0111
:105AD0005C018BE39DE00E9401CA81149104A10442
