:100000000C94EB110C941C120C941C120C941C12EA
:100010000C941C120C941C120C941C120C941C12A8
:100020000C941C120C941C120C941C120C941C1298
:100030000C941C120C9424600C941C120C941C1232
:100040000C941C120C944CA30C941C120C941C12B7
:100050000C941C120C941C120C9476610C94857DEB
:100060000C941C120C946E330C9464330C941C127C
:100070000C941C120C941C120C941C120C941C1248
:100080000C94F02B0C941C120C941C120C941C124B
:100090000C941C120C941C120C941C120C941C1228
:1000A0000C941C120C941C120C94C22B0C941C1259
:1000B0000C941C120C941C120C941C120C941C1208
:1000C0000C941C120C941C120C941C120C941C12F8
:1000D0000C941C120C941C120C949F2D0C946A2DE1
:1000E0000C941C122A5A355A555A605A6F5A975A0C
:1000F000EB5DD75AEB5DEB5DEB5DEB5D235BEB5DA1
:10010000EB5DEB5D2A5B735B9D5BD35BDE5B0F5C42
:10011000145C755D9E5DC75DEB5DEB5DD85DEB5D71
:10012000EB5DEB5DEB5DE35DC37AC87ACD7AD77AA0
:10013000E17A5A7BEB7AF37AFB7A057B0F7B197BAA
:10014000287B327B5A7B3C7B467B507B4B7C4E7CB6
:100150003D7C417C477C857C527C567C5C7C607C11
:10016000647C6A7C6E7C727C857C787C7C7C807C08
:10017000084AD73B3BCE016E84BCBFFDC12F3D6C0E
:1001800074319ABD56833DDA3D00C77F11BED9E474
:10019000BB4C3E916BAAAABE000000803F05A84C54
:1001A000CDB2D44EB93836A9020C50B99186880820
:1001B0003CA6AAAA2ABE000000803F000C94527CF4
:1001C0000C94CD7A0C94787C0C94287B0C943BB2E4
:1001D0000C94EB5D0C94E17A0C94E35D0C944E7CF2
:1001E0000C94197B0C94555A0C94145C0C944B7C15
:1001F0000C94755D0C94327B0C94355A0C94975A80
:100200000C947C7C0C946A7C0C946E7C0C94FB7A31
:100210000C94807C0C945A7B0C942A5A0C94C37ACC
:100220000C94D35B0C94507B0C94D75A0C94467B63
:100230000C94607C0C94D77A0C945C7C0C946F5A70
:100240000C942A5B0C94727C0C94647C0C94477C18
:100250000C94235B0C94EB7A0C94857C0C94605A80
:100260000C94C75D0C94417C0C94C87A0C94567C19
:100270000C940F7B0C94F37A0C94735B0C94057BB9
:100280000C943C7B0C94D85D0C949D5B0C943D7C51
:100290000C94DE5B0C940F5C0C949E5D4E414E49B9
:1002A0004E495459494E46CDCCCC3D0AD7233C1734
:1002B000B7D13877CC2B329595E6241FB14F0A0081
:1002C0000020410000C84200401C4620BCBE4CCA71
:1002D0001B0E5AAEC59D74434F4D4D554E4943417B
:1002E00054494F4E0044525952554E004552524FB8
:1002F000525300494E464F004543484F006F6B0034
:100300003F5A206F7574206F662072616E6765209A
:1003100028003F59206F7574206F662072616E67E8
:100320006520282D0020746F20003F58206F7574C1
:10033000206F662072616E676520282D0050726FF5
:100340006265204F666673657420580045455052BB
:100350004F4D204F4B0A00486F6D65766572736193
:10036000747A20616B746976004572723A20546F1A
:100370006F206661722100546F6F20666172206683
:10038000726F6D207265666572656E636520706F51
:10039000696E740A004D34323120696E636F727277
:1003A00065637420706172616D6574657220757328
:1003B0006167650A004F46460A0046616465204849
:1003C00065696768742000426564204C6576656CD9
:1003D000696E6720004661696C656420746F2065F2
:1003E0006E61626C6520426564204C6576656C695F
:1003F0006E670A00496E76616C6964206D6573688A
:100400002E0A006469730043290A0061626C656406
:1004100020286D696E2074656D702000436F6C64D8
:1004200020657874727564657320617265200020A0
:10043000643A0020693A0020703A00496E76616C97
:1004400069642065787472756465720A002053656A
:1004500072766F200050726F74656374656420500B
:10046000696E0A0020466C6F773A200046523A00C7
:1004700020204D61783A200020204D696E3A2000FE
:10048000536F667420656E6473746F70733A2000E6
:100490003F4A206F7574206F662072616E67652019
:1004A00028302E303120746F20302E33290A00205E
:1004B0005400205200416363656C65726174696F1A
:1004C0006E3A2050002F2F20004348414D424552A4
:1004D0005F54454D504552415455524500424142AA
:1004E000595354455050494E470041524353004DD3
:1004F0004F54494F4E5F4D4F444553005448455269
:100500004D414C5F50524F54454354494F4E004C5F
:100510004F4E475F46494C454E414D45004155546D
:100520004F5245504F52545F53445F5354415455BA
:1005300053005344434152440050524F4D50545F76
:10054000535550504F525400454D455247454E4328
:10055000595F50415253455200434153455F4C4906
:100560004748545F4252494748544E4553530054FC
:100570004F47474C455F4C494748545300534F46FB
:1005800054574152455F504F574552004255494CD0
:10059000445F50455243454E54004C4556454C49E6
:1005A0004E475F44415441005A5F50524F4245000C
:1005B00052554E4F5554004155544F4C4556454C9D
:1005C000005052494E545F4A4F420050524F4752DA
:1005D000455353004155544F5245504F52545F5468
:1005E000454D5000564F4C554D45545249430045DA
:1005F0004550524F4D0042494E4152595F46494C79
:10060000455F5452414E534645520053455249416D
:100610004C5F584F4E5F584F4646004649524D5723
:100620004152455F4E414D453A4D61726C696E20B5
:10063000322E302E372D666978656420284F63741A
:1006400020203620323032302032313A35303A31C3
:10065000352920534F555243455F434F44455F551D
:10066000524C3A68747470733A2F2F6769746875C6
:10067000622E636F6D2F4D61726C696E4669726D8B
:10068000776172652F4D61726C696E2050524F54C4
:100690004F434F4C5F56455253494F4E3A312E30DF
:1006A000204D414348494E455F545950453A416EAB
:1006B000796375626963206933204D6567612053F2
:1006C0002045585452554445525F434F554E543A75
:1006D0003120555549443A63656465326132662D6F
:1006E000343161322D343734382D396231322D6353
:1006F00035356336326633363766660A00416E79C1
:100700006375626963206933204D656761205320FA
:100710004F46462E0042657474206BC3BC686C74EF
:100720002E2E2E0042657474206865697A742E2E10
:100730002E004D3131332053004D3131322053687A
:100740007574646F776E006F666600444542554766
:100750003A0020573A0045202553000A537461742B
:10076000733A2046696C616D656E742075736564BB
:100770003A20002C204C6F6E67657374206A6F629C
:100780003A2000546F74616C2074696D653A2000E2
:100790002C204661696C65643A20002C2046696E05
:1007A00069736865643A20005072696E74733A2008
:1007B0000053746174733A20005072696E7420742F
:1007C000696D653A20004D6F746F72656E20616EC1
:1007D0006765736368616C746574004B6C69636B07
:1007E000207A756D20466F72747365747A656E0039
:1007F0004D65736820706F696E74206F7574206F1B
:10080000662072616E67650A0057617274656E2EAC
:100810002E2E00FFFFFF000000C0000000000000BF
:100820000000F802F302EC02E502D7024572726F93
:10083000722077726974696E6720746F2045455025
:10084000524F4D210A002121204B494C4C2063611D
:100850007573656420627920746F6F206D756368AD
:1008600020696E6163746976652074696D65202DF9
:100870002063757272656E7420636F6D6D616E6456
:100880003A20004D343130004D313132004D31309D
:1008900038004E6F20436865636B73756D20776910
:1008A0007468206C696E65206E756D6265722C20AF
:1008B0004C617374204C696E653A2000636865630F
:1008C0006B73756D206D69736D617463682C204C5A
:1008D000617374204C696E653A20004C696E652026
:1008E0004E756D626572206973206E6F74204C6165
:1008F0007374204C696E65204E756D6265722B3184
:100900002C204C617374204C696E653A20004D3187
:10091000313000627573793A2070617573656420B7
:10092000666F7220696E7075740A00627573793A29
:100930002070617573656420666F722075736572CF
:100940000A00627573793A2070726F636573736918
:100950006E670A004A3131005072696E7465722008
:1009600068616C7465642E206B696C6C2829206347
:10097000616C6C6564210A0036372603023C3D3801
:100980002A2E303E1224221E021A1C180AFF430887
:1009900009072C070844000124F4D43050C38E20EA
:1009A000C2A24017828B7011127A910D816CD90A04
:1009B000A861E108C7586607615143061E4B5D05F3
:1009C000C145A7041A411104093D98037139310347
:1009D0004036DB0265339102D4305402802E1D0272
:1009E000632CEE01752AC501B028A00110278101F2
:1009F0008F2564012B244B01E0223401AC211F011F
:100A00008D200D01801FFC00841EED00971DDF006E
:100A1000B81CD200E61BC600201BBC00641AB20042
:100A2000B219A8000A19A0006A189900D1179100FC
:100A300040178B00B516840031167E00B31579007F
:100A40003A157300C7146F0058146A00EE1366005D
:100A50008813630025135E00C7125B006C125700F9
:100A600015125400C111510070114F0021114B009B
:100A7000D61049008D104700461044000210420075
:100A8000C00F4000800F3E00420F3C00060F3B00AD
:100A9000CB0E3800930E37005C0E3500270E340065
:100AA000F30D3200C10D3100900D3000600D2E00AD
:100AB000320D2D00050D2C00D90C2B00AE0C290099
:100AC000850C29005C0C2700350C27000E0C260035
:100AD000E80B2400C40B2400A00B23007D0B230093
:100AE0005A0B2100390B2100180B2000F80A1F00B7
:100AF000D90A1E00BB0A1E009D0A1D00800A1D00A7
:100B0000630A1C00470A1B002C0A1B00110A1A006A
:100B1000F7091A00DD091900C4091900AB09190009
:100B2000920917007B091800630917004C09160089
:100B300036091600200916000A091500F5081500E7
:100B4000E0081400CC081400B8081400A40814002D
:100B5000900813007D0812006B081300580812005B
:100B60004608120034081100230811001208110071
:100B700001081100F0071000E0071000D007100076
:100B8000C0071000B0070F00A107100091070E006A
:100B900083070F0074070F0065070E0057070E004C
:100BA00049070E003B070D002E070E0020070D0021
:100BB00013070D0006070D00F9060C00ED060D00E9
:100BC000E0060C00D4060C00C8060C00BC060C00A5
:100BD000B0060C00A4060B0099060C008D060B0055
:100BE00082060B0077060B006C060B0061060A00FC
:100BF00057060B004C060A0042060A0038060A0097
:100C00002E060A0024060A001A060A001006090029
:100C100007060A00FD050900F4050900EB050900B7
:100C2000E2050900D9050900D0050900C70509003A
:100C3000BE050900B5050800AD050800A5050900B9
:100C40009C050800940508008C0508008405080030
:100C50007C050800740508006C05070065050800A0
:100C60005D050700560508004E050700470507000B
:100C70004005080038050700310507002A05070070
:100C8000230507001C050600160507000F050700D1
:100C90000805060002050700FB040600F50407002E
:100CA000EE040600E8040600E2040700DB04060088
:100CB000D5040600CF040600C9040600C3040600DC
:100CC000BD040600B7040600B1040500AC0406002C
:100CD000A6040600A00405009B0406009504050078
:100CE000900406008A0405008504050080040600BF
:100CF0007A04050075040500700405006B04050006
:100D000066040500610405005C0405005704050045
:100D1000520405004D040500480405004304050085
:100D20003E0404003A0405003504050030040400C4
:100D30002C04050027040400230405001E040400FD
:100D40001A04040016040500110404000D04040034
:100D5000090405000404040000040400FC0304006A
:100D6000F8030400F4030400F0030400EC0304009F
:100D7000E8030400E4030400E0030400DC030400CF
:100D8000D8030400D4030400D0030400CC030400FF
:100D9000C8030300C503030024F404D9201BC40CBA
:100DA0005C0E9804C4095F0265077101F405F9003F
:100DB000FB04B30048048700C103690058035500D1
:100DC00003034500BE023A008402310053022A00A8
:100DD0002902250004022000E4011C00C8011900BA
:100DE000AF01170098011400840113007101100075
:100DF0006101100051010E0043010D0036010B008E
:100E00002B010B0020010B00150109000C0109004A
:100E100003010800FB000800F3000800EB000700D6
:100E2000E4000600DE000600D8000600D20006003E
:100E3000CC000500C7000500C2000500BD0004008D
:100E4000B9000400B5000400B1000400AD000400C6
:100E5000A9000400A5000300A20003009F000400F5
:100E60009B0003009800030095000200930003001C
:100E7000900003008D0002008B0003008800020038
:100E80008600020084000300810002007F0002004F
:100E90007D0002007B000200790002007700010063
:100EA000760002007400020072000100710002006E
:100EB0006F0002006D0001006C0002006A0001007A
:100EC0006900020067000100660001006500010082
:100ED0006400020062000100610001006000010086
:100EE0005F0002005D0001005C0001005B0001008A
:100EF0005A0001005900010058000100570001008C
:100F0000560001005500010054000100530000008C
:100F10005300010052000100510001005000010087
:100F20004F0001004E0000004E0001004D00010086
:100F30004C0001004B0000004B0001004A00010082
:100F4000490001004800000048000100470001007E
:100F50004600000046000100450000004500010079
:100F60004400010043000000430001004200000073
:100F7000420001004100000041000100400001006A
:100F80003F0000003F0001003E0000003E00010065
:100F90003D0000003D0001003C0000003C0000005E
:100FA0003C0001003B0000003B0001003A00000053
:100FB0003A0001003900000039000100380000004B
:100FC0003800000038000100370000003700010041
:100FD0003600000036000000360001003500000039
:100FE000350000003500010034000000340000002E
:100FF0003400010033000000330000003300010022
:101000003200000032000000320001003100000018
:10101000310000003100010030000000300000000D
:10102000300001002F0000002F0000002F00000002
:101030002F0001002E0000002E0000002E000100F5
:101040002D0000002D0000002D0000002D000100EB
:101050002C0000002C0000002C0000002C000100DF
:101060002B0000002B0000002B0000002B000100D3
:101070002A0000002A0000002A0000002A000100C7
:1010800029000000290000002900000029000000BC
:1010900029000100280000002800000028000000AE
:1010A00028000000280001002700000027000000A1
:1010B0002700000027000000270001002600000094
:1010C0002600000026000000260000002600010087
:1010D000250000002500000025000000250000007C
:1010E000250000002500010024000000240000006D
:1010F0002400000024000000240001002300000060
:101100002300000023000000230000002300000053
:101110002300000023000100220000002200000044
:101120002200000022000000220000002200010036
:10113000210000002100000021000000210000002B
:10114000210000002100000021000100200000001B
:10115000200000002000000020000000200000000F
:101160002000000020000000200001001F000000FF
:101170001F0000001F0000001F0000001F000000F3
:101180001F0000001F0001001E0000001E000000E4
:101190001E0000001E000000393000003325000052
:1011A00087190000B00F0000DB080000BD0400003C
:1011B000740200003F01000020746F6F206C6F6E9E
:1011C0006720657874727573696F6E2070726576CA
:1011D000656E7465640A0020636F6C6420657874C2
:1011E000727573696F6E2070726576656E74656472
:1011F0000A00DB0FC93F45BCDA3F8FB30240FCF069
:10120000274056946140FE4B9B4084A5D840E02384
:101210001841346A5641E859974164DBD5416E273D
:101220001742B4B75542CE1A9742C8AED542B588D8
:101230005A43D40684BFA65FA7BF7443E0BF10B172
:101240001AC01C2C58C0E8F697C0B849D6C04E4EFC
:1012500017C124D355C1802497C1A0B5D5C1121A96
:1012600017C244AE55C2781797C26CACD5C2678816
:101270005AC3256979202569642025696820256974
:101280006D202569730023646566696E6520444599
:101290004641554C545F004B6420004B6920004B85
:1012A000702000504944204175746F74756E65203C
:1012B00066696E697368656421205075742074686E
:1012C00065206C617374204B702C204B6920616E1B
:1012D00064204B6420636F6E7374616E7473206658
:1012E000726F6D2062656C6F7720696E746F20433A
:1012F0006F6E66696775726174696F6E2E680A0039
:10130000504944204175746F74756E65206661693B
:101310006C6564212074696D656F75740A000A201C
:10132000436C617373696320504944200A00204B69
:10133000643A2000204B693A2000204B703A20008C
:101340000A204E6F206F76657273686F6F740A00A3
:101350002054753A2000204B753A2000206D6178AA
:101360003A2000206D696E3A200020643A20002067
:10137000626961733A2000504944204175746F746A
:10138000756E652073746172740A0050494420417F
:1013900075746F74756E65206661696C6564212073
:1013A00054656D706572617475726520746F6F201D
:1013B000686967680A00504944204175746F747504
:1013C0006E6500504944204175746F74756E6520D8
:1013D0006661696C6564212042616420657874727D
:1013E00075646572206E756D6265720A004472756F
:1013F000636B2070617573696572742E2E2E004ABE
:10140000313200205A3A200020593A2000566F729B
:101410006865722025732573257320686F6D656E6E
:1014200000220A00556E6B6E6F776E20636F6D6DD4
:10143000616E643A202200416E79637562696320AF
:101440006933204D65676120532062657265697458
:1014500000447275636B742E2E2E0020453A0020D6
:101460005A3A0020593A00322E302E372D666978CC
:101470006564004A333320004F4B004739310A2559
:10148000730A4739300047312045256946353030E9
:1014900000473120452D302E314625690047312047
:1014A00045302E31462569004731205A25694625A9
:1014B00069004731205A2D302E31462569004731C9
:1014C000205A302E3146256900473120592569467A
:1014D000256900473120592D302E314625690047B6
:1014E000312059302E314625690047312058256971
:1014F00046256900473120582D302E314625690098
:1015000047312058302E3146256900473238004790
:101510003238205A00473238205900473238205894
:10152000004132305620004731205A31300050728D
:10153000696E7465722068616C7465642E206B69D5
:101540006C6C28292063616C6C656421002039393A
:10155000393A39393900204D0020482000413756AA
:10156000200041355620583A200041345620004191
:101570003356200041325620004131562000413080
:101580005620004A3134004D38340A4D323700427B
:1015900065747400453100626564002C20737973B2
:1015A00074656D2073746F70706564212048656187
:1015B0007465725F49443A20004845495A454E20B7
:1015C0004552464F4C474C4F530048656174696E15
:1015D00067206661696C656400202D20496E766124
:1015E0006C6964206578747275646572206E756DBF
:1015F00062657220210A002008204E494348542089
:10160000455252454943485400546865726D616CB7
:101610002052756E6177617900200820C39C424595
:101620005253434852495454454E004D4158544535
:101630004D502074726967676572656400200820E8
:10164000554E54455253434852495454454E004D0B
:10165000494E54454D5020747269676765726564E0
:1016600000202F002042403A0020403A0070012C18
:101670000190012701B0012201C0011D01F00118F4
:10168000011002130130020E0160020901900204F0
:1016900001C002FF000003FA004003F5008003F0E0
:1016A00000D003EB002004E6007004E100E004DC5D
:1016B000004005D700C005D2004006CD00D006C8C6
:1016C000008007C3003008BE00F008B900C009B4AC
:1016D00000B00AAF00B00BAA00D00CA500000EA00D
:1016E00000500F9B00C01096005012910000148C07
:1016F00000C0158700B0178200B0197D00D01B789C
:1017000000001E730040206E0090226900F02464E7
:101710000040275F0090295A00E02B5500102E5002
:101720000020304B0010324600E033410090353C41
:10173000001037370070383200A0392D00B03A2839
:1017400000A03B2300603C1E00103D1900903D149A
:1017500000103E0F00703E0A00C03E0500003F0032
:1017600000403FFBFF803FF6FFC03FF1FF02FFFD5F
:10177000FCFAF8F6F4F2F0EEECEAE9E7E5E3E1E092
:10178000DEDCDAD9D7D5D4D2D0CFCDCBCAC8C7C545
:10179000C3C2C0BFBDBCBAB9B7B6B4B3B2B0AFADC7
:1017A000ACAAA9A8A6A5A4A2A1A09E9D9C9A99981E
:1017B0009795949392908F8E8D8B8A898887868453
:1017C000838281807F7E7D7B7A797877767574736A
:1017D0007271706F6E6D6C6B6A6968676665646361
:1017E0006261605F5E5D5C5B5A595858575655544C
:1017F00053525150504F4E4D4C4B4A4A4948474620
:1018000046454443424241403F3E3E3D3C3B3B3ADD
:1018100039383837363535343332323130302F2E8F
:101820002E2D2C2B2B2A2929282727262525242332
:101830002322212120201F1E1E1D1C1C1B1B1A19C8
:101840001918181716161515141313121211111052
:101850000F0F0E0E0D0D0C0C0B0A0A0909080807D4
:101860000706060505040403030202010000000048
:101870005C4300005C430000524345696E7374652D
:101880006C6C2E206765737065692E0053657474E7
:10189000696E67732053746F7265642028005374F7
:1018A000616E6461726420446576696174696F6E0B
:1018B0003A20002052616E67653A20002053696724
:1018C0006D613A20004D65616E3A2000204D39323D
:1018D000205800496E76616C69642050696E204D15
:1018E0006F64650A0020496E76616C6964206578D2
:1018F00074727564657220004361703A0047322F3C
:1019000047332062616420706172616D6574657235
:10191000730A00526573656E643A20004A313700DD
:101920002020506C616E6E6572427566666572420B
:10193000797465733A20002046726565204D656DA7
:101940006F72793A2000436F6D70696C65643A205C
:101950004F637420203620323032300A00204C6130
:10196000737420557064617465643A20323032308B
:101970002D30392D3239207C20417574686F723AD0
:101980002028683073636831383020686F7363686B
:101990006940616E756B69732E6465290A00322E89
:1019A000302E372D66697865640A004D61726C6966
:1019B0006E0020536F66747761726520526573659F
:1019C000740A00205761746368646F6720526573FE
:1019D00065740A002042726F776E206F7574205212
:1019E000657365740A002045787465726E616C20B9
:1019F00052657365740A00506F77657255700A00FE
:101A000020503A00656E6473746F70732068697457
:101A10003A20001000C90210012C0140012201707F
:101A2000011801B0010E01F00104015002FA00B0EA
:101A300002F0003003E600D003DC009004D2007016
:101A400005C800A006BE000008B400B009AA00D076
:101A50000BA000600E960060118C00001582002023
:101A6000197800C01D6E00A0226400B0275A0090B3
:101A70002C500000314600E0343C00103832009019
:101A80003A2800603C1E00A03D1400803E0A002061
:101A90003F000000002100240027002A002D003014
:101AA00000330001010000040107010A01000022C7
:101AB00000250028002B002E003100340002010018
:101AC00000050108010B0100002000230026002969
:101AD000002C002F00320000010000030106010964
:101AE0000105050505070508080808020202020AA3
:101AF0000A080804040404010101010101010103B1
:101B000003030303030303040707070C0C0C0C0C6B
:101B10000C0C0C0202020206060606060606060B5E
:101B20000B0B0B0B0B0B0B010210202008081020D5
:101B30004010204080020102010804020101020459
:101B40000810204080804020100804020180040218
:101B5000018040201008040201080402010102046F
:101B60000810204080010204081020408000000A74
:101B70000B02090C0D0E0807030401000000000011
:101B80000000000000000000000000000000000055
:101B90000000000000000000001211100000000012
:101BA0000000000000000000000000000000000035
:101BB0000000004D65737370756E6B7400255320C3
:101BC00025692F25690050726F62696E67206D6507
:101BD000736820706F696E74200020284452595237
:101BE000554E2900473239204175746F2042656493
:101BF000204C6576656C696E67003F20284C2C523E
:101C00002C462C4229206F7574206F6620626F75F8
:101C10006E64732E0A003F2856296572626F7365E1
:101C2000206C6576656C20696D706C617573696296
:101C30006C652028302D34292E0A00426164205A18
:101C40002076616C75650A004E6F2062696C696E62
:101C500065617220677269640A0046696E6973681B
:101C60006564210A003A207A3A2000206F6620003D
:101C7000476F696E6720746F3A20580043570A0017
:101C8000206469723A0020616E676C653A00537493
:101C9000617274207261646975733A00506F736980
:101CA00074696F6E696E67207468652070726F6208
:101CB000652E2E2E0A003F4C656773206F66206DDF
:101CC0006F76656D656E7420696D706C6175736992
:101CD000626C652028302D3135292E0A003F2028DE
:101CE000582C5929206F7574206F6620626F756EAD
:101CF00064732E0A005A75207765697420647261D6
:101D000075C39F656E003F53616D706C652073698C
:101D10007A65206E6F7420706C61757369626C6592
:101D20002028342D3530292E0A004D3438205A2DE4
:101D300050726F6265205265706561746162696C92
:101D400069747920546573740A006563686F3A009A
:101D50004572726F723A0042696C696E65617220F9
:101D60004C6576656C696E6720477269643A0A0053
:101D7000414E474548414C54454E005072696E747F
:101D800065722073746F707065642064756520746B
:101D90006F206572726F72732E20466978207468A6
:101DA00065206572726F7220616E642075736520A4
:101DB0004D39393920746F20726573746172742ED5
:101DC000202854656D706572617475726520697341
:101DD0002072657365742E205365742069742061C8
:101DE000667465722072657374617274696E6729B6
:101DF0000A0021212053544F502063616C6C6564AC
:101E00002062656361757365206F6620424C546F74
:101E1000756368206572726F72202D20726573740D
:101E20006172742077697468204D3939390A006FFE
:101E300070656E00545249474745524544007A5FE9
:101E400070726F6265007A325F6D696E007A5F6DE5
:101E5000696E00795F6D696E00785F6D696E005222
:101E600065706F7274696E6720656E6473746F70ED
:101E7000207374617475730A002062797465733B12
:101E80002063726320004E6F20454550524F4D2E07
:101E90000A00454550524F4D206461746173697A60
:101EA00065206572726F722E0A002073746F7265FE
:101EB000642073657474696E6773207265747269E7
:101EC00065766564202800202863616C63756C6109
:101ED00074656429210A0020213D200045455052A7
:101EE0004F4D20435243206D69736D6174636820C8
:101EF0002D202873746F7265642920002053697A3D
:101F0000653A2000496E6465783A2000204D617280
:101F10006C696E3D563831290A00454550524F4D87
:101F20002076657273696F6E206D69736D6174637D
:101F3000682028454550524F4D3D00486F6D696EF1
:101F400067206765736368656974657274005761BB
:101F5000726E696E673A20486F6D696E67204275D0
:101F60006D702044697669736F72203C20310A00DD
:101F700020456E6473746F703F0A004261642000F4
:101F80000000484200004842000080400202040075
:101F900000A0400000A0400000004000005E4300A0
:101FA000005C4300005243000000010000000100FB
:101FB000008000555555000000400033333300AA1F
:101FC000AA2A004992240000002000C7711C009931
:101FD000991900D1451700555515003BB113002440
:101FE00049120011111100000010000F0F0F00E343
:101FF000380E0043790D00CCCC0C00C3300C00E847
:10200000A20B0064210B00AAAA0A00703D0A009DE1
:10201000D80900427B090092240900DCD30800881B
:102020008808001042080000000800F0C10700877F
:1020300087070075500700711C07003EEB0600A1E2
:10204000BC06006990060066660600703E060061E8
:1020500018060017F4050074D105005BB00500B246
:10206000900500627205005555050078390500B8E5
:102070001E0500050505004EEC040087D40400A1F0
:10208000BD040090A7040049920400C17D0400EE45
:10209000690400C7560400444404005C320400088C
:1020A00021040041100400000004003FF00300F888
:1020B000E0030026D20300C3C30300CCB503003AFB
:1020C000A803000A9B0300388E0300C08103009F11
:1020D000750300D0690300505E03001D53030034F4
:1020E000480300913D0300333303001629030038F1
:1020F0001F030097150300300C0300030303000BBC
:10210000FA020049F10200BAE802005CE002002D88
:10211000D802002DD0020059C80200B0C002003120
:10212000B90200DAB10200AAAA0200A0A30200BC10
:102130009C0200FA9502005C8F0200DF8802008298
:10214000820200457C0200277602002770020043CD
:102150006A02007C640200D05E02003F590200C89F
:10216000530200454550524F4D20496E69746961D4
:102170006C697A65640A0048617264636F646564BF
:102180002044656661756C742053657474696E676C
:1021900073204C6F616465640A003B200020204D71
:1021A0003835312058005A2D50726F6265204F66C5
:1021B000667365740020204D333034205000202099
:1021C0004D33303120500050494420736574746998
:1021D0006E67733A0020204732392057204900208B
:1021E000204D3432302053004175746F20426564B5
:1021F000204C6576656C696E673A0020204D323060
:1022000036205800486F6D65206F66667365743AB6
:1022100000204A0020204D323035204200416476B3
:10222000616E6365643A20423C6D696E5F736567F9
:102230006D656E745F74696D655F75733E20533CA8
:102240006D696E5F66656564726174653E20543CBD
:102250006D696E5F74726176656C5F6665656472E8
:102260006174653E204A3C6A756E635F6465763EC4
:102270000020204D323034205000416363656C658E
:10228000726174696F6E2028756E6974732F733272
:10229000293A20503C7072696E745F616363656CAB
:1022A0003E20523C726574726163745F6163636562
:1022B0006C3E20543C74726176656C5F616363654B
:1022C0006C3E0020204D3230312058004D6178693D
:1022D0006D756D20416363656C65726174696F6EC5
:1022E0002028756E6974732F7332293A00204500D7
:1022F00020204D3230332058004D6178696D756D66
:10230000206665656472617465732028756E6974F2
:10231000732F73293A0053746570732070657220AF
:10232000756E69743A0020440020204D3230302010
:1023300053002044697361626C65640A0046696CED
:10234000616D656E742073657474696E67733A00AD
:1023500020286D6D29002020473231202020203B8D
:1023600020556E69747320696E206D6D000000FA4F
:10237000430000FA43000000410000F0410000A0CB
:10238000420000A0420000C84314EEC443D007003E
:1023900000D00700003C0000008813000042656484
:1023A00020583A200050726F62696E67204661695A
:1023B0006C65640A0050726F62696E6720676573AE
:1023C00063686569746572740020436F756E74206C
:1023D000583A00003BB211241FBECFEFD1E2DEBF5E
:1023E000CDBF00E00CBF12E0A0E0B2E0EEECFFE7F2
:1023F00001E00BBF02C007900D92A83DB107D9F7CD
:1024000021E1A8EDB2E001C01D92A039B207E1F7C9
:1024100011E1CBEED1E100E006C021970109802F48
:10242000FE010E947EBCCA3ED10780E00807A9F7E2
:102430000E94DEAB0C94E5BF0C9400002F923F92FB
:102440004F925F926F927F928F929F92AF92BF92C4
:10245000CF92DF92EF92FF920F931F93CF93DF9370
:10246000CDB7DEB7EE970FB6F894DEBF0FBECDBF87
:10247000209172032CAF81E08093720380917103ED
:102480008D3409F4EFC2843511F40C94CD238734D4
:1024900011F00C94F22320916F03309170032C31D2
:1024A000310509F489C094F42430310534F4223024
:1024B0003105B4F537FF28C0D1C224303105F1F120
:1024C0002531310511F40C94F423C8C22A323105A8
:1024D00009F49DC14CF42D31310509F47DC02E3134
:1024E000310509F497C0BAC22B35310509F40CC186
:1024F0002C35310509F40DC12A35310509F0AEC27C
:1025000010926E030C94F42380916D03813011F0CE
:102510000C94F4230E941B740E9401910C94F423E8
:1025200080916D03813011F00C94F4232230310539
:1025300009F080E00E94F8740C94F42380E50E9476
:102540000B89882329F00E94A17B6B017C0103C0C9
:10255000C12CD12C760183E50E940B89882361F080
:102560000E948B8820E030E04AE754E40E9446B89D
:102570000E940CBE6B017C010E94AA9D80912B11D0
:10258000811105C060E089E098E00E94BE510E9480
:10259000797DC60ED71EE81EF91E0E94797DDC01EA
:1025A000CB018C199D09AE09BF09B7FD02C00C947F
:1025B000F4230E94F52EF1CF8091FF0A87708730B7
:1025C00011F00C94072460E08FE40E94338981119C
:1025D0000C94F4230C9407240E94797D6093690382
:1025E00070936A0380936B0390936C030E948F5FD8
:1025F00081110C94F42380910C0B882311F40C941A
:10260000702460E08FE40E94338981110C94F423DC
:102610000C94702420911F113091201140912111B0
:102620005091221160915602709157028091580288
:10263000909159020E9499BCAB01BC0188E50E94AF
:102640008B5269837A838B839C83209123113091F1
:102650002411409125115091261160915A027091D8
:102660005B0280915C0290915D020E9499BCAB017B
:10267000BC0189E50E948B526D837E838F8398878E
:10268000BE016B5F7F4FCE0101960E94A386882317
:1026900011F40C94F42380E00E94618B0E94D89383
:1026A00061E085E40E94338921E0482FBE016B5F21
:1026B0007F4FCE0101960E940FA96B017C019B0107
:1026C000AC010E948BBF811119C049815A816B8175
:1026D0007C818DE993E20E94288F4D815E816F811C
:1026E000788588E094E10E94288FB701A60183E0F5
:1026F00094E10E94288F8AE00E94C92D0E94BF9316
:102700000E9469950C94F4238FE080936E030C94DF
:10271000F42372E7272E72E0372EEBE5EE2EE3E08E
:10272000FE2E46E552E05B8F4A8FF1E1CF2EFBE0B3
:10273000DF2E00E010E0D1018D911D010E940B8978
:10274000882309F44BC00E948B882B013C01133075
:1027500049F0F60120813181428153810E9498BC69
:102760002B013C01AA8DBB8D2D913D914D915C912A
:10277000C301B2010E9498BC4B015C012DEB37E311
:1027800046E855EB0E94F9BE87FD0AC02DEB37E302
:1027900046E855E3C501B4010E94E0B71816F4F409
:1027A000133051F4409262025092630260926402CC
:1027B0007092650201E012C0A5019401F7016081E9
:1027C0007181828193810E9499BCD7016D937D9321
:1027D0008D939C931397812F0E9410A31F5FB4E0E9
:1027E000EB0EF11CEA8DFB8D3496FB8FEA8FF4E043
:1027F000CF0ED11C143009F09ECF002321F082E6C9
:1028000092E00E9487A10E9469950C94F423809124
:102810006D03813011F00C94F42389E40E940B893C
:10282000E82E882321F00E948788082F01C000E04D
:102830008AE40E940B89F82E882321F00E94878861
:10284000182F01C010E0EE2011F0033020F4FF201B
:1028500041F0133030F080EF97E00E94818E0C94AD
:10286000F42380E1E6E5F2E0ABE4B3E001900D9201
:102870008A95E1F7EE2019F1602F000F770B880B96
:10288000990B0E94E7B720913B0330913C034091A4
:102890003D0350913E030E9446B82091430330917E
:1028A000440340914503509146030E9499BC6093B4
:1028B0004B0370934C0380934D0390934E03FF2082
:1028C00019F1612F110F770B880B990B0E94E7B755
:1028D00020913F03309140034091410350914203C6
:1028E0000E9446B820914703309148034091490324
:1028F00050914A030E9499BC60934F037093500318
:10290000809351039093520360E080E50E943389E5
:102910008823C1F1EE20D1F020911F1130912011B8
:10292000409121115091221160914B0370914C0301
:1029300080914D0390914E030E9498BC60934B038D
:1029400070934C0380934D0390934E03FF20D1F07E
:10295000209123113091241140912511509126117D
:1029600060914F03709150038091510390915203F5
:102970000E9498BC60934F0370935003809351035F
:102980009093520340E050E0BA0186E40E948B52DB
:102990006B017C0120E030E0A9010E94F9BE18160D
:1029A0005CF420E030E040E752E4C701B6010E9449
:1029B00093BD6B017C0103C0C12CD12C76018090AA
:1029C0006A0290906B02A0906C02B0906D0220E0C1
:1029D00030E0A901C701B6010E94E0B7882341F0A9
:1029E000C0926A02D0926B02E0926C02F0926D0289
:1029F00000912B0210912C0284E690E090932C021F
:102A000080932B02C0902502D0902602E0902702EE
:102A1000F090280280E090E0A0E8BFE380932502D8
:102A200090932602A0932702B09328020E9401915E
:102A300080926A0290926B02A0926C02B0926D0238
:102A400010932C0200932B02C0922502D0922602F2
:102A5000E0922702F09228020C94F4230E94815FF6
:102A60000C94F42380916F03909170038937910542
:102A700009F49BC70CF097C08C35910509F42CC65E
:102A80000CF045C08B34910509F4EAC1FCF48231A5
:102A9000910509F4C5C56CF497FF02C00C94CA23D4
:102AA000823091050CF443C1419709F49AC10C940A
:102AB000CA238A32910509F4CBC18033910509F408
:102AC000CBC14F9711F00C94CA239FC1813591055A
:102AD00009F47DC564F48D34910509F4DAC10CF470
:102AE000C3C18E34910509F4D8C10C94CA2383352F
:102AF000910509F48DC50CF483C58435910509F45D
:102B00008FC58535910509F4C2C50C94CA238F364B
:102B1000910509F47EC4C4F48B36910509F457C4B9
:102B200064F48936910509F414C40CF026C488367F
:102B3000910509F444C20C94CA238D36910509F419
:102B40005EC20CF4B1C452C48337910509F45AC66D
:102B50006CF48137910509F4B1C40CF04BC641E027
:102B600060E070E089E397E00E949B298637910539
:102B700009F4DEC634F48537910509F4C5C60C9412
:102B8000CA238737910509F40DC78837910511F0DD
:102B90000C94CA2381E080936803809367030E94AA
:102BA00096960C94F4238E3221E0920711F40C9443
:102BB000DA200CF059C08D3C910509F497C7FCF45C
:102BC000883C910509F4F8C674F48B39910509F431
:102BD000D6C48E3B910509F4BDC48C38910511F023
:102BE0000C94CA2395C48B3C910509F452C70CF090
:102BF0006FC7893C910509F426C70C94CA238D3D03
:102C0000910511F40C94901EA4F4833D910509F4F0
:102C10009AC78C3D910511F40C94691E8E3C910568
:102C200011F00C94CA2362E0E62E63E0F62E10E069
:102C300078C7883141E0940711F40C94311F3CF4BB
:102C4000823E910511F40C94E61E0C94CA238C323A
:102C5000A1E09A0711F40C94C81F8D32914011F431
:102C60000C94E71F0C94CA23853AE1E09E0711F407
:102C70000C94BA227CF5813921E0920711F40C946E
:102C8000212194F4803341E0940711F40C946720DF
:102C900014F40C941E218039914011F00C94CA2335
:102CA0000E94AA9D0C94F4238A39B1E09B0709F491
:102CB00001C4843AE1E09E0711F40C942B2182397F
:102CC000914011F00C94CA230E94CF7D0E94699517
:102CD0000C94F423863F21E0920711F40C94952381
:102CE00084F4843F41E0940711F40C948F2314F092
:102CF0000C9492238C3A914011F40C9431230C944F
:102D0000CA23883FB1E09B0711F40C94A12314F46B
:102D10000C9498238335F3E09F0711F40C94B223AD
:102D2000873E934011F40C94BC230C94CA2380E595
:102D30000E940B89882329F00E94A17B6B017C01F2
:102D400003C0C12CD12C760183E50E940B89882316
:102D500061F00E948B8820E030E04AE754E40E9452
:102D600046B80E940CBE6B017C010E94AA9D809116
:102D7000390390913A03892B31F46BED77E0CE0162
:102D800001960E9427B71091720383E0809372032B
:102D900081E080937303C114D104E104F10431F0A4
:102DA0000E94797DC60ED71EE81EF91E809173031E
:102DB000882311F40C947724C114D104E104F104A4
:102DC00011F40C9473240E94797DDC01CB018C19E1
:102DD0009D09AE09BF09B7FF02C00C9473240C947F
:102DE00077248091350384FF02C00C947C24809169
:102DF000370387FF02C00C947C24809138038370D2
:102E000011F00C947C240C9499240E94A5966E8B4E
:102E10007F8B888F998FBE016F5F7F4FCE01469663
:102E20000E940C588091FE0A811104C0CE010196C7
:102E30000E949F510E942990BE016F5F7F4F89EBD6
:102E400097E00E94468F8AE00E94C92D0C94F423DB
:102E50000E94447A0C94F4230E94D87D0C94F423AD
:102E60000E94286F0C94F4238091030B813011F0A1
:102E70000C94F42382E08093030B0E94797D60938D
:102E800031037093320380933303909334030C9493
:102E9000F4230E94846F0C94F42360E070E083E5D7
:102EA0000E9418898E34910531F40E94F56F0E94BA
:102EB000705F0C94F42381EB97E00E94818E609107
:102EC00021037091220388EA97E00E941B8F609192
:102ED0002303709124038BE997E00E941B8F60917C
:102EE0002103709122038091230390912403681B96
:102EF000790B8091030B815021E030E0823010F09B
:102F000020E030E0621B730B80E997E00E941B8F8A
:102F10008AE00E94C92D81EB97E00E94818E80910A
:102F2000250390912603A0912703B09128038E8B4F
:102F30009F8BA88FB98FBE016F5F7F4FCE014696E2
:102F40000E940C58BE016F5F7F4F83E897E00E949C
:102F5000468F8091290390912A03A0912B03B09171
:102F60002C038E8B9F8BA88FB98FBE016F5F7F4F15
:102F7000CE0146960E940C58BE016F5F7F4F83E7DB
:102F800097E00E94468F20E030E04AE754E46091E9
:102F90002D0370912E0380912F03909130030E9496
:102FA00093BDAB01BC018BE597E00E94288F8DE6B5
:102FB0000E94C92D8AE00E94C92D0C94F4238091AF
:102FC000880A83FF02C00C94F4230E941B7A87FFB7
:102FD00002C00C94F42383E50E940B89882359F0E6
:102FE0000E948B880E9405BECB010E94C36061E0F5
:102FF00080E00E9486AB0E949FAB0C94F4238091EA
:10300000880A83FF02C00C94F4230E941B7A8AA7CB
:1030100087FF02C00C94F42383E50E940B898A8FFA
:10302000811107C082E50E940B89811102C010E066
:103030002DC00E948B880E9405BECB010E94C360F8
:1030400061E081E00E9486AB6091840B7091850BFA
:10305000072E000C880B990B0E94E7B76B017C01CF
:103060008090800B9090810BA090820BB090830B8E
:10307000A50194010E94F9BE181614F40C94C22400
:103080003A8D332311F40C94A82411E00E949FABD5
:10309000112311F40C94F423409120034EAF1092AD
:1030A000200381E0809320021AA21BA21CA21DA271
:1030B0001EA61FA618AA19AA1EAA5CE35AAF8CE185
:1030C0008BAF96E49DAFC12CD12C50E8E52E6FEB71
:1030D000F62E1E8EA1E0AAAB812C912C540160919A
:1030E000840B7091850B072E000C880B990B0E94A6
:1030F000E7B7162F072F782E692E9601A7010E9499
:10310000E0B7882321F12091800B3091810B409111
:10311000820B5091830BBA8D612F702F872D962DC6
:10312000B11107C00E94E0B7881F8827881F8E8FC3
:1031300014C00E94E0B787FF0FC08091200288234F
:1031400009F402C1109220020E94705FFDC01C2D84
:103150000D2D7E2C6F2C01C01E8E0E94797D6B017F
:103160007C01DC01CB012EA53FA548A959A9821BF2
:10317000930BA40BB50BB7FD33C0D701C601885123
:103180009C4FAF4FBF4F8EA79FA7A8ABB9AB8AA5E7
:103190000E94046182E597E00E94818E811491046F
:1031A000A104B104B9F0D501C401805F984DAF4FBF
:1031B000BF4FBC01CD016C197D098E099F0928EE16
:1031C00033E040E050E00E94E7BBCA01B9010E9431
:1031D0003D2E03C08FE30E94C92D8AE00E94C92DB5
:1031E0000E94F52E0E94797D6093690370936A03B3
:1031F00080936B0390936C039091800B9EA3A0919E
:10320000810BAFA3B091820BB8A7E091830BE9A724
:10321000292F3A2F4B2F5E2F612F702F872D962D40
:103220000E9498BC1B012C0120E030E0A9010E9403
:10323000F9BE87FF04C057FA509457F85094811490
:103240009104A104B104E1F420E030E040E85FE340
:10325000C201B1010E94E0B787FF1EC0FAA9FF2397
:1032600039F045E0842E4DE0942EA12CB12C03C002
:10327000812C912C54018C0C9D1CAE1CBF1C0CC0CD
:1032800020E030E040E450E4C201B1010E94F9BE08
:10329000181614F4460157012E8D2223C1F18AA17C
:1032A0009BA1ACA1BDA1892B8A2B8B2B61F0D701EF
:1032B000C6012AA13BA14CA15DA1821B930BA40BCB
:1032C000B50BB7FD24C02EA13FA148A559A56EA9F5
:1032D0007AAD8BAD9DAD0E9498BC20E030E040EC13
:1032E0005FE30E94E0B787FD28CFD701C601805A6F
:1032F0009541AF4FBF4F8AA39BA3ACA3BDA39EA193
:103300009EABAFA1AAAFB8A5BBAFE9A5EDAF8091C9
:103310002002882309F411CF81149104A104B1047F
:1033200031F41AAAC12ED02EE72CF62CD8CEF0E11B
:10333000CF1AF7E2DF0AE108F108C818D908EA084D
:10334000FB08F7FCEECFF9CE2EAD209320030C94B2
:10335000F4230E941B7A182F87FD0AC08DEF92E09C
:103360000E94818E812F0E9404618AE00E94C92DF3
:103370003CAD309372030C949F2860E080E50E947E
:103380002789F82E42E0481710F40C94F42381E4C6
:103390000E94C288882321F06091B80E062F02C0D7
:1033A0000FEF10E083E50E940B89882349F00E940B
:1033B00053888B016F3F710519F010F00FEF10E08B
:1033C000EF2DF0E0E854F14F00830C94F42360E01B
:1033D00080E50E942789833010F00C94F423E82FB5
:1033E000F0E0E854F14F10820C94F4238EE40E9434
:1033F0000B89882311F40C94F4230E945388609362
:103400001C0370931D0380931E0390931F030C9461
:10341000F42383E50E94C288882331F060E083E5CD
:103420000E9427898093880A0E9429908BE497E064
:103430000E94818E8091880A882369F132E2E32E0E
:1034400038E0F32E00E010E020E08091880A90E060
:10345000A0E0B0E0002E04C0B695A795979587959B
:103460000A94D2F780FF0EC0DD24D394D20E22231B
:1034700019F08CE20E94C92DF701859194910E9468
:10348000818E2D2D0F5F1F4F52E0E50EF11C053090
:103490001105D9F604C087E497E00E94818E8AE086
:1034A0000E94C92D0C94F4231092730310922002F1
:1034B0000C94F4230E94CF290C94F42383E50E94FA
:1034C0000B89882381F00E946388282F30E02D33F8
:1034D000310524F480931F020C94F4238CE3809331
:1034E0001F020C94F4230E942990C0901F02D12C3B
:1034F000E12CF12C82E397E00E94818E4AE0C70123
:10350000B6010E94D02D8AE00E94C92D0C94F423AC
:103510008091880A83FF02C00C94F42383E50E9403
:103520000B89882311F40C94F4230E948B880E9449
:1035300005BE6837710514F068E770E070936E0B94
:1035400060936D0B0E94AE6161E080E00E9486ABEB
:103550000C94F4238091880A83FF02C00C94F42316
:1035600083E50E940B8989A781110C94C52482E50B
:103570000E940B8981110C94C5240C94F42383E5DB
:103580000E940B89882311F40C94F4230E94638811
:10359000182F90E0CD970CF01CE310931B030E94B2
:1035A000797D6B017C01212F30E0A8EEB3E00E9411
:1035B0003BBCC60ED71EE81EF91EC0921703D09260
:1035C0001803E0921903F0921A030C94F4230E945A
:1035D000E6610E94846F0E94BA9D1092B80E10920C
:1035E000B90E1092BA0E68EE73E080E090E00E948F
:1035F000C38D60E08DEF96E00E94BE510C94F423E1
:1036000080916E038F7D806180936E030C94F42310
:1036100080916E038F7E806280936E030C94F423FE
:1036200083E50E940B898823F1F00E94797D6093E5
:10363000690370936A0380936B0390936C030E94F9
:103640008B8820E030E04AE754E40E9446B80E94AC
:103650000CBE60931B0270931C0280931D0290931A
:103660001E020C94F4238091350384FF02C00C9455
:103670004B268091370387FF02C00C944B26809124
:103680003803837011F00C944B260C947D2683E54F
:103690000E94C288882311F40C94F4230E94797D3F
:1036A0006093690370936A0380936B0390936C0338
:1036B0000E948B8820E030E04AE754E40E9446B83C
:1036C0000E940CBE60931303709314038093150340
:1036D000909316030C94F4230E941B7A87FF02C078
:1036E0000C94F4239091350394FD04C0909137031A
:1036F00097FF0AC0A2E7CA2EA2E0DA2EB9E8EB2EA5
:10370000BAE0FB2E10E00AC090913803937091F755
:10371000682F81E00E94667B0C94F423D6018D9182
:103720006D010E940B89882309F459C0133009F0F8
:103730004FC00E948B884B015C0120E030E040EAE2
:1037400051E40E94E0B787FF3AC0A501940160915F
:10375000A90A7091AA0A8091AB0A9091AC0A0E94C2
:1037600093BD2B013C019B01AC016091B90A7091A2
:10377000BA0A8091BB0A9091BC0A0E9446B8609335
:10378000B90A7093BA0A8093BB0A9093BC0A6091FD
:10379000DD047091DE048091DF049091E0040E94CA
:1037A000E5B7A30192010E9446B80E940CBE609347
:1037B000DD047093DE048093DF049093E004809234
:1037C000A90A9092AA0AA092AB0AB092AC0A07C0CA
:1037D0000E948B88F701648B758B868B978B1F5F9C
:1037E000F4E0EF0EF11C143009F098CF0E945A71EA
:1037F0000C94F4230E948E5E82E39FE00E941EAB35
:103800000C94F4238BE196E00E94818E60E08BE0C3
:1038100096E00E94017460E086EF95E00E940174DA
:1038200061E08FEE95E00E94017461E084EE95E026
:103830000E94017461E084ED95E00E94017460E0F3
:103840008BEC95E00E94017461E081EC95E00E94B0
:10385000017461E087EB95E00E94017460E080EB09
:1038600095E00E94017461E088EA95E00E9401748D
:1038700061E08AE995E00E94017460E08CE895E0DF
:103880000E94017460E08DE795E00E94017460E0A1
:103890008FE695E00E94017460E089E595E00E9462
:1038A000017460E088E495E00E94017460E089E3BF
:1038B00095E00E94017460E082E395E00E9401744B
:1038C00060E08DE195E00E94017460E08FE095E09A
:1038D0000E94017461E08CEF94E00E94017460E04A
:1038E0008FEE94E00E94017461E08AEE94E00E9401
:1038F000017460E08DED94E00E94017460E089EC59
:1039000094E00E94017470C78091390390913A034A
:10391000009759F0DC012C91222339F02091FE0A06
:10392000211162C70E949F515FC70E94705F5CC7F0
:103930000091390310913A0394E0F12C40E091504A
:1039400021F1F8018081282F2B7F213421F421815E
:103950002133D9F407C08035C1F4818180538A3086
:1039600048F013C0813421F0853421F441E002C0D5
:10397000FF24F39498012E5F3F4F89012F5F3F4F43
:10398000F80180818032C9F3DACF41110E94299079
:10399000FF2021F085EC94E00E94818EC8010E94F6
:1039A000D42E22C70E942E961FC710926803109231
:1039B00067030E94969618C70E941B7A182F87FDEE
:1039C00013C70091120384E40E940B89882311F429
:1039D0000C9480260E948B886B017C0120E030E0F3
:1039E000A9010E94E0B7882341F124E01202F0010E
:1039F0001124E25FFC4FC082D182E282F38220E098
:103A000030E0A90160910E0370910F0380911003C3
:103A1000909111030E94E0B781110CC080E090E00A
:103A2000A0EEBFE380930E0390930F03A0931003C7
:103A3000B093110301E00C94802680E08093120380
:103A40000E94029ED1C60E941B7A87FDCDC6E2E786
:103A5000EE2EE2E0FE2E09E81AE0F9E9CF2EFAE0B8
:103A6000DF2ED7018D917D010E94C288882359F0F5
:103A70000E948B880E940CBEF80160837183828350
:103A800093830E94639D0C5F1F4FC016D10649F7B8
:103A9000ABC60E941B7A87FDA7C672E7E72E72E0CD
:103AA000F72E09E81AE0D7018D917D010E94C288A6
:103AB000882339F00E948B88F80164A375A386A33C
:103AC00097A30C5F1F4FFAE009391F0761F78CC6F7
:103AD0008091360387FF02C00C94862680913703BD
:103AE0008E7011F00C9486260C94CC2680913503B0
:103AF00081FF02C00C94F4268091360381FF02C03E
:103B00000C94F426809137038C7011F00C94F426F9
:103B10006BC61F5FB4E0EB0EF11C133011F40C9474
:103B2000031488E5810F0E94C288882391F30E94C4
:103B30008B88D7016D937D938D939C931397812FE1
:103B40000E9410A3E6CF4090110B5090120B609092
:103B5000130B7090140B20910302309104024091DA
:103B6000050250910602C301B2010E9499BC6A8FFE
:103B70007B8F8C8F9D8F8090150B9090160BA09053
:103B8000170BB090180B209107023091080240915A
:103B9000090250910A02C501B4010E9499BC6E8FBE
:103BA0007F8F88A399A3C090190BD0901A0BE09037
:103BB0001B0BF0901C0B20910B0230910C024091DA
:103BC0000D0250910E02C701B6010E9499BC6AA372
:103BD0007BA38CA39DA320910F02309110024091F2
:103BE000110250911202C301B2010E9499BC2B0133
:103BF0003C01209113023091140240911502509122
:103C00001602C501B4010E9499BC4B015C012091D0
:103C10001702309118024091190250911A02C701FF
:103C2000B6010E9499BC6B017C010E94299080E83A
:103C300094E00E94818E83E50E94C288882321F04F
:103C40000E9477888093020280910202882319F0F3
:103C500082EE92E002C087E196E00E94818E88E7C2
:103C600094E00E94818E4A8D5B8D6C8D7D8D89ECF8
:103C700092E20E94288F4E8D5F8D68A179A188E124
:103C800095E10E94288F4AA15BA16CA17DA182E1F0
:103C900095E10E94288F8AEF9EE10E94818E80E745
:103CA00094E00E94818EB301A20189EC92E20E940D
:103CB000288FB501A40188E195E10E94288FB70102
:103CC000A60182E195E10E94288F8AE00E94C92D19
:103CD0008BC583E50E940B89882331F00E94878879
:103CE00090932C0280932B028091350390913603A0
:103CF000A0913703B0913803892B8A2B8B2B09F0C5
:103D000073C560912B0270912C028CE694E00E94A6
:103D1000398F85E20E94C92D8AE00E94C92D64C5B1
:103D20000E941B7AF82E87FD5FC583E50E940B89F0
:103D30000F2D0F2C000C110B882369F10E9487882E
:103D4000F801EE0FFF1FE050FE4F91838083000FBC
:103D5000111F000F111FF801EB5DFD4F7F01BC012A
:103D6000990F880B990B0E94E7B72AE037ED43E2E1
:103D70005CE30E9446B8F801E250FD4F208131819A
:103D8000428153810E9446B8D7016D937D938D93F4
:103D90009C93139729C50E94299085E40E94C92D00
:103DA00080E38F0D0E94C92D000F111FF801E05014
:103DB000FE4F6081718184E694E00E94398F85E234
:103DC0000E94C92D8AE00E94C92D0EC580E50E947F
:103DD000C288882309F408C560E070E080E50E948D
:103DE0001889F82E6FEF7FEF83E50E9418898C0108
:103DF0000196039708F0F8C4F7FCF6C48F2D0E94D3
:103E0000EF29882339F00E94598F85E594E00E94BC
:103E1000818EEAC40E94AA9D60E08F2D0E94037DDE
:103E20000F3FBFEF1B0731F00130110571F000E0CB
:103E300010E00DC08F2D0E94AB7C31E020E0892B7B
:103E400009F030E0032F122F02C001E010E08F2DA7
:103E50000E94AB7C8017910709F4C6C40E94F52E1E
:103E6000F6CF80E50E94C288882309F4BDC40E9471
:103E700087888C01892B09F07FC083E50E94C28866
:103E8000882389F00E9487888F3FEFEF9E0729F4EF
:103E900086E19FE00E94142AA7C4BC0186E19FE04E
:103EA0000E94D42AA1C40E94299060E070E08DE4B1
:103EB00094E00E94398F8091180F28E532E0690163
:103EC000C81AD10887FDD394CC0CDD1CCC0CDD1CAA
:103ED0000D2C000CEE08FF088091170F28E830E049
:103EE0004901881A910887FD9394880C991C880CC5
:103EF000991C092C000CAA08BB088091160F8F3F53
:103F0000C1F090E0FC01EE0FFF1F8E0F9F1FFC0120
:103F1000E353F14F2181328103E0220F331F0A95D1
:103F2000E1F784E0369527958A95E1F72E5F3F4FBC
:103F300002C020E030E02F5F3F4FC901330FAA0BD2
:103F4000BB0B9C01AD01281939094A095B09A4EB97
:103F5000B0E00E9428BCA7019601281939094A0936
:103F60005B090E9409BCB90186EB95E10E94398F7B
:103F70008AE00E94C92D38C40E94598FB8018EE48E
:103F800094E00E94398F8AEF97E00E94818E2CC4C2
:103F900083E50E940B89882321F00E9453888B01BE
:103FA00002C004E011E080E50E940B89882349F0FB
:103FB0000E945388CB016938734128F088E893E167
:103FC00002C088EE93E0B8010E9472510DC460E017
:103FD00085E40E942789811173C080E50E94C28810
:103FE000882351F00E948B886093870B7093880B15
:103FF0008093890B90938A0B89E40E94C28888235E
:1040000081F00E948B882CEA35EC47E25EE30E9447
:1040100046B860938B0B70938C0B80938D0B9093B1
:104020008E0B84E40E94C288882381F00E948B88D2
:104030002CEA35EC47E25EE30E9493BD60938F0B60
:104040007093900B8093910B9093920B0E94299008
:104050004091870B5091880B6091890B70918A0B6E
:1040600087E394E00E94288F2CEA35EC47E25EE378
:1040700060918B0B70918C0B80918D0B90918E0BBE
:104080000E9493BDAB01BC0183E394E00E94288FA2
:104090002CEA35EC47E25EE360918F0B7091900B58
:1040A0008091910B9091920B0E9446B8AB01BC019C
:1040B0008FE294E00E94288F8AE00E94C92D94C369
:1040C0000E94598F8BE394E00E94818E8DC380E51E
:1040D0000E94C288882351F00E948B886093700BE5
:1040E0007093710B8093720B9093730B89E40E9411
:1040F000C288882381F00E948B882CEA35EC47E245
:104100005EE30E9446B86093740B7093750B8093C6
:10411000760B9093770B84E40E94C288882381F009
:104120000E948B882CEA35EC47E25EE30E9493BD47
:104130006093780B7093790B80937A0B90937B0B41
:104140000E9429904091700B5091710B6091720BFD
:104150007091730B87E394E00E94288F2CEA35EC72
:1041600047E25EE36091740B7091750B8091760B62
:104170009091770B0E9493BDAB01BC0183E394E067
:104180000E94288F2CEA35EC47E25EE36091780BC1
:104190007091790B80917A0B90917B0B0E9446B8BD
:1041A000AB01BC018FE294E00E94288F8AE00E945C
:1041B000C92D1AC383E50E94C288182F882371F085
:1041C0000E948B880E9405BE70932A026093290288
:1041D00021E0672B09F020E02093F50480E50E94A0
:1041E000C288882359F02091290230912A02232B7A
:1041F00011F00E9477888093F504F6C21111F4C281
:104200000E9429908CE194E00E94818E8091F504B7
:10421000882319F08EE194E102C083E094E00E94CB
:10422000818E6091290270912A028BE094E00E94B5
:10423000398F87E094E00E94818ED6C20E94A252FC
:10424000D3C280911E1181110C94031481E00E944D
:10425000656E0C94031483E50E94C288182F88238E
:1042600021F00E947788982E02C090900C0B20912C
:1042700056023091570240915802509159022EA790
:104280003FA748AB59AB40905A0250905B026090F8
:104290005C0270905D0280915E0290915F02A0913D
:1042A0006002B09161028AAB9BABACABBDAB11239A
:1042B00029F0911003C080E00E94618B86E50E9486
:1042C000C2888AA720E030E0A90160913B03709189
:1042D0003C0380913D0390913E030E94E0B7882308
:1042E00009F4A7C083E40E94C288882309F4ADC002
:1042F0000E948B886EAB7FAB88AF99AFAAEDB2E01E
:10430000BBA3AAA3BF8FAE8FF3E0FA8F212C1EA20E
:1043100028EC2FA3B2ECDB2E312C812C38EC38A703
:1043200042E449A7E12CF12CEE8DFF8DEE0DFF1D2F
:1043300010810181B280A380212F302F4B2D5A2D67
:10434000632D782D88A599A50E94F9BE181624F42E
:10435000312E802EB8A6A9A6212F302F4B2D5A2DF5
:10436000622D7EA18FA19D2D0E94E0B787FF04C022
:10437000212E0EA3BFA2DA2C54E0E50EF11C8CE036
:10438000E816F10489F69A8D91509A8FAE8DBF8D03
:104390001C96BF8FAE8F9111C5CF222D3EA14FA18C
:1043A0005D2D632D782D88A599A50E9499BC20E0EC
:1043B00030E040E05FE30E9446B82EA93FA948AD37
:1043C00059AD0E9499BC6B017C012DEB37E346E8A7
:1043D00055EB0E94F9BE87FD0AC02DEB37E346E896
:1043E00055E3C701B6010E94E0B7181674F580E0E6
:1043F0000E94618B13E0AAA0BBA000E0A701960178
:10440000F50160817181828193810E9498BCD50100
:104410006D937D938D939D935D010F5F033071F7D5
:104420001150EAA1FBA13C96FBA3EAA31111E3CF33
:104430000CC0911003C0FAA5FF23D1F00E9429906F
:1044400084EF93E00E94818E1FC02AA5222381F071
:1044500020E030E0A90160913B0370913C03809122
:104460003D0390913E030E94E0B781110E94908E1F
:104470008AE50E94C288882321F00E948B880E94CE
:10448000F35E892D0E94618B992051F080910C0B75
:10449000811106C00E94598F85ED93E00E94818EA4
:1044A0000E94299087EC93E00E94818E80910C0BF2
:1044B000882319F082EE92E002C087E196E00E9424
:1044C000818E8AE00E94C92D0E9429908AEB93E098
:1044D0000E94818EC0900D0BD0900E0BE0900F0BC0
:1044E000F090100B20E030E0A901C701B6010E9456
:1044F000F9BE181644F442E0C701B6010E94592ED5
:104500000E94CE2E04C085EB93E00E94818E209104
:1045100056023091570240915802509159026EA5AF
:104520007FA588A999A90E94E0B781110C94031472
:1045300020915A0230915B0240915C0250915D02E1
:10454000C301B2010E94E0B781110C9403142091C1
:104550005E0230915F0240916002509161026AA94F
:104560007BA98CA99DA90E94E0B7882309F43CC1CE
:104570000C9403146FEF7FEF89E40E941889082FD1
:104580006FEF7FEF8AE40E941889182F8AE50E9456
:104590000B89811108C081E50E940B89B82E882300
:1045A00009F47BC401C0B12CA02E81E0800F8430BF
:1045B00008F050C0912E81E0810F843008F04AC08D
:1045C0000E948B882B013C01F02E07FDF12C07FF88
:1045D00002C0A2E0AA2E812E17FD812C17FF02C077
:1045E000F2E09F2EAF1408F4FFC0E82C8F2D90E06E
:1045F0006C01CC0CDD1CC80ED91E9E1448F10E2D8A
:1046000010E0BB2071F0F601E00FF11FEE0FFF1F6D
:10461000EE0FFF1FE652FD4F208131814281538111
:1046200003C020E030E0A9010C0D1D1D000F111F7B
:10463000000F111F06521D4FC301B2010E9499BC09
:10464000D8016D937D938D939C931397E394D5CF6D
:10465000F394C8CF0E94598F80EF97E00E94818E1B
:10466000C3C00E948F5F8111BFC006E118E0E6E57C
:10467000F2E0FB8FEA8F9E012F5F3F4F190193E11C
:10468000C92E98E0D92E7901F8016591759185912F
:104690009491AA8DBB8D8D909D90AD90BD90BB8F58
:1046A000AA8FA50194010E9498BC2B013C01F7013F
:1046B000608371838283938320E030E040EA51EC91
:1046C0000E94F9BE87FD0AC020E030E040EA51E4D4
:1046D000C301B2010E94E0B718162CF4F6018491D0
:1046E00018160CF4E1C3D7018D909D90AD90BD904C
:1046F0007D0120E030E040EA51ECC501B4010E94A8
:10470000F9BE87FDDCC320E030E040EA51E4C5019A
:10471000B4010E94E0B718160CF0E3C3D0C30E94A6
:10472000EC6962C00E944FA55FC00E941CA45CC0DF
:1047300061E083E50E94338991E089270E9465A5A5
:1047400053C081E08093D9020E942A971092D90227
:10475000882309F449C00E9429908CE493E00E94C8
:10476000818E42C08091370387FDF1C38091380369
:10477000837009F0ECC3BBC481E080936D03109299
:10478000FE0A60E083E50E94338981112DC00E94FA
:104790005D722AC00E94815F27C000916F03109153
:1047A00070030E94797D6093690370936A0380931C
:1047B0006B0390936C030023B9F00E94299084E569
:1047C0000E94C92DB8017727072E000C880B990B82
:1047D0000E943D2E80E20E94C92D8BE394E00E944E
:1047E000818E02C00E94815FE091D802F0E0E75E16
:1047F000FE4E8081882339F08DEF92E00E94818EF9
:104800008AE00E94C92DFCADF093720398C40E9407
:10481000AA9D80E00E94618B0E94797D609369036C
:1048200070936A0380936B0390936C030E94D893F8
:1048300081E0809368030E9496968AE50E94C28870
:10484000F82E88E50E94C288182F89E50E94C28848
:10485000181344C0F11611F0012F04C001E011E05B
:10486000FF24F39482E50E940B89882319F00E94AB
:104870008B8804C060E070E080EA90E469837A830A
:104880008B839C8320E030E0A9010E94E0B788235D
:1048900041F0111102C0002371F0CE0101960E9477
:1048A000534D112319F080E00E943AB1002319F012
:1048B00081E00E943AB1FF2031F080E00E94068E34
:1048C00082E00E943AB10E946795809167038093CD
:1048D00068030E94BF930E94699586CF082FC2CFBC
:1048E0000E94BF8181CF0E94F52E0C94D6161092A3
:1048F00073031093720378CF88E50E94C2888111F8
:104900005F9889E50E94C28881118A988AE50E9491
:10491000C288882331F0809108018170809306015C
:10492000479885E40E94C288882309F45DCF1298D5
:104930005BCF60E086EC97E00E94BE515F988A985A
:1049400080910801817080930601479812984CCF9E
:10495000A5019401C701B6010E94F9BE181694F092
:104960008AE197E09F938F9386E597E09F938F93DB
:104970001F920E94F9A80F900F900F900F900F9028
:104980000C94451889E297E0EDCF0E948B880E9435
:1049900005BE683771050CF07BC170936E0B609398
:1049A0006D0B0E94AE6160E081E00E9486AB609179
:1049B0006D0B70916E0B072E000C880B990B0E94EB
:1049C000E7B72091690B30916A0B40916B0B5091C6
:1049D0006C0B0E94F9BE18161CF484E297E002C02A
:1049E00085E197E060E00E94BE5181E08093200263
:1049F0001E8E1F8E18A219A21AA61BA61CA61DA6E3
:104A00001AAA8CE38EAB9CE19AAFA6E4ABAFC12CA3
:104A1000D12C90E8E92E2FEBF22E1A8EB1E0BEA732
:104A2000812C912C540160916D0B70916E0B072EAF
:104A3000000C880B990B0E94E7B7162F072F782ED2
:104A4000692E9601A7010E94E0B7882321F12091E9
:104A5000690B30916A0B40916B0B50916C0BE9A57F
:104A6000612F702F872D962DE11107C00E94E0B7AE
:104A7000881F8827881F8A8F14C00E94E0B787FF8D
:104A80000FC080912002882309F4AECE109220023C
:104A90000E94705FA9CE1C2D0D2D7E2C6F2C01C0A5
:104AA0001A8E0E94797D6B017C01DC01CB012AA565
:104AB0003BA54CA55DA5821B930BA40BB50BB7FDC5
:104AC00033C0D701C60188519C4FAF4FBF4F8AA753
:104AD0009BA7ACA7BDA780E00E94046182E597E098
:104AE0000E94818E81149104A104B104B9F0D50112
:104AF000C401805F984DAF4FBF4FBC01CD016C1911
:104B00007D098E099F0928EE33E040E050E00E94C5
:104B1000E7BBCA01B9010E943D2E03C08FE30E948A
:104B2000C92D8AE00E94C92D0E94F52E0E94797D30
:104B30006093690370936A0380936B0390936C0393
:104B40009091690B9AA3A0916A0BAEA3B0916B0BE5
:104B5000BFA3E0916C0BE8A7292F3A2F4B2F5E2FB4
:104B6000612F702F872D962D0E9498BC1B012C0160
:104B700020E030E0A9010E94F9BE87FF04C057FA87
:104B8000509457F8509481149104A104B104E1F4B5
:104B900020E030E040E85FE3C201B1010E94E0B7ED
:104BA00087FF1EC0FEA5FF2339F085E0882E8DE02B
:104BB000982EA12CB12C03C0812C912C54018C0C6B
:104BC0009D1CAE1CBF1C0CC020E030E040E450E453
:104BD000C201B1010E94F9BE181614F44601570132
:104BE0002A8D2223C1F18E8D9F8DA8A1B9A1892B79
:104BF0008A2B8B2B61F0D701C6012E8D3F8D48A1EA
:104C000059A1821B930BA40BB50BB7FD24C02AA19D
:104C10003EA14FA158A56AA97EA98AAD9BAD0E946D
:104C200098BC20E030E040E85FE30E94E0B787FDF9
:104C300028CFD701C601805A9541AF4FBF4F8E8F05
:104C40009F8FA8A3B9A39AA19AABAEA1AEABBFA107
:104C5000BAAFE8A5EBAF80912002882309F411CF09
:104C600081149104A104B10431F41EA6C12ED02EEA
:104C7000E72CF62CD8CEF0E1CF1AF7E2DF0AE108F4
:104C8000F108C818D908EA08FB08F7FCEECFF9CEFE
:104C900068E770E082CE0E94AA9D88E50E94C288E3
:104CA000882331F05F9A80911D118E7F80931D11B2
:104CB00089E50E94C288882331F08A9A80911D116B
:104CC0008D7F80931D118AE50E94C288882361F040
:104CD000809108018095817080930601479A8091A8
:104CE0001D118B7F80931D1185E40E94C28888234B
:104CF00009F47ACD0E947F2977CD0E94BA9D74CDA8
:104D0000602F83E50E9433890C941E1D83E50E9469
:104D10000B89882391F00E948B886093BD0A709361
:104D2000BE0A8093BF0A9093C00A6093C50A70932D
:104D3000C60A8093C70A9093C80A80E50E940B892F
:104D4000882351F00E948B886093BD0A7093BE0A3D
:104D50008093BF0A9093C00A82E50E940B89882342
:104D600051F00E948B886093C10A7093C20A8093AD
:104D7000C30A9093C40A84E50E940B89882309F42E
:104D800033CD0E948B886093C50A7093C60A8093C6
:104D9000C70A9093C80A28CD4091BD0A5091BE0A17
:104DA0006091BF0A7091C00A85EB94E00E94288F41
:104DB0004091C10A5091C20A6091C30A7091C40A1D
:104DC00082EB94E00E94288F4091C50A5091C60A58
:104DD0006091C70A7091C80A8FEA94E00E94288FF8
:104DE0008AE00E94C92D00CD82E40E94C2888823F7
:104DF00051F00E94A17B6093990A70939A0A809364
:104E00009B0A90939C0A83E50E94C288882351F0F4
:104E10000E948B886093C90A7093CA0A8093CB0A58
:104E20009093CC0A84E50E94C288882351F00E94A6
:104E30008B886093CD0A7093CE0A8093CF0A9093AB
:104E4000D00A8AE40E94C288882309F4CDCC0E944B
:104E50008B886B017C012AE037ED43E25CE30E9422
:104E6000F9BE87FD13C02AE939E949E95EE3C701C4
:104E7000B6010E94E0B718164CF0C092CD04D09253
:104E8000CE04E092CF04F092D004AECC0E94598FB1
:104E900080E994E00E94818EA7CC0E94598F85E919
:104EA00093E00E94818EA0CCB7FAB094B7F8B0948A
:104EB000D7018D929D92AD92BC92139714CC0E9413
:104EC000598F87E793E00E94818E61E089E693E045
:104ED0000E94BE5168E270E088EC90E00E9472513E
:104EE00083CC0C5F1F4FBFEFCB1ADB0AE2E2F8E086
:104EF000E017F10709F0C8CB82E0E82E83E0F82E36
:104F000010E0F10181919191A191B1911F01F701FF
:104F100081939193A193B1937F01812F0E9410A35C
:104F20001F5F133071F70E94699560E087E593E099
:104F30000E94BE5163E972E084E690E00E947251E3
:104F40006AEB72E084E690E00E9472514DCCF091E1
:104F50001F11FA8F80902011709021116090221102
:104F6000509023114090241130902511209026114B
:104F7000C0902711D0902811E0902911F0902A11AB
:104F800088E50E940B89882361F10E948B885B0170
:104F90008C0120E030E04CE553EC0E94F9BE87FD27
:104FA0000AC020E030E04CE553E4B501C8010E949E
:104FB000E0B7181694F46CED70E08AE293E00E947A
:104FC000398F6CED70E085E293E00E94398F87E1C4
:104FD0009FE10E94818E10E005C0AA8E8B2C702E5E
:104FE000612E11E089E50E940B89882381F10E94DE
:104FF0008B88962EA72EB82E092F20E030E04CE5A6
:1050000053EC0E94F9BE87FD0CC020E030E04CE577
:1050100053E4692D7A2D8B2D902F0E94E0B718163E
:1050200094F46CED70E082E193E00E94398F6CEDB6
:1050300070E085E293E00E94398F87E19FE10E9452
:10504000818E10E004C0592C4A2C3B2C202E8AE57E
:105050000E940B89882339F10E948B886B017C01A7
:1050600020E030E040EA51EC0E94F9BE87FD0AC022
:1050700020E030E040EA51E4C701B6010E94E0B709
:1050800018168CF46CEE7FEF80E093E00E94398F6D
:1050900064E170E085E293E00E94398F87E19FE14F
:1050A0000E94818EA1CB112309F49ECB8A8D982D6D
:1050B000A72DB62D80931F1190932011A09321113D
:1050C000B0932211852D942DA32DB22D8093231101
:1050D00090932411A0932511B0932611C09227110B
:1050E000D0922811E0922911F0922A117DCB4091A3
:1050F0001F115091201160912111709122118DE3A7
:1051000093E00E94288F40912311509124116091C7
:1051100025117091261188E195E10E94288F409118
:105120002711509128116091291170912A1182E163
:1051300095E10E94288F8AE00E94C92D55CBEE96FA
:105140000FB6F894DEBF0FBECDBFDF91CF911F9198
:105150000F91FF90EF90DF90CF90BF90AF909F9016
:105160008F907F906F905F904F903F902F90089519
:10517000CF92DF92EF92FF920F931F93CF93DF9323
:105180006C018B017A01EC01C75FDB4F888187FFDF
:1051900004C0FB011182108224C02CE02C9DC001B0
:1051A0002D9D900D11242881AC01420F511D27FD2A
:1051B0005A952091150F30E04217530794F4288137
:1051C000AC01420F511D27FD5A959A01FA01EE0FCD
:1051D000FF1F2E0F3F1FF901E353F14F208127FDE1
:1051E00019C088818F5F88832CE02C9DC0012D9D84
:1051F000900D11242881AC01420F511D27FD5A95B5
:105200002091150F30E042175307BCF428812C3051
:1052100044F113C02881820F911D27FD9A95FC014E
:10522000EE0FFF1F8E0F9F1FFC01E353F14F808194
:1052300060E08F770E94D47CD4CFF8018081918187
:10524000049680349C4918F480E49CE904C0F80179
:10525000808191810496F701918380838FEF888309
:1052600045C0F801408151812881BC01620F711D48
:1052700027FD7A959B01FB01EE0FFF1F2E0F3F1FAD
:10528000F901E353F14F21813281240F351FF701DA
:10529000318320832881AC01420F511D27FD5A958F
:1052A0009A01FA01EE0FFF1F2E0F3F1FF901E35382
:1052B000F14F208127FF1AC02881820F911D27FD01
:1052C0009A95FC01EE0FFF1F8E0F9F1FFC01E35309
:1052D000F14F808161E08F77DF91CF911F910F9126
:1052E000FF90EF90DF90CF900C94D47CDF91CF9122
:1052F0001F910F91FF90EF90DF90CF900895129A39
:1053000008955F9A80911D118E7F80931D118A9A56
:1053100080911D118D7F80931D11809108018095D2
:10532000817080930601479A80911D118B7F809335
:105330001D110C947F29C42F0E94E6610E94598F91
:1053400088E599E00E94818E8091E40A80FD07C083
:1053500081608093E40A84E599E00E946F5289EEAF
:1053600093E030E6019729F0232F2A950000E9F712
:10537000F9CFF89489EE93E038EE019729F0232FC6
:105380002A950000E9F7F9CF0E94E661CC2319F0D5
:105390000E94812902C00E947F29A895FECF0E9409
:1053A0003CA190911D0F90931C0F90931B0F909315
:1053B0001A0F94E69093190F20ED33E03093870A8B
:1053C0002093860A81110E9449A181E080936D118A
:1053D0000E94AA9D8EEF0E94D7940C946795FF922D
:1053E0000F931F93CF93DF931F92CDB7DEB7F82EA5
:1053F00008E719E041E050E0B801CE0101960E94B3
:1054000015B789818F1102C081E007C00F5F1F4F60
:1054100089E00839180771F780E00F90DF91CF918C
:105420001F910F91FF900895DC01EC91F0E0CF0106
:10543000880F991FE80FF91FE353F14F80818F7791
:10544000808308958F929F92AF92BF92CF92DF9206
:10545000EF92FF920F93CF93DF931F92CDB7DEB7FA
:105460005C016B017A014901F501808191810E9403
:10547000C1BB8983002311F0F6018083BE016F5FF9
:105480007F4FC4010E940CA8F50180819181019693
:1054900091838083FFEFCF1ADF0A81E0E81AF108D9
:1054A00019F780E00F90DF91CF910F91FF90EF906F
:1054B000DF90CF90BF90AF909F908F9008957F9294
:1054C0008F929F92AF92BF92CF92DF92EF92FF9214
:1054D0000F931F93CF93DF931F92CDB7DEB77C015D
:1054E00059018B016B01C40ED51E0C151D0559F118
:1054F000F70180809180F80171908F017982C40159
:105500000E94C1BB781691F0672DC4010E94C9BBEF
:10551000C4010E94C1BB9981891741F00E94299062
:105520008CE298E00E94818E81E00EC0BE016F5F28
:105530007F4FC5010E940CA8F701808191810196DF
:1055400091838083D2CF80E00F90DF91CF911F9124
:105550000F91FF90EF90DF90CF90BF90AF909F9012
:105560008F907F900895009781F41092900082E0D0
:10557000809391001092950010929400C19A8091AE
:1055800071008260809371000895019761F4109218
:10559000A00082E08093A1001092A5001092A400C8
:1055A00089BB8093720008957F928F929F92AF92F1
:1055B000BF92CF92DF92EF92FF920F931F93CF9300
:1055C000DF93FC019081983108F0CEC06B017F0120
:1055D000892F90E0FC01EE0FFF1F8E0F9F1FFC0133
:1055E000E353F14F808161E08F770E94037DF701E3
:1055F0001182128280816CE00E944ABCFCE08F9F85
:10560000B001112440E050E09B01240F351FF90147
:10561000EE0FFF1F2E0F3F1FF901E353F14F908153
:1056200097FD08C04F5F5F4F4C30510569F790E020
:105630000E94B32AF7017080C72DD0E08E01000FC1
:10564000111FF801EC0FFD1FE353F14F80818068BB
:10565000808377FC89C0F0E2CF16F2E0DF060CF021
:1056600041C0F701828128E532E0281B310987FD1E
:105670003395220F331F220F331F032E000C440BD0
:10568000550B818168E870E04B01881A910887FD0D
:105690009394880C991C880C991C092C000CAA085E
:1056A000BB08D7FC0BC0B601653B710514F064EB79
:1056B00070E0072E000C880B990B03C060E070E0CF
:1056C000CB01281939094A095B090E94D7BB24EB91
:1056D00030E040E050E00E9409BC820E931EA41E00
:1056E000B51E01C04601F7E1F71558F1F701218118
:1056F00088E890E0821B910927FD9395880F991FF8
:10570000880F991F8816990684F0F701228188E591
:1057100092E0821B910927FD9395880F991F880FAE
:10572000991F881699060CF4C40102972FB7F894B4
:10573000C00FD11FC353D14F880F991F9A838983FC
:105740002FBF62E370E080E090E0DF91CF911F9186
:105750000F91FF90EF90DF90CF90BF90AF909F9010
:105760008F907F900C94C38DDF91CF911F910F91FB
:10577000FF90EF90DF90CF90BF90AF909F908F9071
:105780007F9008951F920F920FB60F9211240BB6BF
:105790000F922F933F934F935F936F937F938F93CA
:1057A0009F93AF93BF93EF93FF9348EA50E064EA6F
:1057B00070E081E090E00E94B828FF91EF91BF91E6
:1057C000AF919F918F917F916F915F914F913F9199
:1057D0002F910F900BBE0F900FBE0F901F9018953A
:1057E0001F920F920FB60F9211240BB60F922F93A8
:1057F0003F934F935F936F937F938F939F93AF9359
:10580000BF93EF93FF9348E950E064E970E080E0D4
:1058100090E00E94B828FF91EF91BF91AF919F91C6
:105820008F917F916F915F914F913F912F910F9049
:105830000BBE0F900FBE0F901F90189590913101E5
:1058400095FD04C09091300195FD40C020918703E3
:105850002F5F2F770FB607FC26C09091880329137E
:1058600027C09091300195FF1DC090918803409111
:105870008703941791F0E92FF0E0E957FC4F32814C
:105880009F5F9F773093360190938803309130016A
:10589000306430933001491305C0909131019F7DF0
:1058A00090933101DACF90918803291301C0FBCF87
:1058B000E0918703F0E0E957FC4F82832093870350
:1058C0008091310180628093310108958093360187
:1058D0008091300180648093300108958F929F926F
:1058E000AF92BF92EF92FF920F931F93CF93DF93EC
:1058F000CDB7DEB7A0970FB6F894DEBF0FBECDBF11
:10590000611571058105910591F100E0842E912CBE
:10591000A12CB12C102FEE24E394F12CEC0EFD1EE3
:10592000E00EF11C07FDFA94A50194010E94E7BB6B
:10593000F7016083B901CA010F5F61157105810527
:10594000910541F71F3F31F1E1E0F0E0EC0FFD1F61
:10595000E10FF11D17FDFA9580818A3010F097E371
:1059600001C090E3890F0E941E2C1150EBCF80E301
:10597000A0960FB6F894DEBF0FBECDBFDF91CF91DA
:105980001F910F91FF90EF90BF90AF909F908F90DD
:105990000C941E2CA0960FB6F894DEBF0FBECDBFA0
:1059A000DF91CF911F910F91FF90EF90BF90AF903B
:1059B0009F908F9008954F925F926F927F928F92F7
:1059C0009F92AF92BF92CF92DF92EF92FF92CF93CE
:1059D0004B015C01C42F20E030E0A9010E94E0B738
:1059E00087FF07C08DE20E941E2CB7FAB094B7F86B
:1059F000B094F12C60E070E080E09FE3FC1641F091
:105A00002DEC3CEC4CEC5DE30E9446B8F394F6CFF1
:105A10009B01AC01C501B4010E9499BC4B015C0122
:105A20000E940CBE2B013C014AE00E946E2CFF201C
:105A300009F442C0C301B2010E94E5B79B01AC0169
:105A4000C501B4010E9498BC4B015C018EE20E942A
:105A50001E2CCF2D20E030E040E251E4C501B4011E
:105A60000E9446B84B015C010E9405BE6B01770F96
:105A7000EE08FF0826013701F7FE0BC08DE20E94F9
:105A80001E2CF094E094D094C094C11CD11CE11C55
:105A9000F11C4AE0C701B6010E946E2CB201C3019D
:105AA0000E94E7B79B01AC01C501B4010E9498BCFC
:105AB0004B015C01C15071F6CF91FF90EF90DF90E8
:105AC000CF90BF90AF909F908F907F906F905F909E
:105AD0004F9008951F920F920FB60F9211240BB69C
