:100000000C9455160C9486160C9486160C94861631
:100010000C9486160C9486160C9486160C948616F0
:100020000C9486160C9486160C9486160C948616E0
:100030000C9486160C9433690C9486160C948616D0
:100040000C9486160C94F8B70C9486160C948616AD
:100050000C9486160C9486160C94424B0C94BDD5C9
:100060000C9486160C94C9460C9494460C948616EF
:100070000C9486160C9486160C9486160C94861690
:100080000C9474420C9486160C9486160C94861666
:100090000C9486160C9486160C9486160C94861670
:1000A0000C9486160C9486160C9446420C94861674
:1000B0000C9486160C9486160C9486160C94861650
:1000C0000C9486160C9486160C9486160C94861640
:1000D0000C9486160C9486160C9423440C94EE43D0
:1000E0000C948616472C522C722C7D2C8C2CB42C04
:1000F000F42C522D9E2DB92DD22DDC2D0D2E142E2B
:10010000612EAC316A2EB32EDD2E132F1E2F4F2FF2
:100110005D2FB130DA3003311431AC319931AC316B
:10012000AC31AC31AC31A43163336A3375337C33D9
:1001300083338E339B33564468447A448B449344D0
:10014000C2449744C2449B449F44C244A344A7442E
:10015000AB44B344C244BD440F47214733474447EF
:100160004C477B4750477B47544758477B475C4742
:10017000604764476C477B4776473D554255475536
:1001800051555B55D45565556D5575557F558955F8
:100190009355A255AC55D455B655C055CA5528D51A
:1001A0002BD51AD51ED522D562D52FD533D539D525
:1001B0003DD541D547D54BD54FD562D555D559D528
:1001C0005DD505A84CCDB2D44EB93836A9020C5035
:1001D000B9918688083CA6AAAA2ABE000000803FE2
:1001E0000C947F550C94522D0C944C470C94DC2DA0
:1001F0000C94AB440C946A330C94BD440C943D5560
:100200000C947D2C0C941AD50C947A440C9475554E
:100210000C94B92D0C9456440C94132F0C948333E6
:100220000C94722C0C94F42C0C94A4310C94444730
:100230000C94A3440C945D2F0C94DA300C94CDE212
:100240000C9464470C94A7440C9447D50C941E2F2F
:100250000C9439D50C9422D50C949B330C9433D543
:100260000C944BD50C94522C0C9493550C94AC31AB
:100270000C9455D50C9426E30C9497440C94584751
:100280000C9403310C9421470C94142E0C940F47BA
:100290000C94B42C0C945C470C94612E0C94B344D5
:1002A0000C94C0550C946C470C948C2C0C949B446F
:1002B0000C942BD50C945DD50C94472C0C947C336A
:1002C0000C94D22D0C9462D50C947B470C9454471B
:1002D0000C94AC550C9489550C9447550C940D2EE8
:1002E0000C9428D50C94CA550C948B440C946555E9
:1002F0000C942FD50C94DD2E0C9499310C9459D577
:100300000C9450470C946D550C9463330C946A2EE6
:100310000C941ED50C9475330C9414310C94B32E9C
:100320000C9442550C9476470C949E2D0C9441D518
:100330000C944FD50C9433470C945B550C94D455C6
:100340000C944F2F0C94B1300C94A2550C94B655CC
:100350000C9493440C9451550C948E330C94604738
:100360000C9468440C94C2440C943DD50C949F4466
:100370004E414E494E495459494E46CDCCCC3D0A8A
:10038000D7233C17B7D13877CC2B329595E6241F6D
:10039000B14F0A000020410000C84200401C462026
:1003A000BCBE4CCA1B0E5AAEC59D74434F4D4D5535
:1003B0004E49434154494F4E0044525952554E0004
:1003C0004552524F5253004543484F00536C6565A8
:1003D000702E2E2E004D65736820706F696E74202C
:1003E0006F7574206F662072616E67650A004D300C
:1003F0002053746F70004D312053746F7000436F41
:100400006E74696E756500436C69636B20746F2050
:10041000526573756D652E2E2E004E6F204D6F76D2
:10042000652E00456E642066696C65206C69737486
:100430000A00426567696E2066696C65206C6973A5
:10044000740A004E6F206D656469610A005265731D
:10045000756D696E6720534400286E6F2066696C65
:1004600065290043757272656E742066696C653A21
:1004700020005344207072696E74696E672062793F
:10048000746520004E6F74205344207072696E743E
:10049000696E670A0044656C6574696F6E206661F9
:1004A000696C65642C2046696C653A200046696C6D
:1004B000652064656C657465643A005072696E7499
:1004C0002074696D653A20000A53746174733A2090
:1004D00046696C616D656E7420757365643A2000C1
:1004E0002C204C6F6E67657374206A6F623A20002F
:1004F000546F74616C2074696D653A20002C20463D
:1005000061696C65643A20002C2046696E697368E5
:1005100065643A20005072696E74733A2000537417
:100520006174733A200045202553004445425547E5
:100530003A004D313133205300416E796375626961
:1005400063206933204D6567612053204F46462E56
:10055000004348414D4245525F54454D504552413C
:100560005455524500424142595354455050494E0A
:10057000470041524353004D4F54494F4E5F4D4F3A
:1005800044455300544845524D414C5F50524F54DE
:10059000454354494F4E004C4F4E475F46494C45EA
:1005A0004E414D45004155544F5245504F52545FB6
:1005B00053445F53544154555300534443415244B0
:1005C0000050524F4D50545F535550504F525400AD
:1005D000454D455247454E43595F50415253455250
:1005E00000434153455F4C494748545F4252494795
:1005F00048544E45535300544F47474C455F4C4970
:100600004748545300534F4654574152455F504F4B
:10061000574552004255494C445F50455243454E60
:1006200054004C4556454C494E475F4441544100A7
:100630005A5F50524F4245004155544F4C45564524
:100640004C005052494E545F4A4F420050524F475F
:1006500052455353004155544F5245504F52545FE9
:1006600054454D5000564F4C554D4554524943004A
:10067000454550524F4D0042494E4152595F4649FF
:100680004C455F5452414E534645520053455249E2
:10069000414C5F584F4E5F584F4646004649524DB9
:1006A000574152455F4E414D453A4D61726C696EFE
:1006B00020322E302E372E3120284F6374203136D1
:1006C00020323032302031363A30333A323029203D
:1006D000534F555243455F434F44455F55524C3A43
:1006E00068747470733A2F2F6769746875622E632B
:1006F0006F6D2F4D61726C696E4669726D776172B4
:10070000652F4D61726C696E2050524F544F434FAC
:100710004C5F56455253494F4E3A312E30204D4191
:100720004348494E455F545950453A416E79637587
:10073000626963206933204D656761205320455805
:100740005452554445525F434F554E543A3120550B
:100750005549443A63656465326132662D343161CE
:10076000322D343734382D396231322D63353563CB
:1007700036326633363766660A002F2F2000416313
:1007800063656C65726174696F6E3A205000574101
:10079000524E494E4721204C6F77205A204A6572AD
:1007A0006B206D6179206C65616420746F20756EBB
:1007B00077616E746564207061757365732E0A00CD
:1007C00046523A0020466C6F773A200020536572FB
:1007D000766F200020643A0020693A0020703A00C9
:1007E000496E76616C6964206578747275646572AF
:1007F0000A006469730043290A0061626C65642021
:10080000286D696E2074656D702000436F6C6420E4
:10081000657874727564657320617265200046693D
:100820006C616D656E742072756E6F757420004D0D
:1008300034323120696E636F727265637420706147
:1008400072616D657465722075736167650A004F2A
:10085000666673657473204170706C6965640045E9
:1008600072723A20546F6F206661722100546F6F6C
:10087000206661722066726F6D20726566657265B2
:100880006E636520706F696E740A00454550524F63
:100890004D204F4B0A00205A323A004475616C20BB
:1008A000456E6473746F702041646A7573746D650E
:1008B0006E7420286D6D293A20002028302D3130AB
:1008C00029002076616C7565206F7574206F662035
:1008D00072616E676500416476616E6365204B3DB1
:1008E000004D383400446F6E65207072696E746913
:1008F0006E672066696C650A004D3737004D3331ED
:1009000000C7039323C003B903AB034A3138004A3D
:100910003034004A3132004A323100205A3A200045
:1009200020593A20004A31340043616E6E6F7420C2
:10093000656E746572207375626469723A20004D49
:10094000313038005370656369616C204D656E7598
:100950003A2053656E64205573657220436F6E664E
:1009600069726D6174696F6E0A004D3530300A4DE1
:1009700033303020503130352053313130380A4D4A
:10098000333030205032313020533136363100533D
:1009900070656369616C204D656E753A20536176B0
:1009A0006520454550524F4D0A004D3530320A4DB5
:1009B00033303020503130352053313636310A4D06
:1009C0003330302050323130205331313038005301
:1009D00070656369616C204D656E753A204C6F617E
:1009E000642046572044656661756C74730A004D37
:1009F00033303320452D31205336352043362055B2
:100A000031005370656369616C204D656E753A20E5
:100A10004175746F2054756E6520486F746265640B
:100A2000205069640A004D31303620533230340A88
:100A3000473420503530300A4D3330332045302094
:100A400053323135204331352055310053706563C1
:100A500069616C204D656E753A204175746F205444
:100A6000756E6520486F74656E64205049440A00B5
:100A70004732380A473239005370656369616C2028
:100A80004D656E753A204175746F20426564204C47
:100A90006576656C696E670A004D313430205336D7
:100AA00035005370656369616C204D656E753A2041
:100AB00050726568656174204265640A0063616E06
:100AC00063656C005072696E742041626F72746568
:100AD00064004469736D6973730055492041626F06
:100AE00072746564004A313600726573756D650015
:100AF0004D323520500A4D323400526573756D65A4
:100B0000005549205061757365004739310A4731F6
:100B100020452D322046313830300A473930004ADE
:100B20003035002F2E2E003C5370656369616C20B8
:100B30004D656E753E003C7370656369616C6D6EEA
:100B4000753E003C4175746F2054756E6520486F8A
:100B500074626564205049443E003C30344874421D
:100B600065645049443E003C4175746F2054756E75
:100B70006520486F74656E64205049443E003C30E7
:100B8000334874456E645049443E003C4175746F6F
:100B900020426564204C6576656C696E673E003C5A
:100BA000303241424C3E003C5072656865617420B1
:100BB0006265643E003C3031507265687442656421
:100BC0003E003C457869743E003C53656E64205598
:100BD00073657220436F6E6669726D6174696F6EC2
:100BE0003E003C303753656E644D3130383E003C3A
:100BF0005361766520454550524F4D3E003C30369E
:100C00005376454550524F4D3E003C4C6F61642039
:100C100046572044656661756C74733E003C303500
:100C200046574465666C74733E00454E44003C5321
:100C300070656369616C5F4D656E753E004A303268
:100C400000464E2000322E302E372E31004A3333EC
:100C500020004F4B004739310A25730A47393000CD
:100C60004731204525694635303000473120452D34
:100C7000302E314625690047312045302E3146253A
:100C800069004731205A2569462569004731205AB5
:100C90002D302E31462569004731205A302E3146FD
:100CA00025690047312059256946256900473120CB
:100CB000592D302E314625690047312059302E31CB
:100CC0004625690047312058256946256900473186
:100CD00020582D302E314625690047312058302EBE
:100CE000314625690047323800473238205A0047DC
:100CF00032382059004732382058004132305620CF
:100D0000004731205A3130004A3230005072696E4B
:100D10007465722068616C7465642E206B696C6CFC
:100D200028292063616C6C65642100203939393AC7
:100D300039393900204D0020482000413756200025
:100D4000413656202D2D2D00413656200041355676
:100D500020583A20004134562000413356200041AB
:100D600032562000413156200041305620004D3887
:100D7000340A4D32370024F4D43050C38E20C2A23E
:100D80004017828B7011127A910D816CD90AA8617B
:100D9000E108C7586607615143061E4B5D05C14512
:100DA000A7041A411104093D9803713931034036F3
:100DB000DB0265339102D4305402802E1D02632C75
:100DC000EE01752AC501B028A001102781018F25E9
:100DD00064012B244B01E0223401AC211F018D2042
:100DE0000D01801FFC00841EED00971DDF00B81C64
:100DF000D200E61BC600201BBC00641AB200B21968
:100E0000A8000A19A0006A189900D117910040178C
:100E10008B00B516840031167E00B31579003A15A3
:100E20007300C7146F0058146A00EE13660088132D
:100E3000630025135E00C7125B006C125700151289
:100E40005400C111510070114F0021114B00D610F8
:100E500049008D1047004610440002104200C00FA8
:100E60004000800F3E00420F3C00060F3B00CB0EBF
:100E70003800930E37005C0E3500270E3400F30D5A
:100E80003200C10D3100900D3000600D2E00320D8A
:100E90002D00050D2C00D90C2B00AE0C2900850C63
:100EA00029005C0C2700350C27000E0C2600E80BEF
:100EB0002400C40B2400A00B23007D0B23005A0B3D
:100EC0002100390B2100180B2000F80A1F00D90A55
:100ED0001E00BB0A1E009D0A1D00800A1D00630A39
:100EE0001C00470A1B002C0A1B00110A1A00F709F4
:100EF0001A00DD091900C4091900AB09190092098B
:100F000017007B091800630917004C091600360901
:100F10001600200916000A091500F5081500E0085A
:100F20001400CC081400B8081400A4081400900899
:100F300013007D0812006B081300580812004608C1
:100F400012003408110023081100120811000108D2
:100F50001100F0071000E0071000D0071000C007D4
:100F60001000B0070F00A107100091070E008307C3
:100F70000F0074070F0065070E0057070E004907A2
:100F80000E003B070D002E070E0020070D00130773
:100F90000D0006070D00F9060C00ED060D00E00639
:100FA0000C00D4060C00C8060C00BC060C00B006F1
:100FB0000C00A4060B0099060C008D060B0082069F
:100FC0000B0077060B006C060B0061060A00570643
:100FD0000B004C060A0042060A0038060A002E06DC
:100FE0000A0024060A001A060A001006090007066D
:100FF0000A00FD050900F4050900EB050900E205FA
:101000000900D9050900D0050900C7050900BE057A
:101010000900B5050800AD050800A50509009C05F7
:101020000800940508008C050800840508007C056C
:101030000800740508006C050700650508005D05DB
:101040000700560508004E05070047050700400544
:10105000080038050700310507002A0507002305A9
:1010600007001C050600160507000F050700080508
:10107000060002050700FB040600F5040700EE0465
:101080000600E8040600E2040700DB040600D504BD
:101090000600CF040600C9040600C3040600BD0410
:1010A0000600B7040600B1040500AC040600A6045F
:1010B0000600A00405009B040600950405009004AA
:1010C00006008A04050085040500800406007A04F1
:1010D000050075040500700405006B040500660436
:1010E0000500610405005C04050057040500520476
:1010F00005004D04050048040500430405003E04B6
:1011000004003A04050035040500300404002C04F2
:10111000050027040400230405001E0404001A042B
:10112000040016040500110404000D040400090461
:1011300005000404040000040400FC030400F80398
:101140000400F4030400F0030400EC030400E803CB
:101150000400E4030400E0030400DC030400D803FB
:101160000400D4030400D0030400CC030400C8032B
:101170000300C503030024F404D9201BC40C5C0E37
:101180009804C4095F0265077101F405F900FB04C6
:10119000B30048048700C1036900580355000303E6
:1011A0004500BE023A008402310053022A0029029F
:1011B000250004022000E4011C00C8011900AF0151
:1011C00017009801140084011300710110006101DF
:1011D000100051010E0043010D0036010B002B01E0
:1011E0000B0020010B00150109000C01090003018F
:1011F0000800FB000800F3000800EB000700E40013
:101200000600DE000600D8000600D2000600CC0072
:101210000500C7000500C2000500BD000400B900BC
:101220000400B5000400B1000400AD000400A900F2
:101230000400A5000300A20003009F0004009B001F
:101240000300980003009500020093000300900043
:1012500003008D0002008B0003008800020086005E
:10126000020084000300810002007F0002007D0074
:1012700002007B0002007900020077000100760086
:1012800002007400020072000100710002006F0091
:1012900002006D0001006C0002006A00010069009C
:1012A00002006700010066000100650001006400A3
:1012B00002006200010061000100600001005F00A7
:1012C00002005D0001005C0001005B0001005A00AB
:1012D00001005900010058000100570001005600AC
:1012E00001005500010054000100530000005300AC
:1012F00001005200010051000100500001004F00A8
:1013000001004E0000004E0001004D0001004C00A5
:1013100001004B0000004B0001004A0001004900A1
:10132000010048000000480001004700010046009D
:101330000000460001004500000045000100440097
:101340000100430000004300010042000000420091
:1013500001004100000041000100400001003F0089
:1013600000003F0001003E0000003E0001003D0083
:1013700000003D0001003C0000003C0000003C007B
:1013800001003B0000003B0001003A0000003A0071
:101390000100390000003900010038000000380069
:1013A000000038000100370000003700010036005F
:1013B0000000360000003600010035000000350056
:1013C000000035000100340000003400000034004B
:1013D0000100330000003300000033000100320040
:1013E0000000320000003200010031000000310036
:1013F000000031000100300000003000000030002B
:1014000001002F0000002F0000002F0000002F001F
:1014100001002E0000002E0000002E0001002D0013
:1014200000002D0000002D0000002D0001002C0008
:1014300000002C0000002C0000002C0001002B00FC
:1014400000002B0000002B0000002B0001002A00F0
:1014500000002A0000002A0000002A0001002900E4
:1014600000002900000029000000290000002900D8
:1014700001002800000028000000280000002800CB
:1014800000002800010027000000270000002700BE
:1014900000002700000027000100260000002600B1
:1014A00000002600000026000000260001002500A4
:1014B0000000250000002500000025000000250098
:1014C000000025000100240000002400000024008A
:1014D000000024000000240001002300000023007D
:1014E0000000230000002300000023000000230070
:1014F0000000230001002200000022000000220062
:101500000000220000002200000022000100210053
:101510000000210000002100000021000000210047
:101520000000210000002100010020000000200038
:10153000000020000000200000002000000020002B
:10154000000020000000200001001F0000001F001C
:1015500000001F0000001F0000001F0000001F000F
:1015600000001F0001001E0000001E0000001E0001
:1015700000001E000000232C0000B82200005618B6
:1015800000003A0F0000B8080000B104000071022A
:1015900000003E0100004572726F7220777269741C
:1015A000696E6720746F20454550524F4D210A00E7
:1015B0004A3137002020506C616E6E65724275664C
:1015C00066657242797465733A20002046726565DB
:1015D000204D656D6F72793A2000436F6D70696CB4
:1015E00065643A204F637420313620323032300A3D
:1015F00000204C61737420557064617465643A20F6
:10160000323032302D31302D3130207C2041757414
:10161000686F723A20286830736368313830206808
:101620006F7363686940616E756B69732E646529B9
:101630000A00322E302E372E310A004D61726C694D
:101640006E0020536F667477617265205265736512
:10165000740A00205761746368646F672052657371
:1016600065740A002042726F776E206F7574205285
:10167000657365740A002045787465726E616C202C
:1016800052657365740A00506F77657255700A0071
:101690006175746F25632E67004732385859004DC5
:1016A00031303031006572726F72207772697469FF
:1016B0006E6720746F2066696C650A00446F6E6502
:1016C00020736176696E672066696C652E0A004D2D
:1016D00032390020503A00656E6473746F70732065
:1016E0006869743A20001000C90210012C01400101
:1016F000220170011801B0010E01F0010401500235
:10170000FA00B002F0003003E600D003DC009004E1
:10171000D2007005C800A006BE000008B400B009E1
:10172000AA00D00BA000600E960060118C0000157E
:10173000820020197800C01D6E00A0226400B0272E
:101740005A00902C500000314600E0343C00103824
:101750003200903A2800603C1E00A03D1400803EFC
:101760000A00203F000048656174696E6720466189
:10177000696C65640048656174696E6720666169BB
:101780006C6564004D3131322053687574646F7735
:101790006E00202D20496E76616C69642065787436
:1017A0007275646572206E756D62657220210A0023
:1017B000544845524D414C2052554E4157415900D5
:1017C000546865726D616C2052756E617761790045
:1017D0004572723A204D415854454D50004D415884
:1017E00054454D50207472696767657265640045A1
:1017F00072723A204D494E54454D50004D494E5459
:10180000454D502074726967676572656400202FCA
:10181000002042403A0020403A0070012C01900123
:101820002701B0012201C0011D01F00118011002C1
:10183000130130020E016002090190020401C0028E
:10184000FF000003FA004003F5008003F000D0031E
:10185000EB002004E6007004E100E004DC00400539
:10186000D700C005D2004006CD00D006C8008007D2
:10187000C3003008BE00F008B900C009B400B00AC7
:10188000AF00B00BAA00D00CA500000EA000500FB6
:101890009B00C01096005012910000148C00C015DF
:1018A0008700B0178200B0197D00D01B7800001EA1
:1018B000730040206E0090226900F02464004027ED
:1018C0005F0090295A00E02B5500102E5000203068
:1018D0004B0010324600E033410090353C00103799
:1018E000370070383200A0392D00B03A2800A03BF4
:1018F0002300603C1E00103D1900903D1400103E76
:101900000F00703E0A00C03E0500003F0000403F4F
:10191000FBFF803FF6FFC03FF1FF4E6F204368653D
:10192000636B73756D2077697468206C696E6520D0
:101930006E756D6265722C204C617374204C696EFB
:10194000653A2000636865636B73756D206D69731C
:101950006D617463682C204C617374204C696E65F2
:101960003A20004C696E65204E756D626572206983
:1019700073206E6F74204C617374204C696E652007
:101980004E756D6265722B312C204C617374204C46
:10199000696E653A20004D31313000534420726544
:1019A0006164206572726F720A002121204B494CDC
:1019B0004C2063617573656420627920746F6F20B9
:1019C0006D75636820696E616374697665207469FA
:1019D0006D65202D2063757272656E7420636F6D66
:1019E0006D616E643A2000627573793A207061759A
:1019F00073656420666F7220696E7075740A006288
:101A00007573793A2070617573656420666F722012
:101A1000757365720A00627573793A2070726F632C
:101A2000657373696E670A004D6564696120496E6C
:101A3000736572746564004D656469612052656DFB
:101A40006F766564007061757365004D36303000E7
:101A50002066696C616D656E745F72756E6F75740A
:101A6000200066696C616D656E745F72756E6F756E
:101A70007420540046696C616D656E7452756E6FAA
:101A800075742054004A313100706F7765726F664B
:101A900066005072696E7465722068616C7465646A
:101AA0002E206B696C6C28292063616C6C65642145
:101AB0000A0020746F6F206C6F6E672065787472F7
:101AC0007573696F6E2070726576656E7465640AF1
:101AD0000020636F6C6420657874727573696F6E33
:101AE0002070726576656E7465640A002053697AA9
:101AF000653A200043616E6E6F74206F70656E20D2
:101B00007375626469722000534420496E697420C1
:101B10004661696C0053442063617264206F6B0AF4
:101B2000006F70656E526F6F74206661696C6564DA
:101B30000A00766F6C756D652E696E69742066613A
:101B4000696C65640A004E6F2053442063617264BF
:101B50000A004D3233202573006F70656E20666178
:101B6000696C65642C2046696C653A200046696C96
:101B7000652073656C65637465640A0046696C650D
:101B8000206F70656E65643A2000454E44205355C1
:101B900042524F5554494E450A002220706F73003F
:101BA0002220706172656E743A2200535542524F82
:101BB0005554494E452043414C4C20746172676531
:101BC000743A220053756263616C6C204F766572C3
:101BD000666C6F77004578636565646564206D6148
:101BE0007820535542524F5554494E4520646570F4
:101BF00074683A310A0057726974696E6720746FAD
:101C00002066696C653A2000667265736800646FCF
:101C1000696E67004E6F77200002000000C0000070
:101C2000000000000000FFFDFCFAF8F6F4F2F0EE10
:101C3000ECEAE9E7E5E3E1E0DEDCDAD9D7D5D4D2B6
:101C4000D0CFCDCBCAC8C7C5C3C2C0BFBDBCBAB94F
:101C5000B7B6B4B3B2B0AFADACAAA9A8A6A5A4A2BA
:101C6000A1A09E9D9C9A99989795949392908F8EFF
:101C70008D8B8A8988878684838281807F7E7D7B25
:101C80007A797877767574737271706F6E6D6C6B2C
:101C90006A696867666564636261605F5E5D5C5B1C
:101CA0005A5958585756555453525150504F4E4DFB
:101CB0004C4B4A4A494847464645444342424140C4
:101CC0003F3E3E3D3C3B3B3A39383837363535347C
:101CD0003332323130302F2E2E2D2C2B2B2A292926
:101CE00028272726252524232322212120201F1EC3
:101CF0001E1D1C1C1B1B1A19191818171616151552
:101D000014131312121111100F0F0E0E0D0D0C0CD7
:101D10000B0A0A0909080807070606050504040353
:101D20000302020100000000574300005743000077
:101D30004D4353657474696E67732053746F726595
:101D4000640053657474696E67732053746F7265B1
:101D50006420280020573A007C3C3E5E2B3D3F2FFC
:101D60005B5D3B2C2A225C0050726F62696E6720BB
:101D7000506F696E740025532025692F2569005026
:101D8000726F62696E67206D65736820706F696E2F
:101D9000742000202844525952554E2900473239A8
:101DA000204175746F20426564204C6576656C69CE
:101DB0006E67003F20284C2C522C462C4229206F65
:101DC0007574206F6620626F756E64732E0A003F13
:101DD0002856296572626F7365206C6576656C2084
:101DE000696D706C61757369626C652028302D3483
:101DF000292E0A00426164205A2076616C75650ABA
:101E0000004E6F2062696C696E656172206772694D
:101E1000640A0046696E6973686564210A003A20A5
:101E20007A3A2000206F662000476F696E67207441
:101E30006F3A20580043570A00206469723A002024
:101E4000616E676C653A00537461727420726164EC
:101E50006975733A00506F736974696F6E696E6764
:101E6000207468652070726F62652E2E2E0A003F06
:101E70004C656773206F66206D6F76656D656E7457
:101E800020696D706C61757369626C652028302DF6
:101E90003135292E0A003F2028582C5929206F75EA
:101EA00074206F6620626F756E64732E0A00507224
:101EB0006F6265206F7574206F6620626F756E6447
:101EC00073003F53616D706C652073697A65206E95
:101ED0006F7420706C61757369626C652028342D95
:101EE0003530292E0A004D3438205A2D50726F6239
:101EF00065205265706561746162696C69747920EE
:101F0000546573740A0053656E64204D3130382077
:101F1000746F20726573756D650A0052656865613E
:101F20007420446F6E6500526568656174696E6700
:101F30002E2E2E00526568656174004865617465D7
:101F4000722054696D656F75740053656E64204D21
:101F500031303820746F2068656174206E6F7A7A32
:101F60006C650A00486F74656E6420746F6F20633F
:101F70006F6C640A007061757365640072657375D7
:101F80006D656400627574746F6E004C6F616420DF
:101F900046696C616D656E74205400496E7365729C
:101FA000742066696C616D656E7420616E64207367
:101FB000656E64204D3130380A00526573756D6965
:101FC0006E67004F46460A004661646520486569B1
:101FD0006768742000426564204C6576656C696EA4
:101FE0006720004661696C656420746F20656E61CE
:101FF000626C6520426564204C6576656C696E672D
:102000000A00496E76616C6964206D6573682E0AFA
:10201000003F5A206F7574206F662072616E67658D
:102020002028003F59206F7574206F662072616E02
:10203000676520282D0020746F20003F58206F75A1
:1020400074206F662072616E676520282D005072C3
:102050006F6265204F6666736574205800656E7107
:1020600075657565696E672022006F6B0052657338
:10207000656E643A20002569792025696420256908
:10208000682025696D202569730042656420436FCF
:102090006F6C696E672E2E2E004265642048656164
:1020A00074696E672E2E2E0023646566696E652046
:1020B00044454641554C545F004B6420004B692019
:1020C000004B702000504944204175746F74756E48
:1020D000652066696E697368656421205075742097
:1020E000746865206C617374204B702C204B6920E0
:1020F000616E64204B6420636F6E7374616E7473E1
:102100002066726F6D2062656C6F7720696E746FE8
:1021100020436F6E66696775726174696F6E2E68B1
:102120000A00504944204175746F74756E652066CD
:1021300061696C6564212074696D656F75740A004E
:102140000A20436C617373696320504944200A007C
:10215000204B643A2000204B693A2000204B703A13
:1021600020000A204E6F206F76657273686F6F745F
:102170000A002054753A2000204B753A2000206D4B
:1021800061783A2000206D696E3A200020643A2080
:102190000020626961733A200050494420417574FF
:1021A0006F74756E652073746172740A00504944CF
:1021B000204175746F74756E65206661696C656425
:1021C000212054656D706572617475726520746F3D
:1021D0006F20686967680A00504944204175746F30
:1021E00074756E6500504944204175746F74756E46
:1021F00065206661696C65642120426164206578B0
:10220000747275646572206E756D6265720A006F16
:1022100070656E005452494747455245440066690F
:102220006C616D656E74007A5F70726F6265007AC2
:10223000325F6D696E007A5F6D696E00795F6D69FE
:102240006E00785F6D696E005265706F7274696EB2
:102250006720656E6473746F702073746174757336
:102260000A006563686F3A004572726F723A004205
:10227000696C696E656172204C6576656C696E6724
:1022800020477269643A0A0053544F505045442E17
:1022900020005072696E7465722073746F7070657F
:1022A000642064756520746F206572726F72732E7E
:1022B0002046697820746865206572726F722061AB
:1022C0006E6420757365204D39393920746F207222
:1022D0006573746172742E202854656D7065726127
:1022E000747572652069732072657365742E20534E
:1022F00065742069742061667465722072657374F8
:10230000617274696E67290A0021212053544F506D
:102310002063616C6C656420626563617573652020
:102320006F6620424C546F756368206572726F72DD
:10233000202D20726573746172742077697468202F
:102340004D3939390A002F2F616374696F6E3A0075
:10235000626567696E00656E640070726F6D70749F
:102360005F0073686F770044697361626C655275D2
:102370006E6F75740050757267654D6F72650055AC
:102380004E4B4E4F574E2053544154450047434FF8
:1023900044455F494E464F004C43445F50415553BE
:1023A000455F524553554D450046494C414D454EBC
:1023B000545F52554E4F55545F434F4E54494E55FE
:1023C000450046494C414D454E545F52554E4F5580
:1023D00054004D38373620526573706F6E64696EE5
:1023E000672050524F4D50545F00486F6D696E67C3
:1023F000204661696C6564005761726E696E673A68
:1024000020486F6D696E672042756D702044697653
:1024100069736F72203C20310A0020456E6473742A
:102420006F703F0A004261642000000048420000D3
:102430004842000080400202040000A0400000A0CA
:102440004000000040000059430000574300004D89
:1024500043FFFFFF000000010000000100008000BA
:10246000555555000000400033333300AAAA2A0016
:102470004992240000002000C7711C00999919009E
:10248000D1451700555515003BB1130024491200E2
:1024900011111100000010000F0F0F00E3380E00A3
:1024A00043790D00CCCC0C00C3300C00E8A20B002B
:1024B00064210B00AAAA0A00703D0A009DD80900F9
:1024C000427B090092240900DCD3080088880800B8
:1024D0001042080000000800F0C1070087870700CD
:1024E00075500700711C07003EEB0600A1BC0600FA
:1024F0006990060066660600703E060061180600D8
:1025000017F4050074D105005BB00500B29005001A
:10251000627205005555050078390500B81E0500A2
:10252000050505004EEC040087D40400A1BD04009D
:1025300090A7040049920400C17D0400EE690400E4
:10254000C7560400444404005C320400082104001F
:1025500041100400000004003FF00300F8E0030015
:1025600026D20300C3C30300CCB503003AA803007E
:102570000A9B0300388E0300C08103009F7503008F
:10258000D0690300505E03001D530300344803006C
:10259000913D03003333030016290300381F030065
:1025A00097150300300C0300030303000BFA02002D
:1025B00049F10200BAE802005CE002002DD80200F6
:1025C0002DD0020059C80200B0C0020031B902008B
:1025D000DAB10200AAAA0200A0A30200BC9C020079
:1025E000FA9502005C8F0200DF88020082820200FE
:1025F000457C02002776020027700200436A020031
:102600007C640200D05E02003F590200C853020001
:10261000205200454550524F4D20496E6974696102
:102620006C697A65640A0048617264636F6465640A
:102630002044656661756C742053657474696E67B7
:1026400073204C6F616465640A003B200020204DBC
:10265000363033200020204D34313220530046697B
:102660006C616D656E742072756E6F757420736524
:102670006E736F723A0020550046696C616D656E2D
:1026800074206C6F61642F756E6C6F6164206C6573
:102690006E677468733A0020204D393030204B004B
:1026A0004C696E65617220416476616E63653A00C3
:1026B00020204D3835312058005A2D50726F6265F8
:1026C000204F66667365740020204D3330342050EF
:1026D0000020204D33303120500050494420736594
:1026E0007474696E67733A0020204D3636360045A3
:1026F0006E6473746F702061646A7573746D656E57
:10270000743A00204A0020204732392057204900DF
:1027100020204D3432302053004175746F204265C3
:1027200064204C6576656C696E673A0020204D32F6
:102730003036205800486F6D65206F66667365748B
:102740003A0020204D323035204200416476616EDF
:102750006365643A20423C6D696E5F7365676D65C1
:102760006E745F74696D655F75733E20533C6D696F
:102770006E5F66656564726174653E20543C6D6988
:102780006E5F74726176656C5F66656564726174B4
:10279000653E20583C6D61785F785F6A65726B3E7C
:1027A00020593C6D61785F795F6A65726B3E205A93
:1027B0003C6D61785F7A5F6A65726B3E20453C6D67
:1027C00061785F655F6A65726B3E0020204D323034
:1027D00034205000416363656C65726174696F6E8B
:1027E0002028756E6974732F7332293A20503C701B
:1027F00072696E745F616363656C3E20523C726502
:1028000074726163745F616363656C3E20543C74F1
:10281000726176656C5F616363656C3E0020204D7C
:102820003230312058004D6178696D756D204163FB
:1028300063656C65726174696F6E2028756E69746A
:10284000732F7332293A0020450020204D32303357
:102850002058004D6178696D756D206665656472FC
:10286000617465732028756E6974732F73293A003B
:1028700053746570732070657220756E69743A00C8
:1028800020440020204D3230302053002044697312
:1028900061626C65640A0046696C616D656E7420E6
:1028A00073657474696E67733A0020286D6D290032
:1028B0002020473231202020203B20556E69747340
:1028C00020696E206D6D000000FA430000F04200A8
:1028D00000C0400000F0410000A0420000A0420003
:1028E00000C84314EEC443B80B0000D00700003CFE
:1028F000000000102700002062797465733B20639C
:10290000726320004E6F20454550524F4D2E0A00F5
:10291000454550524F4D206461746173697A65205A
:102920006572726F722E0A002073746F7265642074
:1029300073657474696E6773207265747269657605
:102940006564202800202863616C63756C61746580
:102950006429210A0020213D2000454550524F4D59
:1029600020435243206D69736D61746368202D208C
:102970002873746F726564292000496E6465783A23
:102980002000204D61726C696E3D563831290A0075
:10299000454550524F4D2076657273696F6E206DBC
:1029A00069736D617463682028454550524F4D3DF1
:1029B000006E6F74696669636174696F6E200000F0
:1029C000002200250028002B002E003100340002D8
:1029D000010000050108010B01000021002400276F
:1029E000002A002D0030003300010100000401071F
:1029F000010A010505050507050808080802020285
:102A0000020A0A0808040404040101010101010189
:102A1000010303030303030303040707070C0C0C60
:102A20000C0C0C0C0C020202020606060606060638
:102A3000060B0B0B0B0B0B0B0B01021020200808D5
:102A40001020401020408002010201080402010110
:102A500002040810204080804020100804020180F9
:102A60000402018040201008040201080402010150
:102A70000204081020408001020408102040804A0F
:102A80003031004A3030004A3233000A4D333030A2
:102A900020503230302053313536370A4D33303004
:102AA00020503230302053313137340A4D333030FA
:102AB00020503230302053313536370A4D333030E4
:102AC00020503230302053313137340A4D333030DA
:102AD000205032303030205331353637004A3135CE
:102AE000005374616E646172642044657669617438
:102AF000696F6E3A20002052616E67653A200020AF
:102B00005369676D613A20004D65616E3A2000207F
:102B10004D393220580020204D61783A2000202085
:102B20004D696E3A2000536F667420656E6473744D
:102B30006F70733A200020496E76616C696420657D
:102B400078747275646572200042656420583A207A
:102B5000005265686561742066696E6973686564B2
:102B60002E004C6F61642046696C616D656E740067
:102B70004E6F7A7A6C65205061726B65640050729A
:102B80006F62696E67204661696C65640A00507205
:102B90006F62696E67204661696C656400486F6D9D
:102BA0006520257325732573204669727374004868
:102BB000656174657254696D656F75740046696C02
:102BC000616D656E742050757267696E672E2E2E6A
:102BD0000000000A0B02090C0D0E08070304010097
:102BE00000000000000000000000000000000000E5
:102BF00000000000000000000000000000121110A2
:102C000000000000000000000000000000000000C4
:102C1000000000000000004361703A0020436F751F
:102C20006E7420583A004265640045310062656464
:102C3000002C2073797374656D2073746F707065E8
:102C40006421204865617465725F49443A20000040
:102C50005072696E742050617573656400416E79BD
:102C60006375626963206933204D65676120532075
:102C700052656164792E005072696E74696E672EB8
:102C80002E2E00220A00556E6B6E6F776E20636FDA
:102C90006D6D616E643A20220020453A00205A3A58
:102CA0000020593A000026E3CDE211241FBECFEFE9
:102CB000D1E2DEBFCDBF00E00CBF12E0A0E0B2E089
:102CC000E0E4F2EE01E00BBF02C007900D92AC3ED3
:102CD000B107D9F72DE1ACEEB2E001C01D92AB33E4
:102CE000B207E1F716E1C4E5D6E100E006C021979E
:102CF0000109802FFE010E94FBEDC335D10780E062
:102D00000807A9F70E9496DB0C940EF10C940000C2
:102D10002F923F924F925F926F927F928F929F92EB
:102D2000AF92BF92CF92DF92EF92FF920F931F93D9
:102D3000CF93DF93CDB7DEB7A7970FB6F894DEBF7A
:102D40000FBECDBF8FA32091F7022EA311E01093E9
:102D5000F7028091881C8D3409F4C1C3843511F4C5
:102D60000C945228873411F00C9477288091861C9B
:102D70009091871C8C31910509F45BC18CF48430EF
:102D8000910509F4FDC01CF4029738F1A4C3853104
:102D9000910511F40C9479284B9709F430C19BC329
:102DA0008A32910509F470C244F48D31910509F419
:102DB00050C14E9709F46BC18EC38B35910509F450
:102DC000E0C18C35910509F4E1C18A35910509F01E
:102DD00082C31092F6020C9479288091C10A813046
:102DE00011F00C94792820E4C22E25E1D22E38E08F
:102DF000E32E32E0F32E49E2A42E4DE1B42E10E092
:102E000088E5810F0E94D390882311F10E94728E71
:102E10002B013C01812F0E94CBCD882351F0F7017B
:102E20002081318142815381C301B2010E9404EEAD
:102E300009C0F5012081318142815381C301B20172
:102E40000E9403EEF60160837183828393830AC03C
:102E5000F70180819181A281B381F6018083918302
:102E6000A283B3831F5FF4E0CF0ED11C24E0E20EF7
:102E7000F11C34E0A30EB11C133011F685E40E945E
:102E8000D390882301F10E94728E6B017C0183E054
:102E90000E94CBCD882371F020911402309115024D
:102EA0004091160250911702C701B6010E9404EE2C
:102EB0006B017C01C0924C15D0924D15E0924E15DD
:102EC000F0924F1510C08091140290911502A091BC
:102ED0001602B091170280934C1590934D15A09354
:102EE0004E15B0934F1540E050E0BA0186E40E94C1
:102EF000A59420E030E0A9010E94CBEF181684F4DD
:102F00000E94728E20E030E040E752E40E948CEE96
:102F100060937402709375028093760290937702A7
:102F20008091E51183FD28C080919D04882321F1C3
:102F3000209114023091150240911602509117020F
:102F400060914C1570914D1580914E1590914F15D3
:102F50000E9403EE2091AA043091AB044091AC048E
:102F60005091AD040E9404EE6093AA047093AB04E8
:102F70008093AC049093AD040E946EA00C947928C9
:102F800080E50E94D390882329F00E94EFD06B0146
:102F90007C0103C0C12CD12C760183E50E94D39023
:102FA000882361F00E94728E20E030E04AE754E40A
:102FB0000E94C3E90E9405EF6B017C010E94A9B049
:102FC0008091201C811105C060E08CEC93E00E9490
:102FD000EBC80E94B1D5C60ED71EE81EF91E0E948E
:102FE000B1D5DC01CB018C199D09AE09BF09B7FD34
:102FF00002C00C94792880E00E941F52F0CF0E94FA
:103000001BD281110C9479288CE0ECE7F2E0DE0110
:10301000119601900D928A95E1F760E070E080E5ED
:103020000E94B2CFBE016F5F7F4F0E9449C40C94D3
:10303000792880913F158770873011F00C94822891
:1030400060E08FE40E94FB9081110C9479280C942D
:1030500082280E94B1D56093C3127093C4128093EA
:10306000C5129093C6120E941BD281110C9479282C
:103070008091241D882311F40C94EB2860E08FE4E8
:103080000E94FB9081110C9479280C94EB282091DC
:10309000141C3091151C4091161C5091171C609106
:1030A00008027091090280910A0290910B020E941D
:1030B00004EEAB01BC0188E50E94A59469837A8384
:1030C0008B839C832091181C3091191C40911A1CF1
:1030D00050911B1C60910C0270910D0280910E02A8
:1030E00090910F020E9404EEAB01BC0189E50E94A1
:1030F000A5946D837E838F839887BE016B5F7F4F1E
:10310000CE0101960E948A8C882311F40C947928B0
:1031100080E00E949AAA0E9404A461E085E40E94D3
:10312000FB9021E0482FBE016B5F7F4FCE010196DF
:103130000E94EAD26B017C019B01AC010E9451F01C
:10314000811119C049815A816B817C8189E49BE29C
:103150000E9414AF4D815E816F81788580E299E095
:103160000E9414AFB701A6018BE199E00E9414AF51
:103170008AE00E9406450E94EBA30E94E6A50C94FB
:1031800079288FE08093F6020C9479280DEB202E9D
:1031900002E0302E83E3E82E85E1F82E88E092E00D
:1031A0009DA38CA399E2C92E9DE1D92E00E010E0E9
:1031B000F10181911F010E94D390882309F44AC034
:1031C0000E94728E2B013C01133049F0F6012081E0
:1031D0003181428153810E9403EE2B013C01ECA11D
:1031E000FDA12081318142815381C301B2010E943E
:1031F00003EE4B015C012DEB37E346E855EB0E94F3
:10320000CBEF87FD0AC02DEB37E346E855E3C50158
:10321000B4010E945DE91816ECF4133051F44092A9
:10322000140250921502609216027092170201E089
:1032300011C0A5019401F7016081718182819381A0
:103240000E9404EEF7016083718382839383812F50
:103250000E9462B61F5FF4E0EF0EF11C2CA13DA1AD
:103260002C5F3F4F3DA32CA334E0C30ED11C143080
:1032700009F09ECF002321F084E192E00E9489B4FE
:103280000E94E6A50C9479288091C10A813011F042
:103290000C94792889E40E94D390E82E882321F0A9
:1032A0000E946E8E082F01C000E08AE40E94D39035
:1032B000F82E882321F00E946E8E182F01C010E096
:1032C000EE2011F0033020F4FF2041F0133030F0F5
:1032D00085ED93E00E94BAAD0C94792880E1E8E096
:1032E000F2E0A0E4B5E101900D928A95E1F7EE20BD
:1032F00019F1602F000F770B880B990B0E9464E97E
:103300002091591530915A1540915B1550915C15DB
:103310000E94C3E920919B1530919C1540919D1509
:1033200050919E150E9404EE6093401570934115D4
:103330008093421590934315FF2019F1612F110FCF
:10334000770B880B990B0E9464E920915D153091F1
:103350005E1540915F15509160150E94C3E9209160
:103360009F153091A0154091A1155091A2150E9472
:1033700004EE609344157093451580934615909321
:10338000471560E080E50E94FB908823C1F1EE20A4
:10339000D1F02091141C3091151C4091161C5091B5
:1033A000171C6091401570914115809142159091C4
:1033B00043150E9403EE609340157093411580936E
:1033C000421590934315FF20D1F02091181C3091A5
:1033D000191C40911A1C50911B1C6091441570914E
:1033E000451580914615909147150E9403EE609314
:1033F000441570934515809346159093471540E00A
:1034000050E0BA0186E40E94A5946B017C0120E0A3
:1034100030E0A9010E94CBEF18165CF420E030E008
:1034200040E752E4C701B6010E948CEE6B017C01BB
:1034300003C0C12CD12C760180907402909075024B
:10344000A0907602B090770220E030E0A901C70199
:10345000B6010E945DE9882341F0C0927402D092C7
:103460007502E0927602F0927702009106021091C6
:10347000070284E690E09093070280930602C090D2
:103480003302D0903402E0903502F090360280E0B2
:1034900090E0A0E8BFE38093330290933402A093BE
:1034A0003502B09336020E946EA080927402909210
:1034B0007502A0927602B0927702109307020093F1
:1034C0000602C0923302D0923402E0923502F092AA
:1034D00036020C9479280E9488DB0C94792880911C
:1034E000861C9091871C8837910511F40C948B22CF
:1034F0000CF077C18E34910509F4ABC40CF06EC0AA
:103500008A31910509F463C3BCF58431910509F44E
:10351000D9C27CF48131910509F4C0C22CF4029720
:1035200008F476C20C944F28429709F4ABC60C9469
:103530004F288731910509F4FAC294F48531910539
:1035400009F4F1C2469711F00C944F280E94EA69E1
:1035500080910F1C877F806280930F1C0C947928C8
:103560008831910509F4F8C2499711F00C944F285D
:103570000E94ECCE0C9479288F31910509F43BC45C
:103580007CF48C31910509F483C30CF42EC38D3186
:10359000910509F485C34E9709F489C30C944F280B
:1035A0008B34910509F447C464F48032910509F421
:1035B000DFC3C09711F00C944F280E943A830C94FB
:1035C00079288C34910509F43AC48D34910511F0B1
:1035D0000C944F280E946A770C9479288C369105B8
:1035E00011F40C9479280CF047C08535910509F445
:1035F0007EC64CF58235910509F436C6D4F4813582
:10360000910511F00C944F280E94CB4B0E946A77D1
:103610000E94BAB00E94964068EE73E080E090E0AD
:103620000E94FCAC60E089E395E00E94EBC80C943A
:1036300079288335910509F41EC68435910509F46E
:1036400021C60C944F288936910509F406C554F417
:103650008C35910509F46EC68836910509F48BC442
:103660000C944F288A36910509F40BC58B369105C9
:1036700009F42BC50C944F288137910509F488C5AE
:103680008CF48E36910509F42BC50CF494C48F3656
:10369000910509F438C58037910511F40C94792807
:1036A0000C944F288537910509F4E9C60CF08CC0BD
:1036B0008237910509F4DCC68337910511F00C942B
:1036C0004F288CE996E00E94BAAD60E08CE896E065
:1036D0000E9479D760E087E796E00E9479D761E0A1
:1036E00080E796E00E9479D761E085E696E00E9447
:1036F00079D761E085E596E00E9479D760E08CE4B7
:1037000096E00E9479D761E082E496E00E9479D742
:1037100061E088E396E00E9479D761E08BEC93E268
:103720000E9479D761E080E396E00E9479D761E05A
:1037300082E296E00E9479D760E084E196E00E9400
:1037400079D760E085E096E00E9479D760E087EF66
:1037500095E00E9479D760E081EE95E00E9479D7EC
:1037600061E080ED95E00E9479D761E081EC95E021
:103770000E9479D761E08AEB95E00E9479D760E0FA
:1037800085EA95E00E9479D760E087E995E00E949C
:1037900079D761E084E895E00E9479D760E087E717
:1037A00095E00E9479D760E082E795E00E9479D7A2
:1037B00061E085E695E00E9479D760E081E595E0DB
:1037C0000E9479D70C9479288637910509F468C648
:1037D0008737910511F00C944F280E94E6A60C94AF
:1037E00079288039E1E09E0711F40C9409260CF049
:1037F0007FC08E3C910509F436C7D4F58E3B910508
:1038000009F406C5E4F48D37910509F42AC56CF472
:103810008937910511F00C944F281092AF04109243
:10382000AE040E9457A70C9479288C38910509F4AE
:10383000D1C48B39910509F4EEC40C944F288B3C0C
:10384000910509F4D7C654F4883C910509F46AC679
:10385000893C910509F4ABC60C944F288C3C91052A
:1038600009F4E7C68D3C910509F4EDC60C944F2888
:10387000823221E0920711F40C946324C4F48C3D4D
:10388000910509F40DC74CF4833D910511F00C949A
:103890004F280E94C5CF0C9479288D3D910509F4DD
:1038A00026C78831914009F477C70C944F288E328F
:1038B000F1E09F0711F40C94C2256CF48C3231E0D6
:1038C000930711F40C94BA248D32914011F40C94A6
:1038D000CF240C944F288F32F1E09F0711F40C9401
:1038E00006268033914011F40C944F250C944F28F8
:1038F000873F31E0930711F40C9401270CF040C08E
:10390000843AF1E09F0711F40C942526B4F482392F
:1039100031E0930711F40C94162614F40C940C2641
:103920008A39F1E09F0711F40C9479288C39914081
:1039300011F40C941B260C944F28843F31E093071C
:1039400011F40C94FB266CF4853AF1E09F0711F416
:103950000C9428268C3A914011F40C949E260C94D9
:103960004F28853F31E0930711F40C94FE26863FE3
:10397000914011F00C944F280E94BAB80C94792809
:103980008335F3E09F0711F40C94BB270CF58835C1
:1039900032E0930711F40C9427276CF4883FF1E090
:1039A0009F0711F40C9409278C30924011F40C9469
:1039B0001A270C944F288B3532E0930711F40C949E
:1039C0002A278A39924011F40C94A2270C944F288C
:1039D000803AF3E09F0709F400C26CF48C3633E0C0
:1039E000930711F40C9479288438934011F40C94C3
:1039F000BE270C944F28873EF3E09F0711F40C94E8
:103A00002728893E934011F40C9435280C944F28B4
:103A100080E50E94D390882329F00E94EFD06B01AB
:103A20007C0103C0C12CD12C760183E50E94D39088
:103A3000882361F00E94728E20E030E04AE754E46F
:103A40000E94C3E90E9405EF6B017C010E94A9B0AE
:103A50008091841C9091851C009719F00E94A3D13D
:103A600004C087E094E00E9466C98091861C909112
:103A7000871C892B19F066EF73E002C06EEE73E0CD
:103A800020E030E04EEF53E082E00E943BAE40E0A9
:103A9000C701B6010E944A400C9479288091D8123F
:103AA00084FF02C00C94EE288091DA1287FF02C0D6
:103AB0000C94EE288091DB12837011F00C94EE28A8
:103AC0000C940B2980910F1C83FF25C082E394E0A6
:103AD0000E94BAAD80910F1C83FF17C084E698E165
:103AE0000E94ED7B8BE1E4E6F8E1DE0111960190A6
:103AF0000D928A95E1F760E070E0CE0101960E9498
:103B0000EE6DCE0101960E94F27B83E294E00E946A
:103B1000BAAD0C9479280E9415B083E494E00E9419
:103B2000BAAD0C9479280E949F6A0C947928E09190
:103B3000841CF091851C8081882329F0803209F44F
:103B400010823196F8CF60E08091841C9091851CA2
:103B50000E94D66C0C9479288091D11C8823F9F0AE
:103B600080E090E0A0E7B2E488A399A3AAA3BBA356
:103B70001C8E1D8E1E8E1F8E19821A821B821C8225
:103B800000E010E020E0AE01405E5F4FBE01645EE9
:103B90007F4FCE0101960E9410910C9479280E94CB
:103BA0008840882321F00E94FB690E94027761E02F
:103BB00089EE9AE00E94C9AD42ED5AE06DE474E0EE
:103BC00085E00E9499CD0E9410D90C9479288091AB
:103BD0000F1C83FD02C00C94792883E50E94D390CA
:103BE00081110C941A290C94792883E40E94A98EDF
:103BF000882319F183E694E00E94BAAD80910E18F3
:103C0000882391F0BE016F5F7F4F8BE098E10E94A7
:103C1000B47A8E010F5F1F4FF80181918F018823C5
:103C200039F00E940645F8CF89E594E00E94BAADCC
:103C30008AE00E9406450C94792880910F1C82FF2F
:103C400021C082E794E00E94BAAD60910B1C709194
:103C50000C1C80910D1C90910E1C4AE00E94564550
:103C60008FE20E9406456091071C7091081C8091AC
:103C7000091C90910A1C4AE00E9456450E94544635
:103C80000C94792884E894E00E94BAAD0C947928C9
:103C90008091841C9091851C0E948C6C0C947928D6
:103CA00080910F1C8E7F80930F1C0C94792880913B
:103CB0000F1C83FD02C00C9479280E946EDB80915A
:103CC0000F1C83FD02C00C9479284091841C5091F4
:103CD000851CBE01645E7F4F80E00E943ED98C014E
:103CE000009711F40C9479286C8D7D8D19821C82BB
:103CF00022E0AC01CE0101960E94A180811102C098
:103D0000F12C14C0CE0101960E9449CC8823C1F346
:103D100061E0CE0101960E94987A009789F325EE22
:103D2000FC0120831C820E94E26EF82ECE010196D7
:103D30000E94F27BB801FF2089F08DEA94E00E9496
:103D400032AF8AE00E94064510920B1C10920C1CA8
:103D500010920D1C10920E1C0C94792885E994E0A9
:103D60000E9432AF83EE9EE10E94BAAD0C94792896
:103D700080910F1C82FD0E94A9B080910F1C83FDD1
:103D800002C00C94792860E080E50E94FB90182F17
:103D9000682F8091841C9091851C0E94D66C83E5CD
:103DA0000E94D390882381F00E943A8EAB01BC011F
:103DB00040930B1C50930C1C60930D1C70930E1CB5
:103DC0008BE098E10E9408710E94FB6911110C942C
:103DD00079280E9402770C9479282091841C3091D4
:103DE000851C90910F1C926090930F1CC9010E943A
:103DF0008C6C0C9479280E9485A76C8F7D8F8E8F98
:103E00009F8FBE016F5F7F4FCE014C960E943B9CFF
:103E100060E0CE0101960E942DC90E9415B0BE013E
:103E20006F5F7F4F8BEB94E00E9432AF8AE00E947D
:103E300006450C9479280E9402770C947928809189
:103E4000D21C813011F00C9479280E9466A70C9442
:103E5000792860E070E083E50E94E0908E3491055F
:103E600031F40E94ED770E9410D90C9479288EE1EC
:103E700095E00E94BAAD60919E0470919F0485E127
:103E800095E00E9407AF6091A0047091A10488E0C2
:103E900095E00E9407AF60919E0470919F0480910D
:103EA000A0049091A104681B790B8091D21C8150D1
:103EB00021E030E0823010F020E030E0621B730B34
:103EC0008DEF94E00E9407AF8AE00E9406458EE1E4
:103ED00095E00E94BAAD8091A2049091A304A091B4
:103EE000A404B091A5048C8F9D8FAE8FBF8FBE01AF
:103EF0006F5F7F4FCE014C960E943B9CBE016F5F6F
:103F00007F4F80EF94E00E9432AF8091A6049091A1
:103F1000A704A091A804B091A9048C8F9D8FAE8FA7
:103F2000BF8FBE016F5F7F4FCE014C960E943B9CBE
:103F3000BE016F5F7F4F80EE94E00E9432AF20E0C1
:103F400030E04AE754E46091AA047091AB04809198
:103F5000AC049091AD040E948CEEAB01BC0188ECE6
:103F600094E00E9414AF8DE60E9406458AE00E940C
:103F700006450C9479288091E51183FF02C00C94CA
:103F800079280E94A2CD87FF02C00C94792883E58E
:103F90000E94D390882359F00E94728E0E94FEEEF8
:103FA000CB010E94928161E080E00E947A4B0E94E6
:103FB000E7E20C9479288091E51183FF02C00C940C
:103FC00079280E94A2CDF82E87FF02C00C94792890
:103FD00083E50E94D390182F811107C082E50E94CB
:103FE000D390811102C000E02CC00E94728E0E940A
:103FF000FEEECB010E94928161E081E00E947A4B4B
:104000006091EF157091F015072E000C880B990B3D
:104010000E9464E94B015C014090EB155090EC1557
:104020006090ED157090EE15A30192010E94CBEF08
:10403000181614F40C944529112311F40C942B290F
:1040400001E00E94E7E2002311F40C947928612F2B
:104050008F2D0E94A2810C9479280E94A2CD182F46
:1040600087FD0AC08AE690E20E94BAAD812F0E94C5
:10407000DE488AE00E940645FEA1F093F7020C9408
:104080001B2B60E080E50E94EF9081110C94792851
:1040900081E40E94A98E882321F06091BF15062F2C
:1040A00002C00FEF10E083E50E94D390882349F00F
:1040B0000E943A8E8B016F3F710519F010F00FEFDF
:1040C00010E00093BF150C94792860E080E50E9411
:1040D000EF9081110C9479281092BF150C947928D7
:1040E0008EE40E94D390882311F40C9479280E94C6
:1040F0003A8E6093E5147093E6148093E7149093DE
:10410000E8140C94792883E50E94A98E882331F065
:1041100060E083E50E94EF908093E5110E9415B066
:104120008BE295E00E94BAAD8091E511882369F198
:1041300011E0E12E19E0F12E00E010E020E0809186
:10414000E51190E0A0E0B0E0002E04C0B695A79580
:10415000979587950A94D2F780FF0EC0DD24D394FB
:10416000D20E222319F08CE20E940645F7018591B8
:1041700094910E94BAAD2D2D0F5F1F4F32E0E30ED8
:10418000F11C05301105D9F653CD8EE89AE14ECDDC
:1041900083E50E94D390882371F00E944A8E282FD5
:1041A00030E02D3331051CF480930002A2C78CE36C
:1041B000809300029EC70E9415B04091000250E01B
:1041C00060E070E082E395E00E94F6AE8AE00E9433
:1041D00006458FC78091E51183FD8BC783E50E945B
:1041E000D390882309F485C70E94728E0E94FEEE48
:1041F0006837710514F068E770E07093C915609333
:10420000C8150E94934B61E080E00E947A4B71C711
:104210000E945E9A6EC783E50E94D390882309F4BA
:1042200068C70E944A8E182F90E0CD970CF01CE3CF
:104230001093F0020E94B1D56B017C01212F30E078
:10424000A8EEB3E00E94B8EDC60ED71EE81EF91E18
:10425000C092EC02D092ED02E092EE02F092EF02F8
:1042600048C70E94ECCE45C78091F6028F7D8061E1
:104270008093F6023EC78091F6028F7E8062809323
:10428000F60237C783E50E94D3908823E9F00E94A5
:10429000B1D56093C3127093C4128093C5129093EA
:1042A000C6120E94728E20E030E04AE754E40E9479
:1042B000C3E90E9405EF60930102709302028093AC
:1042C00003029093040215C78091D81284FF02C0A4
:1042D0000C9448298091DA1287FF02C00C94482977
:1042E0008091DB12837009F0D3C70C947A2983E59F
:1042F0000E94A98E882309F4FCC60E94B1D5609360
:10430000C3127093C4128093C5129093C6120E9478
:10431000728E20E030E04AE754E40E94C3E90E9434
:1043200005EF6093F1027093F2028093F302909391
:10433000F402DFC60E94A2CD87FDDBC69091D812A1
:1043400094FD04C09091DA1297FF0AC0ADEBCA2E1B
:10435000A2E0DA2EB6EEEB2EB1E1FB2E10E009C0A2
:104360009091DB12937091F7682F81E00E94B4D096
:10437000C0C6F60181916F010E94D390882309F491
:104380006DC0133009F063C00E94728E4B015C0156
:1043900020E030E040EA51E40E945DE987FF4EC032
:1043A000A501940160910612709107128091081284
:1043B000909109120E948CEE2B013C019B01AC01F3
:1043C0006091AA0B7091AB0B8091AC0B9091AD0BEF
:1043D0000E94C3E96093AA0B7093AB0B8093AC0B64
:1043E0009093AD0BA3019201609116127091171278
:1043F00080911812909119120E94C3E960931612CD
:104400007093171280931812909319126091960B63
:104410007091970B8091980B9091990B0E9462E993
:10442000A30192010E94C3E90E9405EF6093960BDD
:104430007093970B8093980B9093990B8092061230
:1044400090920712A0920812B092091207C00E941F
:10445000728EF701648B758B868B978B1F5FF4E0F0
:10446000EF0EF11C143009F084CF0E94527941C63E
:104470000E948CDA86E099E10E94A8D83AC6809121
:10448000841C9091851C009741F0FC01208122231F
:1044900021F060E00E942DC92CC60E9410D929C6C7
:1044A0000091841C1091851C94E0F12C40E0915007
:1044B00029F1F8018081282F2B7F213421F42181DB
:1044C0002133E1F408C08035C9F4F80181818053BB
:1044D0008A3048F013C0813421F0853421F441E062
:1044E00002C0FF24F39498012E5F3F4F89012F5F94
:1044F0003F4FF80180818032C9F3D9CF41110E942A
:1045000015B0FF2021F08AE797E00E94BAADC801FC
:104510000E945A46EEC51093AF041093AE040E9459
:1045200057A7E7C50E94A2CD182F87FDE2C50091CD
:10453000951584E40E94D390882309F4DEC60E9476
:10454000728E6B017C0120E030E0A9010E945DE9E0
:10455000882339F124E01202F0011124EF56FA4EBB
:10456000C082D182E282F38220E030E0A901609132
:1045700091157091921580919315909194150E94C8
:104580005DE981110CC080E090E0A0EEBFE3809374
:10459000911590939215A0939315B093941501E003
:1045A000ACC680E0809395150E9403B1A2C50E941D
:1045B000A2CD87FD9EC5FDEBEF2EF2E0FF2E06EEAD
:1045C00011E1F70181917F010E94A98E882359F0A2
:1045D0000E94728E0E9405EFF801608371838283CE
:1045E00093830E9462B00C5F1F4FF1E1063F1F07EB
:1045F00041F77FC50E94A2CD87FD7BC5EDEBEE2E76
:10460000E2E0FE2E06EE11E1F70181917F010E94AA
:10461000A98E882339F00E94728EF80164A375A3D5
:1046200086A397A30C5F1F4FF1E1063F1F0761F7B9
:1046300060C58091D91287FD65C68091DA128E70AF
:1046400009F060C6A5C68091D812827109F0C8C66B
:104650008091DA128C7809F0C3C68091DB128370E6
:1046600009F0BEC646C571EBE72E74E0F72E10E0E8
:1046700088E5810F0E94A98E882351F00E94728ED6
:10468000F7016083718382839383812F0E9462B6D6
:104690001F5FF4E0EF0EF11C133051F70C9440193A
:1046A00083E50E94D390882331F00E946E8E909310
:1046B0000702809306028091D8129091D912A0919E
:1046C000DA12B091DB12892B8A2B8B2B09F011C5E2
:1046D000609106027091070280EC97E00E9425AF7E
:1046E00085E20E9406458AE00E94064502C50E94B6
:1046F000A2CDF82E87FDFDC483E50E94D3900F2D37
:104700000F2C000C110B882361F10E946E8EF801B2
:10471000EE0FFF1FE359FD4F91838083000F111FA0
:10472000000F111F98012D5C3D4F7901BC01990FBD
:10473000880B990B0E9464E92AE037ED43E25CE3C1
:104740000E94C3E9F801E05BFA4E20813181428189
:1047500053810E94C3E9F70160837183828393834D
:10476000C8C40E9415B085E40E94064580E38F0D01
:104770000E940645000F111FF801E359FD4F6081AB
:10478000718184EC97E00E9425AF85E20E94064586
:104790008AE00E940645ADC480E50E94A98E882368
:1047A00009F4A7C40E946E8E8C01892B09F07FC08A
:1047B00083E50E94A98E882389F00E946E8E8F3F28
:1047C000FFEF9F0729F48AED98E10E94994091C478
:1047D000BC018AED98E10E9459418BC40E9415B03A
:1047E00060E070E08CEC97E00E9425AF8091DC18CF
:1047F00028E532E06901C81AD10887FDD394CC0CB2
:10480000DD1CCC0CDD1C0D2C000CEE08FF0880918B
:10481000DB1828E830E04901881A910887FD939455
:10482000880C991C880C991C092C000CAA08BB0840
:104830008091DA188F3FC1F090E0FC01EE0FFF1F6E
:104840008E0F9F1FFC01EF56F74E2181328183E0CE
:10485000220F331F8A95E1F794E0369527959A95B4
:10486000E1F72E5F3F4F02C020E030E02F5F3F4F67
:10487000C901330FAA0BBB0B9C01AD0128193909E3
:104880004A095B09A4EBB0E00E94A5EDA7019601DF
:10489000281939094A095B090E9486EDB90187EB9D
:1048A00098E00E9425AF8AE00E94064522C40E943B
:1048B00045AFB8018DEC97E00E9425AF8FED93E0F6
:1048C0000E94BAAD16C48AE50E94D390811106C039
:1048D00083E50E94D390882309F440C00E94728E21
:1048E00020E030E040E050EC0E945DE987FDF5C536
:1048F0000E94728E20E030E040E050E40E94CBEF56
:1049000018160CF4E4C50E94728E6B017C0184E0E1
:104910000E945BA0811122C02091021230910312EB
:104920004091041250910512C701B6010E94C3E9DB
:104930000E94FEEE2091F8023091F902260F371FF7
:104940003093F9022093F8022091D30A3091D40ACF
:10495000620F731F7093D40A6093D30A8091DA12A6
:1049600087FDC1C58091DB12837009F0BCC50E9430
:1049700015B0BFC364E071E083E50E94B2CF8C0143
:1049800068EE73E080E50E94B2CF893823E1920798
:1049900010F088E893E1B8010E94BEC8AAC360E0A5
:1049A00085E40E94EF90811173C080E50E94A98E7A
:1049B000882351F00E94728E6093F2157093F31564
:1049C0008093F4159093F51589E40E94A98E8823AD
:1049D00081F00E94728E2CEA35EC47E25EE30E9481
:1049E000C3E96093F6157093F7158093F8159093CB
:1049F000F91584E40E94A98E882381F00E94728EAA
:104A00002CEA35EC47E25EE30E948CEE6093FA15E7
:104A10007093FB158093FC159093FD150E9415B0C3
:104A20004091F2155091F3156091F4157091F515C0
:104A30008CED97E00E9414AF2CEA35EC47E25EE380
:104A40006091F6157091F7158091F8159091F91510
:104A50000E948CEEAB01BC0188ED97E00E9414AF80
:104A60002CEA35EC47E25EE36091FA157091FB1594
:104A70008091FC159091FD150E94C3E9AB01BC012A
:104A800084ED97E00E9414AF8AE00E94064531C38E
:104A90000E9445AF80EE97E00E94BAAD2AC380E540
:104AA0000E94A98E882351F00E94728E6093CB15CC
:104AB0007093CC158093CD159093CE1589E40E9408
:104AC000A98E882381F00E94728E2CEA35EC47E291
:104AD0005EE30E94C3E96093CF157093D015809375
:104AE000D1159093D21584E40E94A98E882381F079
:104AF0000E94728E2CEA35EC47E25EE30E948CEE57
:104B00006093D3157093D4158093D5159093D615D3
:104B10000E9415B04091CB155091CC156091CD15E8
:104B20007091CE158CED97E00E9414AF2CEA35EC15
:104B300047E25EE36091CF157091D0158091D11559
:104B40009091D2150E948CEEAB01BC0188ED97E0EC
:104B50000E9414AF2CEA35EC47E25EE36091D31576
:104B60007091D4158091D5159091D6150E94C3E906
:104B7000AB01BC0184ED97E00E9414AF8AE00E9473
:104B80000645B7C283E50E94A98E182F882371F0CD
:104B90000E94728E0E94FEEE70933802609337027C
:104BA00021E0672B09F020E02093BE0B80E50E94F6
:104BB000A98E882359F02091370230913802232B97
:104BC00011F00E945E8E8093BE0B93C2111191C2B0
:104BD0000E9415B08BE098E00E94BAAD8091BE0BA8
:104BE000882319F081E192E202C082EF97E00E94EF
:104BF000BAAD60913702709138028AEF97E00E9457
:104C000025AF86EF97E00E94BAAD73C20E94BC94B4
:104C100070C20E94A9B06DC28091131C81110C94C6
:104C2000401981E00E943F760C9440190E94318324
:104C30000E94E6A55EC28091D81287FD6FC4809164
:104C4000DA12867009F06AC454C40E94F78E51C209
:104C50006FEF7FEF89E40E94E090082F6FEF7FEF06
:104C60008AE40E94E090182F8AE50E94D390811177
:104C700008C081E50E94D390B82E882309F46EC441
:104C800001C0B12CA02E81E0800F843008F04FC00D
:104C9000912E81E0810F843008F049C00E94728E0D
:104CA0002B013C01F02E07FDF12C07FF02C0A2E012
:104CB000AA2E812E17FD812C17FF02C0F2E09F2E35
:104CC000AF1408F416C2E82C8F2D90E06C01CC0CC8
:104CD000DD1CC80ED91E9E1440F10E2D10E0BB2025
:104CE00071F0F601E00FF11FEE0FFF1FEE0FFF1F37
:104CF000E359FA4E208131814281538103C020E083
:104D000030E0A9010C0D1D1D000F111F000F111F18
:104D100003591A4EC301B2010E9404EEF8016083E8
:104D2000718382839383E394D6CFF394C9CF0E9497
:104D300045AF85ED93E00E94BAADDBC10E941BD266
:104D40008111D7C10AE11CE128E032E03DA32CA388
:104D5000CE0101961C0141E5C42E44E2D42E7C0113
:104D6000F8016591759185919491ECA1FDA18190D7
:104D70009190A190B190FDA3ECA3A50194010E9494
:104D800003EE2B013C01F7016083718382839383DF
:104D900020E030E040EA51EC0E94CBEF87FD0AC0F2
:104DA00020E030E040EA51E4C301B2010E945DE935
:104DB00018162CF4F601849118160CF4D6C3F701DA
:104DC00081909190A190B1907F0120E030E040EA85
:104DD00051ECC501B4010E94CBEF87FDD0C320E0A8
:104DE00030E040EA51E4C501B4010E945DE91816C3
:104DF0000CF0D7C3C4C30E949F717BC10E9439BA13
:104E000078C161E083E50E94FB9081270E944FBA40
:104E100070C181E0809354150E948DBD109254158D
:104E2000882309F466C10E9415B08BE898E00E94BF
:104E3000BAAD5FC180910F1C82FF04C08064809373
:104E40000F1C57C183FF55C10E946EDB52C10E94E7
:104E5000E4CD4FC10E94A2CD082F87FD4AC185E550
:104E60000E94A98E8823A9F1E02E002E000CFF08D5
:104E70000E94728E4B015C0120E030E0A9010E948B
:104E8000CBEF87FF04C0B7FAB094B7F8B094C7016E
:104E900023E0880F991F2A95E1F79C012F593A4E7C
:104EA0007901F90180829182A282B38220E030E010
:104EB00046E154E4C501B4010E94CBEF18164CF44E
:104EC00080E090E0A6E1B4E4F70180839183A283BF
:104ED000B3838CE40E94A98E882309F40AC1002EB2
:104EE000000C110B0E94728E6B017C0120E030E0FF
:104EF000A9010E94CBEF87FF04C0F7FAF094F7F8FE
:104F0000F09420E030E046E154E4C701B6010E948D
:104F1000CBEF980193E0220F331F9A95E1F7F90147
:104F2000EF59FA4E18162CF0C482D582E682F78229
:104F3000E0C080E090E0A6E1B4E484839583A6839A
:104F4000B783D7C08AE50E94D390882351F00E948E
:104F5000728E6093691570936A1580936B159093A8
:104F60006C158091DA1287FDC4C08091DB128370CA
:104F700009F0BFC04CC30E941C9EBBC0A090BF0BD9
:104F8000B090C00BC090C10BD090C20B8BE40E94BC
:104F9000D390882339F10E94728E7B018C0120E02E
:104FA00030E0A9010E94CBEF87FD0AC020E030E08D
:104FB00040E251E4B701C8010E945DE91816A4F46B
:104FC0008FE30E9406458BE40E94064582EC98E040
:104FD0000E94BAAD8AEB98E00E94BAAD83EE9EE1E2
:104FE0000E94BAAD750186019701A801B501C601FD
:104FF0000E945DE9882361F00E94A9B0C701D80131
:105000008093BF0B9093C00BA093C10BB093C20BC6
:105010008091D8129091D912A091DA12B091DB123E
:10502000892B8A2B8B2B09F064C00E9415B040910C
:10503000BF0B5091C00B6091C10B7091C20B86EDFC
:1050400098E00E9414AF8AE00E94064552C081E0B9
:105050008093C10A1092601C60E083E50E94FB907F
:10506000811147C00E94659D44C00E9485A76D3391
:1050700071058105910520F08DEF98E00E9493D78E
:1050800089EF98E00E9493D785EE98E00E94BAAD30
:1050900081EE98E090930A18809309182AC00E9424
:1050A00088DB27C00091861C1091871C0E94B1D517
:1050B0006093C3127093C4128093C5129093C6126A
:1050C0000023B9F00E9415B084E50E940645B8019E
:1050D0007727072E000C880B990B0E94C34580E2AE
:1050E0000E94064580EE97E00E94BAAD02C00E9481
:1050F00088DBFFA1F11102C00E94559D2EA12093D3
:10510000F70299C20E94A9B080E00E949AAA0E9468
:10511000B1D56093C3127093C4128093C51290935B
:10512000C6120E9404A481E08093AF040E9457A796
:105130008AE50E94A98EF82E88E50E94A98E182F74
:1051400089E50E94A98E181344C0F11611F0012FB1
:1051500004C001E011E0FF24F39482E50E94D390A3
:10516000882319F00E94728E04C060E070E080EA2B
:1051700090E469837A838B839C8320E030E0A901EB
:105180000E945DE9882341F0111102C0002371F0F3
:10519000CE0101960E9472D2112319F080E00E9484
:1051A00082B6002319F081E00E9482B6FF2031F020
:1051B00080E00E943FAD82E00E9482B60E94E4A59A
:1051C0008091AE048093AF040E94EBA30E94E6A5F9
:1051D00090CF082FC2CF0E941F878BCF88E50E94F7
:1051E000A98E81115F9889E50E94A98E81118A9804
:1051F0008AE50E94A98E882331F080910801817090
:1052000080930601479885E40E94A98E882309F4BB
:1052100070CF12986ECF60E08AE194E00E94EBC8F4
:105220005F988A9880910801817080930601479861
:1052300012985FCF0E943A8EAB01BC0140930B1CC9
:1052400050930C1C60930D1C70930E1C8BE098E126
:105250000E9408714ECFA3019201C501B4010E94C2
:10526000CBEF181694F08EE890E29F938F9386E22E
:1052700095E09F938F931F920E94D4D20F900F902E
:105280000F900F900F900C9420208DE990E2EDCFBD
:105290000E94A9B088E50E94A98E882331F05F9A08
:1052A0008091121C8E7F8093121C89E50E94A98E2A
:1052B000882331F08A9A8091121C8D7F8093121C72
:1052C0008AE50E94A98E882361F08091080180956B
:1052D000817080930601479A8091121C8B7F809386
:1052E000121C85E40E94A98E882309F402CF0E9433
:1052F0002840FFCE0E94BAB0FCCE602F83E50E940A
:10530000FB9050C983E50E94D390882391F00E94BE
:10531000728E60931A1270931B1280931C129093DA
:105320001D12609322127093231280932412909383
:10533000251280E50E94D390882351F00E94728E3E
:1053400060931A1270931B1280931C1290931D127B
:1053500082E50E94D390882351F00E94728E609360
:105360001E1270931F12809320129093211284E5D5
:105370000E94D390882309F4BCCE0E94728E609361
:105380002212709323128093241290932512B1CE8F
:1053900040911A1250911B1260911C1270911D12B3
:1053A0008EE797E00E9414AF40911E1250911F1299
:1053B000609120127091211280E196E20E9414AF58
:1053C0004091221250912312609124127091251263
:1053D00088E99FE10E9414AF8AE00E94064589CEC9
:1053E00082E40E94A98E882351F00E94EFD060933E
:1053F000F6117093F7118093F8119093F91183E5EA
:105400000E94A98E882351F00E94728E609326120A
:1054100070932712809328129093291284E50E949A
:10542000A98E882351F00E94728E60932A12709385
:105430002B1280932C1290932D1288E50E94A98E36
:10544000882351F00E94728E60939E0B70939F0B85
:105450008093A00B9093A10B89E50E94A98E8823CD
:1054600051F00E94728E6093A20B7093A30B8093F5
:10547000A40B9093A50B8AE50E94A98E8823B1F016
:105480000E94728E6093A60B7093A70B8093A80B5B
:105490009093A90B2DEC3CEC4CEC5DE30E945DE994
:1054A000181624F08EE897E00E94BAAD85E40E94B9
:1054B000A98E882309F41DCE0E94728E6093AA0BD8
:1054C0007093AB0B8093AC0B9093AD0B12CEC12CB1
:1054D000D12CE12C10E4F12E1ACAC12CD12CE12CD4
:1054E000B0ECFB2E14CA82E50E94A98E81113FCA3E
:1054F00000CE0E9415B08EE198E00E94BAAD809176
:105500006F02811108C088E996E00E94BAAD8AE076
:105510000E940645EECD86EB93E0F7CF88E40E942B
:10552000A98E882321F00E945E8E8093F50282E589
:105530000E94A98E082F83E50E94A98E182F0111C1
:1055400003C0882309F4D5CD0E9419B0112309F4B2
:10555000D0CD0E945E8E80936F02CBCD0E9445AF6E
:105560008FE298E00E94BAADC4CDB7FAB094B7F814
:10557000B094F70180829182A282B38220CC0E94F3
:1055800045AF8DE698E00E94BAAD61E08FE598E006
:105590000E94EBC868E270E088EC90E00E94BEC810
:1055A000A8CD0C5F1F4FFFEFCF1ADF0A26E23CE1C8
:1055B0002017310709F0D4CB31EBE32E34E0F32E82
:1055C00010E0F10181919191A191B1911F01F70139
:1055D00081939193A193B1937F01812F0E9462B631
:1055E0001F5F133071F70E94E6A560E08FE498E03A
:1055F0000E94EBC863E972E084E690E00E94BEC8B6
:105600006AEB72E084E690E00E94BEC872CD8BE93E
:1056100098E00E94BAAD4091691550916A15609169
:105620006B1570916C1586E998E00E9414AF8AE0C2
:105630000E9406455ECDA7960FB6F894DEBF0FBE5A
:10564000CDBFDF91CF911F910F91FF90EF90DF9031
:10565000CF90BF90AF909F908F907F906F905F9012
:105660004F903F902F9008952F923F924F925F92CC
:105670006F927F928F929F92AF92BF92CF92DF9262
:10568000EF92FF920F931F93CF93DF93CDB7DEB7C7
:10569000C854D1090FB6F894DEBF0FBECDBF0E942B
:1056A000B1D5009185031091860320918703309135
:1056B00088036B017C01C01AD10AE20AF30AF7FCE5
:1056C0004EC0DC01CB0188519C4FAF4FBF4F809340
:1056D000850390938603A0938703B09388038091FA
:1056E000B61A9091B71A0497D1F5C0900802D090DD
:1056F0000902E0900A02F0900B0226E636E646E048
:1057000050ECC701B6010E94CBEF87FD28C023E310
:1057100033E343EF5FEBC701B6010E945DE9181662
:10572000F4F0C0900C02D0900D02E0900E02F090C8
:105730000F022DEC3CEC4CEC5DEBC701B6010E9476
:10574000CBEF87FD0CC02DEC3CEC4CEC5DE3C701CE
:10575000B6010E945DE9181614F00C94A8338091EC
:10576000AA1A9091AB1A039794F59E012F5F3F4FB1
:1057700019018E01095D1F4F6CE3462E512C612CDF
:10578000712C8091430390914403891B8F73F9F02E
:105790008091AA1A9091AB1A0497CCF4909143038C
:1057A00080914403981779F1E82FF0E0ED5BFC4F0E
:1057B00022818F5F8F73809344032093B01A80916E
:1057C000B11A9091B21A2A3001F5009739F58091FB
:1057D000AA1A9091AB1A009711F40C94FE3301971A
:1057E0009093AB1A8093AA1A8091AC1A9091AD1A3B
:1057F000019664E070E00E94E7ED9093AD1A80930B
:10580000AC1A0C94FE332FEFD8CF2D30F1F22A339F
:10581000E1F28F3591050CF4BAC5D7CF2091AE1ABD
:105820003091AF1A40E6429F6001439FD00C112493
:10583000D601A65DB64E7D01FD01E80FF91F10826D
:1058400061E470E0CD010E94D4F0009709F484C5B2
:105850009093B41A8093B31A8E199F098C0D9D1DD5
:1058600060E070E0855D964E0E94E7E40E94FEEEE7
:10587000CB01770FAA0BBB0B8232910508F06CC5E8
:10588000FC018827EE58FF4F8F4F0C94FBEDC09022
:10589000EB15D090EC15E090ED15F090EE1589E643
:1058A0009DE00EC06091EF157091F015072E000C71
:1058B000880B990B0E9464E96B017C0184E69DE0F2
:1058C0000E94E2C920E030E040E05FE3C701B6019A
:1058D0000E9404EE0E94FEEECB010E94D4A70E941B
:1058E00005CA3AC5C090C415D090C515E090C6153C
:1058F000F090C7158FE59DE0E3CF6091C8157091DA
:10590000C915072E000C880B990B0E9464E96B01E6
:105910007C018AE59DE0D4CF8091BF15B4E68B9FD2
:10592000C001112481589F4F6FEF70E00E94E7ED96
:1059300070E080E090E00E9462E96B017C0120E071
:1059400030E048EC52E40E94CBEF181634F4C12C3E
:10595000D12C58ECE52E52E4F52E85E59DE00E9411
:10596000E2C9C701B601B6CFC0900802D0900902C3
:10597000E0900A02F0900B022996CCAEDDAEEEAEBE
:10598000FFAE299780900C0290900D02A0900E021D
:10599000B0900F02C0901002D0901102E09012025D
:1059A000F09013028DE49DE00E94E2C942E0299646
:1059B0006CAD7DAD8EAD9FAD29970E945F4380E2B7
:1059C00099E00E94E2C942E0C501B4010E945F4330
:1059D0008BE199E00E94E2C942E0C701B6010E9452
:1059E0005F438FE491E2B6C40E94A4C9882309F4FE
:1059F00056C088E49DE00E94E2C90E9498C98823AD
:105A000009F44AC00E948840882351F18091071C04
:105A10009091081CA091091CB0910A1C0097A10547
:105A2000B105F1F0BC01CD016D597F4F8F4F9F4FF4
:105A300024E630E040E050E00E9464ED60910B1CF1
:105A400070910C1C80910D1C90910E1C0E9464EDB5
:105A5000243638F0822F64E60E94C7ED805D02C0D4
:105A600020E080E280933F032A3048F03AE0822F22
:105A7000632F0E94C7ED0E94C7ED905D01C090E2C8
:105A800090934003822F6AE00E94C7ED905D90934F
:105A900041038FE393E023CF8DE39CE05BC480E47C
:105AA0009DE058C40E9485A74B015C018BE39DE0FB
:105AB0000E94E2C981149104A104B104E1F1C5017D
:105AC000B40120E13EE040E050E00E9464ED822F0E
:105AD0004AE0F42E6F2D0E94C7ED292F0E94C7EDDA
