:100000000C9450120C9481120C9481120C94811255
:100010000C9481120C9481120C9481120C94811214
:100020000C9481120C9481120C9481120C94811204
:100030000C9481120C943C3D0C9481120C9481120E
:100040000C9481120C94BC990C9481120C94811222
:100050000C9481120C9481120C9470920C946FB3D6
:100060000C9481120C9481840C944C840C94811215
:100070000C9481120C9481120C9481120C948112B4
:100080000C9406520C9481120C9481120C948112DF
:100090000C9481120C9481120C9481120C94DB3D0F
:1000A0000C9481120C9481120C94D8510C948112EE
:1000B0000C9481120C9481120C9481120C94811274
:1000C0000C9481120C9481120C9481120C94811264
:1000D0000C9481120C9481120C9431820C94FC814A
:1000E0000C948112DD72E8720873137322734A73E1
:1000F0009E768A739E769E769E769E76D6739E7642
:100100009E769E76DD732674507486749174C274E4
:10011000C774287651767A769E769E768B769E7612
:100120009E769E769E769676648274828582908292
:100130009882AF829C82AF82A082A482AF82AA8280
:10014000B384C384D484DF84E784FE84EB84FE8498
:10015000EF84F384FE84F98412B215B204B208B2BB
:100160000CB24CB219B21DB223B227B22BB231B2CB
:1001700035B239B24CB23FB243B247B289B28EB255
:1001800093B29DB2A7B220B3B1B2B9B2C1B2CBB2F1
:10019000D5B2DFB2EEB2F8B220B302B30CB316B3ED
:1001A000084AD73B3BCE016E84BCBFFDC12F3D6CDE
:1001B00074319ABD56833DDA3D00C77F11BED9E444
:1001C000BB4C3E916BAAAABE000000803F05A84C24
:1001D000CDB2D44EB93836A9020C50B991868808F0
:1001E0003CA6AAAA2ABE000000803F000C949DB243
:1001F0000C94588E0C948B760C9491740C949E767F
:100200000C949C820C94AA820C94C7740C94648203
:100210000C9402B30C940CB30C9404B20C9426749A
:100220000C948A730C94DD730C94C2740C94D5B244
:100230000C94DFB20C94EEB20C9420B30C941E8F8D
:100240000C947B8E0C94C1B20C94DF840C94678E5A
:100250000C940CB20C9431B20C9413730C9416B32E
:100260000C943FB20C94F8B20C94B1B20C94B08ED2
:100270000C944A730C94F9840C94D4840C94EF84F9
:100280000C9439B20C94AF820C94568E0C94087373
:100290000C9490820C9422730C9474820C9419B276
:1002A0000C94838E0C94E08E0C9450740C9447B292
:1002B0000C9493B20C9428760C9489BC0C94D6734D
:1002C0000C942BB20C941DB20C94CBB20C94E7841A
:1002D0000C94FE840C948EB20C94A0820C94B9B24F
:1002E0000C94C3840C94DD720C9485820C949882D7
:1002F0000C94B3840C9489B20C9415B20C9423B270
:100300000C9412B20C94E8720C9435B20C94A48242
:100310000C944CB20C9427B20C94A7B20C94EB84BE
:100320000C947A760C94578E0C9451760C9408B2F7
:100330000C94F3840C9486740C9443B20C949676CB
:100340004E414E494E495459494E46CDCCCC3D0ABA
:10035000D7233C17B7D13877CC2B329595E6241F9D
:10036000B14F0A000020410000C84200401C462056
:10037000BCBE4CCA1B0E5AAEC59D7420573A0043F2
:100380004F4D4D554E49434154494F4E00445259EB
:1003900052554E004552524F525300494E464F005F
:1003A0004543484F006F6B003F5A206F7574206FB4
:1003B000662072616E67652028003F59206F757452
:1003C000206F662072616E676520282D0020746F93
:1003D00020003F58206F7574206F662072616E6731
:1003E0006520282D0050726F6265204F6666736528
:1003F00074205800454550524F4D204F4B0A004F36
:10040000666673657473204170706C69656400453D
:1004100072723A20546F6F206661722100546F6FC0
:10042000206661722066726F6D2072656665726506
:100430006E636520706F696E740A004D343231202E
:10044000696E636F727265637420706172616D654D
:100450007465722075736167650A0064697300438F
:10046000290A0061626C656420286D696E207465DC
:100470006D702000436F6C642065787472756465DC
:100480007320617265200020646174613A0020620B
:10049000797465733A003A2066726F6D3A0069327A
:1004A000632D7265706C790042616420693263204B
:1004B000726571756573740A004261642049324344
:1004C00020616464726573732028382D31323729B6
:1004D0000A0020643A0020693A0020703A00496E10
:1004E00076616C69642065787472756465720A005F
:1004F00020536572766F200020466C6F773A20009B
:1005000046523A0020204D61783A200020204D6963
:100510006E3A2000536F667420656E6473746F705A
:10052000733A20005741524E494E4721204C6F7775
:10053000205A204A65726B206D6179206C65616478
:1005400020746F20756E77616E74656420706175BC
:100550007365732E0A0020540020520041636365C6
:100560006C65726174696F6E3A2050002F2F200005
:100570004348414D4245525F54454D5045524154C8
:1005800055524500424142595354455050494E47F7
:100590000041524353004D4F54494F4E5F4D4F441D
:1005A000455300544845524D414C5F50524F5445BD
:1005B0004354494F4E004C4F4E475F46494C454EC1
:1005C000414D45004155544F5245504F52545F5391
:1005D000445F5354415455530053444341524400E3
:1005E00050524F4D50545F535550504F5254004548
:1005F0004D455247454E43595F5041525345520075
:10060000434153455F4C494748545F42524947482C
:10061000544E45535300544F47474C455F4C494750
:1006200048545300534F4654574152455F504F571B
:100630004552004255494C445F50455243454E5443
:10064000004C4556454C494E475F44415441005A81
:100650005F50524F42450052554E4F555400415540
:10066000544F4C4556454C005052494E545F4A4FEA
:10067000420050524F4752455353004155544F5238
:1006800045504F52545F54454D5000564F4C554DB8
:10069000455452494300454550524F4D0042494E42
:1006A0004152595F46494C455F5452414E5346456D
:1006B000520053455249414C5F584F4E5F584F4688
:1006C00046004649524D574152455F4E414D453ACD
:1006D0004D61726C696E20322E302E372E312028FB
:1006E0004F637420313120323032302031303A358E
:1006F000353A35342920534F555243455F434F44D3
:10070000455F55524C3A68747470733A2F2F67697D
:10071000746875622E636F6D2F4D61726C696E46E1
:1007200069726D776172652F4D61726C696E2050D0
:10073000524F544F434F4C5F56455253494F4E3AD8
:10074000312E30204D414348494E455F5459504564
:100750003A416E796375626963206933204D65673C
:100760006120532045585452554445525F434F55DC
:100770004E543A3120555549443A636564653261B7
:1007800032662D343161322D343734382D396231AF
:10079000322D6335356336326633363766660A0086
:1007A000416E796375626963206933204D656761C5
:1007B0002053204F46462E0042656420436F6F6CE5
:1007C000696E672E2E2E004265642048656174694B
:1007D0006E672E2E2E004D3131332053006F66662A
:1007E0000044454255473A0045202553000A5374BA
:1007F0006174733A2046696C616D656E742075731F
:1008000065643A20002C204C6F6E67657374206A13
:100810006F623A2000546F74616C2074696D653AA0
:1008200020002C204661696C65643A20002C20462B
:10083000696E69736865643A20005072696E7473FA
:100840003A200053746174733A20005072696E74D8
:100850002074696D653A20004E6F204D6F76652ECD
:1008600000436C69636B20746F20526573756D650E
:100870002E2E2E004D65736820706F696E74206F88
:100880007574206F662072616E67650A00536C652F
:1008900065702E2E2E00FFFFFF000000C00000003C
:1008A0000000000000A0039B0394038D037F03243A
:1008B000F4D43050C38E20C2A24017828B70111224
:1008C0007A910D816CD90AA861E108C75866076161
:1008D0005143061E4B5D05C145A7041A4111040989
:1008E0003D9803713931034036DB0265339102D400
:1008F000305402802E1D02632CEE01752AC501B012
:1009000028A001102781018F2564012B244B01E0D1
:10091000223401AC211F018D200D01801FFC0084B9
:100920001EED00971DDF00B81CD200E61BC600209C
:100930001BBC00641AB200B219A8000A19A0006A10
:10094000189900D117910040178B00B5168400311B
:10095000167E00B31579003A157300C7146F00585E
:10096000146A00EE1366008813630025135E00C747
:10097000125B006C12570015125400C11151007027
:10098000114F0021114B00D61049008D1047004631
:1009900010440002104200C00F4000800F3E004291
:1009A0000F3C00060F3B00CB0E3800930E37005C67
:1009B0000E3500270E3400F30D3200C10D310090CA
:1009C0000D3000600D2E00320D2D00050D2C00D9CC
:1009D0000C2B00AE0C2900850C29005C0C2700357F
:1009E0000C27000E0C2600E80B2400C40B2400A0EA
:1009F0000B23007D0B23005A0B2100390B2100181B
:100A00000B2000F80A1F00D90A1E00BB0A1E009D19
:100A10000A1D00800A1D00630A1C00470A1B002CE7
:100A20000A1B00110A1A00F7091A00DD091900C48F
:100A3000091900AB091900920917007B0918006316
:100A40000917004C09160036091600200916000A7D
:100A5000091500F5081500E0081400CC081400B8CA
:100A6000081400A4081400900813007D0812006BFD
:100A70000813005808120046081200340811002319
:100A80000811001208110001081100F0071000E021
:100A9000071000D0071000C0071000B0070F00A11A
:100AA00007100091070E0083070F0074070F006501
:100AB000070E0057070E0049070E003B070D002EDA
:100AC000070E0020070D0013070D0006070D00F9A3
:100AD000060C00ED060D00E0060C00D4060C00C864
:100AE000060C00BC060C00B0060C00A4060B009916
:100AF000060C008D060B0082060B0077060B006CBF
:100B0000060B0061060A0057060B004C060A00425D
:100B1000060A0038060A002E060A0024060A001AF1
:100B2000060A001006090007060A00FD050900F480
:100B3000050900EB050900E2050900D9050900D007
:100B4000050900C7050900BE050900B5050800AD87
:100B5000050800A50509009C050800940508008CFF
:100B6000050800840508007C050800740508006C71
:100B7000050700650508005D050700560508004EDD
:100B80000507004705070040050800380507003144
:100B90000507002A050700230507001C05060016A7
:100BA0000507000F0507000805060002050700FB02
:100BB000040600F5040700EE040600E8040600E25F
:100BC000040700DB040600D5040600CF040600C9B4
:100BD000040600C3040600BD040600B7040600B105
:100BE000040500AC040600A6040600A00405009B52
:100BF00004060095040500900406008A040500859B
:100C0000040500800406007A0405007504050070E0
:100C10000405006B04050066040500610405005C22
:100C200004050057040500520405004D0405004862
:100C3000040500430405003E0404003A04050035A1
:100C4000040500300404002C0405002704040023DC
:100C50000405001E0404001A040400160405001113
:100C60000404000D04040009040500040404000049
:100C7000040400FC030400F8030400F4030400F07F
:100C8000030400EC030400E8030400E4030400E0B0
:100C9000030400DC030400D8030400D4030400D0E0
:100CA000030400CC030400C8030300C503030024AD
:100CB000F404D9201BC40C5C0E9804C4095F0265BF
:100CC000077101F405F900FB04B30048048700C173
:100CD0000369005803550003034500BE023A00842F
:100CE00002310053022A002902250004022000E4F8
:100CF000011C00C8011900AF0117009801140084FD
:100D0000011300710110006101100051010E004338
:100D1000010D0036010B002B010B0020010B00150B
:100D20000109000C01090003010800FB000800F3A1
:100D3000000800EB000700E4000600DE000600D813
:100D4000000600D2000600CC000500C7000500C266
:100D5000000500BD000400B9000400B5000400B1A6
:100D6000000400AD000400A9000400A5000300A2D7
:100D70000003009F0004009B0003009800030095FF
:100D800000020093000300900003008D0002008B1E
:100D90000003008800020086000200840003008136
:100DA0000002007F0002007D0002007B000200794B
:100DB0000002007700010076000200740002007259
:100DC000000100710002006F0002006D0001006C64
:100DD0000002006A0001006900020067000100666D
:100DE0000001006500010064000200620001006172
:100DF000000100600001005F0002005D0001005C76
:100E00000001005B0001005A000100590001005878
:100E10000001005700010056000100550001005478
:100E20000001005300000053000100520001005176
:100E3000000100500001004F0001004E0000004E74
:100E40000001004D0001004C0001004B0000004B70
:100E50000001004A0001004900010048000000486C
:100E60000001004700010046000000460001004567
:100E70000000004500010044000100430000004361
:100E8000000100420000004200010041000000415A
:100E9000000100400001003F0000003F0001003E53
:100EA0000000003E0001003D0000003D0001003C4C
:100EB0000000003C0000003C0001003B0000003B43
:100EC0000001003A0000003A00010039000000393A
:100ED0000001003800000038000000380001003731
:100EE0000000003700010036000000360000003628
:100EF000000100350000003500000035000100341D
:100F00000000003400000034000100330000003312
:100F10000000003300010032000000320000003207
:100F200000010031000000310000003100010030FC
:100F300000000030000000300001002F0000002FF2
:100F40000000002F0000002F0001002E0000002EE6
:100F50000000002E0001002D0000002D0000002DDB
:100F60000000002D0001002C0000002C0000002CCF
:100F70000000002C0001002B0000002B0000002BC3
:100F80000000002B0001002A0000002A0000002AB7
:100F90000000002A000100290000002900000029AB
:100FA000000000290000002900010028000000289E
:100FB0000000002800000028000000280001002791
:100FC0000000002700000027000000270000002785
:100FD0000001002600000026000000260000002678
:100FE000000000260001002500000025000000256B
:100FF000000000250000002500000025000100245D
:101000000000002400000024000000240000002450
:101010000001002300000023000000230000002343
:101020000000002300000023000000230001002234
:101030000000002200000022000000220000002228
:10104000000000220001002100000021000000211A
:10105000000000210000002100000021000000210C
:1010600000010020000000200000002000000020FF
:1010700000000020000000200000002000000020F0
:101080000001001F0000001F0000001F0000001FE3
:101090000000001F0000001F0000001F0001001ED4
:1010A0000000001E0000001E0000001E00000039AD
:1010B0003000003325000087190000B00F0000DB6E
:1010C000080000BD040000740200003F010000425F
:1010D000696C696E656172204C6576656C696E67D6
:1010E00020477269643A0A0053544F505045442EC9
:1010F00020005072696E7465722073746F70706531
:10110000642064756520746F206572726F72732E2F
:101110002046697820746865206572726F7220615C
:101120006E6420757365204D39393920746F2072D3
:101130006573746172742E202854656D70657261D8
:10114000747572652069732072657365742E2053FF
:1011500065742069742061667465722072657374A9
:10116000617274696E67290A0021212053544F501F
:101170002063616C6C6564206265636175736520D2
:101180006F6620424C546F756368206572726F728F
:10119000202D2072657374617274207769746820E1
:1011A0004D3939390A00486F74656E6420746F6F69
:1011B00020636F6C640A004F46460A00466164650E
:1011C000204865696768742000426564204C657634
:1011D000656C696E6720004661696C656420746F98
:1011E00020656E61626C6520426564204C657665A1
:1011F0006C696E670A00496E76616C6964206D6582
:1012000073682E0A00024A3137002020506C616E4C
:101210006E657242756666657242797465733A20CE
:10122000002046726565204D656D6F72793A200029
:10123000436F6D70696C65643A204F63742031317F
:1012400020323032300A00204C61737420557064B3
:10125000617465643A20323032302D31302D3130B6
:10126000207C20417574686F723A2028683073635F
:101270006831383020686F7363686940616E756BE0
:1012800069732E6465290A00322E302E372E310AFA
:10129000004D61726C696E0020536F6674776172E5
:1012A000652052657365740A002057617463686431
:1012B0006F672052657365740A002042726F776E03
:1012C000206F75742052657365740A002045787428
:1012D00065726E616C2052657365740A00506F7799
:1012E000657255700A0020503A00656E6473746F21
:1012F0007073206869743A20001000C90210012C34
:10130000014001220170011801B0010E01F0010439
:10131000015002FA00B002F0003003E600D003DC16
:10132000009004D2007005C800A006BE000008B4FA
:1013300000B009AA00D00BA000600E960060118CCE
:10134000000015820020197800C01D6E00A02264E4
:1013500000B0275A00902C500000314600E0343C89
:101360000010383200903A2800603C1E00A03D1466
:1013700000803E0A00203F000023646566696E65B8
:101380002044454641554C545F004B6420004B6956
:1013900020004B702000504944204175746F7475D3
:1013A0006E652066696E6973686564212050757486
:1013B00020746865206C617374204B702C204B691D
:1013C00020616E64204B6420636F6E7374616E7471
:1013D000732066726F6D2062656C6F7720696E7422
:1013E0006F20436F6E66696775726174696F6E2EE8
:1013F000680A00504944204175746F74756E652009
:101400006661696C6564212074696D656F75740A25
:10141000000A20436C617373696320504944200AB9
:1014200000204B643A2000204B693A2000204B708A
:101430003A20000A204E6F206F76657273686F6FD6
:10144000740A002054753A2000204B753A20002081
:101450006D61783A2000206D696E3A200020643A70
:10146000200020626961733A200050494420417590
:10147000746F74756E652073746172740A005049DC
:1014800044204175746F74756E65206661696C6582
:1014900064212054656D7065726174757265207485
:1014A0006F6F20686967680A00504944204175746D
:1014B0006F74756E6500504944204175746F747582
:1014C0006E65206661696C656421204261642065F7
:1014D00078747275646572206E756D6265720A004B
:1014E0004572726F722077726974696E6720746FCB
:1014F00020454550524F4D210A004E6F20436865EC
:10150000636B73756D2077697468206C696E6520F4
:101510006E756D6265722C204C617374204C696E1F
:10152000653A2000636865636B73756D206D697340
:101530006D617463682C204C617374204C696E6516
:101540003A20004C696E65204E756D6265722069A7
:1015500073206E6F74204C617374204C696E65202B
:101560004E756D6265722B312C204C617374204C6A
:10157000696E653A20004D313130002121204B4900
:101580004C4C2063617573656420627920746F6FC1
:10159000206D75636820696E616374697665207477
:1015A000696D65202D2063757272656E7420636F9E
:1015B0006D6D616E643A2000627573793A207061D6
:1015C0007573656420666F7220696E7075740A00A9
:1015D000627573793A2070617573656420666F7205
:1015E00020757365720A00627573793A2070726FA4
:1015F00063657373696E670A004A3131005072691E
:101600006E7465722068616C7465642E206B696C01
:101610006C28292063616C6C6564210A006563682D
:101620006F3A004572726F723A0020746F6F206CCF
:101630006F6E6720657874727573696F6E20707253
:101640006576656E7465640A0020636F6C6420655E
:101650007874727573696F6E2070726576656E74DA
:1016600065640A00486F6D65202573257325732016
:10167000466972737400FFFDFCFAF8F6F4F2F0EEBE
:10168000ECEAE9E7E5E3E1E0DEDCDAD9D7D5D4D26C
:10169000D0CFCDCBCAC8C7C5C3C2C0BFBDBCBAB905
:1016A000B7B6B4B3B2B0AFADACAAA9A8A6A5A4A270
:1016B000A1A09E9D9C9A99989795949392908F8EB5
:1016C0008D8B8A8988878684838281807F7E7D7BDB
:1016D0007A797877767574737271706F6E6D6C6BE2
:1016E0006A696867666564636261605F5E5D5C5BD2
:1016F0005A5958585756555453525150504F4E4DB1
:101700004C4B4A4A49484746464544434242414079
:101710003F3E3E3D3C3B3B3A393838373635353431
:101720003332323130302F2E2E2D2C2B2B2A2929DB
:1017300028272726252524232322212120201F1E78
:101740001E1D1C1C1B1B1A19191818171616151507
:1017500014131312121111100F0F0E0E0D0D0C0C8D
:101760000B0A0A0909080807070606050504040309
:10177000030202010000000057430000574300002D
:101780004D4353657474696E67732053746F72654B
:10179000640053657474696E67732053746F726567
:1017A0006420280050726F62696E6720506F696E06
:1017B000740025532025692F25690050726F6269D6
:1017C0006E67206D65736820706F696E74200020ED
:1017D0002844525952554E290047323920417574D8
:1017E0006F20426564204C6576656C696E67003FCA
:1017F00020284C2C522C462C4229206F7574206FC7
:101800006620626F756E64732E0A003F2856296544
:1018100072626F7365206C6576656C20696D706CA3
:1018200061757369626C652028302D34292E0A0099
:10183000426164205A2076616C75650A004E6F2003
:1018400062696C696E65617220677269640A00463C
:10185000696E6973686564210A003A207A3A20004B
:10186000206F662000476F696E6720746F3A2058BA
:101870000043570A00206469723A0020616E676C69
:10188000653A005374617274207261646975733AC9
:1018900000506F736974696F6E696E672074686554
:1018A0002070726F62652E2E2E0A003F4C656773A2
:1018B000206F66206D6F76656D656E7420696D7042
:1018C0006C61757369626C652028302D3135292E65
:1018D0000A003F2028582C5929206F7574206F6604
:1018E00020626F756E64732E0A0050726F626520FD
:1018F0006F7574206F6620626F756E6473003F535E
:10190000616D706C652073697A65206E6F742070EC
:101910006C61757369626C652028342D3530292E11
:101920000A004D3438205A2D50726F62652052657E
:10193000706561746162696C69747920546573744F
:101940000A005072696E7420506175736564004AB4
:10195000313200205A3A200020593A2000220A0051
:10196000556E6B6E6F776E20636F6D6D616E643A4E
:10197000202200416E796375626963206933204DCE
:1019800065676120532052656164792E0050726949
:101990006E74696E672E2E2E0020453A00205A3A4A
:1019A0000020593A00322E302E372E31004A333380
:1019B00020004F4B004739310A25730A4739300060
:1019C0004731204525694635303000473120452DC7
:1019D000302E314625690047312045302E314625CD
:1019E00069004731205A2569462569004731205A48
:1019F0002D302E31462569004731205A302E314690
:101A0000256900473120592569462569004731205D
:101A1000592D302E314625690047312059302E315D
:101A20004625690047312058256946256900473118
:101A300020582D302E314625690047312058302E50
:101A4000314625690047323800473238205A00476E
:101A50003238205900473238205800413230562061
:101A6000004731205A3130005072696E746572201F
:101A700068616C7465642E206B696C6C2829206326
:101A8000616C6C65642100203939393A3939390083
:101A9000204D002048200041375620004135562077
:101AA000583A20004134562000413356200041323C
:101AB000562000413156200041305620004A313432
:101AC000004D38340A4D3237006F70656E00545245
:101AD00049474745524544007A5F70726F6265001E
:101AE0007A325F6D696E007A5F6D696E00795F6D45
:101AF000696E00785F6D696E005265706F7274690F
:101B00006E6720656E6473746F7020737461747592
:101B1000730A0020496E76616C696420657874727E
:101B20007564657220004361703A0047322F473375
:101B30002062616420706172616D65746572730A00
:101B400000526573656E643A200025697920256925
:101B500064202569682025696D2025697300202D82
:101B600020496E76616C696420657874727564656D
:101B700072206E756D62657220210A0054484552CC
:101B80004D414C2052554E415741590054686572A1
:101B90006D616C2052756E61776179004572723AA1
:101BA000204D415854454D50004D415854454D50DD
:101BB00020747269676765726564004572723A20C5
:101BC0004D494E54454D50004D494E54454D5020C1
:101BD00074726967676572656400202F0020424057
:101BE0003A0020403A0070012C0190012701B00119
:101BF0002201C0011D01F001180110021301300281
:101C00000E016002090190020401C002FF000003FE
:101C1000FA004003F5008003F000D003EB0020043D
:101C2000E6007004E100E004DC004005D700C005D8
:101C3000D2004006CD00D006C8008007C30030089F
:101C4000BE00F008B900C009B400B00AAF00B00B84
:101C5000AA00D00CA500000EA000500F9B00C010E1
:101C600096005012910000148C00C0158700B01728
:101C70008200B0197D00D01B7800001E7300402048
:101C80006E0090226900F024640040275F009029D4
:101C90005A00E02B5500102E500020304B0010321F
:101CA0004600E033410090353C0010373700703873
:101CB0003200A0392D00B03A2800A03B2300603C40
:101CC0001E00103D1900903D1400103E0F00703EA4
:101CD0000A00C03E0500003F0000403FFBFF803F80
:101CE000F6FFC03FF1FF5374616E6461726420447B
:101CF0006576696174696F6E3A20002052616E6783
:101D0000653A2000205369676D613A20004D656196
:101D10006E3A2000204D39322058004C6F6164200B
:101D200046696C616D656E7400496E7365727420EE
:101D300066696C616D656E7420616E642073656E9A
:101D400064204D3130380A00526568656174206640
:101D5000696E69736865642E0052656865617469AF
:101D60006E672E2E2E004865617465722054696D71
:101D7000656F75740053656E64204D313038207482
:101D80006F2068656174206E6F7A7A6C650A004E08
:101D90006F7A7A6C65205061726B656400454550BE
:101DA000524F4D20496E697469616C697A65640AA5
:101DB0000048617264636F646564204465666175A0
:101DC0006C742053657474696E6773204C6F616422
:101DD00065640A003B200020204D3630332000206F
:101DE000550046696C616D656E74206C6F61642F7F
:101DF000756E6C6F6164206C656E677468733A0011
:101E000020204D3835312058005A2D50726F6265B0
:101E1000204F66667365740020204D3330342050A7
:101E20000020204D3330312050005049442073654C
:101E30007474696E67733A00204A00202047323973
:101E4000205720490020204D343230205300417566
:101E5000746F20426564204C6576656C696E673AE4
:101E60000020204D323036205800486F6D65206FBD
:101E700066667365743A0020204D3230352042008A
:101E8000416476616E6365643A20423C6D696E5FC1
:101E90007365676D656E745F74696D655F75733EBC
:101EA00020533C6D696E5F66656564726174653E62
:101EB00020543C6D696E5F74726176656C5F666517
:101EC0006564726174653E20583C6D61785F785F2F
:101ED0006A65726B3E20593C6D61785F795F6A6517
:101EE000726B3E205A3C6D61785F7A5F6A65726BF7
:101EF0003E20453C6D61785F655F6A65726B3E00B0
:101F000020204D323034205000416363656C65728F
:101F10006174696F6E2028756E6974732F7332292E
:101F20003A20503C7072696E745F616363656C3E09
:101F300020523C726574726163745F616363656CA7
:101F40003E20543C74726176656C5F616363656CBE
:101F50003E0020204D3230312058004D6178696DAF
:101F6000756D20416363656C65726174696F6E2085
:101F700028756E6974732F7332293A00204500204A
:101F8000204D3230332058004D6178696D756D20D9
:101F90006665656472617465732028756E69747313
:101FA0002F73293A00537465707320706572207521
:101FB0006E69743A0020440020204D3230302053A6
:101FC000002044697361626C65640A0046696C6153
:101FD0006D656E742073657474696E67733A002062
:101FE000286D6D29002020473231202020203B2001
:101FF000556E69747320696E206D6D000000FA43A0
:102000000000F0420000C0400000F0410000A0428B
:102010000000A0420000C84314EEC443B80B000007
:10202000D00700003C0000001027000020627974F7
:1020300065733B2063726320004E6F20454550520C
:102040004F4D2E0A00454550524F4D20646174613A
:1020500073697A65206572726F722E0A002073743C
:102060006F7265642073657474696E67732072653E
:1020700074726965766564202800202863616C634A
:10208000756C6174656429210A0020213D2000459A
:102090004550524F4D20435243206D69736D61741A
:1020A0006368202D202873746F72656429200020D6
:1020B00053697A653A2000496E6465783A200020B9
:1020C0004D61726C696E3D563831290A00454550A4
:1020D000524F4D2076657273696F6E206D69736D16
:1020E000617463682028454550524F4D3D00486F4C
:1020F0006D696E67204661696C6564005761726E38
:10210000696E673A20486F6D696E672042756D7021
:102110002044697669736F72203C20310A002045A3
:102120006E6473746F703F0A0042616420000000A7
:10213000484200004842000080400202040000A023
:10214000400000A04000000040000059430000573C
:102150004300004D4300000001000000010000802A
:1021600000555555000000400033333300AAAA2A19
:10217000004992240000002000C7711C00999919A1
:1021800000D1451700555515003BB11300244912E5
:102190000011111100000010000F0F0F00E3380EA6
:1021A0000043790D00CCCC0C00C3300C00E8A20B2E
:1021B0000064210B00AAAA0A00703D0A009DD809FC
:1021C00000427B090092240900DCD30800888808BB
:1021D000001042080000000800F0C10700878707D0
:1021E0000075500700711C07003EEB0600A1BC06FD
:1021F000006990060066660600703E0600611806DB
:102200000017F4050074D105005BB00500B290051D
:1022100000627205005555050078390500B81E05A5
:1022200000050505004EEC040087D40400A1BD04A0
:102230000090A7040049920400C17D0400EE6904E7
:1022400000C7560400444404005C32040008210422
:102250000041100400000004003FF00300F8E00318
:102260000026D20300C3C30300CCB503003AA80381
:10227000000A9B0300388E0300C08103009F750392
:1022800000D0690300505E03001D5303003448036F
:1022900000913D03003333030016290300381F0368
:1022A0000097150300300C0300030303000BFA0230
:1022B0000049F10200BAE802005CE002002DD802F9
:1022C000002DD0020059C80200B0C0020031B9028E
:1022D00000DAB10200AAAA0200A0A30200BC9C027C
:1022E00000FA9502005C8F0200DF88020082820201
:1022F00000457C02002776020027700200436A0234
:10230000007C640200D05E02003F590200C8530204
:102310000020436F756E7420583A00426564004592
:102320003100626564002C2073797374656D2073CD
:10233000746F7070656421204865617465725F49CF
:10234000443A200048656174696E67204661696C93
:1023500065640048656174696E67206661696C65D3
:1023600064004D3131322053687574646F776E00AC
:102370000000002200250028002B002E0031003430
:102380000002010000050108010B010000210024EA
:102390000027002A002D0030003300010100000456
:1023A0000107010A010505050507050808080802D7
:1023B0000202020A0A0808040404040101010101DE
:1023C0000101010303030303030303040707070CCD
:1023D0000C0C0C0C0C0C0C02020202060606060683
:1023E0000606060B0B0B0B0B0B0B0B010210202030
:1023F0000808102040102040800201020108040259
:1024000001010204081020408080402010080402CE
:102410000180040201804020100804020108040227
:10242000010102040810204080010204081020402D
:102430008000000A0B02090C0D0E080703040100BE
:10244000000000000000000000000000000000008C
:102450000000000000000000000000000012111049
:10246000000000000000000000000000000000006C
:102470000000000000000042656420583A2000502F
:10248000726F62696E67204661696C65640A00500C
:10249000726F62696E67204661696C65640089BC11
:1024A00011241FBECFEFD1E2DEBFCDBF00E00CBFD5
:1024B00012E0A0E0B2E0E0E1F5E901E00BBF02C00C
:1024C00007900D92A23FB107D9F725E1A2EFB2E044
:1024D00001C01D92A73CB207E1F712E1C0E5D2E1CD
:1024E00000E006C021970109802FFE010E942CC741
:1024F000CF34D10780E00807A9F70E94C8B50C9433
:1025000086CA0C9400002F923F924F925F926F9276
:102510007F928F929F92AF92BF92CF92DF92EF9273
:10252000FF920F931F93CF93DF93CDB7DEB7E3975F
:102530000FB6F894DEBF0FBECDBF2091F40329A7DC
:1025400021E02093F4038091F3038D3409F40DC34B
:10255000843511F40C94BD22873411F00C94E222DE
:102560002091F1033091F2032B31310509F48DC034
:102570009CF42430310534F422303105CCF537FF9A
:102580002BC0EFC22430310509F440C0253131059C
:1025900011F40C94E422E5C22A32310509F4BAC1DF
:1025A0005CF42D31310509F49AC00CF488C02E3149
:1025B000310509F4B2C0D5C22B35310509F427C164
:1025C0002C35310509F428C12A35310509F0C9C275
:1025D0001092F0030C94E4228091EF03813011F00B
:1025E0000C94E4220E9404880E9460790C94E422F6
:1025F0008091EF03813011F00C94E42222303105F8
:1026000009F080E00E94E1880C94E42280E50E94B9
:102610006A33882329F00E9411996B017C0103C061
:10262000C12CD12C760183E50E946A33882361F0A6
:102630000E94E53220E030E04AE754E40E94F4C210
:102640000E94A8C86B017C010E947CA5809188092A
:10265000811105C060E08DE898E00E94CE430E94A1
:1026600063B3C60ED71EE81EF91E0E9463B3DC01D9
:10267000CB018C199D09AE09BF09B7FD02C00C94AE
:10268000E42280E00E94F64AF0CF0E94D55F8111DB
:102690000C94E4228CE0E2E7F2E0DE011196019076
:1026A0000D928A95E1F760E070E080E50E94C398A2
:1026B000BE016F5F7F4F0E940D3F0C94E42280911A
:1026C000C9098770873011F00C94F72260E08FE41D
:1026D0000E94923381110C94E4220C94F7220E9400
:1026E00063B36093EB037093EC038093ED039093DB
:1026F000EE030E94D55F81110C94E4228091E80FD3
:10270000882311F40C94602360E08FE40E949233DC
:1027100081110C94E4220C9460232091B515309122
:10272000B6154091B7155091B8156091520270914D
:10273000530280915402909155020E9435C7AB011B
:10274000BC0188E50E94974469837A838B839C83CC
:102750002091B9153091BA154091BB155091BC1517
:1027600060915602709157028091580290915902DF
:102770000E9435C7AB01BC0189E50E9497446D8377
:102780007E838F839887BE016B5F7F4FCE0101965A
:102790000E94FD30882311F40C94E42280E00E9412
:1027A000BD360E94387C61E085E40E94923321E0CE
:1027B000482FBE016B5F7F4FCE0101960E94B9B3D7
:1027C0006B017C019B01AC010E9427CA811119C0D9
:1027D00049815A816B817C8187E794E20E946D4A2E
:1027E0004D815E816F81788588E599E10E946D4A0F
:1027F000B701A60183E599E10E946D4A8AE00E9433
:10280000EB820E941F7C0E94137E0C94E4228FE0D6
:102810008093F0030C94E4229EE7292E92E0392E57
:102820002DEDE22E23E0F22E42E552E05B8F4A8F3F
:102830003DEEC32E3FE0D32E00E010E0D1018D919C
:102840001D010E946A33882309F44BC00E94E532BF
:102850002B013C01133049F0F60120813181428186
:1028600053810E9434C72B013C01AA8DBB8D2D9151
:102870003D914D915C91C301B2010E9434C74B015F
:102880005C012DEB37E346E855EB0E9495C987FDC7
:102890000AC02DEB37E346E855E3C501B4010E94B9
:1028A0008EC21816F4F4133051F440925E02509226
:1028B0005F02609260027092610201E012C0A501A5
:1028C0009401F70160817181828193810E9435C7F3
:1028D000D7016D937D938D939C931397812F0E94C5
:1028E000E5AA1F5FB4E0EB0EF11CEA8DFB8D349678
:1028F000FB8FEA8FF4E0CF0ED11C143009F09ECF8D
:10290000002321F08EE592E00E945CA90E94137ED4
:102910000C94E4228091EF03813011F00C94E422B6
:1029200089E40E946A33E82E882321F00E94E13274
:10293000082F01C000E08AE40E946A33F82E882341
:1029400021F00E94E132182F01C010E0EE2011F0BA
:10295000033020F4FF2041F0133030F084E798E09A
:102960000E94514A0C94E42280E1E2E5F2E0ADECF1
:10297000B3E001900D928A95E1F7EE2019F1602FF6
:10298000000F770B880B990B0E9495C22091BD0315
:102990003091BE034091BF035091C0030E94F4C226
:1029A0002091C5033091C6034091C7035091C803DD
:1029B0000E9435C76093CD037093CE038093CF03FD
:1029C0009093D003FF2019F1612F110F770B880B23
:1029D000990B0E9495C22091C1033091C20340918E
:1029E000C3035091C4030E94F4C22091C9033091E3
:1029F000CA034091CB035091CC030E9435C760932A
:102A0000D1037093D2038093D3039093D40360E0F7
:102A100080E50E9492338823C1F1EE20D1F020910D
:102A2000B5153091B6154091B7155091B815609114
:102A3000CD037091CE038091CF039091D0030E947B
:102A400034C76093CD037093CE038093CF039093EC
:102A5000D003FF20D1F02091B9153091BA154091E3
:102A6000BB155091BC156091D1037091D203809138
:102A7000D3039091D4030E9434C76093D103709321
:102A8000D2038093D3039093D40340E050E0BA0183
:102A900086E40E9497446B017C0120E030E0A901AC
:102AA0000E9495C918165CF420E030E040E752E43B
:102AB000C701B6010E942FC86B017C0103C0C12C65
:102AC000D12C760180906A0290906B02A0906C02EB
:102AD000B0906D0220E030E0A901C701B6010E946C
:102AE0008EC2882341F0C0926A02D0926B02E092BB
:102AF0006C02F0926D02009150021091510284E636
:102B000090E09093510280935002C0903E02D0908A
:102B10003F02E0904002F090410280E090E0A0E8A7
:102B2000BFE380933E0290933F02A0934002B09394
:102B300041020E94607980926A0290926B02A09298
:102B40006C02B0926D021093510200935002C09239
:102B50003E02D0923F02E0924002F09241020C9479
:102B6000E4220E947E780C94E4228091F1039091FB
:102B7000F2038B39910509F4EEC30CF0A3C088363B
:102B8000910509F474C20CF059C08C34910509F414
:102B9000D4C1FCF48231910509F415C46CF497FF9B
:102BA00002C00C94BA22823091050CF456C14197B0
:102BB00009F484C10C94BA228033910509F4B5C19B
:102BC0008B34910509F4B5C14F9711F00C94BA22DA
:102BD00089C18235910509F4E6C304F58E34910567
:102BE00009F4B3C10CF4ADC18135910511F00C9419
:102BF000BA220E94AC930E943A660E948DA5109260
:102C0000D31268EE73E080E090E00E94863B60E0C3
:102C100080EA97E00E94CE430C94E422843591052B
:102C200009F4D1C30CF4C7C38535910509F402C476
:102C30008C35910509F423C40C94BA22813791058F
:102C400009F428C3F4F48C36910511F40C94E422B1
:102C50003CF48A36910509F490C20CF47AC2B1C2F0
:102C60008E36910509F4B8C20CF421C28F36910555
:102C700009F4C5C28037910511F40C94E4220C9438
:102C8000BA228637910509F43AC564F48337910571
:102C900009F49FC40CF495C48537910509F41BC54C
:102CA0000C94BA228837910509F466C50CF461C505
:102CB0008937910509F468C58C38910509F414C366
:102CC0000C94BA228F3231E0930711F40C94F62061
:102CD0000CF059C0833D910509F44AC624F58B3C9C
:102CE000910509F4C5C574F4883C910509F453C5F0
:102CF000893C910509F496C58E3B910511F00C9421
:102D0000BA2214C38D3C910509F405C60CF4CFC555
:102D10008E3C910511F00C94BA2259E8E52E53E04F
:102D2000F52E10E013C6853051E0950711F40C9490
:102D30003D2084F48D3D910509F407C78430B1E04E
:102D40009B0711F40C949A1F8C3D910511F00C9483
:102D5000BA22D4C68C32E1E09E0709F4E3C734F40A
:102D60008831914009F447C70C94BA228D3231E082
:102D7000930711F40C94A71E8E32914011F40C9419
:102D8000B2200C94BA22843F51E0950711F40C94C0
:102D9000E32194F58239B1E09B0711F40C940621EC
:102DA00084F48039F1E09F0711F40C94F92014F0B9
:102DB0000C94FC208033914011F40C94271F0C9448
:102DC000BA22843A41E0940711F40C940B213CF4AC
:102DD0008A39914011F40C94E4220C94BA22853A79
:102DE000B1E09B0711F40C940E218C3A914011F440
:102DF0000C9485210C94BA22883FF1E09F0711F4CE
:102E00000C94F2216CF4863F31E0930711F40C949A
:102E1000E62114F00C94E9210E94F79B0C94E42223
:102E20008B3552E0950711F40C9402224CF488354E
:102E3000924011F00C94BA220E9444950C94E42222
:102E40008335E3E09E0711F40C947B22873E934088
:102E500011F40C94AC220C94BA2280E50E946A33DF
:102E6000882329F00E9411996B017C0103C0C12CB9
:102E7000D12C760183E50E946A33882361F00E9499
:102E8000E53220E030E04AE754E40E94F4C20E94B8
:102E9000A8C86B017C010E947CA58091BB03909126
:102EA000BC03892B21F481E698E00E940E4440E0A7
:102EB000C701B6010E94ED4F0C94E4228091B70344
:102EC00084FF02C00C9463238091B90387FF02C082
:102ED0000C9463238091BA03837011F00C946323E4
:102EE0000C9480230E944F7F6E8B7F8B888F998FED
:102EF000BE016F5F7F4FCE0146960E943A8580915A
:102F0000C809811104C0CE0101960E94AF430E94FE
:102F1000A24ABE016F5F7F4F8BE498E00E948B4A0C
:102F20008AE00E94EB820C94E4220E9403690C94D4
:102F3000E4220E94DE650C94E4220E949E7F0C94A1
:102F4000E4220E943A660C94E42260E070E083E59B
:102F50000E9477338E34910531F40E94AB660E9453
:102F600069780C94E42283E498E00E94514A6091CD
:102F7000A7037091A8038AE398E00E94604A6091D9
:102F8000A9037091AA038DE298E00E94604A6091C3
:102F9000A7037091A8038091A9039091AA03681BCD
:102FA000790B8091DF0F815021E030E0823010F00A
:102FB00020E030E0621B730B82E298E00E94604ADE
:102FC0008AE00E94EB8283E498E00E94514A80915B
:102FD000AB039091AC03A091AD03B091AE038E8B87
:102FE0009F8BA88FB98FBE016F5F7F4FCE01469632
:102FF0000E943A85BE016F5F7F4F85E198E00E9495
:103000008B4A8091AF039091B003A091B103B0912E
:10301000B2038E8B9F8BA88FB98FBE016F5F7F4FDE
:10302000CE0146960E943A85BE016F5F7F4F85E0D4
:1030300098E00E948B4A20E030E04AE754E4609137
:10304000B3037091B4038091B5039091B6030E94CD
:103050002FC8AB01BC018DEE97E00E946D4A8DE652
:103060000E94EB828AE00E94EB820C94E422809121
:10307000710F83FF02C00C94E4220E94058E87FF2B
:1030800002C00C94E42283E50E946A33882359F03D
:103090000E94E5320E94A1C8CB010E941F8F61E00F
:1030A00080E00E946FBB0E9468BA0C94E422809179
:1030B000710F83FF02C00C94E4220E94058EF82E4B
:1030C00087FF02C00C94E42283E50E946A33182F24
:1030D000811107C082E50E946A33811102C000E0BD
:1030E0002CC00E94E5320E94A1C8CB010E941F8F14
:1030F00061E081E00E946FBB609103137091041343
:10310000072E000C880B990B0E9495C24B015C01A5
:103110004090FF12509000136090011370900213C2
:10312000A30192010E9495C9181614F40C94A923C6
:10313000112311F40C948F2301E00E9468BA00233C
:1031400011F40C94E422612F8F2D0E94A18F0C9416
:10315000E4220E94058E182F87FD0AC085EA93E0BD
:103160000E94514A812F0E942F8F8AE00E94EB8299
:1031700029A52093F4030C947E2760E080E50E944B
:10318000863381110C94E42281E40E941C3388234D
:1031900021F06091D312062F02C00FEF10E083E5FB
:1031A0000E946A33882349F00E94AD328B016F3F41
:1031B000710519F010F00FEF10E00093D3120C948A
:1031C000E42260E080E50E94863381110C94E422C1
:1031D0001092D3120C94E4228EE40E946A33882366
:1031E00011F40C94E4220E94AD326093A303709317
:1031F000A4038093A5039093A6030C94E42283E593
:103200000E941C33882331F060E083E50E948633FE
:103210008093710F0E94A24A81EE97E00E94514A6A
:103220008091710F882369F185EAE82E88E0F82EF5
:1032300000E010E020E08091710F90E0A0E0B0E0AD
:10324000002E04C0B695A795979587950A94D2F756
:1032500080FF0EC0DD24D394D20E222319F08CE21D
:103260000E94EB82F701859194910E94514A2D2D85
:103270000F5F1F4F32E0E30EF11C05301105D9F648
:1032800004C08DED97E00E94514A8AE00E94EB82D3
:103290000C94E42283E50E946A33882381F00E9423
:1032A000BD32282F30E02D33310524F480932002E5
:1032B0000C94E4228CE3809320020C94E4220E947C
:1032C000A24AC0902002D12CE12CF12C86ED97E08F
:1032D0000E94514A4AE0C701B6010E943B838AE03E
:1032E0000E94EB820C94E4228091710F83FF02C054
:1032F0000C94E42283E50E946A33882311F40C9431
:10330000E4220E94E5320E94A1C86837710514F0DA
:1033100068E770E07093DD126093DC120E94749392
:1033200061E080E00E946FBB0C94E4228091710FF9
:1033300083FF02C00C94E42283E50E946A338AA7CB
:1033400081110C94AC2382E50E946A3381110C94A4
:10335000AC230C94E42283E50E946A33882311F4A1
:103360000C94E4220E94BD32182F90E0CD970CF00F
:103370001CE31093A2030E9463B36B017C01212F15
:1033800030E0A8EEB3E00E94E9C6C60ED71EE81EE4
:10339000F91EC0929E03D0929F03E092A003F09288
:1033A000A1030C94E4228091F0038F7D80618093CF
:1033B000F0030C94E4228091F0038F7E806280936E
:1033C000F0030C94E42283E50E946A338823F1F031
:1033D0000E9463B36093EB037093EC038093ED035F
:1033E0009093EE030E94E53220E030E04AE754E497
:1033F0000E94F4C20E94A8C860931B0270931C0232
:1034000080931D0290931E020C94E4228091B703D6
:1034100084FF02C00C9433258091B90387FF02C05A
:103420000C9433258091BA03837011F00C943325EA
:103430000C94652583E50E941C33882311F40C94B9
:10344000E4220E9463B36093EB037093EC038093D8
:10345000ED039093EE030E94E53220E030E04AE76E
:1034600054E40E94F4C20E94A8C860939A03709327
:103470009B0380939C0390939D030C94E4220E94F1
:10348000058E87FF02C00C94E4229091B70394FD4F
:1034900004C09091B90397FF0AC0FEE7CF2EF2E077
:1034A000DF2EA2E7EA2EAFE0FA2E10E00AC09091DC
:1034B000BA03937091F7682F81E00E94D6980C941C
:1034C000E422D6018D916D010E946A33882309F4AC
:1034D0006DC0133009F063C00E94E5324B015C01FE
:1034E00020E030E040EA51E40E948EC287FF4EC0E7
:1034F000A50194016091920F7091930F8091940FA8
:103500009091950F0E942FC82B013C019B01AC01AB
:103510006091D6097091D7098091D8099091D90905
:103520000E94F4C26093D6097093D7098093D8099A
:103530009093D909A30192016091A20F7091A30FFA
:103540008091A40F9091A50F0E94F4C26093A20FE6
:103550007093A30F8093A40F9093A50F6091E60939
:103560007091E7098091E8099091E9090E9493C25E
:10357000A30192010E94F4C20E94A8C86093E609C8
:103580007093E7098093E8099093E9098092920F7C
:103590009092930FA092940FB092950F07C00E9443
:1035A000E532F701648B758B868B978B1F5FF4E098
:1035B000EF0EF11C143009F084CF0E9410680C94B7
:1035C000E4220E94877789E893E10E940EB00C9470
:1035D000E42282EC96E00E94514A60E082EB96E0A1
:1035E0000E94EA8760E08DE996E00E94EA8761E048
:1035F00086E996E00E94EA8761E08BE896E00E9407
:10360000EA8761E08BE796E00E94EA8760E082E764
:1036100096E00E94EA8761E088E696E00E94EA87E9
:1036200061E08EE596E00E94EA8760E087E596E03B
:103630000E94EA8761E08FE496E00E94EA8761E0F9
:1036400081E496E00E94EA8760E083E396E00E94CE
:10365000EA8760E084E296E00E94EA8760E086E123
:1036600096E00E94EA8760E080E096E00E94EA87A8
:1036700061E08FEE95E00E94EA8760E080EE95E0E1
:103680000E94EA8760E089ED95E00E94EA8760E0A9
:1036900084EC95E00E94EA8760E086EB95E00E946A
:1036A000EA8761E083EA95E00E94EA8760E086E9C4
:1036B00095E00E94EA8761E081E995E00E94EA874F
:1036C00060E084E895E00E94EA8760E080E795E0AA
:1036D0000E94EA8779C78091BB039091BC03009751
:1036E00059F0DC012C91222339F02091C8092111D5
:1036F0006BC70E94AF4368C70E94697865C7009195
:10370000BB031091BC0394E0F12C40E0915021F1F7
:10371000F8018081282F2B7F213421F4218121334E
:10372000D9F407C08035C1F4818180538A3048F0D4
:1037300013C0813421F0853421F441E002C0FF241C
:10374000F39498012E5F3F4F89012F5F3F4FF8019F
:1037500080818032C9F3DACF41110E94A24AFF2052
:1037600021F08CE695E00E94514AC8010E943F84F6
:103770002BC70E94D87E28C781E08093EA038093FC
:10378000E9030E94407F20C71092EA031092E903E8
:103790000E94407F19C70E94058E182F87FD14C70D
:1037A0000091990384E40E946A33882311F40C94F5
:1037B00068250E94E5326B017C0120E030E0A90120
:1037C0000E948EC2882341F124E01202F0011124EC
:1037D000EB56FC4FC082D182E282F38220E030E0DF
:1037E000A901609195037091960380919703909140
:1037F00098030E948EC281110CC080E090E0A0EE80
:10380000BFE38093950390939603A0939703B0939F
:10381000980301E00C94682580E0809399030E944E
:10382000D6A5D2C60E94058E87FDCEC67EE7E72EBE
:1038300072E0F72E02E71FE0E2E8CE2EEFE0DE2E88
:10384000D7018D917D010E941C33882359F00E947D
:10385000E5320E94A8C8F801608371838283938354
:103860000E9435A50C5F1F4FC016D10649F7ACC6A4
:103870000E94058E87FDA8C66EE7E62E62E0F62E52
:1038800002E71FE0D7018D917D010E941C33882340
:1038900039F00E94E532F80164A375A386A397A3CB
:1038A0000C5F1F4FFFE002381F0761F78DC6809144
:1038B000B80387FF02C00C946E258091B9038E7007
:1038C00011F00C946E254091A60F5091A70F6091B6
:1038D000A80F7091A90F8CE595E00E946D4A409168
:1038E000AA0F5091AB0F6091AC0F7091AD0F89E5AD
:1038F00095E00E946D4A4091AE0F5091AF0F6091DC
:10390000B00F7091B10F86E595E00E946D4A8AE094
:103910000E94EB8259C68091B703827111F00C941A
:10392000B4258091B9038C7811F00C94B425809162
:10393000BA03837011F00C94B42546C61F5FB4E03F
:10394000EB0EF11C133011F40C94861488E5810FF2
:103950000E941C33882391F30E94E532D7016D93B6
:103960007D938D939C931397812F0E94E5AAE6CFB8
:103970004090ED0F5090EE0F6090EF0F7090F00FB1
:1039800020910302309104024091050250910602F9
:10399000C301B2010E9435C76A8F7B8F8C8F9D8FC8
:1039A0008090F10F9090F20FA090F30FB090F40F71
:1039B00020910702309108024091090250910A02B9
:1039C000C501B4010E9435C76E8F7F8F88A399A36C
:1039D000C090F50FD090F60FE090F70FF090F80F31
:1039E00020910B0230910C0240910D0250910E0279
:1039F000C701B6010E9435C76AA37BA38CA39DA310
:103A000020910F0230911002409111025091120248
:103A1000C301B2010E9435C72B013C012091130262
:103A2000309114024091150250911602C501B40163
:103A30000E9435C74B015C0120911702309118029A
:103A40004091190250911A02C701B6010E9435C770
:103A50006B017C010E94A24A84E195E00E94514AD8
:103A600083E50E941C33882321F00E94D132809389
:103A7000020280910202882319F08AE893E002C0D2
:103A80008EEB96E00E94514A8CE095E00E94514AEC
:103A90004A8D5B8D6C8D7D8D88E59FE10E946D4A1E
:103AA0004E8D5F8D68A179A182E59AE10E946D4AF1
:103AB0004AA15BA16CA17DA18CE49AE10E946D4AB0
:103AC0008DEA90E20E94514A84E095E00E94514ABA
:103AD000B301A20188E59FE10E946D4AB501A401EE
:103AE00082E59AE10E946D4AB701A6018CE49AE151
:103AF0000E946D4A8AE00E94EB8266C583E50E94BF
:103B00006A33882331F00E94E1329093510280930E
:103B100050028091B7039091B803A091B903B0917E
:103B2000BA03892B8A2B8B2B09F04EC5609150026A
:103B30007091510280E095E00E947E4A85E20E94E9
:103B4000EB828AE00E94EB823FC50E94058EF82E30
:103B500087FD3AC583E50E946A330F2D0F2C000CB8
:103B6000110B882369F10E94E132F801EE0FFF1F6B
:103B7000E050FE4F91838083000F111F000F111F33
:103B8000F801E25CFD4F7F01BC01990F880B990B96
:103B90000E9495C22AE037ED43E25CE30E94F4C242
:103BA000F801EB57FC4F20813181428153810E9403
:103BB000F4C2D7016D937D938D939C93139704C5A5
:103BC0000E94A24A85E40E94EB8280E38F0D0E944E
:103BD000EB82000F111FF801E050FE4F60817181F0
:103BE00088EF94E00E947E4A85E20E94EB828AE0A0
:103BF0000E94EB82E9C480E50E941C33882309F40B
:103C0000E3C40E94E1328C01892B09F07FC083E577
:103C10000E941C33882389F00E94E1328F3FBFEF5E
:103C20009B0729F48DE693E10E942B50CDC4BC0183
:103C30008DE693E10E94EB50C7C40E94A24A60E067
:103C400070E080EF94E00E947E4A80916F1328E537
:103C500032E06901C81AD10887FDD394CC0CDD1C71
:103C6000CC0CDD1C0D2C000CEE08FF0880916E13AF
:103C700028E830E04901881A910887FD9394880C60
:103C8000991C880C991C092C000CAA08BB0880916F
:103C90006D138F3FC1F090E0FC01EE0FFF1F8E0F00
:103CA0009F1FFC01EC5DFC4E2181328113E0220F4D
:103CB000331F1A95E1F704E0369527950A95E1F749
:103CC0002E5F3F4F02C020E030E02F5F3F4FC90121
:103CD000330FAA0BBB0B9C01AD01281939094A0906
:103CE0005B09A4EBB0E00E94D6C6A7019601281993
:103CF00039094A095B090E94B7C6B90181E493E218
:103D00000E947E4A8AE00E94EB825EC40E949E4A24
:103D1000B80181EF94E00E947E4A8EE798E00E940D
:103D2000514A52C464E071E083E50E94C3988C015B
:103D300068EE73E080E50E94C3988938E3E19E074E
:103D400010F088E893E1B8010E9482433DC460E02E
:103D500085E40E948633811173C080E50E941C3384
:103D6000882351F00E94E532609306137093071385
:103D7000809308139093091389E40E941C338823CD
:103D800081F00E94E5322CEA35EC47E25EE30E94C6
:103D9000F4C260930A1370930B1380930C139093E7
:103DA0000D1384E40E941C33882381F00E94E532C5
:103DB0002CEA35EC47E25EE30E942FC860930E13B5
:103DC00070930F1380931013909311130E94A24AC3
:103DD00040910613509107136091081370910913D5
:103DE0008AED94E00E946D4A2CEA35EC47E25EE3EE
:103DF00060910A1370910B1380910C1390910D1325
:103E00000E942FC8AB01BC0186ED94E00E946D4A70
:103E10002CEA35EC47E25EE360910E1370910F13CC
:103E200080911013909111130E94F4C2AB01BC0158
:103E300082ED94E00E946D4A8AE00E94EB82C4C346
:103E40000E949E4A8EED94E00E94514ABDC380E5D7
:103E50000E941C33882351F00E94E5326093DF12E8
:103E60007093E0128093E1129093E21289E40E9431
:103E70001C33882381F00E94E5322CEA35EC47E2BE
:103E80005EE30E94F4C26093E3127093E4128093A5
:103E9000E5129093E61284E40E941C33882381F09B
:103EA0000E94E5322CEA35EC47E25EE30E942FC81F
:103EB0006093E7127093E8128093E9129093EA12EC
:103EC0000E94A24A4091DF125091E0126091E112EB
:103ED0007091E2128AED94E00E946D4A2CEA35EC72
:103EE00047E25EE36091E3127091E4128091E51283
:103EF0009091E6120E942FC8AB01BC0186ED94E0C0
:103F00000E946D4A2CEA35EC47E25EE36091E712CD
:103F10007091E8128091E9129091EA120E94F4C225
:103F2000AB01BC0182ED94E00E946D4A8AE00E94E0
:103F3000EB824AC381E40E941C33882379F00E94FB
:103F4000BD32182F88EF810F883730F00E94A24AC7
:103F500089EB94E00E94514A1093A91582E40E94D3
:103F60001C33882371F00E94BD32E0918815E03245
:103F700040F491E09E0F90938815F0E0E857FA4ED8
:103F8000818383E50E941C33882309F46BC08091F0
:103F9000A91591E0909384038093F503109279150D
:103FA000109278154091881550E069E875E18CE72A
:103FB00095E10E94838E20917815213208F047C048
:103FC000809177158111FCCF8091F50392E0909359
:103FD000771591E0909376159FEF9093630310927D
:103FE000620320936103A4E6B3E0E1E4F3E090E030
:103FF000291721F03D9131939F5FFACF1092400332
:1040000090914003880F892B809340038091751510
:10401000813061F410927515809140038093BB004C
:104020008091BC0083FDF8CF85EC01C085EE8093C4
:10403000BC00809177158230E1F3809163038F3F5C
:1040400031F080916303803211F08091630310920C
:104050007915109278151092840310928815109299
:104060008915B2C282E50E941C33882309F4ACC2D0
:104070001092881510928915A7C281E40E941C3302
:10408000882379F00E94BD32182F88EF810F88377E
:1040900030F00E94A24A89EB94E00E94514A1093AA
:1040A000A91561E082E40E948633182F0091A915BA
:1040B000002309F450C09FEF980F903208F04BC0D6
:1040C000809177158111FCCF81E0809377158093E3
:1040D00076152FEF20936303109262039093610390
:1040E0008093400380914003902F990F892B8093F8
:1040F000400380917515813061F41092751580919F
:1041000040038093BB008091BC0083FDF8CF85EC19
:1041100001C085EE8093BC00809177158130E1F37A
:1041200080916203811718F49091620301C0912F6E
:10413000E1E4F3E0A0E2B3E080E0891721F021910F
:104140002D938F5FFACF10927B1580937A15882379
:1041500009F43AC280C50E949E4A88EA94E00E940F
:10416000514A32C283E50E941C33182F882371F014
:104170000E94E5320E94A1C87093430260934202FC
:1041800021E0672B09F020E02093FE0980E50E94E2
:104190001C33882359F02091420230914302232B93
:1041A00011F00E94D1328093FE090EC211110CC28F
:1041B0000E94A24A84E794E00E94514A8091FE093D
:1041C000882319F08BEC9AE102C08BE594E00E9401
:1041D000514A609142027091430283E694E00E944A
:1041E0007E4A8FE594E00E94514AEEC10E94AE449F
:1041F000EBC10E947CA5E8C18091B41581110C949B
:10420000861481E00E941B650C9486140E94FA6853
:104210000E94137ED9C10E941538D6C16FEF7FEF7F
:1042200089E40E947733082F6FEF7FEF8AE40E94C2
:104230007733182F8AE50E946A33811108C081E51F
:104240000E946A33B82E882309F42EC501C0B12C10
:10425000A02E81E0800F843008F050C0912E81E0C4
:10426000810F843008F04AC00E94E5322B013C01E6
:10427000F02E07FDF12C07FF02C0A2E0AA2E812E2E
:1042800017FD812C17FF02C0F2E09F2EAF1408F437
:104290009BC1E82C8F2D90E06C01CC0CDD1CC80E6E
:1042A000D91E9E1448F10E2D10E0BB2071F0F601CE
:1042B000E00FF11FEE0FFF1FEE0FFF1FE450FD4F49
:1042C000208131814281538103C020E030E0A90187
:1042D0000C0D1D1D000F111F000F111F04501D4F4D
:1042E000C301B2010E9435C7D8016D937D938D93B0
:1042F0009C931397E394D5CFF394C8CF0E949E4A22
:1043000084E798E00E94514A5FC10E94D55F811105
:104310005BC109E918E0E2E5F2E0FB8FEA8F9E015C
:104320002F5F3F4F190146E9C42E48E0D42E790192
:10433000F8016591759185919491AA8DBB8D8D90B1
:104340009D90AD90BD90BB8FAA8FA50194010E9456
:1043500034C72B013C01F70160837183828393830F
:1043600020E030E040EA51EC0E9495C987FD0AC088
:1043700020E030E040EA51E4C301B2010E948EC265
:1043800018162CF4F601849118160CF494C4D70175
:104390008D909D90AD90BD907D0120E030E040EA91
:1043A00051ECC501B4010E9495C987FD8FC420E07E
:1043B00030E040EA51E4C501B4010E948EC21816F3
:1043C0000CF096C483C40E94AB60FEC00E948C9A1D
:1043D000FBC061E083E50E94923391E089270E944F
:1043E0000D9CF2C02093FB020E94019F1092FB02E1
:1043F000882309F4E9C00E94A24A84EF93E00E9456
:10440000514AE2C00E94058E082F87FDDDC085E578
:104410000E941C338823B1F1E02E002E000CFF080F
:104420000E94E5324B015C0120E030E0A9010E94CE
:1044300095C987FF04C0B7FAB094B7F8B094C70124
:1044400023E0880F991F2A95E1F79C012D503D4FDD
:104450007901D9018D929D92AD92BC92139720E083
:1044600030E046E154E4C501B4010E9495C9181634
:104470004CF480E090E0A6E1B4E4F70180839183FE
:10448000A283B3838CE40E941C33882309F49CC06C
:10449000002E000C110B0E94E5326B017C0120E024
:1044A00030E0A9010E9495C987FF04C0F7FAF09493
:1044B000F7F8F09420E030E046E154E4C701B6019B
:1044C0000E9495C9980193E0220F331F9A95E1F756
:1044D000F901ED50FD4F18162CF0C482D582E6820A
:1044E000F78272C080E090E0A6E1B4E48483958313
:1044F000A683B78369C08091B90387FD2FC48091DB
:10450000BA03837009F02AC44091B5155091B615CD
:104510006091B7157091B81585EE93E00E946D4AD1
:104520004091B9155091BA156091BB157091BC15A9
:1045300082E59AE10E946D4A4091BD155091BE15E9
:104540006091BF157091C0158CE49AE10E946D4A8C
:104550008AE00E94EB8238C081E08093EF031092E2
:10456000C80960E083E50E94923381112DC00E944A
:1045700019862AC00E947E7827C00091F10310910D
:10458000F2030E9463B36093EB037093EC03809398
:10459000ED039093EE030023B9F00E94A24A84E554
:1045A0000E94EB82B8017727072E000C880B990B2D
:1045B0000E94A88380E20E94EB828EED94E00E942C
:1045C000514A02C00E947E78E091F202F0E0E85980
:1045D000FA4E8081882339F085EA93E00E94514A9F
:1045E0008AE00E94EB82F9A5F093F40387C40E944D
:1045F0007CA580E00E94BD360E9463B36093EB030C
:104600007093EC038093ED039093EE030E94387C4B
:1046100081E08093EA030E94407F8AE50E941C3378
:10462000F82E88E50E941C33182F89E50E941C3360
:10463000181344C0F11611F0012F04C001E011E07D
:10464000FF24F39482E50E946A33882319F00E94C4
:10465000E53204C060E070E080EA90E469837A8328
:104660008B839C8320E030E0A9010E948EC28823C6
:1046700041F0111102C0002371F0CE0101960E9499
:104680003360112319F080E00E9488BB002319F0E9
:1046900081E00E9488BBFF2031F080E00E94953CC1
:1046A00082E00E9488BB0E94117E8091E903809382
:1046B000EA030E941F7C0E94137E86CF082FC2CF80
:1046C0000E94E86C81CF88E50E941C3381115F98BD
:1046D00089E50E941C3381118A988AE50E941C3367
:1046E000882331F0809108018170809306014798FA
:1046F00085E40E941C33882309F466CF129864CFA6
:1047000060E088E598E00E94CE435F988A988091A7
:1047100008018170809306014798129855CFA30134
:104720009201C501B4010E9495C9181694F08CEB52
:1047300097E09F938F9388EE97E09F938F931F92BC
:104740000E9495600F900F900F900F900F900C9417
:104750009C188BEC97E0EDCF0E94E5320E94A1C837
:10476000683771050CF07CC17093DD126093DC1228
:104770000E94749360E081E00E946FBB6091DC1244
:104780007091DD12072E000C880B990B0E9495C2C8
:104790002091D8123091D9124091DA125091DB1247
:1047A0000E9495C918161CF487EC97E002C088EBAC
:1047B00097E060E00E94CE4381E080931F021E8E4E
:1047C0001F8E18A219A21BA61CA61DA61EA618AAFB
:1047D0004CE349AB5CE15AAB86E48BABC12CD12CEA
:1047E00010E8E12E0FEBF02E1A8E91E09FA7812C9E
:1047F000912C54016091DC127091DD12072E000C97
:10480000880B990B0E9495C2162F072F782E692EC0
:104810009601A7010E948EC2882321F12091D8120F
:104820003091D9124091DA125091DB12AAA5612F72
:10483000702F872D962DA11107C00E948EC2881F50
:104840008827881F8A8F14C00E948EC287FF0FC0DE
:1048500080911F02882309F4B7CE10921F020E9494
:104860006978B2CE1C2D0D2D7E2C6F2C01C01A8EB6
:104870000E9463B36B017C01DC01CB012BA53CA53D
:104880004DA55EA5821B930BA40BB50BB7FD33C0E2
:10489000D701C60188519C4FAF4FBF4F8BA79CA734
:1048A000ADA7BEA780E00E942F8F8BE793E00E9408
:1048B000514A81149104A104B104B9F0D501C40195
:1048C000805F984DAF4FBF4FBC01CD016C197D0982
:1048D0008E099F0928EE33E040E050E00E9495C623
:1048E000CA01B9010E94A88303C08FE30E94EB8232
:1048F0008AE00E94EB8280E00E94F64A0E9463B345
:104900006093EB037093EC038093ED039093EE03BD
:104910009091D8129AA3A091D912AEA3B091DA12B5
:10492000BFA3E091DB12E8A7292F3A2F4B2F5E2F70
:10493000612F702F872D962D0E9434C71B012C01EB
:1049400020E030E0A9010E9495C987FF04C057FA12
:10495000509457F8509481149104A104B104E1F4E7
:1049600020E030E040E85FE3C201B1010E948EC266
:1049700087FF1EC0FFA5FF2339F0B5E08B2EBDE0F9
:104980009B2EA12CB12C03C0812C912C54018C0C9A
:104990009D1CAE1CBF1C0CC020E030E040E450E485
:1049A000C201B1010E9495C9181614F446015701BD
:1049B0002A8D2223C1F18E8D9F8DA8A1B9A1892BAB
:1049C0008A2B8B2B61F0D701C6012E8D3F8D48A11C
:1049D00059A1821B930BA40BB50BB7FD24C02AA1D0
:1049E0003EA14FA158A568A979A98AA99BA90E94AF
:1049F00034C720E030E040E85FE30E948EC287FDCC
:104A000027CFD701C601805A9541AF4FBF4F8E8F38
:104A10009F8FA8A3B9A39AA198ABAEA1A9ABBFA140
:104A2000BAABE8A5EBAB80911F02882309F410CF45
:104A300081149104A104B10431F41FA6C12ED02E1B
:104A4000E72CF62CD7CEF0E1CF1AF7E2DF0AE10827
:104A5000F108C818D908EA08FB08F7FCEECFF8CE31
:104A600068E770E081CE0E947CA588E50E941C3337
:104A7000882331F05F9A8091B3158E7F8093B315B0
:104A800089E50E941C33882331F08A9A8091B315FE
:104A90008D7F8093B3158AE50E941C33882361F0D3
:104AA000809108018095817080930601479A8091DA
:104AB000B3158B7F8093B31585E40E941C33882344
:104AC00009F482CD0E94A64A7FCD0E948DA57CCD9F
:104AD000602F83E50E9492330C940D1C83E50E94A5
:104AE0006A33882391F00E94E5326093A60F709399
:104AF000A70F8093A80F9093A90F6093AE0F7093A8
:104B0000AF0F8093B00F9093B10F80E50E946A338E
:104B1000882351F00E94E5326093A60F7093A70F8F
:104B20008093A80F9093A90F82E50E946A3388238F
:104B300051F00E94E5326093AA0F7093AB0F8093FF
:104B4000AC0F9093AD0F84E50E946A33882309F47B
:104B50003BCD0E94E5326093AE0F7093AF0F809310
:104B6000B00F9093B10F30CD82E40E941C338823A4
:104B700051F00E9411996093820F7093830F80937C
:104B8000840F9093850F83E50E941C33882351F096
:104B90000E94E5326093B20F7093B30F8093B40F0D
:104BA0009093B50F84E50E941C33882351F00E9436
:104BB000E5326093B60F7093B70F8093B80F909360
:104BC000B90F88E50E941C33882351F00E94E5321A
:104BD0006093CA097093CB098093CC099093CD0957
:104BE00089E50E941C33882351F00E94E5326093CE
:104BF000CE097093CF098093D0099093D1098AE5AB
:104C00000E941C338823B1F00E94E5326093D209E0
:104C10007093D3098093D4099093D5092DEC3CEC83
:104C20004CEC5DE30E948EC2181624F084E295E0FD
:104C30000E94514A85E40E941C33882309F4C4CCA5
:104C40000E94E5326093D6097093D7098093D80902
:104C50009093D909B9CC0E94A24A8EE994E00E94AF
:104C6000514A602F70E086E994E00E947E4A612FED
:104C700070E08EE894E00E947E4A87E894E00E940B
:104C8000514A115010F40C94451990917A15809165
:104C90007B15981711F40C9445198CE795E10E9447
:104CA000678E0E94EB82EDCF0E949E4A8BE394E0D8
:104CB0000E94514A89CCB7FAB094B7F8B094D701A2
:104CC0008D929D92AD92BC92139761CB0E949E4AA9
:104CD0008DE194E00E94514A61E08FE094E00E94EF
:104CE000CE4368E270E088EC90E00E9482436CCC96
:104CF0000C5F1F4FBFEFCB1ADB0AE5EAF8E0E017C5
:104D0000F10709F015CB39E8E32E33E0F32E10E07C
:104D1000F10181919191A191B1911F01F7018193CD
:104D20009193A193B1937F01812F0E94E5AA1F5F08
:104D3000133071F70E94137E60E08FEF93E00E94C2
:104D4000CE4363E972E084E690E00E9482436AEB1E
:104D500072E084E690E00E94824336CCF091B51573
:104D6000FA8F8090B6157090B7156090B815509076
:104D7000B9154090BA153090BB152090BC15C09065
:104D8000BD15D090BE15E090BF15F090C01588E518
:104D90000E946A33882361F10E94E5325B018C0135
:104DA00020E030E047E553EC0E9495C987FD0AC03A
:104DB00020E030E047E553E4B501C8010E948EC20F
:104DC000181694F467ED70E082ED93E00E947E4A3D
:104DD00067ED70E08DEC93E00E947E4A8AEC90E2F1
:104DE0000E94514A10E005C0AA8E8B2C702E612EB5
:104DF00011E089E50E946A33882381F10E94E5323F
:104E0000962EA72EB82E092F20E030E047E553EC70
:104E10000E9495C987FD0CC020E030E047E553E4CF
:104E2000692D7A2D8B2D902F0E948EC2181694F426
:104E300067ED70E08AEB93E00E947E4A67ED70E0D8
:104E40008DEC93E00E947E4A8AEC90E20E94514AE7
:104E500010E004C0592C4A2C3B2C202E8AE50E94DD
:104E60006A33882339F10E94E5326B017C0120E02E
:104E700030E040EA51EC0E9495C987FD0AC020E06D
:104E800030E040EA51E4C701B6010E948EC2181614
:104E90008CF46CEE7FEF88EA93E00E947E4A64E136
:104EA00070E08DEC93E00E947E4A8AEC90E20E94D2
:104EB000514A8ACB112309F487CB8A8D982DA72DCF
:104EC000B62D8093B5159093B615A093B715B093F2
:104ED000B815852D942DA32DB22D8093B9159093DF
:104EE000BA15A093BB15B093BC15C092BD15D09256
:104EF000BE15E092BF15F092C01566CBE3960FB6D3
:104F0000F894DEBF0FBECDBFDF91CF911F910F91FF
:104F1000FF90EF90DF90CF90BF90AF909F908F90D9
:104F20007F906F905F904F903F902F9008952F92B9
:104F30003F924F925F926F927F928F929F92AF9229
:104F4000BF92CF92DF92EF92FF920F931F93CF9376
:104F5000DF93CDB7DEB762970FB6F894DEBF0FBE12
:104F6000CDBF8FEF9FEF90938900809388002AE058
:104F7000298B212C312C789480913D0490913E0412
:104F8000A0913F04B0914004892B8A2B8B2B79F0A0
:104F900080913D0490913E04A0913F04B091400463
:104FA000892B8A2B8B2B11F00C947D2FC7C18091FC
:104FB00087128823D1F010928712809185129091E8
:104FC0008612892B91F010928612109285121092FF
:104FD000FE039091731380917413981731F08091B0
:104FE00074138F5F8F7080937413809185129091EA
:104FF0008612892B69F24091390450913A046091EC
:105000003B0470913C048091350490913604A0914A
:105010003704B091380400912C0410E020E030E017
:10502000841B950BA60BB70B081719072A073B071C
:1050300010F4D901C8018A8B840F951FA61FB71FD2
:105040008093390490933A04A0933B04B0933C04BA
:10505000E1E0C0900304D0900404E0900504F090D7
:1050600006048091130490911404A0911504B0914A
:105070001604C80ED91EEA1EFB1EC0921304D0925D
:105080001404E0921504F0921604F7FC31C08091EC
:10509000F603082E000C990BAA0BBB0B409194123F
:1050A000509195126091961270919712840F951FEE
:1050B000A61FB71F8093941290939512A0939612F7
:1050C000B09397128091FF0390910004A091010486
:1050D000B0910204B701A601481B590B6A0B7B0B68
:1050E00040931304509314046093150470931604B2
:1050F00000910704109108042091090430910A04DA
:105100008091170490911804A0911904B0911A0489
:10511000080F191F2A1F3B1F009317041093180430
:105120002093190430931A0437FD31C08091F7039E
:10513000082E000C990BAA0BBB0B409198125091B2
:10514000991260919A1270919B12840F951FA61F5D
:10515000B71F8093981290939912A0939A12B093CC
:105160009B128091FF0390910004A0910104B091E3
:10517000020428013901481A590A6A0A7B0A409236
:105180001704509218046092190470921A04409106
:105190000B0450910C0460910D0470910E048091E9
:1051A0001B0490911C04A0911D04B0911E04480F93
:1051B000591F6A1F7B1F40931B0450931C0460936C
:1051C0001D0470931E0477FD31C08091F803082EF2
:1051D000000C990BAA0BBB0B80909C1290909D1217
:1051E000A0909E12B0909F12880D991DAA1DBB1D04
:1051F00080939C1290939D12A0939E12B0939F1245
:105200008091FF0390910004A0910104B0910204E9
:105210003A014B01681A790A8A0A9B0A60921B04B8
:1052200070921C0480921D0490921E0480900F04C2
:1052300090901004A0901104B090120480911F046B
:1052400090912004A0912104B0912204880D991D11
:10525000AA1DBB1D80931F0490932004A0932104DA
:10526000B0932204B7FD31C08090F903082C000CE4
:105270009908AA08BB084090A0125090A112609013
:10528000A2127090A312840C951CA61CB71C8092CD
:10529000A0129092A112A092A212B092A31280909A
:1052A000FF0390900004A0900104B09002042C0130
:1052B0003D01481859086A087B0840921F04509223
:1052C00020046092210470922204E11104C0E09154
:1052D0008400F0918500F7FE889A37FF8E9A77FD5B
:1052E00007C0E0910B01E095E870E0930901419A55
:1052F000B7FF149AE0918400F0918500E09184005A
:10530000F0918500F7FE889837FF8E9877FD06C0EC
:1053100020910B012870209309014198B7FF149840
:105320005A88552021F080918400909185002A8927
:1053300021502A8BE0E021118CCE2ACEE0918512FB
:10534000F0918612309711F40C94F6308091390464
:1053500090913A04A0913B04B0913C0440913504F3
:105360005091360460913704709138048417950782
:10537000A607B707D8F010928612109285121092E5
:10538000FE039091731380917413981711F40C9489
:10539000F630809174138F5F8F7080937413A0ED3B
:1053A000CA2EA7E0DA2EE12CF12CF9C3409131048A
:1053B00050913204609133047091340448175907B6
:1053C0006A077B0708F4A8C180902D0490902E04F2
:1053D000A0902F04B090300485A996A9A7A9B0ADDC
:1053E00088169906AA06BB0608F078C181149104B4
:1053F000A104B10449F48091FA039091FB03A091B8
:10540000FC03B091FD0365C1B0E0A981882D392D61
:105410002A2DFA81EB817C816D815E814F81988597
:1054200050917E12589F712D662740917F12489FA0
:10543000700D611D10908012189E600D539F700DAD
:10544000611D439F600D529F600DF72FE62FF79F60
:10545000512D44279927F69F500D411D9B1FE79F13
:10546000500D411D9B1FE69F400D911DF42FE92F0C
:10547000F79FA12D44279927F69FA00D411D9B1F43
:10548000E79FA00D411D9B1FE69F400D911DF42F2E
:10549000E92F55278091FA033091FB032091FC03FB
:1054A0000090AA100B2A09F484C04091A6104F9FC7
:1054B00051198B0B3B0B2B0B9091A7109F9F5019F1
:1054C00081093B0B2B0BA091A810AF9F80193109CC
:1054D0002B0B4E9F501981093B0B2B0B9E9F801964
:1054E00031092B0BAE9F30192109F79FA12D4427BD
:1054F0009927F69FA00D411D9B1FE79FA00D411D01
:105500009B1FE69F400D911DF42FE92F4091A210A3
:105510004F9F510D8B1F3B1F2B1F9091A3109F9FDF
:10552000500D811D3B1F2B1FA091A410AF9F800D1C
:10553000311D2B1F4E9F500D811D3B1F2B1F9E9F0A
:10554000800D311D2B1FAE9F300D211DF79FA12D0A
:1055500044279927F69FA00D411D9B1FE79FA00D93
:10556000411D9B1FE69F400D911DF42FE92F409197
:105570009E104F9F51198B0B3B0B2B0B90919F1043
:105580009F9F501981093B0B2B0BA091A010AF9F3F
:10559000801931092B0B4E9F501981093B0B2B0BA6
:1055A0009E9F801931092B0BAE9F301921090C9455
:1055B0005B2B4091A6104F9F510D8B1F3B1F2B1F44
:1055C0009091A7109F9F500D811D3B1F2B1FA091F5
:1055D000A810AF9F800D311D2B1F4E9F500D811DB8
:1055E0003B1F2B1F9E9F800D311D2B1FAE9F300D2B
:1055F000211DF79FA12D44279927F69FA00D411D3E
:105600009B1FE79FA00D411D9B1FE69F400D911D15
:10561000F42FE92F4091A2104F9F51198B0B3B0B98
:105620002B0B9091A3109F9F501981093B0B2B0BC3
:10563000A091A410AF9F801931092B0B4E9F5019D8
:1056400081093B0B2B0B9E9F801931092B0BAE9FC1
:1056500030192109F79FA12D44279927F69FA00D06
:10566000411D9B1FE79FA00D411D9B1FE69F400D05
:10567000911DF42FE92F40919E104F9F510D8B1FCC
:105680003B1F2B1F90919F109F9F500D811D3B1F13
:105690002B1FA091A010AF9F800D311D2B1F4E9F7F
:1056A000500D811D3B1F2B1F9E9F800D311D2B1FF9
:1056B000AE9F300D211D1124A983FA83EB837C83D7
:1056C0006D835E834F83988790E0932BA0E0B0E0DA
:1056D000A22B2FEA30E141E04A8B13C081A992A9A5
:1056E000A3A9B4A9F6CFB695A795979587954A89AA
:1056F000440F4A8B2C5F3F4F50E12B3C350709F498
:105700004FC4F90145915591659174914817590716
:105710006A077B0740F344C4409128045091290450
:1057200060912A0470912B04481759076A077B0778
:1057300008F0C8C18091270481111FC0DF01AF5B51
:10574000BF4FED90FD900D911C9113971D962D91DB
:105750003D914D915C9161A972A983A994A90E9480
:10576000FC9971E070932704E0918512F091861204
:1057700081A892A8A3A8B4A884C180912304909181
:105780002404A0912504B091260441AD52AD63AD2F
:1057900074AD84179507A607B70708F076C1009780
:1057A000A105B10549F48090FA039090FB03A09005
:1057B000FC03B090FD0365C150E06985882E292F58
:1057C0008A2FAA85FB85EC857D854E853F85988946
:1057D00040917E12489DE12D772730917F12389DB0
:1057E000E00D711D10908012189C700D429FE00D0D
:1057F000711D329F700D489F700DAE2FF72FAE9F19
:10580000412D33279927A79F400D311D951FFE9FDE
:10581000400D311D951FF79F300D911DA32FF92FBE
:10582000AE9F612D33279927A79F600D311D951FCE
:10583000FE9F600D311D951FF79F300D911DA32F09
:10584000F92F44278090FA032091FB038091FC03F9
:105850000090AA10052A09F484C03091A6103A9F3E
:105860004119850A250B850B9091A7109A9F401925
:105870008108250B850B6091A8106A9F801821096B
:10588000850B3F9F40198108250B850B9F9F801832
:105890002109850B6F9F20198109AE9F612D332748
:1058A0009927A79F600D311D951FFE9F600D311D2B
:1058B000951FF79F300D911DA32FF92F3091A21046
:1058C0003A9F410D851E251F851F9091A3109A9F19
:1058D000400D811C251F851F6091A4106A9F800CBC
:1058E000211D851F3F9F400D811C251F851F9F9FE8
:1058F000800C211D851F6F9F200D811DAE9F612D86
:1059000033279927A79F600D311D951FFE9F600DBE
:10591000311D951FF79F300D911DA32FF92F309149
:105920009E103A9F4119850A250B850B90919F1077
:105930009A9F40198108250B850B6091A0106A9FE2
:1059400080182109850B3F9F40198108250B850B85
:105950009F9F80182109850B6F9F201981090C9446
:10596000332D3091A6103A9F410D851E251F851FAE
:105970009091A7109A9F400D811C251F851F609153
:10598000A8106A9F800C211D851F3F9F400D811C20
:10599000251F851F9F9F800C211D851F6F9F200D38
:1059A000811DAE9F612D33279927A79F600D311D63
:1059B000951FFE9F600D311D951FF79F300D911DA6
:1059C000A32FF92F3091A2103A9F4119850A250B78
:1059D000850B9091A3109A9F40198108250B850B88
:1059E0006091A4106A9F80182109850B3F9F401980
:1059F0008108250B850B9F9F80182109850B6F9FC0
:105A000020198109AE9F612D33279927A79F600D2B
:105A1000311D951FFE9F600D311D951FF79F300DA5
:105A2000911DA32FF92F30919E103A9F410D851E95
:105A3000251F851F90919F109A9F400D811C251F47
:105A4000851F6091A0106A9F800C211D851F3F9FBC
:105A5000400D811C251F851F9F9F800C211D851FC8
:105A60006F9F200D811D11246987AA87FB87EC8712
:105A70007D874E873F87988B912C922AA12CB12C41
:105A8000A82A8FEA90E121E012C0E25BFF4F8080FC
:105A90009180A280B380F5CFB694A7949794879411
:105AA000220F049670E18B3C970709F4DCC2FC01DD
:105AB0004591559165917491481559056A057B0585
:105AC00058F3D1C28091210290912202A091230229
:105AD000B0912402B7FF5BC0EA5BFF4FC080D1806A
