:100000000C9484120C94B5120C94B5120C94B51285
:100010000C94B5120C94B5120C94B5120C94B51244
:100020000C94B5120C94B5120C94B5120C94B51234
:100030000C94B5120C94B9470C94B5120C94B512EB
:100040000C94B5120C94EC9A0C94B5120C94B51255
:100050000C94B5120C94B5120C948F930C94EDB4CF
:100060000C94B5120C94948E0C945F8E0C94B51273
:100070000C94B5120C94B5120C94B5120C94B512E4
:100080000C9440510C94B5120C94B5120C94B5120A
:100090000C94B5120C94B5120C94B5120C945848EB
:1000A0000C94B5120C94B5120C9412510C94B51218
:1000B0000C94B5120C94B5120C94B5120C94B512A4
:1000C0000C94B5120C94B5120C94B5120C94B51294
:1000D0000C94B5120C94B5120C94448C0C940F8CA7
:1000E0000C94B5121772227242724D725C72847255
:1000F000D875C472D875D875D875D8751073D87579
:10010000D875D875177360738A73C073CB73FC731B
:10011000017462758B75B475D875D875C575D87549
:10012000D875D875D875D075778C878C988CA38C3A
:10013000AB8CC28CAF8CC28CB38CB78CC28CBD8C98
:10014000C68ED68EE78EF28EFA8E118FFE8E118FAE
:10015000028F068F118F0C8FEAB2EDB2DCB2E0B2E3
:10016000E6B224B3F1B2F5B2FBB2FFB203B309B306
:100170000DB311B324B317B31BB31FB307B40CB43F
:1001800011B41BB425B49EB42FB437B43FB449B4F2
:1001900053B45DB46CB476B49EB480B48AB494B4F1
:1001A000084AD73B3BCE016E84BCBFFDC12F3D6CDE
:1001B00074319ABD56833DDA3D00C77F11BED9E444
:1001C000BB4C3E916BAAAABE000000803F05A84C24
:1001D000CDB2D44EB93836A9020C50B991868808F0
:1001E0003CA6AAAA2ABE000000803F000C94FFB2E1
:1001F0000C94878C0C940CB40C948B750C94C68E58
:100200000C94C4720C94EAB20C9449B40C942FB4BC
:100210000C94FA8E0C9476B40C94AB8C0C9425B49C
:100220000C94D8750C941BB40C94F5B20C9411B3C7
:100230000C945DB40C943FB40C9410730C949A8F8E
:100240000C94C28C0C940DB30C944D720C9462758A
:100250000C94D0750C94768F0C94028F0C9403B38D
:100260000C945C720C94868F0C9407B40C94F1B2CD
:100270000C9401740C941FB30C9480B40C94C57549
:100280000C9494B40C9417B30C941BB30C940C8F73
:100290000C9437B40C94DCB20C94B78C0C94FE8E96
:1002A0000C940ABE0C9460730C9422720C943D90D2
:1002B0000C94D68E0C94FF8F0C94CB730C949EB43C
:1002C0000C94068F0C9417730C94C0730C94A28F2B
:1002D0000C948AB40C94758F0C94988C0C94427284
:1002E0000C9411B40C946CB40C94E0B20C9417728E
:1002F0000C94778F0C94778C0C948A730C9409B3BC
:100300000C94B4750C94F28E0C94A38C0C94EDB2F6
:100310000C94FC730C94B38C0C94E6B20C94118F77
:100320000C94CF8F0C94AF8C0C94FBB20C9424B330
:100330000C94BD8C0C9484720C9453B40C94E78E82
:100340004E414E494E495459494E46CDCCCC3D0ABA
:10035000D7233C17B7D13877CC2B329595E6241F9D
:10036000B14F0A000020410000C84200401C462056
:10037000BCBE4CCA1B0E5AAEC59D74434F4D4D5565
:100380004E49434154494F4E0044525952554E0034
:100390004552524F525300494E464F004543484F35
:1003A000006F6B003F5A206F7574206F662072617A
:1003B0006E67652028003F59206F7574206F662096
:1003C00072616E676520282D0020746F20003F58F1
:1003D000206F7574206F662072616E676520282D0E
:1003E0000050726F6265204F666673657420580016
:1003F000454550524F4D204F4B0A004F666673657E
:100400007473204170706C696564004572723A20A3
:10041000546F6F206661722100546F6F20666172A5
:100420002066726F6D207265666572656E63652009
:10043000706F696E740A004D34323120696E636FDB
:10044000727265637420706172616D65746572208B
:1004500075736167650A006469730043290A006166
:10046000626C656420286D696E2074656D70200073
:10047000436F6C6420657874727564657320617273
:1004800065200020646174613A00206279746573AC
:100490003A003A2066726F6D3A006932632D7265D8
:1004A000706C7900426164206932632072657175F5
:1004B0006573740A004261642049324320616464B8
:1004C000726573732028382D313237290A00206471
:1004D0003A0020693A0020703A00496E76616C69F2
:1004E000642065787472756465720A0020536572C1
:1004F000766F200020466C6F773A200046523A0013
:1005000020204D61783A200020204D696E3A20006D
:10051000536F667420656E6473746F70733A200055
:100520005741524E494E4721204C6F77205A204A5E
:1005300065726B206D6179206C65616420746F2039
:10054000756E77616E746564207061757365732E66
:100550000A00205400205200416363656C6572619B
:1005600074696F6E3A2050002F2F20004348414D90
:100570004245525F54454D504552415455524500F5
:10058000424142595354455050494E47004152430D
:1005900053004D4F54494F4E5F4D4F444553005407
:1005A0004845524D414C5F50524F54454354494F7A
:1005B0004E004C4F4E475F46494C454E414D45001D
:1005C0004155544F5245504F52545F53445F53541A
:1005D00041545553005344434152440050524F4DEF
:1005E00050545F535550504F525400454D4552475B
:1005F000454E43595F504152534552004341534584
:100600005F4C494748545F4252494748544E45530E
:100610005300544F47474C455F4C4947485453009B
:10062000534F4654574152455F504F574552004231
:1006300055494C445F50455243454E54004C455635
:10064000454C494E475F44415441005A5F50524F18
:1006500042450052554E4F5554004155544F4C455C
:1006600056454C005052494E545F4A4F420050523A
:100670004F4752455353004155544F5245504F52E6
:10068000545F54454D5000564F4C554D45545249BA
:100690004300454550524F4D0042494E4152595F2B
:1006A00046494C455F5452414E53464552005345CE
:1006B0005249414C5F584F4E5F584F46460046499D
:1006C000524D574152455F4E414D453A4D61726C16
:1006D000696E20322E302E372D66697865642028A9
:1006E0004F637420203720323032302032333A3298
:1006F000323A33372920534F555243455F434F44D5
:10070000455F55524C3A68747470733A2F2F67697D
:10071000746875622E636F6D2F4D61726C696E46E1
:1007200069726D776172652F4D61726C696E2050D0
:10073000524F544F434F4C5F56455253494F4E3AD8
:10074000312E30204D414348494E455F5459504564
:100750003A416E796375626963206933204D65673C
:100760006120532045585452554445525F434F55DC
:100770004E543A3120555549443A636564653261B7
:1007800032662D343161322D343734382D396231AF
:10079000322D6335356336326633363766660A0086
:1007A000416E796375626963206933204D656761C5
:1007B0002053204F46462E004D3131332053006FD9
:1007C00066660044454255473A0045202553000AD5
:1007D00053746174733A2046696C616D656E742060
:1007E000757365643A20002C204C6F6E67657374D6
:1007F000206A6F623A2000546F74616C2074696DD6
:10080000653A20002C204661696C65643A20002C12
:100810002046696E69736865643A20005072696E9B
:1008200074733A200053746174733A200050726FED
:100830007465637465642050696E0A00496E766160
:100840006C69642050696E204D6F64650A005072B7
:10085000696E742074696D653A20004E6F204D6F8B
:1008600076652E00436C69636B20746F205265734C
:10087000756D652E2E2E004D65736820706F696E44
:1008800074206F7574206F662072616E67650A0050
:10089000536C6565702E2E2E00FFFFFF000000C018
:1008A00000000000000000009C03970390038903F0
:1008B0007B0324F4D43050C38E20C2A24017828B15
:1008C0007011127A910D816CD90AA861E108C7589C
:1008D0006607615143061E4B5D05C145A7041A41D9
:1008E0001104093D9803713931034036DB02653349
:1008F0009102D4305402802E1D02632CEE01752A21
:10090000C501B028A001102781018F2564012B2487
:100910004B01E0223401AC211F018D200D01801F0D
:10092000FC00841EED00971DDF00B81CD200E61B02
:10093000C600201BBC00641AB200B219A8000A1934
:10094000A0006A189900D117910040178B00B516C6
:10095000840031167E00B31579003A157300C71470
:100960006F0058146A00EE136600881363002513A5
:100970005E00C7125B006C12570015125400C111C3
:10098000510070114F0021114B00D61049008D10FD
:1009900047004610440002104200C00F4000800F84
:1009A0003E00420F3C00060F3B00CB0E3800930E7A
:1009B00037005C0E3500270E3400F30D3200C10DF8
:1009C0003100900D3000600D2E00320D2D00050D10
:1009D0002C00D90C2B00AE0C2900850C29005C0CD6
:1009E0002700350C27000E0C2600E80B2400C40B52
:1009F0002400A00B23007D0B23005A0B2100390B90
:100A00002100180B2000F80A1F00D90A1E00BB0A9B
:100A10001E009D0A1D00800A1D00630A1C00470A73
:100A20001B002C0A1B00110A1A00F7091A00DD0925
:100A30001900C4091900AB091900920917007B09B4
:100A40001800630917004C09160036091600200922
:100A500016000A091500F5081500E0081400CC0876
:100A60001400B8081400A4081400900813007D08AE
:100A700012006B08130058081200460812003408D0
:100A80001100230811001208110001081100F007DD
:100A90001000E0071000D0071000C0071000B007DA
:100AA0000F00A107100091070E0083070F007407C5
:100AB0000F0065070E0057070E0049070E003B07A1
:100AC0000D002E070E0020070D0013070D0006076E
:100AD0000D00F9060C00ED060D00E0060C00D40632
:100AE0000C00C8060C00BC060C00B0060C00A406E6
:100AF0000B0099060C008D060B0082060B00770692
:100B00000B006C060B0061060A0057060B004C0632
:100B10000A0042060A0038060A002E060A002406C9
:100B20000A001A060A001006090007060A00FD0559
:100B30000900F4050900EB050900E2050900D905E3
:100B40000900D0050900C7050900BE050900B50563
:100B50000800AD050800A50509009C0508009405DE
:100B600008008C050800840508007C050800740551
:100B700008006C050700650508005D0507005605BF
:100B800008004E0507004705070040050800380526
:100B90000700310507002A050700230507001C058B
:100BA0000600160507000F050700080506000205E8
:100BB0000700FB040600F5040700EE040600E80445
:100BC0000600E2040700DB040600D5040600CF049B
:100BD0000600C9040600C3040600BD040600B704ED
:100BE0000600B1040500AC040600A6040600A0043B
:100BF00005009B04060095040500900406008A0485
:100C0000050085040500800406007A0405007504CB
:100C10000500700405006B0405006604050061040E
:100C200005005C04050057040500520405004D044E
:100C3000050048040500430405003E0404003A048E
:100C4000050035040500300404002C0405002704C9
:100C50000400230405001E0404001A040400160402
:100C60000500110404000D04040009040500040437
:100C7000040000040400FC030400F8030400F4036F
:100C80000400F0030400EC030400E8030400E403A0
:100C90000400E0030400DC030400D8030400D403D0
:100CA0000400D0030400CC030400C8030300C50300
:100CB000030024F404D9201BC40C5C0E9804C4095E
:100CC0005F0265077101F405F900FB04B3004804F5
:100CD0008700C10369005803550003034500BE02A5
:100CE0003A008402310053022A002902250004023E
:100CF0002000E4011C00C8011900AF011700980191
:100D000014008401130071011000610110005101F1
:100D10000E0043010D0036010B002B010B002001DA
:100D20000B00150109000C01090003010800FB007C
:100D30000800F3000800EB000700E4000600DE00F6
:100D40000600D8000600D2000600CC000500C7004F
:100D50000500C2000500BD000400B9000400B50094
:100D60000400B1000400AD000400A9000400A500C7
:100D70000300A20003009F0004009B0003009800F2
:100D800003009500020093000300900003008D0013
:100D900002008B000300880002008600020084002D
:100DA0000300810002007F0002007D0002007B0042
:100DB0000200790002007700010076000200740052
:100DC000020072000100710002006F0002006D005D
:100DD00001006C0002006A00010069000200670067
:100DE000010066000100650001006400020062006D
:100DF000010061000100600001005F0002005D0071
:100E000001005C0001005B0001005A000100590074
:100E10000100580001005700010056000100550074
:100E20000100540001005300000053000100520073
:100E3000010051000100500001004F0001004E0070
:100E400000004E0001004D0001004C0001004B006D
:100E500000004B0001004A00010049000100480069
:100E60000000480001004700010046000000460065
:100E7000010045000000450001004400010043005E
:100E80000000430001004200000042000100410058
:100E9000000041000100400001003F0000003F0051
:100EA00001003E0000003E0001003D0000003D004A
:100EB00001003C0000003C0000003C0001003B0041
:100EC00000003B0001003A0000003A000100390038
:100ED0000000390001003800000038000000380030
:100EE0000100370000003700010036000000360026
:100EF000000036000100350000003500000035001C
:100F00000100340000003400000034000100330010
:100F10000000330000003300010032000000320006
:100F200000003200010031000000310000003100FB
:100F300001003000000030000000300001002F00F0
:100F400000002F0000002F0000002F0001002E00E5
:100F500000002E0000002E0001002D0000002D00DA
:100F600000002D0000002D0001002C0000002C00CE
:100F700000002C0000002C0001002B0000002B00C2
:100F800000002B0000002B0001002A0000002A00B6
:100F900000002A0000002A000100290000002900AA
:100FA000000029000000290000002900010028009D
:100FB0000000280000002800000028000000280091
:100FC0000100270000002700000027000000270084
:100FD0000000270001002600000026000000260077
:100FE000000026000000260001002500000025006A
:100FF000000025000000250000002500000025005D
:10100000010024000000240000002400000024004F
:101010000000240001002300000023000000230042
:101020000000230000002300000023000000230034
:101030000100220000002200000022000000220027
:101040000000220000002200010021000000210019
:10105000000021000000210000002100000021000C
:1010600000002100010020000000200000002000FE
:1010700000002000000020000000200000002000F0
:101080000000200001001F0000001F0000001F00E2
:1010900000001F0000001F0000001F0000001F00D4
:1010A00001001E0000001E0000001E0000001E00C7
:1010B0000000393000003325000087190000B00F10
:1010C0000000DB080000BD040000740200003F01C6
:1010D000000042696C696E656172204C6576656CD2
:1010E000696E6720477269643A0A0053544F505042
:1010F00045442E20005072696E7465722073746FBF
:10110000707065642064756520746F206572726FFD
:1011100072732E2046697820746865206572726F3C
:101120007220616E6420757365204D3939392074E1
:101130006F20726573746172742E202854656D700F
:101140006572617475726520697320726573657468
:101150002E20536574206974206166746572207254
:10116000657374617274696E67290A0021212053C6
:10117000544F502063616C6C6564206265636175D7
:101180007365206F6620424C546F756368206572EA
:10119000726F72202D20726573746172742077698A
:1011A0007468204D3939390A00486F74656E6420BF
:1011B000746F6F20636F6C640A004F46460A0046E6
:1011C0006164652048656967687420004265642031
:1011D0004C6576656C696E6720004661696C656474
:1011E00020746F20656E61626C6520426564204CDE
:1011F0006576656C696E670A00496E76616C696434
:10120000206D6573682E0A0023646566696E65202B
:1012100044454641554C545F004B6420004B6920C7
:10122000004B702000504944204175746F74756EF6
:10123000652066696E697368656421205075742045
:10124000746865206C617374204B702C204B69208E
:10125000616E64204B6420636F6E7374616E74738F
:101260002066726F6D2062656C6F7720696E746F97
:1012700020436F6E66696775726174696F6E2E6860
:101280000A00504944204175746F74756E6520667C
:1012900061696C6564212074696D656F75740A00FD
:1012A0000A20436C617373696320504944200A002B
:1012B000204B643A2000204B693A2000204B703AC2
:1012C00020000A204E6F206F76657273686F6F740E
:1012D0000A002054753A2000204B753A2000206DFA
:1012E00061783A2000206D696E3A200020643A202F
:1012F0000020626961733A200050494420417574AE
:101300006F74756E652073746172740A005049447D
:10131000204175746F74756E65206661696C6564D3
:10132000212054656D706572617475726520746FEB
:101330006F20686967680A00504944204175746FDE
:1013400074756E6500504944204175746F74756EF4
:1013500065206661696C656421204261642065785E
:10136000747275646572206E756D6265720A000232
:101370004A3137002020506C616E6E65724275668E
:1013800066657242797465733A200020467265651D
:10139000204D656D6F72793A2000436F6D70696CF6
:1013A00065643A204F637420203720323032300A8F
:1013B00000204C61737420557064617465643A2038
:1013C000323032302D30392D3239207C2041757445
:1013D000686F723A2028683073636831383020684B
:1013E0006F7363686940616E756B69732E646529FC
:1013F0000A00322E302E372D66697865640A004D5A
:1014000061726C696E0020536F667477617265203B
:1014100052657365740A00205761746368646F676E
:101420002052657365740A002042726F776E206FD8
:1014300075742052657365740A002045787465726E
:101440006E616C2052657365740A00506F77657227
:1014500055700A0020503A00656E6473746F7073A3
:10146000206869743A20001000C90210012C014064
:1014700001220170011801B0010E01F001040150B8
:1014800002FA00B002F0003003E600D003DC009066
:1014900004D2007005C800A006BE000008B400B069
:1014A00009AA00D00BA000600E960060118C00000D
:1014B00015820020197800C01D6E00A0226400B0C3
:1014C000275A00902C500000314600E0343C0010B8
:1014D000383200903A2800603C1E00A03D14008085
:1014E0003E0A00203F00004572726F7220777269D9
:1014F00074696E6720746F20454550524F4D210A24
:10150000004E6F20436865636B73756D2077697457
:1015100068206C696E65206E756D6265722C204C5A
:10152000617374204C696E653A2000636865636B73
:1015300073756D206D69736D617463682C204C61E7
:101540007374204C696E653A20004C696E65204EBC
:10155000756D626572206973206E6F74204C6173C3
:1015600074204C696E65204E756D6265722B312C4E
:10157000204C617374204C696E653A20004D313106
:1015800030002121204B494C4C2063617573656408
:1015900020627920746F6F206D75636820696E61B9
:1015A00063746976652074696D65202D206375729A
:1015B00072656E7420636F6D6D616E643A200062B7
:1015C0007573793A2070617573656420666F722057
:1015D000696E7075740A00627573793A207061756E
:1015E00073656420666F7220757365720A00627598
:1015F00073793A2070726F63657373696E670A005E
:101600004A3131005072696E7465722068616C7481
:1016100065642E206B696C6C28292063616C6C6595
:1016200064210A006563686F3A004572726F723A0E
:101630000036372603023C3D382A2E303E12242243
:101640001E021A1C180A2C430809072C070844001C
:101650000120746F6F206C6F6E67206578747275EF
:1016600073696F6E2070726576656E7465640A00CA
:1016700020636F6C6420657874727573696F6E2077
:1016800070726576656E7465640A00486F6D6520DA
:1016900025732573257320466972737400FFFDFC62
:1016A000FAF8F6F4F2F0EEECEAE9E7E5E3E1E0DE81
:1016B000DCDAD9D7D5D4D2D0CFCDCBCAC8C7C5C331
:1016C000C2C0BFBDBCBAB9B7B6B4B3B2B0AFADACAF
:1016D000AAA9A8A6A5A4A2A1A09E9D9C9A99989704
:1016E00095949392908F8E8D8B8A89888786848338
:1016F0008281807F7E7D7B7A79787776757473724C
:1017000071706F6E6D6C6B6A696867666564636241
:1017100061605F5E5D5C5B5A59585857565554532B
:10172000525150504F4E4D4C4B4A4A4948474646FD
:10173000454443424241403F3E3E3D3C3B3B3A39BB
:10174000383837363535343332323130302F2E2E6B
:101750002D2C2B2B2A29292827272625252423230E
:1017600022212120201F1E1E1D1C1C1B1B1A1919A3
:101770001818171616151514131312121111100F2D
:101780000F0E0E0D0D0C0C0B0A0A090908080707AD
:1017900006060505040403030202010000000057C9
:1017A000430000574300004D4353657474696E67EE
:1017B000732053746F7265640053657474696E6747
:1017C000732053746F72656420280050726F6269D1
:1017D0006E6720506F696E740025532025692F2590
:1017E000690050726F62696E67206D657368207062
:1017F0006F696E742000202844525952554E2900BA
:10180000473239204175746F20426564204C6576FB
:10181000656C696E67003F20284C2C522C462C4288
:1018200029206F7574206F6620626F756E64732E49
:101830000A003F2856296572626F7365206C6576D1
:10184000656C20696D706C61757369626C652028C8
:10185000302D34292E0A00426164205A2076616CB2
:1018600075650A004E6F2062696C696E6561722051
:10187000677269640A0046696E6973686564210A63
:10188000003A207A3A2000206F662000476F696E88
:101890006720746F3A20580043570A002064697229
:1018A0003A0020616E676C653A005374617274206F
:1018B0007261646975733A00506F736974696F6E11
:1018C000696E67207468652070726F62652E2E2EB7
:1018D0000A003F4C656773206F66206D6F76656DFB
:1018E000656E7420696D706C61757369626C6520DA
:1018F00028302D3135292E0A003F2028582C59290F
:10190000206F7574206F6620626F756E64732E0A87
:101910000050726F6265206F7574206F6620626F71
:10192000756E6473003F53616D706C652073697AE6
:1019300065206E6F7420706C61757369626C6520D0
:1019400028342D3530292E0A004D3438205A2D5098
:10195000726F6265205265706561746162696C695D
:10196000747920546573740A005072696E74205043
:101970006175736564004A313200205A3A200020B4
:10198000593A2000220A00556E6B6E6F776E206305
:101990006F6D6D616E643A202200416E79637562ED
:1019A0006963206933204D6567612053205265616A
:1019B00064792E005072696E74696E672E2E2E0047
:1019C00020453A00205A3A0020593A00322E302E53
:1019D000372D6669786564004A333320004F4B0029
:1019E0004739310A25730A473930004731204525E8
:1019F000694635303000473120452D302E3146259F
:101A0000690047312045302E314625690047312095
:101A10005A2569462569004731205A2D302E314616
:101A20002569004731205A302E314625690047315B
:101A30002059256946256900473120592D302E311E
:101A40004625690047312059302E31462569004727
:101A5000312058256946256900473120582D302E00
:101A6000314625690047312058302E31462569001E
:101A700047323800473238205A0047323820590060
:101A80004732382058004132305620004731205A22
:101A90003130005072696E7465722068616C7465D3
:101AA000642E206B696C6C28292063616C6C656402
:101AB0002100203939393A39393900204D00204880
:101AC0002000413756200041355620583A20004129
:101AD0003456200041335620004132562000413117
:101AE00056200041305620004A3134004D38340A27
:101AF0004D32370020496E76616C696420657874D8
:101B0000727564657220004361703A0047322F4756
:101B1000332062616420706172616D6574657273F7
:101B20000A00526573656E643A20002569792025A4
:101B30006964202569682025696D20256973004244
:101B4000656420436F6F6C696E672E2E2E004265B0
:101B5000642048656174696E672E2E2E006F706573
:101B60006E00545249474745524544007A5F7072AF
:101B70006F6265007A325F6D696E007A5F6D696EC3
:101B800000795F6D696E00785F6D696E00526570F7
:101B90006F7274696E6720656E6473746F70207302
:101BA00074617475730A00202D20496E76616C692A
:101BB00064206578747275646572206E756D6265F7
:101BC0007220210A00544845524D414C2052554E36
:101BD0004157415900546865726D616C2052756EB1
:101BE00061776179004572723A204D415854454DF4
:101BF00050004D415854454D5020747269676765D7
:101C0000726564004572723A204D494E54454D50FC
:101C1000004D494E54454D50207472696767657296
:101C2000656400202F002042403A0020403A002006
:101C3000573A0070012C0190012701B0012201C028
:101C4000011D01F00118011002130130020E0160A4
:101C500002090190020401C002FF000003FA0040E3
:101C600003F5008003F000D003EB002004E60070D1
:101C700004E100E004DC004005D700C005D20040CC
:101C800006CD00D006C8008007C3003008BE00F0B3
:101C900008B900C009B400B00AAF00B00BAA00D068
:101CA0000CA500000EA000500F9B00C01096005025
:101CB00012910000148C00C0158700B0178200B08C
:101CC000197D00D01B7800001E730040206E00902C
:101CD000226900F024640040275F0090295A00E048
:101CE0002B5500102E500020304B0010324600E0E3
:101CF00033410090353C001037370070383200A077
:101D0000392D00B03A2800A03B2300603C1E001093
:101D10003D1900903D1400103E0F00703E0A00C0B7
:101D20003E0500003F0000403FFBFF803FF6FFC044
:101D30003FF1FF5374616E6461726420446576699B
:101D40006174696F6E3A20002052616E67653A20B7
:101D500000205369676D613A20004D65616E3A203D
:101D600000204D39322058004C6F61642046696C68
:101D7000616D656E7400496E736572742066696C7E
:101D8000616D656E7420616E642073656E64204DB4
:101D90003130380A005265686561742066696E6981
:101DA000736865642E00526568656174696E672E9C
:101DB0002E2E004865617465722054696D656F75DB
:101DC000740053656E64204D31303820746F206884
:101DD000656174206E6F7A7A6C650A004E6F7A7A4C
:101DE0006C65205061726B656400454550524F4DE3
:101DF00020496E697469616C697A65640A0048619A
:101E00007264636F6465642044656661756C7420F8
:101E100053657474696E6773204C6F616465640AFE
:101E2000003B200020204D36303320002055004656
:101E3000696C616D656E74206C6F61642F756E6C7A
:101E40006F6164206C656E677468733A0020204D82
:101E50003835312058005A2D50726F6265204F6618
:101E6000667365740020204D3330342050002020EC
:101E70004D333031205000504944207365747469EB
:101E80006E67733A00204A002020473239205720DD
:101E9000490020204D3432302053004175746F20AA
:101EA000426564204C6576656C696E673A00202057
:101EB0004D323036205800486F6D65206F6666736E
:101EC00065743A0020204D3230352042004164765E
:101ED000616E6365643A20423C6D696E5F7365674D
:101EE0006D656E745F74696D655F75733E20533CFC
:101EF0006D696E5F66656564726174653E20543C11
:101F00006D696E5F74726176656C5F66656564723B
:101F10006174653E20583C6D61785F785F6A6572D8
:101F20006B3E20593C6D61785F795F6A65726B3EEC
:101F3000205A3C6D61785F7A5F6A65726B3E20451E
:101F40003C6D61785F655F6A65726B3E0020204D75
:101F5000323034205000416363656C65726174698E
:101F60006F6E2028756E6974732F7332293A205072
:101F70003C7072696E745F616363656C3E20523CB5
:101F8000726574726163745F616363656C3E205453
:101F90003C74726176656C5F616363656C3E0020C2
:101FA000204D3230312058004D6178696D756D20BB
:101FB000416363656C65726174696F6E2028756E2C
:101FC0006974732F7332293A0020450020204D3266
:101FD00030332058004D6178696D756D20666565F8
:101FE0006472617465732028756E6974732F732928
:101FF0003A0053746570732070657220756E697451
:102000003A0020440020204D32303020530020443C
:10201000697361626C65640A0046696C616D656E26
:10202000742073657474696E67733A0020286D6D4F
:1020300029002020473231202020203B20556E6986
:10204000747320696E206D6D000000FA430000F08B
:10205000420000C0400000F0410000A0420000A08B
:10206000420000C84314EEC443B80B0000D0070080
:10207000003C000000102700002062797465733B6B
:102080002063726320004E6F20454550524F4D2E05
:102090000A00454550524F4D206461746173697A5E
:1020A00065206572726F722E0A002073746F7265FC
:1020B000642073657474696E6773207265747269E5
:1020C00065766564202800202863616C63756C6107
:1020D00074656429210A0020213D200045455052A5
:1020E0004F4D20435243206D69736D6174636820C6
:1020F0002D202873746F7265642920002053697A3B
:10210000653A2000496E6465783A2000204D61727E
:102110006C696E3D563831290A00454550524F4D85
:102120002076657273696F6E206D69736D6174637B
:10213000682028454550524F4D3D00486F6D696EEF
:1021400067204661696C6564005761726E696E67ED
:102150003A20486F6D696E672042756D7020446942
:102160007669736F72203C20310A0020456E6473DB
:10217000746F703F0A004261642000000048420012
:10218000004842000080400202040000A04000001D
:10219000A0400000004000005943000057430000E9
:1021A0004D43000000010000000100008000555573
:1021B00055000000400033333300AAAA2A00499298
:1021C000240000002000C7711C0099991900D14516
:1021D0001700555515003BB1130024491200111189
:1021E0001100000010000F0F0F00E3380E004379BC
:1021F0000D00CCCC0C00C3300C00E8A20B00642115
:102200000B00AAAA0A00703D0A009DD80900427B73
:10221000090092240900DCD30800888808001042D5
:10222000080000000800F0C107008787070075500C
:102230000700711C07003EEB0600A1BC0600699078
:10224000060066660600703E06006118060017F478
:10225000050074D105005BB00500B2900500627204
:1022600005005555050078390500B81E050005051F
:1022700005004EEC040087D40400A1BD040090A723
:10228000040049920400C17D0400EE690400C756B1
:102290000400444404005C3204000821040041109E
:1022A0000400000004003FF00300F8E0030026D221
:1022B0000300C3C30300CCB503003AA803000A9B84
:1022C0000300388E0300C08103009F750300D069AE
:1022D0000300505E03001D53030034480300913D8A
:1022E00003003333030016290300381F030097153A
:1022F0000300300C0300030303000BFA020049F152
:102300000200BAE802005CE002002DD802002DD0E5
:10231000020059C80200B0C0020031B90200DAB1AF
:102320000200AAAA0200A0A30200BC9C0200FA9527
:1023300002005C8F0200DF88020082820200457C7E
:1023400002002776020027700200436A02007C64C4
:102350000200D05E02003F590200C8530200204331
:102360006F756E7420583A00426564004531006212
:102370006564002C2073797374656D2073746F70BD
:1023800070656421204865617465725F49443A2034
:102390000048656174696E67204661696C65640018
:1023A00048656174696E67206661696C6564004D9B
:1023B0003131322053687574646F776E000000000D
:1023C0002100240027002A002D00300033000101E5
:1023D0000000040107010A01000022002500280076
:1023E0002B002E003100340002010000050108011D
:1023F0000B01000020002300260029002C002F00E4
:102400003200000100000301060109010505050570
:10241000070508080808020202020A0A080804045C
:10242000040401010101010101010303030303038A
:102430000303040707070C0C0C0C0C0C0C0C020219
:10244000020206060606060606060B0B0B0B0B0B16
:102450000B0B0102102020080810204010204080A3
:102460000201020108040201010204081020408058
:1024700080402010080402018004020180402010E6
:10248000080402010804020101020408102040802F
:10249000010204081020408000000A0B02090C0D04
:1024A0000E08070304010000000000000000000007
:1024B000000000000000000000000000000000001C
:1024C00000000000121110000000000000000000D9
:1024D0000000000000000000000000000000426555
:1024E0006420583A200050726F62696E672046611E
:1024F000696C65640A0050726F62696E672046619C
:10250000696C656400000ABE11241FBECFEFD1E2E2
:10251000DEBFCDBF00E00CBF12E0A0E0B2E0E6E21B
:10252000F8E901E00BBF02C007900D92A23FB1078E
:10253000D9F725E1A2EFB2E001C01D92A73CB20796
:10254000E1F712E1C4E8D2E100E006C021970109F9
:10255000802FFE010E94B7C8C338D10780E008076A
:10256000A9F70E9446B70C9411CC0C9400002F924E
:102570003F924F925F926F927F928F929F92AF9213
:10258000BF92CF92DF92EF92FF920F931F93CF9360
:10259000DF93CDB7DEB7A6970FB6F894DEBF0FBEB8
:1025A000CDBF2091F4032E8F21E02093F40380917E
:1025B000F3038D3409F40DC3843511F40C944C23CA
:1025C000873411F00C9471232091F1033091F203C0
:1025D0002B31310509F48DC09CF42430310534F4DD
:1025E00022303105CCF537FF2BC0EFC22430310546
:1025F00009F440C02531310511F40C947323E5C270
:102600002A32310509F4BAC15CF42D31310509F4DF
:102610009AC00CF488C02E31310509F4B2C0D5C27D
:102620002B35310509F427C12C35310509F428C1B2
:102630002A35310509F0C9C21092F0030C947323B6
:102640008091EF03813011F00C9473230E94757C0C
:102650000E9473830C9473238091EF03813011F0F7
:102660000C9473232230310509F080E00E94527DE2
:102670000C94732380E50E94A032882329F00E94E5
:10268000419A6B017C0103C0C12CD12C760183E5FA
:102690000E94A032882361F00E94203220E030E0C6
:1026A0004AE754E40E947FC40E9433CA6B017C0154
:1026B0000E94ACA680918009811105C060E080E98C
:1026C00098E00E940A410E94E1B4C60ED71EE81E9F
:1026D000F91E0E94E1B4DC01CB018C199D09AE0901
:1026E000BF09B7FD02C00C94732380E00E942F4AFB
:1026F000F0CF0E940F5F81110C9473238CE0E2E70E
:10270000F2E0DE01119601900D928A95E1F760E00A
:1027100070E080E50E94F399BE016F5F7F4F0E94D9
:10272000463C0C9473238091C1098770873011F067
:102730000C94862360E08FE40E94C83281110C94CF
:1027400073230C9486230E94E1B46093EB0370938F
:10275000EC038093ED039093EE030E940F5F8111D1
:102760000C9473238091E00F882311F40C94EF23D1
:1027700060E08FE40E94C83281110C9473230C94A2
:10278000EF232091B5153091B6154091B7155091B2
:10279000B81560915102709152028091530290914C
:1027A00054020E94C0C8AB01BC0188E50E94D3411D
:1027B00069837A838B839C832091B9153091BA15F4
:1027C0004091BB155091BC15609155027091560215
:1027D00080915702909158020E94C0C8AB01BC0181
:1027E00089E50E94D3416D837E838F839887BE01E4
:1027F0006B5F7F4FCE0101960E943830882311F421
:102800000C94732380E00E94F3350E944B8661E0B4
:1028100085E40E94C83221E0482FBE016B5F7F4FE4
:10282000CE0101960E9437B56B017C019B01AC0182
:102830000E94B2CB811119C049815A816B817C8180
:102840008EED94E20E94A6494D815E816F8178856C
:102850008FE799E10E94A649B701A6018AE799E1AD
:102860000E94A6498AE00E94FE8C0E9432860E9445
:1028700026880C9473238FE08093F0030C947323C9
:102880001EE7212E12E0312E0DEDE02E03E0F02E9A
:1028900081E592E09B8F8A8F85EEC82E8FE0D82E3F
:1028A00000E010E0F10181911F010E94A032882315
:1028B00009F44AC00E9420322B013C01133049F038
:1028C000F60120813181428153810E94BFC82B01D2
:1028D0003C01EA8DFB8D2081318142815381C3010E
:1028E000B2010E94BFC84B015C012DEB37E346E803
:1028F00055EB0E9420CB87FD0AC02DEB37E346E85D
:1029000055E3C501B4010E9419C41816ECF4133044
:1029100051F440925D0250925E0260925F027092AA
:10292000600201E011C0A5019401F701608171818D
:10293000828193810E94C0C8F70160837183828382
:102940009383812F0E9415AC1F5FF4E0EF0EF11C02
:102950002A8D3B8D2C5F3F4F3B8F2A8F34E0C30E77
:10296000D11C143009F09ECF002321F08DE592E0B8
:102970000E948CAA0E9426880C9473238091EF03F6
:10298000813011F00C94732389E40E94A032E82E68
:10299000882321F00E941C32082F01C000E08AE445
:1029A0000E94A032F82E882321F00E941C32182F9A
:1029B00001C010E0EE2011F0033020F4FF2041F0C0
:1029C000133030F087E798E00E948A490C94732313
:1029D00080E1E1E5F2E0ADECB3E001900D928A9583
:1029E000E1F7EE2019F1602F000F770B880B990BA0
:1029F0000E9420C42091BD033091BE034091BF03CB
:102A00005091C0030E947FC42091C5033091C6033A
:102A10004091C7035091C8030E94C0C86093CD0382
:102A20007093CE038093CF039093D003FF2019F1CE
:102A3000612F110F770B880B990B0E9420C42091F6
:102A4000C1033091C2034091C3035091C4030E945B
:102A50007FC42091C9033091CA034091CB035091A8
:102A6000CC030E94C0C86093D1037093D2038093BB
:102A7000D3039093D40360E080E50E94C83288239A
:102A8000C1F1EE20D1F02091B5153091B6154091ED
:102A9000B7155091B8156091CD037091CE03809118
:102AA000CF039091D0030E94BFC86093CD03709371
:102AB000CE038093CF039093D003FF20D1F02091D9
:102AC000B9153091BA154091BB155091BC15609164
:102AD000D1037091D2038091D3039091D4030E94CB
:102AE000BFC86093D1037093D2038093D3039093B4
:102AF000D40340E050E0BA0186E40E94D3416B0168
:102B00007C0120E030E0A9010E9420CB18165CF483
:102B100020E030E040E752E4C701B6010E94BAC9A4
:102B20006B017C0103C0C12CD12C760180906A021C
:102B300090906B02A0906C02B0906D0220E030E0AB
:102B4000A901C701B6010E9419C4882341F0C092AF
:102B50006A02D0926B02E0926C02F0926D020091D8
:102B60004F021091500284E690E0909350028093BF
:102B70004F02C0903D02D0903E02E0903F02F090A4
:102B8000400280E090E0A0E8BFE380933D02909394
:102B90003E02A0933F02B09340020E947383809252
:102BA0006A0290926B02A0926C02B0926D02109336
:102BB000500200934F02C0923D02D0923E02E0923A
:102BC0003F02F09240020C9473230E94B8770C9459
:102BD00073238091F1039091F2038B39910509F4ED
:102BE000FBC30CF0ADC08836910509F496C20CF019
:102BF00063C08C34910509F4F6C14CF5823191051E
:102C000009F422C46CF497FF02C00C94492382306B
:102C100091050CF463C1419709F491C10C944923C7
:102C20008A32910509F4C2C12CF44F9709F49BC173
:102C30000C9449238033910509F4D1C18B3491055B
:102C400011F00C9449230E9418650C94732382356B
:102C5000910509F4E9C304F58E34910509F4CBC15B
:102C60000CF4C5C18135910511F00C9449230E94E3
:102C7000E4940E9474650E94BDA61092CB1268EE87
:102C800073E080E090E00E94BC3A60E080EA97E068
:102C90000E940A410C9473238435910509F4D4C32E
:102CA0000CF4CAC38535910509F407C48C35910528
:102CB00009F428C40C9449238137910509F440C3D1
:102CC000F4F48C36910511F40C9473233CF48A3699
:102CD000910509F4A8C20CF492C2C9C28E369105BE
:102CE00009F4D0C20CF439C28F36910509F4DDC263
:102CF0008037910511F40C9473230C944923863783
:102D0000910509F43FC564F48337910509F4A4C41F
:102D10000CF49AC48537910509F420C50C94492315
:102D20008837910509F46CC50CF467C5893791059E
:102D300009F46EC58C38910509F42CC30C94492311
:102D40008F32E1E09E0711F40C9488210CF05CC0F6
:102D50008C3D910509F419C734F58B3C910509F4B4
:102D6000CBC58CF4883C910509F459C5893C910583
:102D700009F49CC58E3B910511F00C9449230E94E7
:102D8000C6770C9473238D3C910509F408C60CF4A6
:102D9000D2C58E3C910509F415C6833D910509F411
:102DA0002EC60C944923853021E0920711F40C942F
:102DB000CF2084F4823E910509F463C78430E1E0BA
:102DC0009E0711F40C942C208D3D910511F00C946C
:102DD000492302C78C32F1E09F0711F40C94241FA1
:102DE00034F48831914009F498C70C9449238D320A
:102DF000E1E09E0711F40C94391F8E32914011F4DA
:102E00000C9444210C944923843F31E0930711F43E
:102E10000C94732294F58239F1E09F0711F40C941D
:102E2000982184F4803931E0930711F40C948B21BC
:102E300014F00C948E218033914011F40C94B91F3E
:102E40000C944923843A21E0920711F40C949D21BB
:102E50003CF48A39914011F40C9473230C94492367
:102E6000853AF1E09F0711F40C94A0218C3A91402F
:102E700011F40C9416220C944923883F31E09307F7
:102E800011F40C9482226CF4863FF1E09F0711F458
:102E90000C94762214F00C9479220E94279D0C94B5
:102EA00073238B3532E0930711F40C9492224CF487
:102EB0008835924011F00C9449230E947C960C9422
:102EC0007323833523E0920711F40C940A23873E81
:102ED000934011F40C943B230C94492380E50E9409
:102EE000A032882329F00E94419A6B017C0103C023
:102EF000C12CD12C760183E50E94A032882361F099
:102F00000E94203220E030E04AE754E40E947FC46F
:102F10000E9433CA6B017C010E94ACA68091BB0366
:102F20009091BC03892B21F484E698E00E944A41E9
:102F300040E0C701B6010E94264F0C947323809194
:102F4000B70384FF02C00C94F2238091B90387FF7A
:102F500002C00C94F2238091BA03837011F00C9498
:102F6000F2230C940F240E9462896E8B7F8B888FD2
:102F7000998FBE016F5F7F4FCE0146960E94A37965
:102F80008091C009811104C0CE0101960E94EB40DE
:102F90000E94DB49BE016F5F7F4F8EE498E00E9484
:102FA000C4498AE00E94FE8C0C9473236DE070E0AB
:102FB00080E50E94AD328C0197FF02C00C94732310
:102FC000E82E60E089E40E94C83281110C941E242E
:102FD000802F0E94DDBB811171C60C941E240E94BB
:102FE0003D680C9473230E94B1890C9473230E9452
:102FF00074650C94732360E070E083E50E94AD3249
:103000008E34910531F40E94E5650E94A3770C94FB
:10301000732385E298E00E948A496091A70370912A
:10302000A8038CE198E00E9499496091A9037091EE
:10303000AA038FE098E00E9499496091A7037091DC
:10304000A8038091A9039091AA03681B790B809132
:10305000D70F815021E030E0823010F020E030E0E6
:10306000621B730B84E098E00E9499498AE00E94F9
:10307000FE8C85E298E00E948A498091AB03909192
:10308000AC03A091AD03B091AE038E8B9F8BA88F44
:10309000B98FBE016F5F7F4FCE0146960E94A37924
:1030A000BE016F5F7F4F87EF97E00E94C449809118
:1030B000AF039091B003A091B103B091B2038E8B96
:1030C0009F8BA88FB98FBE016F5F7F4FCE01469651
:1030D0000E94A379BE016F5F7F4F87EE97E00E9449
:1030E000C44920E030E04AE754E46091B3037091B2
:1030F000B4038091B5039091B6030E94BAC9AB01A5
:10310000BC018FEC97E00E94A6498DE60E94FE8CE0
:103110008AE00E94FE8C0C9473238091690F83FFD8
:1031200002C00C9473230E94768287FF02C00C9425
:10313000732383E50E94A032882359F00E94203235
:103140000E942CCACB010E943E9061E080E00E9468
:10315000C7930E9402BC0C9473238091690F83FF74
:1031600002C00C9473230E947682F82E87FF02C05F
:103170000C94732383E50E94A032182F811107C09D
:1031800082E50E94A032811102C000E02CC00E94A2
:1031900020320E942CCACB010E943E9061E081E067
:1031A0000E94C7936091FB127091FC12072E000CD5
:1031B000880B990B0E9420C44B015C014090F712D0
:1031C0005090F8126090F9127090FA12A3019201D7
:1031D0000E9420CB181614F40C946F24112311F4C0
:1031E0000C94552401E00E9402BC002311F40C94BD
:1031F0007323612F8F2D0E94C0900C9473230E9423
:103200007682182F87FD0AC081EA93E00E948A49DE
:10321000812F0E944E908AE00E94FE8C9E8D90939A
:10322000F4030C94B92660E080E50E94BC32811161
:103230000C94732381E40E945732882321F060911B
:10324000CB12062F02C00FEF10E083E50E94A032E0
:10325000882349F00E94E8318B016F3F710519F016
:1032600010F00FEF10E00093CB120C94732360E08A
:1032700080E50E94BC3281110C9473231092CB1212
:103280000C9473238EE40E94A032882311F40C94D2
:1032900073230E94E8316093A3037093A403809387
:1032A000A5039093A6030C94732383E50E945732E1
:1032B000882331F060E083E50E94BC328093690F7F
:1032C0000E94DB4983EC97E00E948A498091690F54
:1032D000882369F1B8EAEB2EB8E0FB2E00E010E09D
:1032E00020E08091690F90E0A0E0B0E0002E04C0E3
:1032F000B695A795979587950A94D2F780FF0EC04B
:10330000DD24D394D20E222319F08CE20E94FE8C8D
:10331000F701859194910E948A492D2D0F5F1F4FCF
:10332000E2E0EE0EF11C05301105D9F604C08FEB7A
:1033300097E00E948A498AE00E94FE8C0C947323D5
:1033400083E50E94A032882381F00E94F831282F63
:1033500030E02D33310524F480931F020C94732345
:103360008CE380931F020C9473230E94DB49C0906E
:103370001F02D12CE12CF12C88EB97E00E948A49A6
:103380004AE0C701B6010E944E8D8AE00E94FE8C81
:103390000C9473238091690F83FF02C00C947323F4
:1033A00083E50E94A032882311F40C9473230E94B9
:1033B00020320E942CCA6837710514F068E770E06B
:1033C0007093D5126093D4120E94AC9461E080E0B7
:1033D0000E94C7930C94732383E50E94A032882334
:1033E00011F40C9473230E94F831182F90E0CD97BC
:1033F0000CF01CE31093A2030E94E1B46B017C016A
:10340000212F30E0A8EEB3E00E9474C8C60ED71E8C
:10341000E81EF91EC0929E03D0929F03E092A00383
:10342000F092A1030C9473238091F0038F7D80614F
:103430008093F0030C9473238091F0038F7E80625D
:103440008093F0030C94732383E50E94A0328823B9
:10345000F1F00E94E1B46093EB037093EC0380936E
:10346000ED039093EE030E94203220E030E04AE723
:1034700054E40E947FC40E9433CA60931B0270937D
:103480001C0280931D0290931E020C947323809162
:10349000B70384FF02C00C9472248091B90387FFA4
:1034A00002C00C9472248091BA03837011F00C94C2
:1034B00072240E94BDA60C94732383E50E945732A8
:1034C000882311F40C9473230E94E1B46093EB03FE
:1034D0007093EC038093ED039093EE030E942032EF
:1034E00020E030E04AE754E40E947FC40E9433CADF
:1034F00060939A0370939B0380939C0390939D0326
:103500000C9473230E94768287FF02C00C9473236D
:103510009091B70394FD04C09091B90397FF0AC03E
:10352000FEE7CF2EF2E0DF2EAAE6EA2EAFE0FA2E7B
:1035300010E00AC09091BA03937091F7682F81E070
:103540000E94069A0C947323F60181916F010E94E8
:10355000A032882309F46DC0133009F063C00E94C3
:1035600020324B015C0120E030E040EA51E40E944F
:1035700019C487FF4EC0A501940160918A0F709114
:103580008B0F80918C0F90918D0F0E94BAC92B01E7
:103590003C019B01AC016091CE097091CF098091F3
:1035A000D0099091D1090E947FC46093CE09709395
:1035B000CF098093D0099093D109A3019201609122
:1035C0009A0F70919B0F80919C0F90919D0F0E947C
:1035D0007FC460939A0F70939B0F80939C0F90937E
:1035E0009D0F6091DE097091DF098091E009909153
:1035F000E1090E941EC4A30192010E947FC40E949F
:1036000033CA6093DE097093DF098093E0099093D9
:10361000E10980928A0F90928B0FA0928C0FB0924A
:103620008D0F07C00E942032F701648B758B868B4B
:10363000978B1F5FF4E0EF0EF11C143009F084CF7C
:103640000E944A670C9473230E94C17681E893E13B
:103650000E943EB10C9473238EEB96E00E948A493F
:1036600060E08EEA96E00E945B7C60E089E996E08B
:103670000E945B7C61E082E996E00E945B7C61E0F5
:1036800087E896E00E945B7C61E087E796E00E9415
:103690005B7C60E08EE696E00E945B7C61E084E605
:1036A00096E00E945B7C61E08AE596E00E945B7C8C
:1036B00060E083E596E00E945B7C61E08BE496E04D
:1036C0000E945B7C61E08DE396E00E945B7C60E0A1
:1036D0008FE296E00E945B7C60E080E296E00E94D0
:1036E0005B7C60E082E196E00E945B7C60E08CEFB6
:1036F00095E00E945B7C61E08BEE95E00E945B7C34
:1037000060E08CED95E00E945B7C60E085ED95E0EB
:103710000E945B7C60E080EC95E00E945B7C60E056
:1037200082EB95E00E945B7C61E08FE995E00E946E
:103730005B7C60E082E995E00E945B7C61E08DE863
:1037400095E00E945B7C60E080E895E00E945B7CF5
:1037500060E08CE695E00E945B7CC5C78091BB036E
:103760009091BC03009759F0FC012081222339F08D
:103770002091C0092111B7C70E94EB40B4C70E9435
:10378000A377B1C70091BB031091BC0394E0F12C67
:1037900040E0915029F1F8018081282F2B7F2134BE
:1037A00021F421812133E1F408C08035C9F4F80106
:1037B000818180538A3048F013C0813421F08534F0
:1037C00021F441E002C0FF24F39498012E5F3F4FA3
:1037D00089012F5F3F4FF80180818032C9F3D9CF33
:1037E00041110E94DB49FF2021F088E695E00E940C
:1037F0008A49C8010E94528E76C70E94EB8873C71F
:1038000081E08093EA038093E9030E9453896BC7A8
:103810001092EA031092E9030E94538964C70E9440
:103820007682182F87FD5FC70091990384E40E9478
:10383000A032882311F40C94A4240E9420326B013E
:103840007C0120E030E0A9010E9419C4882341F1E5
:1038500024E01202F0011124EB56FC4FC082D18209
:10386000E282F38220E030E0A9016091950370913B
:10387000960380919703909198030E9419C4811137
:103880000CC080E090E0A0EEBFE38093950390939E
:103890009603A0939703B093980301E00C94A4249B
:1038A00080E0809399030E9406A71DC70E9476823C
:1038B00087FD19C77EE7E72E72E0F72E0AE61FE0C4
:1038C000EAE7CE2EEFE0DE2EF70181917F010E9424
:1038D0005732882359F00E9420320E9433CAF801DF
:1038E00060837183828393830E9465A60C5F1F4F60
:1038F000C016D10649F7F7C60E94768287FDF3C647
:103900006EE7E62E62E0F62E0AE61FE0F7018191EF
:103910007F010E945732882339F00E942032F8013B
:1039200064A375A386A397A30C5F1F4FFFE00A371C
:103930001F0761F7D8C68091B80387FF02C00C94B7
:10394000AA248091B9038E7011F00C94AA2440919E
:103950009E0F50919F0F6091A00F7091A10F88E56D
:1039600095E00E94A6494091A20F5091A30F60914B
:10397000A40F7091A50F85E595E00E94A64940919E
:10398000A60F5091A70F6091A80F7091A90F82E523
:1039900095E00E94A6498AE00E94FE8CA4C6809110
:1039A000B703827111F00C94F0248091B9038C78E4
:1039B00011F00C94F0248091BA03837011F00C94F0
:1039C000F02491C659E8E52E53E0F52E10E088E585
:1039D000810F0E945732882351F00E942032F70154
:1039E0006083718382839383812F0E9415AC1F5F54
:1039F000F4E0EF0EF11C133051F70C94BA14409020
:103A0000E50F5090E60F6090E70F7090E80F20915F
:103A10000302309104024091050250910602C30155
:103A2000B2010E94C0C86A8F7B8F8C8F9D8F80905F
:103A3000E90F9090EA0FA090EB0FB090EC0F20915F
:103A40000702309108024091090250910A02C50113
:103A5000B4010E94C0C86F8F78A389A39AA3C090B5
:103A6000ED0FD090EE0FE090EF0FF090F00F20915F
:103A70000B0230910C0240910D0250910E02C701D1
:103A8000B6010E94C0C86BA37CA38DA39EA3209106
:103A90000F02309110024091110250911202C301A5
:103AA000B2010E94C0C82B013C0120911302309149
:103AB00014024091150250911602C501B4010E94F2
:103AC000C0C84B015C01209117023091180240914F
:103AD000190250911A02C701B6010E94C0C86B01B9
:103AE0007C010E94DB4980E195E00E948A4983E5E0
:103AF0000E945732882321F00E940C3280930202E8
:103B000080910202882319F086E893E002C08AEBD4
:103B100096E00E948A4988E095E00E948A494A8D91
:103B20005B8D6C8D7D8D85EA9FE10E94A6494F8D4E
:103B300058A169A17AA18DE79AE10E94A6494BA1FB
:103B40005CA16DA17EA187E79AE10E94A6498AEF58
:103B500090E20E948A4980E095E00E948A49B30180
:103B6000A20185EA9FE10E94A649B501A4018DE763
:103B70009AE10E94A649B701A60187E79AE10E944F
:103B8000A6498AE00E94FE8CAEC583E50E94A03261
:103B9000882331F00E941C329093500280934F0290
:103BA0008091B7039091B803A091B903B091BA0383
:103BB000892B8A2B8B2B09F096C560914F0270914F
:103BC00050028CEF94E00E94B74985E20E94FE8C7F
:103BD0008AE00E94FE8C87C50E947682F82E87FDBF
:103BE00082C583E50E94A0320F2D0F2C000C110B13
:103BF000882361F10E941C32F801EE0FFF1FE05094
:103C0000FE4F91838083000F111F000F111F980139
:103C1000235C3D4F7901BC01990F880B990B0E94E1
:103C200020C42AE037ED43E25CE30E947FC4F80140
:103C3000EB57FC4F20813181428153810E947FC428
:103C4000F70160837183828393834DC50E94DB49B2
:103C500085E40E94FE8C80E38F0D0E94FE8C000F95
:103C6000111FF801E050FE4F6081718184EF94E0F4
:103C70000E94B74985E20E94FE8C8AE00E94FE8C79
:103C800032C580E50E945732882309F42CC560E0D4
:103C900070E080E50E94AD32F82E6FEF7FEF83E594
:103CA0000E94AD328C010196039708F01CC5F7FC09
:103CB0001AC58F2D0E94DDBB882339F00E94D74999
:103CC0008DE298E00E948A490EC50E94ACA660E091
:103CD0008F2D0E94A2B30F3FFFEF1F0731F001307D
:103CE000110571F000E010E00DC08F2D0E944AB365
:103CF00031E020E0892B09F030E0032F122F02C0C1
:103D000001E010E08F2D0E944AB38017910709F45B
:103D1000EAC480E00E942F4AF5CF80E50E94573226
:103D2000882309F4E0C40E941C328C01892B09F01D
:103D30007FC083E50E945732882389F00E941C329D
:103D40008F3F2FEF920729F485E693E10E94644F9D
:103D5000CAC4BC0185E693E10E942450C4C40E94F9
:103D6000DB4960E070E08CEE94E00E94B7498091FE
:103D7000671328E532E06901C81AD10887FDD3949A
:103D8000CC0CDD1CCC0CDD1C0D2C000CEE08FF084F
:103D90008091661328E830E04901881A910887FD70
:103DA0009394880C991C880C991C092C000CAA0867
:103DB000BB08809165138F3FC1F090E0FC01EE0FCE
:103DC000FF1F8E0F9F1FFC01E45EFC4E218132819C
:103DD00013E0220F331F1A95E1F704E0369527957B
:103DE0000A95E1F72E5F3F4F02C020E030E02F5FE1
:103DF0003F4FC901330FAA0BBB0B9C01AD01281922
:103E000039094A095B09A4EBB0E00E9461C8A70127
:103E10009601281939094A095B090E9442C8B9016B
:103E20008EE893E20E94B7498AE00E94FE8C5BC450
:103E30000E94D749B8018DEE94E00E94B74981E80D
:103E400098E00E948A494FC464E071E083E50E94D3
:103E5000F3998C0168EE73E080E50E94F39989384C
:103E600033E1930710F088E893E1B8010E94BE4067
:103E70003AC460E085E40E94BC32811173C080E5E1
:103E80000E945732882351F00E9420326093FE1224
:103E90007093FF12809300139093011389E40E94A2
:103EA0005732882381F00E9420322CEA35EC47E219
:103EB0005EE30E947FC460930213709303138093A8
:103EC00004139093051384E40E945732882381F0F1
:103ED0000E9420322CEA35EC47E25EE30E94BAC928
:103EE000609306137093071380930813909309133C
:103EF0000E94DB494091FE125091FF126091001325
:103F00007091011386ED94E00E94A6492CEA35ECED
:103F100047E25EE3609102137091031380910413F2
:103F2000909105130E94BAC9AB01BC0182ED94E0E7
:103F30000E94A6492CEA35EC47E25EE36091061345
:103F40007091071380910813909109130E947FC408
:103F5000AB01BC018EEC94E00E94A6498AE00E946D
:103F6000FE8CC1C30E94D7498AED94E00E948A4921
:103F7000BAC380E50E945732882351F00E94203254
:103F80006093D7127093D8128093D9129093DA125B
:103F900089E40E945732882381F00E9420322CEA63
:103FA00035EC47E25EE30E947FC46093DB127093BE
:103FB000DC128093DD129093DE1284E40E9457326B
:103FC000882381F00E9420322CEA35EC47E25EE340
:103FD0000E94BAC96093DF127093E0128093E112DD
:103FE0009093E2120E94DB494091D7125091D8126F
:103FF0006091D9127091DA1286ED94E00E94A64980
:104000002CEA35EC47E25EE36091DB127091DC1242
:104010008091DD129091DE120E94BAC9AB01BC0101
:1040200082ED94E00E94A6492CEA35EC47E25EE37B
:104030006091DF127091E0128091E1129091E21292
:104040000E947FC4AB01BC018EEC94E00E94A649A3
:104050008AE00E94FE8C47C381E40E945732882385
:1040600079F00E94F831182F88EF810F883730F0EF
:104070000E94DB4985EB94E00E948A491093A915C0
:1040800082E40E945732882371F00E94F831E09157
:104090008815E03240F491E09E0F90938815F0E08F
:1040A000E857FA4E818383E50E945732882309F44A
:1040B0006BC08091A91591E0909384038093F503E0
:1040C00010927915109278154091881550E069E8A2
:1040D00075E18CE795E10E94A28F2091781521323D
:1040E00008F047C0809177158111FCCF8091F503CE
:1040F00092E09093771591E0909376159FEF9093CF
:1041000063031092620320936103A4E6B3E0E1E449
:10411000F3E090E0291721F03D9131939F5FFACFB2
:104120001092400390914003880F892B80934003A5
:1041300080917515813061F410927515809140035E
:104140008093BB008091BC0083FDF8CF85EC01C05B
:1041500085EE8093BC00809177158230E1F38091E9
:1041600063038F3F31F080916303803211F08091BF
:1041700063031092791510927815109284031092AF
:10418000881510928915AFC282E50E9457328823A4
:1041900009F4A9C21092881510928915A4C281E46D
:1041A0000E945732882379F00E94F831182F88EF47
:1041B000810F883730F00E94DB4985EB94E00E9444
:1041C0008A491093A91561E082E40E94BC32182F3D
:1041D0000091A915002309F450C09FEF980F903269
:1041E00008F04BC0809177158111FCCF81E080935E
:1041F0007715809376152FEF209363031092620357
:10420000909361038093400380914003902F990F16
:10421000892B8093400380917515813061F4109251
:104220007515809140038093BB008091BC0083FD95
:10423000F8CF85EC01C085EE8093BC0080917715A6
:104240008130E1F380916203811718F49091620349
:1042500001C0912FE1E4F3E0A0E2B3E080E0891730
:1042600021F021912D938F5FFACF10927B158093CF
:104270007A15882309F437C22AC40E94D74984EAF0
:1042800094E00E948A492FC283E50E945732182F7A
:10429000882371F00E9420320E942CCA709342023F
:1042A0006093410221E0672B09F020E02093F6099A
:1042B00080E50E945732882359F0209141023091C5
:1042C0004202232B11F00E940C328093F6090BC29C
:1042D000111109C20E94DB4980E794E00E948A49DB
:1042E0008091F609882319F08FE59BE102C087E5EC
:1042F00094E00E948A4960914102709142028FE5E8
:1043000094E00E94B7498BE594E00E948A49EBC192
:104310000E94EA41E8C10E94ACA6E5C18091B415B3
:1043200081110C94BA1481E00E9455640C94BA1463
:104330000E9434680E942688D6C10E944B37D3C1A0
:104340006FEF7FEF89E40E94AD32082F6FEF7FEFB0
:104350008AE40E94AD32182F8AE50E94A0328111B2
:1043600008C081E50E94A032B82E882309F4D8C382
:1043700001C0B12CA02E81E0800F843008F04FC026
:10438000912E81E0810F843008F049C00E942032D4
:104390002B013C01F02E07FDF12C07FF02C0A2E02B
:1043A000AA2E812E17FD812C17FF02C0F2E09F2E4E
:1043B000AF1408F498C1E82C8F2D90E06C01CC0C60
:1043C000DD1CC80ED91E9E1440F10E2D10E0BB203E
:1043D00071F0F601E00FF11FEE0FFF1FEE0FFF1F50
:1043E000E450FD4F208131814281538103C020E0A0
:1043F00030E0A9010C0D1D1D000F111F000F111F32
:1044000004501D4FC301B2010E94C0C8F80160836F
:10441000718382839383E394D6CFF394C9CF0E94B0
:10442000D74987E798E00E948A495DC10E940F5FE3
:10443000811159C10CE918E021E532E03B8F2A8F48
:10444000CE0101961C0149E9C42E48E0D42E7C011E
:10445000F8016591759185919491EA8DFB8D81901C
:104460009190A190B190FB8FEA8FA50194010E94D9
:10447000BFC82B013C01F701608371838283938362
:1044800020E030E040EA51EC0E9420CB87FD0AC0DA
:1044900020E030E040EA51E4C301B2010E9419C4B7
:1044A00018162CF4F601849118160CF440C3F70189
:1044B00081909190A190B1907F0120E030E040EA9E
:1044C00051ECC501B4010E9420CB87FD3AC320E026
:1044D00030E040EA51E4C501B4010E9419C4181645
:1044E0000CF041C32EC30E94E55FFDC00E94BC9B3F
:1044F000FAC061E083E50E94C83291E089270E94FA
:104500003D9DF1C02093FB020E9431A01092FB025E
:10451000882309F4E8C00E94DB4980EF93E00E9401
:104520008A49E1C00E947682082F87FDDCC085E5BC
:104530000E9457328823A9F1E02E002E000CFF08BC
:104540000E9420324B015C0120E030E0A9010E9472
:1045500020CB87FF04C0B7FAB094B7F8B094C70176
:1045600023E0880F991F2A95E1F79C012D503D4FBC
:104570007901F90180829182A282B38220E030E049
:1045800046E154E4C501B4010E9420CB18164CF456
:1045900080E090E0A6E1B4E4F70180839183A283F8
:1045A000B3838CE40E945732882309F49CC0002E08
:1045B000000C110B0E9420326B017C0120E030E0E6
:1045C000A9010E9420CB87FF04C0F7FAF094F7F806
:1045D000F09420E030E046E154E4C701B6010E94C7
:1045E00020CB980193E0220F331F9A95E1F7F90150
:1045F000ED50FD4F18162CF0C482D582E682F7826A
:1046000072C080E090E0A6E1B4E484839583A68341
:10461000B78369C08091B90387FDDBC28091BA037B
:10462000837009F0D6C24091B5155091B6156091CE
:10463000B7157091B81581EE93E00E94A64940919C
:10464000B9155091BA156091BB157091BC158DE7E5
:104650009AE10E94A6494091BD155091BE15609106
:10466000BF157091C01587E79AE10E94A6498AE0BC
:104670000E94FE8C38C081E08093EF031092C00945
:1046800060E083E50E94C83281112DC00E94827AC9
:104690002AC00E94B87727C00091F1031091F2035D
:1046A0000E94E1B46093EB037093EC038093ED03FD
:1046B0009093EE030023B9F00E94DB4984E50E9449
:1046C000FE8CB8017727072E000C880B990B0E94EF
:1046D000BB8D80E20E94FE8C8AED94E00E948A49A4
:1046E00002C00E94B877E091F202F0E0E859FA4E79
:1046F0008081882339F081EA93E00E948A498AE028
:104700000E94FE8CFE8DF093F40333C30E94ACA68E
:1047100080E00E94F3350E94E1B46093EB03709354
:10472000EC038093ED039093EE030E944B8681E0AF
:104730008093EA030E9453898AE50E945732F82E3B
:1047400088E50E945732182F89E50E9457321813C6
:1047500044C0F11611F0012F04C001E011E0FF2464
:10476000F39482E50E94A032882319F00E9420323F
:1047700004C060E070E080EA90E469837A838B8310
:104780009C8320E030E0A9010E9419C4882341F0F5
:10479000111102C0002371F0CE0101960E946D5FDD
:1047A000112319F080E00E9409BD002319F081E077
:1047B0000E9409BDFF2031F080E00E94CB3B82E0E7
:1047C0000E9409BD0E9424888091E9038093EA0336
:1047D0000E9432860E94268886CF082FC2CF0E9470
:1047E000226C81CF88E50E94573281115F9889E55C
:1047F0000E94573281118A988AE50E945732882395
:1048000031F080910801817080930601479885E41A
:104810000E945732882309F466CF129864CF60E073
:104820008BE598E00E940A415F988A988091080180
:104830008170809306014798129855CF8DE40E94AD
:10484000A0328823A9F00E94F831813039F020F09D
:10485000823049F462E003C060E001C061E0802F73
:104860000E94A2B305C08CE398E00E948A493BCF26
:1048700083E50E94A032882309F435CF0E94F831E5
:10488000F82E89E0E81203C0F092CB122CCF61E041
:10489000802F0E94A2B36F2D802F0E9473B36F2DC3
:1048A00070E0802F0E94DEB31ECFA3019201C501EC
:1048B000B4010E9420CB181694F083E49BE19F93EF
:1048C0008F938AEC97E09F938F931F920E94CF5F04
:1048D0000F900F900F900F900F900C94F21882E5AC
:1048E0009BE1EDCF0E94ACA688E50E945732882359
:1048F00031F05F9A8091B3158E7F8093B31589E56F
:104900000E945732882331F08A9A8091B3158D7FA7
:104910008093B3158AE50E945732882361F0809115
:1049200008018095817080930601479A8091B315A4
:104930008B7F8093B31585E40E945732882309F456
:10494000D2CE0E94DF49CFCE602F83E50E94C832CD
:104950000C94511C83E50E94A032882391F00E94A0
:10496000203260939E0F70939F0F8093A00F9093BF
:10497000A10F6093A60F7093A70F8093A80F909339
:10498000A90F80E50E94A032882351F00E942032B6
:1049900060939E0F70939F0F8093A00F9093A10F31
:1049A00082E50E94A032882351F00E942032609359
:1049B000A20F7093A30F8093A40F9093A50F84E58B
:1049C0000E94A032882309F48ECE0E942032609388
:1049D000A60F7093A70F8093A80F9093A90F83CE73
:1049E00082E40E945732882351F00E94419A6093DA
:1049F0007A0F70937B0F80937C0F90937D0F83E5EC
:104A00000E945732882351F00E9420326093AA0FEF
:104A10007093AB0F8093AC0F9093AD0F84E50E9421
:104A20005732882351F00E9420326093AE0F70936A
:104A3000AF0F8093B00F9093B10F88E50E9457326B
:104A4000882351F00E9420326093C2097093C309F9
:104A50008093C4099093C50989E50E945732882341
:104A600051F00E9420326093C6097093C709809369
:104A7000C8099093C9098AE50E9457328823B1F08A
:104A80000E9420326093CA097093CB098093CC09AD
:104A90009093CD092DEC3CEC4CEC5DE30E9419C4E5
:104AA000181624F080E295E00E948A4985E40E946D
:104AB0005732882309F417CE0E9420326093CE0922
:104AC0007093CF098093D0099093D1090CCE0E94A6
:104AD000DB498AE994E00E948A49602F70E082E90C
:104AE00094E00E94B749612F70E08AE894E00E9448
:104AF000B74983E894E00E948A49115010F40C945D
:104B00009B1990917A1580917B15981711F40C944C
:104B10009B198CE795E10E94868F0E94FE8CEDCF59
:104B20000E94D74987E394E00E948A49DCCDB7FA16
:104B3000B094B7F8B094F70180829182A282B382D8
:104B4000B6CC0E94D74989E194E00E948A4961E08D
:104B50008BE094E00E940A4168E270E088EC90E00B
:104B60000E94BE40C0CD0C5F1F4FFFEFCF1ADF0A7F
:104B700028EA38E02017310709F06ACC39E8E32E3B
:104B800033E0F32E10E0F10181919191A191B19167
:104B90001F01F70181939193A193B1937F01812F1D
:104BA0000E9415AC1F5F133071F70E94268860E0E9
:104BB0008BEF93E00E940A4163E972E084E690E0A3
:104BC0000E94BE406AEB72E084E690E00E94BE4024
:104BD0008ACD3091B5153A8F8090B6157090B71583
:104BE0006090B8155090B9154090BA153090BB152B
:104BF0002090BC15C090BD15D090BE15E090BF159B
:104C0000F090C01588E50E94A032882361F10E94CF
:104C100020325B018C0120E030E047E553EC0E943C
:104C200020CB87FD0AC020E030E047E553E4B50122
:104C3000C8010E9419C4181694F467ED70E08EEC58
:104C400093E00E94B74967ED70E089EC93E00E9421
:104C5000B74987E191E20E948A4910E005C0AA8E17
:104C60008B2C702E612E11E089E50E94A0328823E2
:104C700081F10E942032962EA72EB82E092F20E017
:104C800030E047E553EC0E9420CB87FD0CC020E0CC
:104C900030E047E553E4692D7A2D8B2D902F0E944B
:104CA00019C4181694F467ED70E086EB93E00E9447
:104CB000B74967ED70E089EC93E00E94B74987E15E
:104CC00091E20E948A4910E004C0592C4A2C3B2CE6
:104CD000202E8AE50E94A032882339F10E942032DA
:104CE0006B017C0120E030E040EA51EC0E9420CBD7
:104CF00087FD0AC020E030E040EA51E4C701B60178
:104D00000E9419C418168CF46CEE7FEF84EA93E0CD
:104D10000E94B74964E170E089EC93E00E94B749D2
:104D200087E191E20E948A49DECC112309F4DBCCB1
:104D30008A8D982DA72DB62D8093B5159093B61515
:104D4000A093B715B093B815852D942DA32DB22D32
:104D50008093B9159093BA15A093BB15B093BC1569
:104D6000C092BD15D092BE15E092BF15F092C0154D
:104D7000BACCA6960FB6F894DEBF0FBECDBFDF91BA
:104D8000CF911F910F91FF90EF90DF90CF90BF9048
:104D9000AF909F908F907F906F905F904F903F90DB
:104DA0002F9008952F923F924F925F926F927F9231
:104DB0008F929F92AF92BF92CF92DF92EF92FF922B
:104DC0000F931F93CF93DF93CDB7DEB762970FB6E4
:104DD000F894DEBF0FBECDBF8FEF9FEF9093890099
:104DE000809388002AE0298B212C312C78948091A3
:104DF0003D0490913E04A0913F04B0914004892B62
:104E00008A2B8B2B79F080913D0490913E04A091E8
:104E10003F04B0914004892B8A2B8B2B11F00C940A
:104E2000B82EC7C180917F128823D1F010927F12D3
:104E300080917D1290917E12892B91F010927E12BA
:104E400010927D121092FE0390916B1380916C135F
:104E5000981731F080916C138F5F8F7080936C1373
:104E600080917D1290917E12892B69F240913904D4
:104E700050913A0460913B0470913C048091350458
:104E800090913604A0913704B091380400912C041D
:104E900010E020E030E0841B950BA60BB70B081741
:104EA00019072A073B0710F4D901C8018A8B840F20
:104EB000951FA61FB71F8093390490933A04A093BF
:104EC0003B04B0933C04E1E0C0900304D0900404A0
:104ED000E0900504F090060480911304909114046E
:104EE000A0911504B0911604C80ED91EEA1EFB1E2F
:104EF000C0921304D0921404E0921504F0921604A8
:104F0000F7FC31C08091F603082E000C990BAA0B18
:104F1000BB0B40918C1250918D1260918E1270914A
:104F20008F12840F951FA61FB71F80938C1290932A
:104F30008D12A0938E12B0938F128091FF039091E7
:104F40000004A0910104B0910204B701A601481B1E
:104F5000590B6A0B7B0B409313045093140460931A
:104F60001504709316040091070410910804209111
:104F7000090430910A048091170490911804A091BB
:104F80001904B0911A04080F191F2A1F3B1F009320
:104F90001704109318042093190430931A0437FD52
:104FA00031C08091F703082E000C990BAA0BBB0BA4
:104FB00040919012509191126091921270919312BF
:104FC000840F951FA61FB71F809390129093911284
:104FD000A0939212B09393128091FF0390910004DA
:104FE000A0910104B091020428013901481A590A1C
:104FF0006A0A7B0A409217045092180460921904BE
:1050000070921A0440910B0450910C0460910D04AD
:1050100070910E0480911B0490911C04A0911D04BA
:10502000B0911E04480F591F6A1F7B1F40931B0439
:1050300050931C0460931D0470931E0477FD31C0CF
:105040008091F803082E000C990BAA0BBB0B8090E3
:10505000941290909512A0909612B0909712880D8D
:10506000991DAA1DBB1D8093941290939512A09335
:105070009612B09397128091FF0390910004A09133
:105080000104B09102043A014B01681A790A8A0AB4
:105090009B0A60921B0470921C0480921D049092E3
:1050A0001E0480900F0490901004A0901104B09002
:1050B000120480911F0490912004A0912104B091CA
:1050C0002204880D991DAA1DBB1D80931F04909377
:1050D0002004A0932104B0932204B7FD31C0809036
:1050E000F903082C000C9908AA08BB0840909812F4
:1050F0005090991260909A1270909B12840C951C9B
:10510000A61CB71C8092981290929912A0929A12A3
:10511000B0929B128090FF0390900004A090010435
:10512000B09002042C013D01481859086A087B0818
:1051300040921F0450922004609221047092220435
:10514000E11104C0E0918400F0918500F7FE889A97
:1051500037FF8E9A77FD07C0E0910B01E095E8706C
:10516000E0930901419AB7FF149AE0918400F0910D
:105170008500E0918400F0918500F7FE889837FF64
:105180008E9877FD06C020910B01287020930901AD
:105190004198B7FF14985A88552021F080918400D7
:1051A000909185002A8921502A8BE0E021118CCE34
:1051B0002ACEE0917D12F0917E12309711F40C947A
:1051C00031308091390490913A04A0913B04B09120
:1051D0003C0440913504509136046091370470913D
:1051E000380484179507A607B707D8F010927E12E7
:1051F00010927D121092FE0390916B1380916C13AC
:10520000981711F40C94313080916C138F5F8F706C
:1052100080936C13A0EDCA2EA7E0DA2EE12CF12CBE
:10522000F9C340913104509132046091330470917C
:105230003404481759076A077B0708F4A8C180900F
:105240002D0490902E04A0902F04B090300485A9D6
:1052500096A9A7A9B0AD88169906AA06BB0608F0BC
:1052600078C181149104A104B10449F48091FA0336
:105270009091FB03A091FC03B091FD0365C1B0E0E8
:10528000A981882D392D2A2DFA81EB817C816D81B0
:105290005E814F81988550917612589F712D6627B7
:1052A00040917712489F700D611D10907812189EE2
:1052B000600D539F700D611D439F600D529F600DE7
:1052C000F72FE62FF79F512D44279927F69F500D72
:1052D000411D9B1FE79F500D411D9B1FE69F400DE9
:1052E000911DF42FE92FF79FA12D44279927F69FB1
:1052F000A00D411D9B1FE79FA00D411D9B1FE69F19
:10530000400D911DF42FE92F55278091FA0330911C
:10531000FB032091FC030090C0110B2A09F484C008
:105320004091BC114F9F51198B0B3B0B2B0B909154
:10533000BD119F9F501981093B0B2B0BA091BE11F2
:10534000AF9F801931092B0B4E9F501981093B0BE0
:105350002B0B9E9F801931092B0BAE9F3019210911
:10536000F79FA12D44279927F69FA00D411D9B1F54
:10537000E79FA00D411D9B1FE69F400D911DF42F3F
:10538000E92F4091B8114F9F510D8B1F3B1F2B1FD1
:105390009091B9119F9F500D811D3B1F2B1FA09114
:1053A000BA11AF9F800D311D2B1F4E9F500D811DD7
:1053B0003B1F2B1F9E9F800D311D2B1FAE9F300D5D
:1053C000211DF79FA12D44279927F69FA00D411D70
:1053D0009B1FE79FA00D411D9B1FE69F400D911D48
:1053E000F42FE92F4091B4114F9F51198B0B3B0BB8
:1053F0002B0B9091B5119F9F501981093B0B2B0BE3
:10540000A091B611AF9F801931092B0B4E9F5019F7
:1054100081093B0B2B0B9E9F801931092B0BAE9FF3
:10542000301921090C94962A4091BC114F9F510DBF
:105430008B1F3B1F2B1F9091BD119F9F500D811DF6
:105440003B1F2B1FA091BE11AF9F800D311D2B1F45
:105450004E9F500D811D3B1F2B1F9E9F800D311DA8
:105460002B1FAE9F300D211DF79FA12D442799279B
:10547000F69FA00D411D9B1FE79FA00D411D9B1F87
:10548000E69F400D911DF42FE92F4091B8114F9FD9
:1054900051198B0B3B0B2B0B9091B9119F9F5019FE
:1054A00081093B0B2B0BA091BA11AF9F80193109D9
:1054B0002B0B4E9F501981093B0B2B0B9E9F801984
:1054C00031092B0BAE9F30192109F79FA12D4427DD
:1054D0009927F69FA00D411D9B1FE79FA00D411D21
:1054E0009B1FE69F400D911DF42FE92F4091B411B1
:1054F0004F9F510D8B1F3B1F2B1F9091B5119F9FED
:10550000500D811D3B1F2B1FA091B611AF9F800D29
:10551000311D2B1F4E9F500D811D3B1F2B1F9E9F2A
:10552000800D311D2B1FAE9F300D211D1124A9832D
:10553000FA83EB837C836D835E834F83988790E04F
:10554000932BA0E0B0E0A22B22EB30E141E04A8BAC
:1055500013C081A992A9A3A9B4A9F6CFB695A7951E
:10556000979587954A89440F4A8B2C5F3F4F50E1AE
:105570002E3C350709F44FC4F901459155916591C9
:105580007491481759076A077B0740F344C4409158
:1055900028045091290460912A0470912B04481723
:1055A00059076A077B0708F0C8C180912704811159
:1055B0001FC0DF01AF5BBF4FED90FD900D911C91BF
:1055C00013971D962D913D914D915C9161A972A902
:1055D00083A994A90E942C9B71E070932704E09109
:1055E0007D12F0917E1281A892A8A3A8B4A884C1CC
:1055F0008091230490912404A0912504B091260465
:1056000041AD52AD63AD74AD84179507A607B707DA
:1056100008F076C10097A105B10549F48090FA031E
:105620009090FB03A090FC03B090FD0365C150E097
:105630006985882E292F8A2FAA85FB85EC857D8593
:105640004E853F85988940917612489DE12D7727B8
:1056500030917712389DE00D711D10907812189CD2
:10566000700D429FE00D711D329F700D489F700DAF
:10567000AE2FF72FAE9F412D33279927A79F400DBF
:10568000311D951FFE9F400D311D951FF79F300D59
:10569000911DA32FF92FAE9F612D33279927A79F27
:1056A000600D311D951FFE9F600D311D951FF79FE9
:1056B000300D911DA32FF92F44278090FA032091DC
:1056C000FB038091FC030090C011052A09F484C0FB
:1056D0003091BC113A9F4119850A250B850B909199
:1056E000BD119A9F40198108250B850B6091BE1151
:1056F0006A9F80182109850B3F9F40198108250B5F
:10570000850B9F9F80182109850B6F9F20198109A8
:10571000AE9F612D33279927A79F600D311D951FDF
:10572000FE9F600D311D951FF79F300D911DA32F1A
:10573000F92F3091B8113A9F410D851E251F851F05
:105740009091B9119A9F400D811C251F851F609172
:10575000BA116A9F800C211D851F3F9F400D811C3F
:10576000251F851F9F9F800C211D851F6F9F200D6A
:10577000811DAE9F612D33279927A79F600D311D95
:10578000951FFE9F600D311D951FF79F300D911DD8
:10579000A32FF92F3091B4113A9F4119850A250B97
:1057A000850B9091B5119A9F40198108250B850BA7
:1057B0006091B6116A9F80182109850B3F9F40199F
:1057C0008108250B850B9F9F80182109850B6F9FF2
:1057D000201981090C946E2C3091BC113A9F410D17
:1057E000851E251F851F9091BD119A9F400D811C1C
:1057F000251F851F6091BE116A9F800C211D851F8A
:105800003F9F400D811C251F851F9F9F800C211DE0
:10581000851F6F9F200D811DAE9F612D3327992716
:10582000A79F600D311D951FFE9F600D311D951FB7
:10583000F79F300D911DA32FF92F3091B8113A9F8A
:105840004119850A250B850B9091B9119A9F401932
:105850008108250B850B6091BA116A9F8018210978
:10586000850B3F9F40198108250B850B9F9F801852
:105870002109850B6F9F20198109AE9F612D332768
:105880009927A79F600D311D951FFE9F600D311D4B
:10589000951FF79F300D911DA32FF92F3091B41153
:1058A0003A9F410D851E251F851F9091B5119A9F26
:1058B000400D811C251F851F6091B6116A9F800CC9
:1058C000211D851F3F9F400D811C251F851F9F9F08
:1058D000800C211D851F6F9F200D811D112469875C
:1058E000AA87FB87EC877D874E873F87988B912C13
:1058F000922AA12CB12CA82A82EB90E121E012C0BF
:10590000E25BFF4F80809180A280B380F5CFB69498
:10591000A79497948794220F049670E18E3C970782
:1059200009F4DCC2FC0145915591659174914815CB
:1059300059056A057B0558F3D1C2809120029091E8
:105940002102A0912202B0912302B7FF5BC0EA5B63
:10595000FF4FC080D180E280F38082EB90E121E0B4
:10596000FC0145915591659174914C155D056E054D
:105970007F0550F4F694E794D794C794220F0496C9
:10598000A0E18E3C9A0761F720932C0490E2C9169F
:10599000D104E104F10408F435C320E2C21AD108AD
:1059A000E108F108C11438E0D306E104F10408F479
:1059B00005C344E0D49EC00111248E54934FFC01D2
:1059C0003296259134917C2D6627739FA001729F9A
:1059D000410D561F0694461F561F112460E070E0CB
:1059E000FC0125913491C901A0E0B0E0841B950B26
:1059F000A60BB70B8093200290932102A093220262
:105A0000B0932302C0902002D0902102E0902202A5
:105A1000F090230280917D1290917E12892B09F0E3
:105A20009FC10E940BAA90937E1280937D12892BB6
:105A300009F496C1E0917D12F0917E12808183FF7E
:105A400044C0858D968DA78DB0A1418D528D638DFB
:105A5000748D058916892789308D00938C121093D7
:105A60008D1220938E1230938F1240939012509388
:105A70009112609392127093931280939412909368
:105A80009512A0939612B093971281A192A1A3A10F
:105A9000B4A18093981290939912A0939A12B09304
:105AA0009B1210927E1210927D121092FE03909122
:105AB0006B1380916C13981709F4B3CF80916C131A
:105AC0008F5F8F7080936C13ACCFC588D688E788C2
:105AD000F08C81E0C114D104E104F10409F480E008
