:100000000C94EB110C941C120C941C120C941C12EA
:100010000C941C120C941C120C941C120C941C12A8
:100020000C941C120C941C120C941C120C941C1298
:100030000C941C120C94A6840C941C120C941C128C
:100040000C941C120C9410A20C941C120C941C12F4
:100050000C941C120C941C120C94607B0C94EEA853
:100060000C941C120C9452320C9448320C941C12B6
:100070000C941C120C941C120C941C120C941C1248
:100080000C946D2A0C941C120C941C120C941C12CF
:100090000C941C120C941C120C941C120C941C1228
:1000A0000C941C120C941C120C943F2A0C941C12DD
:1000B0000C941C120C941C120C941C120C941C1208
:1000C0000C941C120C941C120C941C120C941C12F8
:1000D0000C941C120C941C120C941C2C0C94E72BEA
:1000E0000C941C1203590E592E59395948597059FC
:1000F000C45CB059C45CC45CC45CC45CFC59C45CE2
:10010000C45CC45C035A4C5A765AAC5AB75AE85A83
:10011000ED5A4E5C775CA05CC45CC45CB15CC45CB2
:10012000C45CC45CC45CBC5CEBA6EEA6DDA6E1A628
:10013000E7A625A7F2A6F6A6FCA600A704A70AA78D
:100140000EA712A725A718A71CA720A708A80DA8C7
:1001500012A81CA826A89FA830A838A840A84AA87A
:1001600054A85EA86DA877A89FA881A88BA895A879
:10017000084AD73B3BCE016E84BCBFFDC12F3D6C0E
:1001800074319ABD56833DDA3D00C77F11BED9E474
:10019000BB4C3E916BAAAABE000000803F05A84C54
:1001A000CDB2D44EB93836A9020C50B99186880820
:1001B0003CA6AAAA2ABE000000803F000C942EB3E1
:1001C0000C94AC5A0C940DA80C940EA70C94EBA6AE
:1001D0000C9440A80C94C45C0C94A05C0C9425A7CF
:1001E0000C9470590C94E1A60C9412A80C9400A7DE
:1001F0000C948BA80C94765A0C940E590C945EA80F
:100200000C941CA70C9495A80C94F2A60C9412A71D
:100210000C9420A70C94B0590C9403590C9404A787
:100220000C94FC590C94E85A0C944E5C0C94DDA68A
:100230000C94035A0C941CA80C94E7A60C946DA87B
:100240000C9426A80C949FA80C940AA70C943959D6
:100250000C94BC5C0C942E590C94B75A0C944AA87C
:100260000C94B15C0C9418A70C9454A80C9481A81D
:100270000C94ED5A0C9448590C9438A80C9430A85E
:100280000C9477A80C94EEA60C94FCA60C94775CC6
:100290000C94F6A60C9408A80C944C5A4E414E4966
:1002A0004E495459494E46CDCCCC3D0AD7233C1734
:1002B000B7D13877CC2B329595E6241FB14F0A0081
:1002C0000020410000C84200401C4620BCBE4CCA71
:1002D0001B0E5AAEC59D74434F4D4D554E4943417B
:1002E00054494F4E0044525952554E004552524FB8
:1002F000525300494E464F004543484F006F6B0034
:100300003F5A206F7574206F662072616E6765209A
:1003100028003F59206F7574206F662072616E67E8
:100320006520282D0020746F20003F58206F7574C1
:10033000206F662072616E676520282D0050726FF5
:100340006265204F666673657420580045455052BB
:100350004F4D204F4B0A00486F6D65766572736193
:10036000747A20616B746976004572723A20546F1A
:100370006F206661722100546F6F20666172206683
:10038000726F6D207265666572656E636520706F51
:10039000696E740A004D34323120696E636F727277
:1003A00065637420706172616D6574657220757328
:1003B0006167650A006469730043290A0061626C21
:1003C000656420286D696E2074656D702000436F30
:1003D0006C64206578747275646573206172652041
:1003E0000020643A0020693A0020703A00496E7695
:1003F000616C69642065787472756465720A0020A6
:10040000536572766F200020466C6F773A20004665
:10041000523A0020204D61783A200020204D696E2C
:100420003A2000536F667420656E6473746F707346
:100430003A20003F4A206F7574206F662072616E0B
:1004400067652028302E303120746F20302E3329FC
:100450000A00205400205200416363656C6572619C
:1004600074696F6E3A2050002F2F20004348414D91
:100470004245525F54454D504552415455524500F6
:10048000424142595354455050494E47004152430E
:1004900053004D4F54494F4E5F4D4F444553005408
:1004A0004845524D414C5F50524F54454354494F7B
:1004B0004E004C4F4E475F46494C454E414D45001E
:1004C0004155544F5245504F52545F53445F53541B
:1004D00041545553005344434152440050524F4DF0
:1004E00050545F535550504F525400454D4552475C
:1004F000454E43595F504152534552004341534585
:100500005F4C494748545F4252494748544E45530F
:100510005300544F47474C455F4C4947485453009C
:10052000534F4654574152455F504F574552004232
:1005300055494C445F50455243454E54004C455636
:10054000454C494E475F44415441005A5F50524F19
:1005500042450052554E4F5554004155544F4C455D
:1005600056454C005052494E545F4A4F420050523B
:100570004F4752455353004155544F5245504F52E7
:10058000545F54454D5000564F4C554D45545249BB
:100590004300454550524F4D0042494E4152595F2C
:1005A00046494C455F5452414E53464552005345CF
:1005B0005249414C5F584F4E5F584F46460046499E
:1005C000524D574152455F4E414D453A4D61726C17
:1005D000696E20322E302E372D66697865642028AA
:1005E0004F637420203620323032302032323A309D
:1005F000373A32382920534F555243455F434F44D1
:10060000455F55524C3A68747470733A2F2F67697E
:10061000746875622E636F6D2F4D61726C696E46E2
:1006200069726D776172652F4D61726C696E2050D1
:10063000524F544F434F4C5F56455253494F4E3AD9
:10064000312E30204D414348494E455F5459504565
:100650003A416E796375626963206933204D65673D
:100660006120532045585452554445525F434F55DD
:100670004E543A3120555549443A636564653261B8
:1006800032662D343161322D343734382D396231B0
:10069000322D6335356336326633363766660A0087
:1006A000416E796375626963206933204D656761C6
:1006B0002053204F46462E0042657474206BC3BC05
:1006C000686C742E2E2E0042657474206865697AF9
:1006D000742E2E2E004D3131332053004D313132E6
:1006E0002053687574646F776E006F6666004445CA
:1006F0004255473A0020573A0045202553000A53F7
:10070000746174733A2046696C616D656E7420750E
:100710007365643A20002C204C6F6E6765737420FB
:100720006A6F623A2000546F74616C2074696D6561
:100730003A20002C204661696C65643A20002C2028
:1007400046696E69736865643A20005072696E7418
:10075000733A200053746174733A200050726F74BE
:1007600065637465642050696E0A00496E76616C39
:1007700069642050696E204D6F64650A005072698B
:100780006E742074696D653A20004D6F746F7265E8
:100790006E20616E6765736368616C746574004B8D
:1007A0006C69636B207A756D20466F727473657423
:1007B0007A656E004D65736820706F696E74206F86
:1007C0007574206F662072616E67650A00576172EA
:1007D00074656E2E2E2E00FFFFFF000000C000008B
:1007E000000000000000F802F302EC02E502D7026C
:1007F0004572726F722077726974696E6720746FC8
:1008000020454550524F4D210A002121204B494C93
:100810004C2063617573656420627920746F6F206A
:100820006D75636820696E616374697665207469AB
:100830006D65202D2063757272656E7420636F6D17
:100840006D616E643A20004D343130004D313132EB
:10085000004D313038004E6F20436865636B73750F
:100860006D2077697468206C696E65206E756D62A5
:1008700065722C204C617374204C696E653A2000BF
:10088000636865636B73756D206D69736D61746307
:10089000682C204C617374204C696E653A20004CC2
:1008A000696E65204E756D626572206973206E6F8A
:1008B00074204C617374204C696E65204E756D62B6
:1008C00065722B312C204C617374204C696E653A33
:1008D00020004D31313000627573793A20706175B6
:1008E00073656420666F7220696E7075740A0062A9
:1008F0007573793A2070617573656420666F722034
:10090000757365720A00627573793A2070726F634D
:10091000657373696E670A004A3131005072696EFF
:100920007465722068616C7465642E206B696C6CF0
:1009300028292063616C6C6564210A003637260320
:10094000023C3D382A2E303E1224221E021A1C1868
:100950000A2C430809072C070844000124F4D4306A
:1009600050C38E20C2A24017828B7011127A910D53
:10097000816CD90AA861E108C7586607615143062E
:100980001E4B5D05C145A7041A411104093D98039A
:10099000713931034036DB0265339102D4305402A1
:1009A000802E1D02632CEE01752AC501B028A0011E
:1009B000102781018F2564012B244B01E022340193
:1009C000AC211F018D200D01801FFC00841EED0055
:1009D000971DDF00B81CD200E61BC600201BBC0020
:1009E000641AB200B219A8000A19A0006A18990086
:1009F000D117910040178B00B516840031167E0088
:100A0000B31579003A157300C7146F0058146A00C3
:100A1000EE1366008813630025135E00C7125B00A7
:100A20006C12570015125400C111510070114F0083
:100A300021114B00D61049008D104700461044008C
:100A400002104200C00F4000800F3E00420F3C00E9
:100A5000060F3B00CB0E3800930E37005C0E3500BE
:100A6000270E3400F30D3200C10D3100900D30001F
:100A7000600D2E00320D2D00050D2C00D90C2B0021
:100A8000AE0C2900850C29005C0C2700350C2700D2
:100A90000E0C2600E80B2400C40B2400A00B23003E
:100AA0007D0B23005A0B2100390B2100180B20006D
:100AB000F80A1F00D90A1E00BB0A1E009D0A1D006D
:100AC000800A1D00630A1C00470A1B002C0A1B0039
:100AD000110A1A00F7091A00DD091900C4091900E2
:100AE000AB091900920917007B0918006309170068
:100AF0004C09160036091600200916000A091500CF
:100B0000F5081500E0081400CC081400B80814001B
:100B1000A4081400900813007D0812006B0813004D
:100B2000580812004608120034081100230811006A
:100B30001208110001081100F0071000E007100072
:100B4000D0071000C0071000B0070F00A107100069
:100B500091070E0083070F0074070F0065070E0052
:100B600057070E0049070E003B070D002E070E0029
:100B700020070D0013070D0006070D00F9060C00F5
:100B8000ED060D00E0060C00D4060C00C8060C00B3
:100B9000BC060C00B0060C00A4060B0099060C0065
:100BA0008D060B0082060B0077060B006C060B000F
:100BB00061060A0057060B004C060A0042060A00AE
:100BC00038060A002E060A0024060A001A060A0041
:100BD0001006090007060A00FD050900F4050900D2
:100BE000EB050900E2050900D9050900D005090057
:100BF000C7050900BE050900B5050800AD050800D8
:100C0000A50509009C050800940508008C0508004E
:100C1000840508007C050800740508006C050700C1
:100C2000650508005D050700560508004E0507002C
:100C30004705070040050800380507003105070093
:100C40002A050700230507001C05060016050700F6
:100C50000F0507000805060002050700FB04060053
:100C6000F5040700EE040600E8040600E2040700AD
:100C7000DB040600D5040600CF040600C904060004
:100C8000C3040600BD040600B7040600B104050055
:100C9000AC040600A6040600A00405009B040600A0
:100CA00095040500900406008A04050085040500EB
:100CB000800406007A040500750405007004050030
:100CC0006B04050066040500610405005C04050072
:100CD00057040500520405004D04050048040500B2
:100CE000430405003E0404003A04050035040500F1
:100CF000300404002C04050027040400230405002C
:100D00001E0404001A040400160405001104040063
:100D10000D04040009040500040404000004040098
:100D2000FC030400F8030400F4030400F0030400CF
:100D3000EC030400E8030400E4030400E0030400FF
:100D4000DC030400D8030400D4030400D00304002F
:100D5000CC030400C8030300C503030024F404D932
:100D6000201BC40C5C0E9804C4095F026507710166
:100D7000F405F900FB04B30048048700C1036900CF
:100D80005803550003034500BE023A0084023100B7
:100D900053022A002902250004022000E4011C005D
:100DA000C8011900AF011700980114008401130055
:100DB000710110006101100051010E0043010D008E
:100DC00036010B002B010B0020010B00150109005F
:100DD0000C01090003010800FB000800F3000800F3
:100DE000EB000700E4000600DE000600D800060065
:100DF000D2000600CC000500C7000500C2000500B7
:100E0000BD000400B9000400B5000400B1000400F6
:100E1000AD000400A9000400A5000300A200030027
:100E20009F0004009B00030098000300950002004F
:100E300093000300900003008D0002008B0003006C
:100E40008800020086000200840003008100020086
:100E50007F0002007D0002007B000200790002009A
:100E600077000100760002007400020072000100A9
:100E7000710002006F0002006D0001006C000200B2
:100E80006A000100690002006700010066000100BD
:100E900065000100640002006200010061000100C1
:100EA000600001005F0002005D0001005C000100C5
:100EB0005B0001005A0001005900010058000100C8
:100EC00057000100560001005500010054000100C8
:100ED00053000000530001005200010051000100C6
:100EE000500001004F0001004E0000004E000100C4
:100EF0004D0001004C0001004B0000004B000100C0
:100F00004A000100490001004800000048000100BB
:100F100047000100460000004600010045000000B7
:100F200045000100440001004300000043000100AF
:100F300042000000420001004100000041000100A9
:100F4000400001003F0000003F0001003E000000A3
:100F50003E0001003D0000003D0001003C0000009B
:100F60003C0000003C0001003B0000003B00010091
:100F70003A0000003A000100390000003900010089
:100F80003800000038000000380001003700000081
:100F90003700010036000000360000003600010076
:100FA000350000003500000035000100340000006D
:100FB0003400000034000100330000003300000062
:100FC0003300010032000000320000003200010056
:100FD000310000003100000031000100300000004D
:100FE00030000000300001002F0000002F00000042
:100FF0002F0000002F0001002E0000002E00000036
:101000002E0001002D0000002D0000002D0000002A
:101010002D0001002C0000002C0000002C0000001E
:101020002C0001002B0000002B0000002B00000012
:101030002B0001002A0000002A0000002A00000006
:101040002A000100290000002900000029000000FA
:1010500029000000290001002800000028000000ED
:1010600028000000280000002800010027000000E0
:1010700027000000270000002700000027000100D3
:1010800026000000260000002600000026000000C8
:1010900026000100250000002500000025000000BA
:1010A00025000000250000002500010024000000AC
:1010B000240000002400000024000000240001009F
:1010C0002300000023000000230000002300000094
:1010D0002300000023000000230001002200000084
:1010E0002200000022000000220000002200000078
:1010F000220001002100000021000000210000006A
:10110000210000002100000021000000210001005A
:10111000200000002000000020000000200000004F
:10112000200000002000000020000000200001003E
:101130001F0000001F0000001F0000001F00000033
:101140001F0000001F0000001F0001001E00000023
:101150001E0000001E0000001E00000039300000CC
:101160003325000087190000B00F0000DB080000E5
:10117000BD040000740200003F01000020746F6F86
:10118000206C6F6E6720657874727573696F6E205E
:1011900070726576656E7465640A0020636F6C64B6
:1011A00020657874727573696F6E207072657665EC
:1011B0006E7465640A00DB0FC93F45BCDA3F8FB32C
:1011C0000240FCF0274056946140FE4B9B4084A5B2
:1011D000D840E0231841346A5641E859974164DB0E
:1011E000D5416E271742B4B75542CE1A9742C8AEC2
:1011F000D542B5885A43D40684BFA65FA7BF7443BF
:10120000E0BF10B11AC01C2C58C0E8F697C0B8490E
:10121000D6C04E4E17C124D355C1802497C1A0B566
:10122000D5C1121A17C244AE55C2781797C26CAC1A
:10123000D5C267885AC36563686F3A004572726F9A
:10124000723A0042696C696E656172204C65766520
:101250006C696E6720477269643A0A00414E4745DF
:1012600048414C54454E005072696E74657220734B
:10127000746F707065642064756520746F2065728A
:10128000726F72732E2046697820746865206572CB
:10129000726F7220616E6420757365204D39393923
:1012A00020746F20726573746172742E20285465E7
:1012B0006D706572617475726520697320726573F3
:1012C00065742E205365742069742061667465729C
:1012D0002072657374617274696E67290A00212136
:1012E0002053544F502063616C6C656420626563C9
:1012F00061757365206F6620424C546F756368207A
:101300006572726F72202D20726573746172742021
:1013100077697468204D3939390A004F46460A000A
:1013200046616465204865696768742000426564A9
:10133000204C6576656C696E6720004661696C6556
:101340006420746F20656E61626C65204265642064
:101350004C6576656C696E670A00496E76616C69EA
:1013600064206D6573682E0A00447275636B20708B
:10137000617573696572742E2E2E004A3132002019
:101380005A3A200020593A2000566F726865722040
:1013900025732573257320686F6D656E00220A0022
:1013A000556E6B6E6F776E20636F6D6D616E643A14
:1013B000202200416E796375626963206933204D94
:1013C00065676120532062657265697400447275B7
:1013D000636B742E2E2E0020453A00205A3A0020CE
:1013E000593A00322E302E372D6669786564004AEE
:1013F000333320004F4B004739310A25730A4739F0
:1014000030004731204525694635303000473120CE
:10141000452D302E314625690047312045302E318B
:10142000462569004731205A25694625690047311C
:10143000205A2D302E31462569004731205A302E52
:1014400031462569004731205925694625690047FD
:101450003120592D302E3146256900473120593031
:101460002E314625690047312058256946256900F7
:10147000473120582D302E314625690047312058FC
:10148000302E314625690047323800473238205A1D
:101490000047323820590047323820580041323056
:1014A0005620004731205A3130005072696E746501
:1014B000722068616C7465642E206B696C6C2829DD
:1014C0002063616C6C65642100203939393A3939FF
:1014D0003900204D0020482000413756200041357A
:1014E0005620583A200041345620004133562000FF
:1014F0004132562000413156200041305620004AEA
:101500003134004D38340A4D3237002569792025B1
:101510006964202569682025696D20256973002389
:10152000646566696E652044454641554C545F00CC
:101530004B6420004B6920004B7020005049442030
:101540004175746F74756E652066696E6973686540
:1015500064212050757420746865206C6173742058
:101560004B702C204B6920616E64204B6420636FAC
:101570006E7374616E74732066726F6D2062656C39
:101580006F7720696E746F20436F6E66696775723E
:101590006174696F6E2E680A005049442041757469
:1015A0006F74756E65206661696C6564212074696D
:1015B0006D656F75740A000A20436C61737369630B
:1015C00020504944200A00204B643A2000204B69F7
:1015D0003A2000204B703A20000A204E6F206F7690
:1015E000657273686F6F740A002054753A2000208A
:1015F0004B753A2000206D61783A2000206D696EAD
:101600003A200020643A200020626961733A200089
:10161000504944204175746F74756E652073746110
:1016200072740A00504944204175746F74756E6578
:10163000206661696C6564212054656D7065726116
:101640007475726520746F6F20686967680A00504E
:101650004944204175746F74756E6500504944208B
:101660004175746F74756E65206661696C6564217F
:1016700020426164206578747275646572206E75AD
:101680006D6265720A00FFFDFCFAF8F6F4F2F0EE06
:10169000ECEAE9E7E5E3E1E0DEDCDAD9D7D5D4D25C
:1016A000D0CFCDCBCAC8C7C5C3C2C0BFBDBCBAB9F5
:1016B000B7B6B4B3B2B0AFADACAAA9A8A6A5A4A260
:1016C000A1A09E9D9C9A99989795949392908F8EA5
:1016D0008D8B8A8988878684838281807F7E7D7BCB
:1016E0007A797877767574737271706F6E6D6C6BD2
:1016F0006A696867666564636261605F5E5D5C5BC2
:101700005A5958585756555453525150504F4E4DA0
:101710004C4B4A4A49484746464544434242414069
:101720003F3E3E3D3C3B3B3A393838373635353421
:101730003332323130302F2E2E2D2C2B2B2A2929CB
:1017400028272726252524232322212120201F1E68
:101750001E1D1C1C1B1B1A191918181716161515F7
:1017600014131312121111100F0F0E0E0D0D0C0C7D
:101770000B0A0A09090808070706060505040403F9
:1017800003020201000000005C4300005C43000013
:10179000524345696E7374656C6C2E206765737077
:1017A00065692E0053657474696E67732053746F96
:1017B0007265642028004D65737370756E6B7400DC
:1017C00025532025692F25690050726F62696E6765
:1017D000206D65736820706F696E74200020284446
:1017E000525952554E2900473239204175746F20A5
:1017F000426564204C6576656C696E67003F202801
:101800004C2C522C462C4229206F7574206F662078
:10181000626F756E64732E0A003F285629657262E6
:101820006F7365206C6576656C20696D706C617591
:101830007369626C652028302D34292E0A004261BC
:1018400064205A2076616C75650A004E6F206269CB
:101850006C696E65617220677269640A0046696E20
:101860006973686564210A003A207A3A2000206F83
:10187000662000476F696E6720746F3A20580043F6
:10188000570A00206469723A0020616E676C653AFD
:10189000005374617274207261646975733A005008
:1018A0006F736974696F6E696E6720746865207004
:1018B000726F62652E2E2E0A003F4C656773206F93
:1018C00066206D6F76656D656E7420696D706C61F4
:1018D000757369626C652028302D3135292E0A0018
:1018E0003F2028582C5929206F7574206F6620627C
:1018F0006F756E64732E0A005A75207765697420BF
:1019000064726175C39F656E003F53616D706C6555
:101910002073697A65206E6F7420706C61757369CD
:10192000626C652028342D3530292E0A004D34385C
:10193000205A2D50726F6265205265706561746126
:1019400062696C69747920546573740A0020436F6E
:10195000756E7420583A0042657474004531006217
:101960006564002C2073797374656D2073746F70D7
:1019700070656421204865617465725F49443A204E
:10198000004845495A454E204552464F4C474C4F1A
:10199000530048656174696E67206661696C6564AF
:1019A00000202D20496E76616C6964206578747220
:1019B00075646572206E756D62657220210A002063
:1019C00008204E4943485420455252454943485403
:1019D00000546865726D616C2052756E6177617933
:1019E00000200820C39C4245525343485249545456
:1019F000454E004D415854454D50207472696767FB
:101A00006572656400200820554E54455253434882
:101A100052495454454E004D494E54454D50207442
:101A20007269676765726564000070012C0190013E
:101A30002701B0012201C0011D01F00118011002AF
:101A4000130130020E016002090190020401C0027C
:101A5000FF000003FA004003F5008003F000D0030C
:101A6000EB002004E6007004E100E004DC00400527
:101A7000D700C005D2004006CD00D006C8008007C0
:101A8000C3003008BE00F008B900C009B400B00AB5
:101A9000AF00B00BAA00D00CA500000EA000500FA4
:101AA0009B00C01096005012910000148C00C015CD
:101AB0008700B0178200B0197D00D01B7800001E8F
:101AC000730040206E0090226900F02464004027DB
:101AD0005F0090295A00E02B5500102E5000203056
:101AE0004B0010324600E033410090353C00103787
:101AF000370070383200A0392D00B03A2800A03BE2
:101B00002300603C1E00103D1900903D1400103E63
:101B10000F00703E0A00C03E0500003F0000403F3D
:101B2000FBFF803FF6FFC03FF1FF202F0020424027
:101B30003A0020403A004A3137002020506C616E54
:101B40006E657242756666657242797465733A2095
:101B5000002046726565204D656D6F72793A2000F0
:101B6000436F6D70696C65643A204F637420203652
:101B700020323032300A00204C617374205570647A
:101B8000617465643A20323032302D30392D32396B
:101B9000207C20417574686F723A20286830736326
:101BA0006831383020686F7363686940616E756BA7
:101BB00069732E6465290A00322E302E372D66692E
:101BC0007865640A004D61726C696E0020536F661F
:101BD00074776172652052657365740A00205761DD
:101BE000746368646F672052657365740A002042ED
:101BF000726F776E206F75742052657365740A007A
:101C00002045787465726E616C2052657365740A44
:101C100000506F77657255700A0020503A00656E6B
:101C20006473746F7073206869743A200002100046
:101C3000C90210012C014001220170011801B001FC
:101C40000E01F00104015002FA00B002F00030036E
:101C5000E600D003DC009004D2007005C800A006A6
:101C6000BE000008B400B009AA00D00BA000600EAE
:101C7000960060118C000015820020197800C01DAC
:101C80006E00A0226400B0275A00902C5000003152
:101C90004600E0343C0010383200903A2800603CA6
:101CA0001E00A03D1400803E0A00203F0000537437
:101CB000616E6461726420446576696174696F6EF7
:101CC0003A20002052616E67653A20002053696710
:101CD0006D613A20004D65616E3A2000204D393229
:101CE00020580020496E76616C69642065787472B2
:101CF0007564657220004361703A0047322F4733A4
:101D00002062616420706172616D65746572730A2E
:101D100000526573656E643A20006F70656E005402
:101D20005249474745524544007A5F70726F626579
:101D3000007A325F6D696E007A5F6D696E00795F5F
:101D40006D696E00785F6D696E005265706F7274B8
:101D5000696E6720656E6473746F7020737461744C
:101D600075730A002062797465733B206372632087
:101D7000004E6F20454550524F4D2E0A00454550AC
:101D8000524F4D206461746173697A652065727287
:101D90006F722E0A002073746F726564207365740D
:101DA00074696E6773207265747269657665642004
:101DB0002800202863616C63756C61746564292157
:101DC0000A0020213D2000454550524F4D204352EE
:101DD00043206D69736D61746368202D20287374CE
:101DE0006F7265642920002053697A653A200049A2
:101DF0006E6465783A2000204D61726C696E3D56C4
:101E00003831290A00454550524F4D20766572738E
:101E1000696F6E206D69736D617463682028454534
:101E200050524F4D3D00486F6D696E672067657376
:101E30006368656974657274005761726E696E6774
:101E40003A20486F6D696E672042756D7020446955
:101E50007669736F72203C20310A0020456E6473EE
:101E6000746F703F0A004261642000000048420025
:101E7000004842000080400202040000A040000030
:101E8000A0400000004000005E4300005C430000F2
:101E90005243000000010000000100008000555581
:101EA00055000000400033333300AAAA2A004992AB
:101EB000240000002000C7711C0099991900D14529
:101EC0001700555515003BB113002449120011119C
:101ED0001100000010000F0F0F00E3380E004379CF
:101EE0000D00CCCC0C00C3300C00E8A20B00642128
:101EF0000B00AAAA0A00703D0A009DD80900427B87
:101F0000090092240900DCD30800888808001042E8
:101F1000080000000800F0C107008787070075501F
:101F20000700711C07003EEB0600A1BC060069908B
:101F3000060066660600703E06006118060017F48B
:101F4000050074D105005BB00500B2900500627217
:101F500005005555050078390500B81E0500050532
:101F600005004EEC040087D40400A1BD040090A736
:101F7000040049920400C17D0400EE690400C756C4
:101F80000400444404005C320400082104004110B1
:101F90000400000004003FF00300F8E0030026D234
:101FA0000300C3C30300CCB503003AA803000A9B97
:101FB0000300388E0300C08103009F750300D069C1
:101FC0000300505E03001D53030034480300913D9D
:101FD00003003333030016290300381F030097154D
:101FE0000300300C0300030303000BFA020049F165
:101FF0000200BAE802005CE002002DD802002DD0F9
:10200000020059C80200B0C0020031B90200DAB1C2
:102010000200AAAA0200A0A30200BC9C0200FA953A
:1020200002005C8F0200DF88020082820200457C91
:1020300002002776020027700200436A02007C64D7
:102040000200D05E02003F590200C853020045451D
:1020500050524F4D20496E697469616C697A6564AC
:102060000A0048617264636F646564204465666158
:10207000756C742053657474696E6773204C6F615E
:102080006465640A003B200020204D38353120581B
:10209000005A2D50726F6265204F6666736574003A
:1020A00020204D33303420500020204D333031205B
:1020B00050005049442073657474696E67733A0028
:1020C0002020473239205720490020204D3432301B
:1020D0002053004175746F20426564204C6576651D
:1020E0006C696E673A0020204D3230362058004827
:1020F0006F6D65206F66667365743A00204A002034
:10210000204D323035204200416476616E63656453
:102110003A20423C6D696E5F7365676D656E745FF2
:1021200074696D655F75733E20533C6D696E5F66C3
:10213000656564726174653E20543C6D696E5F74C0
:10214000726176656C5F66656564726174653E2078
:102150004A3C6A756E635F6465763E0020204D32AE
:102160003034205000416363656C65726174696F3F
:102170006E2028756E6974732F7332293A20503C93
:102180007072696E745F616363656C3E20523C726D
:102190006574726163745F616363656C3E20543C77
:1021A00074726176656C5F616363656C3E002020CC
:1021B0004D3230312058004D6178696D756D204188
:1021C0006363656C65726174696F6E2028756E69F2
:1021D00074732F7332293A0020450020204D32308D
:1021E000332058004D6178696D756D2066656564B2
:1021F00072617465732028756E6974732F73293A40
:102200000053746570732070657220756E69743A3E
:102210000020440020204D323030205300204469FB
:102220007361626C65640A0046696C616D656E7409
:102230002073657474696E67733A0020286D6D2988
:10224000002020473231202020203B20556E697429
:102250007320696E206D6D000000FA430000FA43A0
:10226000000000410000F0410000A0420000A04238
:102270000000C84314EEC443D0070000D00700009C
:102280003C0000008813000000002100240027000B
:102290002A002D0030003300010100000401070175
:1022A0000A0100002200250028002B002E0031002A
:1022B000340002010000050108010B0100002000AC
:1022C0002300260029002C002F003200000100000E
:1022D00003010601090105050505070508080808A9
:1022E000020202020A0A08080404040401010101AE
:1022F00001010101030303030303030304070707A9
:102300000C0C0C0C0C0C0C0C02020202060606064D
:10231000060606060B0B0B0B0B0B0B0B010210201A
:10232000200808102040102040800201020108040B
:10233000020101020408102040808040201008049F
:1023400002018004020180402010080402010804F8
:10235000020101020408102040800102040810203C
:10236000408000000A0B02090C0D0E08070304014F
:10237000000000000000000000000000000000005D
:10238000000000000000000000000000000012112A
:10239000100000000000000000000000000000002D
:1023A000000000000000000042656420583A200050
:1023B00050726F62696E67204661696C65640A00DD
:1023C00050726F62696E67206765736368656974D0
:1023D000657274002EB311241FBECFEFD1E2DEBFB1
:1023E000CDBF00E00CBF12E0A0E0B2E0E4EBF1E80A
:1023F00001E00BBF02C007900D92A83DB107D9F7CD
:1024000021E1A8EDB2E001C01D92A737B207E1F7C4
:1024100011E1CBEED1E100E006C021970109802F48
:10242000FE010E9471BDCA3ED10780E00807A9F7EE
:102430000E94C7AC0C94D8C00C9400002F923F921D
:102440004F925F926F927F928F929F92AF92BF92C4
:10245000CF92DF92EF92FF920F931F93CF93DF9370
:10246000CDB7DEB7E8970FB6F894DEBF0FBECDBF8D
:10247000209172032EAB81E08093720380917103EF
:102480008D3409F4EFC2843511F40C94882287341A
:1024900011F00C94AD2220916F03309170032C3118
:1024A000310509F489C094F42430310534F4223024
:1024B0003105B4F537FF28C0D1C224303105F1F120
:1024C0002531310511F40C94AF22C8C22A323105EE
:1024D00009F49DC14CF42D31310509F47DC02E3134
:1024E000310509F497C0BAC22B35310509F40CC186
:1024F0002C35310509F40DC12A35310509F0AEC27C
:1025000010926E030C94AF2280916D03813011F014
:102510000C94AF220E94FE870E94C58F0C94AF22BC
:1025200080916D03813011F00C94AF22223031057F
:1025300009F080E00E94DB880C94AF2280E50E94C5
:10254000F54E882329F00E94628E6B017C0103C046
:10255000C12CD12C760183E50E94F54E882361F0D1
:102560000E94754E20E030E04AE754E40E9439B9F9
:102570000E94FFBE6B017C010E946E9C8091311114
:10258000811105C060E08DEC97E00E94D5620E9449
:10259000E2A8C60ED71EE81EF91E0E94E2A8DC01C2
:1025A000CB018C199D09AE09BF09B7FD02C00C947F
:1025B000AF220E94722DF1CF8091F80A8770873088
:1025C00011F00C94C22260E08FE40E941D4F811133
:1025D0000C94AF220C94C2220E94E2A8609369037B
:1025E00070936A0380936B0390936C030E94685E00
:1025F00081110C94AF228091050B882311F40C9467
:102600002B2360E08FE40E941D4F81110C94AF22B8
:102610000C942B23209125113091261140912711E4
:102620005091281160915602709157028091580282
:10263000909159020E948CBDAB01BC0188E50E94BB
:10264000A26369837A838B839C83209129113091C3
:102650002A1140912B1150912C1160915A027091C6
:102660005B0280915C0290915D020E948CBDAB0187
:10267000BC0189E50E94A2636D837E838F83988766
:10268000BE016B5F7F4FCE0101960E948D4C882367
:1026900011F40C94AF2280E00E944B510E949C9256
:1026A00061E085E40E941D4F21E0482FBE016B5F71
:1026B0007F4FCE0101960E943BAA6B017C019B01DA
:1026C000AC010E947EC0811119C049815A816B8181
:1026D0007C8188EA93E20E9412554D815E816F8170
:1026E000788584E893E10E941255B701A6018FE72F
:1026F00093E10E9412558AE00E94462C0E94839228
:102700000E942D940C94AF228FE080936E030C9462
:10271000AF2242E7242E42E0342E5BE5E52E53E063
:10272000F52E46E552E05B8F4A8F6AE0C62E6BE0DD
:10273000D62E00E010E0D1018D911D010E94F54ED2
:10274000882309F44BC00E94754E2B013C011330C5
:1027500049F0F60120813181428153810E948BBD75
:102760002B013C01AA8DBB8D2D913D914D915C912A
:10277000C301B2010E948BBD4B015C012DEB37E31D
:1027800046E855EB0E94ECBF87FD0AC02DEB37E30E
:1027900046E855E3C501B4010E94D3B81816F4F415
:1027A000133051F4409262025092630260926402CC
:1027B0007092650201E012C0A5019401F7016081E9
:1027C0007181828193810E948CBDD7016D937D932D
:1027D0008D939C931397812F0E94D4A11F5FB4E027
:1027E000EB0EF11CEA8DFB8D3496FB8FEA8FF4E043
:1027F000CF0ED11C143009F09ECF002321F082E6C9
:1028000092E00E944BA00E942D940C94AF228091E4
:102810006D03813011F00C94AF2289E40E94F54ED3
:10282000E82E882321F00E94714E082F01C000E09D
:102830008AE40E94F54EF82E882321F00E94714E02
:10284000182F01C010E0EE2011F0033020F4FF201B
:1028500041F0133030F084EB97E00E946B540C94FD
:10286000AF2280E1E6E5F2E0ABE4B3E001900D9247
:102870008A95E1F7EE2019F1602F000F770B880B96
:10288000990B0E94DAB820913B0330913C034091B0
:102890003D0350913E030E9439B92091430330918A
:1028A000440340914503509146030E948CBD6093C0
:1028B0004B0370934C0380934D0390934E03FF2082
:1028C00019F1612F110F770B880B990B0E94DAB861
:1028D00020913F03309140034091410350914203C6
:1028E0000E9439B920914703309148034091490330
:1028F00050914A030E948CBD60934F037093500324
:10290000809351039093520360E080E50E941D4F35
:102910008823C1F1EE20D1F02091251130912611AC
:10292000409127115091281160914B0370914C03F5
:1029300080914D0390914E030E948BBD60934B0399
:1029400070934C0380934D0390934E03FF20D1F07E
:102950002091291130912A1140912B1150912C1165
:1029600060914F03709150038091510390915203F5
:102970000E948BBD60934F0370935003809351036B
:102980009093520340E050E0BA0186E40E94A263B3
:102990006B017C0120E030E0A9010E94ECBF181619
:1029A0005CF420E030E040E752E4C701B6010E9449
:1029B00086BE6B017C0103C0C12CD12C76018090B6
:1029C0006A0290906B02A0906C02B0906D0220E0C1
:1029D00030E0A901C701B6010E94D3B8882341F0B5
:1029E000C0926A02D0926B02E0926C02F0926D0289
:1029F0000091390210913A0284E690E090933A02F5
:102A000080933902C0902502D0902602E0902702E0
:102A1000F090280280E090E0A0E8BFE380932502D8
:102A200090932602A0932702B09328020E94C58F9C
:102A300080926A0290926B02A0926C02B0926D0238
:102A400010933A0200933902C0922502D0922602D6
:102A5000E0922702F09228020C94AF220E945A5E64
:102A60000C94AF2280916F03909170038937910588
:102A700009F495C70CF097C08C35910509F42BC665
:102A80000CF045C08B34910509F4FFC1FCF4823190
:102A9000910509F4C7C56CF497FF02C00C94852218
:102AA000823091050CF443C1419709F49AC10C940A
:102AB00085228A32910509F4CBC18033910509F44E
:102AC000E0C14F9711F00C9485229FC1813591058B
:102AD00009F486C564F48D34910509F4EFC10CF452
:102AE000D8C18E34910509F4EDC10C94852283354B
:102AF000910509F490C50CF487C58435910509F456
:102B000091C58535910509F4C3C50C9485228F368E
:102B1000910509F489C4C4F48B36910509F466C49F
:102B200064F48936910509F429C40CF03BC4883655
:102B3000910509F459C20C9485228D36910509F44A
:102B400073C20CF4BCC45DC48337910509F454C648
:102B50006CF48137910509F4BCC40CF046C641E021
:102B600060E070E08CED96E00E943D28863791058C
:102B700009F4D8C634F48537910509F4BFC60C941E
:102B800085228737910509F407C78837910511F029
:102B90000C94852281E080936803809367030E94F0
:102BA0005A950C94AF228E3221E0920711F40C94C6
:102BB000FA200CF059C08D3C910509F4B7C7FCF41C
:102BC000883C910509F4F2C674F48B39910509F437
:102BD000E1C48E3B910509F4C8C48C38910511F00D
:102BE0000C948522A0C48B3C910509F44CC70CF0D1
:102BF00069C7893C910509F420C70C9485228D3D55
:102C0000910511F40C94B01EA4F4833D910509F4D0
:102C1000BAC78C3D910511F40C94891E8E3C910528
:102C200011F00C94852252E0E52E53E0F52E10E0D1
:102C300098C7883141E0940711F40C94511F3CF47B
:102C4000823E910511F40C94061F0C9485228C325F
:102C5000A1E09A0711F40C94E81F8D32914011F411
:102C60000C9407200C948522853AE1E09E0711F42C
:102C70000C944E217CF5813921E0920711F40C94DB
:102C8000412194F4803341E0940711F40C9487209F
:102C900014F40C943E218039914011F00C9485225B
:102CA0000E946E9C0C94AF228A39B1E09B0709F414
:102CB0000CC4843AE1E09E0711F40C944B21823954
:102CC000914011F00C9485220E948C720E942D94E8
:102CD0000C94AF22863F21E0920711F40C94292234
:102CE00084F4843F41E0940711F40C94232214F0FF
:102CF0000C9426228C3A914011F40C94C5210C942A
:102D00008522883FB1E09B0711F40C94352214F41E
:102D10000C942C228335F3E09F0711F40C94462287
:102D2000873E934011F40C9477220C94852280E521
:102D30000E94F54E882329F00E94628E6B017C016F
:102D400003C0C12CD12C760183E50E94F54E882367
:102D500061F00E94754E20E030E04AE754E40E94A2
:102D600039B90E94FFBE6B017C010E946E9C80916C
:102D7000390390913A03892B31F46FE977E0CE0162
:102D800001960E941AB81091720383E08093720337
:102D900081E080937303C114D104E104F10431F0A4
:102DA0000E94E2A8C60ED71EE81EF91E809173038A
:102DB000882311F40C943223C114D104E104F104EA
:102DC00011F40C942E230E94E2A8DC01CB018C1993
:102DD0009D09AE09BF09B7FF02C00C942E230C94C5
:102DE00032238091350384FF02C00C9437238091F5
:102DF000370387FF02C00C94372380913803837018
:102E000011F00C9437230C9454230E9469956E8B17
:102E10007F8B888F998FBE016F5F7F4FCE01469663
:102E20000E945C698091F70A811104C0CE0101966D
:102E30000E94B6620E941356BE016F5F7F4F8DE7FE
:102E400097E00E9430558AE00E94462C0C94AF22F5
:102E50006DE070E080E50E94024F8C0197FF02C098
:102E60000C94AF22E82E60E089E40E941D4F81118E
:102E70000C946323802F0E944AAC8111E4C70C9408
:102E800063230E9495720C94AF220E94706F0C9481
:102E9000AF228091FC0A813011F00C94AF2282E0C5
:102EA0008093FC0A0E94E2A860933103709332037E
:102EB00080933303909334030C94AF220E94CC6F21
:102EC0000C94AF2260E070E083E50E94024F8E34E4
:102ED000910531F40E943D700E94495E0C94AF222E
:102EE00084E597E00E946B54609121037091220366
:102EF0008BE497E00E9405556091230370912403B1
:102F00008EE397E00E9405556091210370912203A2
:102F10008091230390912403681B790B8091FC0A14
:102F2000815021E030E0823010F020E030E0621B80
:102F3000730B83E397E00E9405558AE00E94462CBC
:102F400084E597E00E946B548091250390912603BD
:102F5000A0912703B09128038E8B9F8BA88FB98FE8
:102F6000BE016F5F7F4FCE0146960E945C69BE0135
:102F70006F5F7F4F86E297E00E9430558091290372
:102F800090912A03A0912B03B0912C038E8B9F8BE1
:102F9000A88FB98FBE016F5F7F4FCE0146960E940A
:102FA0005C69BE016F5F7F4F86E197E00E943055FC
:102FB00020E030E04AE754E460912D0370912E0345
:102FC00080912F03909130030E9486BEAB01BC011B
:102FD0008EEF96E00E9412558DE60E94462C8AE004
:102FE0000E94462C0C94AF228091710A83FF02C08C
:102FF0000C94AF220E94FE8D87FF02C00C94AF227A
:1030000083E50E94F54E882359F00E94754E0E9478
:10301000F8BECB010E94458561E080E00E94AEAC25
:103020000E946FAC0C94AF228091710A83FF02C0A2
:103030000C94AF220E94FE8D8AA787FF02C00C94D9
:10304000AF2283E50E94F54E8A8F811107C082E589
:103050000E94F54E811102C010E02DC00E94754EF5
:103060000E94F8BECB010E94458561E081E00E948C
:10307000AEAC60917D0B70917E0B072E000C880B1F
:10308000990B0E94DAB86B017C018090790B9090CB
:103090007A0BA0907B0BB0907C0BA50194010E9451
:1030A000ECBF181614F40C94B4234A8D442311F485
:1030B0000C949A2311E00E946FAC112311F40C942C
:1030C000AF225091200358AF1092200381E08093EB
:1030D00020021AA21BA21CA21DA21EA61FA618AA8D
:1030E00019AA1BAA8CE38CAB9CE19DABA6E4AFAB09
:1030F000C12CD12C20E8E22E3FEBF32E1E8EB1E046
:10310000BAAB812C912C540160917D0B70917E0B98
:10311000072E000C880B990B0E94DAB8162F072F88
:10312000782E692E9601A7010E94D3B8882321F139
:103130002091790B30917A0B40917B0B50917C0B55
:10314000EA8D612F702F872D962DE11107C00E9407
:10315000D3B8881F8827881F8E8F14C00E94D3B8C9
:1031600087FF0FC080912002882309F402C11092CA
:1031700020020E94495EFDC01C2D0D2D7E2C6F2C5F
:1031800001C01E8E0E94E2A86B017C01DC01CB0114
:103190002EA53FA548A959A9821B930BA40BB50BDB
:1031A000B7FD33C0D701C60188519C4FAF4FBF4F09
:1031B0008EA79FA7A8ABB9AB8AA50E94868585EF8D
:1031C00096E00E946B5481149104A104B104B9F0FB
:1031D000D501C401805F984DAF4FBF4FBC01CD01F9
:1031E0006C197D098E099F0928EE33E040E050E01C
:1031F0000E94DABCCA01B9010E94BA2C03C08FE355
:103200000E94462C8AE00E94462C0E94722D0E9449
:10321000E2A86093690370936A0380936B039093B1
:103220006C039091790B9EA3A0917A0BAFA3B09100
:103230007B0BB8A7E0917C0BE9A7292F3A2F4B2FE6
:103240005E2F612F702F872D962D0E948BBD1B0145
:103250002C0120E030E0A9010E94ECBF87FF04C0F0
:1032600057FA509457F8509481149104A104B10472
:10327000E1F420E030E040E85FE3C201B1010E94E8
:10328000D3B887FF1EC0FAA9FF2339F095E0892E35
:103290009DE0992EA12CB12C03C0812C912C5401BE
:1032A0008C0C9D1CAE1CBF1C0CC020E030E040E428
:1032B00050E4C201B1010E94ECBF181614F446019B
:1032C00057012E8D2223C1F18AA19BA1ACA1BDA1E2
:1032D000892B8A2B8B2B61F0D701C6012AA13BA138
:1032E0004CA15DA1821B930BA40BB50BB7FD24C0B1
:1032F0002EA13FA148A559A56BA97CA98DA99FA97D
:103300000E948BBD20E030E040EC5FE30E94D3B828
:1033100087FD28CFD701C601805A9541AF4FBF4FD7
:103320008AA39BA3ACA3BDA39EA19BABAFA1ACAB57
:10333000B8A5BDABE9A5EFAB80912002882309F4C5
:1033400011CF81149104A104B10431F41AAAC12E41
:10335000D02EE72CF62CD8CEF0E1CF1AF7E2DF0A18
:10336000E108F108C818D908EA08FB08F7FCEECF15
:10337000F9CE28AD209320030C94AF220E94FE8D3D
:10338000182F87FD0AC08DEF92E00E946B54812FA9
:103390000E9486858AE00E94462C3EA930937203E3
:1033A0000C94412760E080E50E94114F81110C943C
:1033B000AF2281E40E94AC4E882321F06091C00EC0
:1033C000062F02C00FEF10E083E50E94F54E882320
:1033D00049F00E943D4E8B016F3F710519F010F0CE
:1033E0000FEF10E00093C00E0C94AF2260E080E578
:1033F0000E94114F81110C94AF221092C00E0C94B8
:10340000AF228EE40E94F54E882311F40C94AF2273
:103410000E943D4E60931C0370931D0380931E0316
:1034200090931F030C94AF2283E50E94AC4E882337
:1034300031F060E083E50E94114F8093710A0E9491
:1034400013568EEE96E00E946B548091710A882389
:1034500069F186EEE82E87E0F82E00E010E020E02B
:103460008091710A90E0A0E0B0E0002E04C0B69513
:10347000A795979587950A94D2F780FF0EC0DD2413
:10348000D394D20E222319F08CE20E94462CF7012D
:10349000859194910E946B542D2D0F5F1F4F42E038
:1034A000E40EF11C05301105D9F604C08AEE96E051
:1034B0000E946B548AE00E94462C0C94AF2210921A
:1034C0007303109220020C94AF220E9471280C9476
:1034D000AF2283E50E94F54E882381F00E944D4E75
:1034E000282F30E02D33310524F480931F020C94F3
:1034F000AF228CE380931F020C94AF220E941356DC
:10350000C0901F02D12CE12CF12C85ED96E00E9499
:103510006B544AE0C701B6010E944D2C8AE00E941C
:10352000462C0C94AF228091710A83FF02C00C9448
:10353000AF2283E50E94F54E882311F40C94AF224C
:103540000E94754E0E94F8BE6837710514F068E756
:1035500070E07093670B6093660B0E94987B61E04C
:1035600080E00E94AEAC0C94AF228091710A83FF80
:1035700002C00C94AF2283E50E94F54E89A7811109
:103580000C94B72382E50E94F54E81110C94B72369
:103590000C94AF2283E50E94F54E882309F4DFC71F
:1035A0000E944D4E182F90E0CD970CF01CE3109325
:1035B0001B030E94E2A86B017C01212F30E0A8EEE2
:1035C000B3E00E942EBDC60ED71EE81EF91EC092A3
:1035D0001703D0921803E0921903F0921A03BFC7A1
:1035E0000E94D07B0E94CC6F0E947E9C1092C00EE5
:1035F00068EE73E080E090E00E94AD5360E080EA06
:1036000096E00E94D562ABC780916E038F7D80618A
:1036100080936E03A4C780916E038F7E8062809337
:103620006E039DC783E50E94F54E8823E9F00E9452
:10363000E2A86093690370936A0380936B0390938D
:103640006C030E94754E20E030E04AE754E40E948B
:1036500039B90E94FFBE60931B0270931C028093D5
:103660001D0290931E027BC78091350384FF02C028
:103670000C943D258091370387FF02C00C943D25B3
:1036800080913803837011F00C943D250C946F25C4
:1036900083E50E94AC4E882309F461C70E94E2A82A
:1036A0006093690370936A0380936B0390936C0338
:1036B0000E94754E20E030E04AE754E40E9439B998
:1036C0000E94FFBE6093130370931403809315034D
:1036D0009093160344C70E94FE8D87FD40C79091CA
:1036E000350394FD04C09091370397FF0AC0F2E7B9
:1036F000CF2EF2E0DF2EA2E7EA2EAAE0FA2E10E0AB
:1037000009C090913803937091F7682F81E00E946F
:10371000278E25C7D6018D916D010E94F54E882315
:1037200009F459C0133009F04FC00E94754E4B0187
:103730005C0120E030E040EA51E40E94D3B887FF0A
:103740003AC0A50194016091920A7091930A809108
:10375000940A9091950A0E9486BE2B013C019B0120
:10376000AC016091A20A7091A30A8091A40A909181
:10377000A50A0E9439B96093A20A7093A30A8093A4
:10378000A40A9093A50A6091E6047091E7048091E1
:10379000E8049091E9040E94D8B8A30192010E9424
:1037A00039B90E94FFBE6093E6047093E7048093EA
:1037B000E8049093E9048092920A9092930AA0926E
:1037C000940AB092950A07C00E94754EF701648B67
:1037D000758B868B978B1F5FF4E0EF0EF11C143016
:1037E00009F098CF0E94A271BAC60E94675D88E373
:1037F0009FE00E940D84B3C68EEB95E00E946B544F
:1038000060E08EEA95E00E94E48760E089E995E057
:103810000E94E48761E082E995E00E94E48761E02C
:1038200087E895E00E94E48761E087E795E00E94E1
:10383000E48760E08EE695E00E94E48761E084E63C
:1038400095E00E94E48761E08AE595E00E94E487C4
:1038500060E083E595E00E94E48761E08BE495E019
:103860000E94E48761E08DE395E00E94E48760E0D8
:103870008FE295E00E94E48760E080E295E00E949C
:10388000E48760E082E195E00E94E48760E08CEFED
:1038900094E00E94E48760E08BEE94E00E94E4876D
:1038A00060E08CED94E00E94E48760E085ED94E0B8
:1038B0000E94E48760E080EC94E00E94E48760E08E
:1038C00082EB94E00E94E48761E08FE994E00E943B
:1038D000E48760E082E994E00E94E48761E08DE89B
:1038E00094E00E94E48760E080E894E00E94E4872E
:1038F00060E08CE694E00E94E48731C68091390351
:1039000090913A03009759F0DC012C91222339F071
:103910002091F70A211123C60E94B66220C60E9498
:10392000495E1DC60091390310913A0394E0F12CD1
:1039300040E0915021F1F8018081282F2B7F213424
:1039400021F421812133D9F407C08035C1F481816C
:1039500080538A3048F013C0813421F0853421F43B
:1039600041E002C0FF24F39498012E5F3F4F89018C
:103970002F5F3F4FF80180818032C9F3DACF4111C8
:103980000E941356FF2021F088E694E00E946B54B9
:10399000C8010E94512DE3C50E94F294E0C5109227
:1039A0006803109267030E945A95D9C50E94FE8D44
:1039B000182F87FDD4C50091120384E40E94F54EB0
:1039C000882311F40C9472250E94754E6B017C01C2
:1039D00020E030E0A9010E94D3B8882341F124E01F
:1039E0001202F0011124E25FFC4FC082D182E28218
:1039F000F38220E030E0A90160910E0370910F0383
:103A000080911003909111030E94D3B881110CC0D2
:103A100080E090E0A0EEBFE380930E0390930F034D
:103A2000A0931003B093110301E00C94722580E081
:103A3000809312030E94C69C92C50E94FE8D87FD52
:103A40008EC572E7E72E72E0F72E02E71AE0E2E891
:103A5000CE2EEAE0DE2ED7018D917D010E94AC4E84
:103A6000882359F00E94754E0E94FFBEF8016083C2
:103A70007183828393830E94279C0C5F1F4FC01623
:103A8000D10649F76CC50E94FE8D87FD68C562E7C7
:103A9000E62E62E0F62E02E71AE0D7018D917D0155
:103AA0000E94AC4E882339F00E94754EF80164A341
:103AB00075A386A397A30C5F1F4FFAE002381F0778
:103AC00061F74DC58091360387FF02C00C947825BD
:103AD000809137038E7011F00C9478254091A60ADE
:103AE0005091A70A6091A80A7091A90A88E594E00C
:103AF0000E9412554091AA0A5091AB0A6091AC0AFB
:103B00007091AD0A85E594E00E9412554091AE0A8D
:103B10005091AF0A6091B00A7091B10A82E594E0C9
:103B20000E9412558AE00E94462C19C580913503E7
:103B300081FF02C00C94BE258091360381FF02C034
:103B40000C94BE25809137038C7011F00C94BE2527
:103B500006C51F5FB4E0EB0EF11C133011F40C949A
:103B6000031488E5810F0E94AC4E882391F30E94D4
:103B7000754ED7016D937D938D939C931397812FF1
:103B80000E94D4A1E6CF40900A0B50900B0B60909E
:103B90000C0B70900D0B20910302309104024091A8
:103BA000050250910602C301B2010E948CBD6A8FCA
:103BB0007B8F8C8F9D8F80900E0B90900F0BA09021
:103BC000100BB090110B2091070230910802409128
:103BD000090250910A02C501B4010E948CBD6E8F8A
:103BE0007F8F88A399A3C090120BD090130BE09005
:103BF000140BF090150B20910B0230910C024091A8
:103C00000D0250910E02C701B6010E948CBD6AA33D
:103C10007BA38CA39DA320910F02309110024091B1
:103C2000110250911202C301B2010E948CBD2B01FE
:103C30003C012091130230911402409115025091E1
:103C40001602C501B4010E948CBD4B015C0120919C
:103C50001702309118024091190250911A02C701BF
:103C6000B6010E948CBD6B017C010E94135683E259
:103C700094E00E946B5483E50E94AC4E882321F0AF
:103C80000E94614E8093020280910202882319F003
:103C900082EE92E002C08AEB95E00E946B548BE1C9
:103CA00094E00E946B544A8D5B8D6C8D7D8D84EB0E
:103CB00091E20E9412554E8D5F8D68A179A184E931
:103CC00094E10E9412554AA15BA16CA17DA18EE8EE
:103CD00094E10E94125585EE9DE10E946B5483E1B0
:103CE00094E00E946B54B301A20184EB91E20E9424
:103CF0001255B501A40184E994E10E941255B7015F
:103D0000A6018EE894E10E9412558AE00E94462C9A
:103D100026C483E50E94F54E882331F00E94714E3F
:103D200090933A0280933902809135039091360343
:103D3000A0913703B0913803892B8A2B8B2B09F084
:103D40000EC46091390270913A028FE094E00E94B3
:103D5000235585E20E94462C8AE00E94462CFFC330
:103D60000E94FE8DF82E87FDFAC383E50E94F54E72
:103D70000F2D0F2C000C110B882369F10E94714E3E
:103D8000F801EE0FFF1FE050FE4F91838083000F7C
:103D9000111F000F111FF801EB5DFD4F7F01BC01EA
:103DA000990F880B990B0E94DAB82AE037ED43E2AD
:103DB0005CE30E9439B9F801E250FD4F2081318166
:103DC000428153810E9439B9D7016D937D938D93C0
:103DD0009C931397C4C30E94135685E40E94462CFB
:103DE00080E38F0D0E94462C000F111FF801E05058
:103DF000FE4F6081718187E094E00E94235585E247
:103E00000E94462C8AE00E94462CA9C380E50E94AD
:103E1000AC4E882309F4A3C360E070E080E50E9403
:103E2000024FF82E6FEF7FEF83E50E94024F8C0167
:103E30000196039708F093C3F7FC91C38F2D0E945E
:103E40004AAC882339F00E9443558CE597E00E94E4
:103E50006B5485C30E946E9C60E08F2D0E94A3A7C7
:103E60000F3FBFEF1B0731F00130110571F000E08B
:103E700010E00DC08F2D0E944BA731E020E0892B70
:103E800009F030E0032F122F02C001E010E08F2D67
:103E90000E944BA78017910709F461C30E94722DFD
:103EA000F6CF80E50E94AC4E882309F458C30E94E7
:103EB000714E8C01892B09F07FC083E50E94AC4EC6
:103EC000882389F00E94714E8F3FEFEF9E0729F4FF
:103ED0008CE19FE00E94912842C3BC018CE19FE0ED
:103EE0000E9451293CC30E94135660E070E08FEF9E
:103EF00093E00E94235580911E0F28E532E069016E
:103F0000C81AD10887FDD394CC0CDD1CCC0CDD1C69
:103F10000D2C000CEE08FF0880911D0F28E830E002
:103F20004901881A910887FD9394880C991C880C84
:103F3000991C092C000CAA08BB0880911C0F8F3F0C
:103F4000C1F090E0FC01EE0FFF1F8E0F9F1FFC01E0
:103F5000ED52F14F2181328113E0220F331F1A9568
:103F6000E1F704E0369527950A95E1F72E5F3F4F7C
:103F700002C020E030E02F5F3F4FC901330FAA0B92
:103F8000BB0B9C01AD01281939094A095B09A4EB57
:103F9000B0E00E941BBDA7019601281939094A0902
:103FA0005B090E94FCBCB9018EE799E10E94235590
:103FB0008AE00E94462CD3C20E944355B80180E09B
:103FC00094E00E9423558EEB97E00E946B54C7C289
:103FD00083E50E94F54E882321F00E943D4E8B011F
:103FE00002C004E011E080E50E94F54E882349F00C
:103FF0000E943D4ECB016938734128F088E893E177
:1040000002C088EE93E0B8010E948962A8C260E015
:1040100085E40E94114F811173C080E50E94AC4E6F
:10402000882351F00E94754E6093800B7093810B32
:104030008093820B9093830B89E40E94AC4E88237B
:1040400081F00E94754E2CEA35EC47E25EE30E9457
:1040500039B96093840B7093850B8093860B909392
:10406000870B84E40E94AC4E882381F00E94754E39
:104070002CEA35EC47E25EE30E9486BE6093880B33
:104080007093890B80938A0B90938B0B0E9413562D
:104090004091800B5091810B6091820B7091830B4A
:1040A00089EE93E00E9412552CEA35EC47E25EE37C
:1040B0006091840B7091850B8091860B9091870B9A
:1040C0000E9486BEAB01BC0185EE93E00E941255B2
:1040D0002CEA35EC47E25EE36091880B7091890B26
:1040E00080918A0B90918B0B0E9439B9AB01BC0176
:1040F00081EE93E00E9412558AE00E94462C2FC266
:104100000E9443558DEE93E00E946B5428C280E5D7
:104110000E94AC4E882351F00E94754E6093690B4B
:1041200070936A0B80936B0B90936C0B89E40E94E5
:10413000AC4E882381F00E94754E2CEA35EC47E2A4
:104140005EE30E9439B960936D0B70936E0B8093A0
:104150006F0B9093700B84E40E94AC4E882381F027
:104160000E94754E2CEA35EC47E25EE30E9486BE63
:104170006093710B7093720B8093730B9093740B1D
:104180000E9413564091690B50916A0B60916B0B22
:1041900070916C0B89EE93E00E9412552CEA35EC7D
:1041A00047E25EE360916D0B70916E0B80916F0B37
:1041B0009091700B0E9486BEAB01BC0185EE93E02E
:1041C0000E9412552CEA35EC47E25EE36091710BD8
:1041D0007091720B8091730B9091740B0E9439B99E
:1041E000AB01BC0181EE93E00E9412558AE00E946F
:1041F000462CB5C183E50E94AC4E182F882371F080
:104200000E94754E0E94F8BE70932A0260932902A4
:1042100021E0672B09F020E02093FE0480E50E9456
:10422000AC4E882359F02091290230912A02232B89
:1042300011F00E94614E8093FE0491C111118FC153
:104240000E9413568EEC93E00E946B548091FE0402
:10425000882319F08AE993E102C085EB93E00E947C
:104260006B546091290270912A028DEB93E00E94B9
:10427000235589EB93E00E946B5471C10E94B9638E
:104280006EC18091241181110C94031481E00E946D
:10429000AD6E0C9403140E94175661C16FEF7FEF4F
:1042A00089E40E94024F082F6FEF7FEF8AE40E949B
:1042B000024F182F8AE50E94F54E811108C081E552
:1042C0000E94F54EB82E882309F4B1C401C0B12C68
:1042D000A02E81E0800F843008F050C0912E81E044
:1042E000810F843008F04AC00E94754E2B013C01BA
:1042F000F02E07FDF12C07FF02C0A2E0AA2E812EAE
:1043000017FD812C17FF02C0F2E09F2EAF1408F4B6
:1043100026C1E82C8F2D90E06C01CC0CDD1CC80E62
:10432000D91E9E1448F10E2D10E0BB2071F0F6014D
:10433000E00FF11FEE0FFF1FEE0FFF1FE652FD4FC4
:10434000208131814281538103C020E030E0A90106
:104350000C0D1D1D000F111F000F111F06521D4FC8
:10436000C301B2010E948CBDD8016D937D938D93E2
:104370009C931397E394D5CFF394C8CF0E944355F1
:1043800084EB97E00E946B54EAC00E94685E811142
:10439000E6C00AED17E0E6E5F2E0FB8FEA8F9E014A
:1043A0002F5F3F4F190197EDC92E97E0D92E790164
:1043B000F8016591759185919491AA8DBB8D8D9031
:1043C0009D90AD90BD90BB8FAA8FA50194010E94D6
:1043D0008BBD2B013C01F701608371838283938342
:1043E00020E030E040EA51EC0E94ECBF87FD0AC0BB
:1043F00020E030E040EA51E4C301B2010E94D3B8AA
:1044000018162CF4F601849118160CF417C4D70171
:104410008D909D90AD90BD907D0120E030E040EA10
:1044200051ECC501B4010E94ECBF87FD12C420E02D
:1044300030E040EA51E4C501B4010E94D3B8181637
:104440000CF019C406C40E943B6A89C00E9413A4E0
:1044500086C00E94E0A283C061E083E50E941D4FF8
:1044600091E089270E9429A47AC081E08093D90233
:104470000E94EE951092D902882309F470C00E9420
:1044800013568CE493E00E946B5469C0809137030B
:1044900087FD27C480913803837009F022C44091BE
:1044A00025115091261160912711709128118DE3EB
:1044B00093E00E9412554091291150912A11609168
:1044C0002B1170912C1184E994E10E9412554091B6
:1044D0002D1150912E1160912F11709130118EE895
:1044E00094E10E9412558AE00E94462C38C081E077
:1044F00080936D031092F70A60E083E50E941D4FE0
:1045000081112DC00E9411862AC00E945A5E27C0C8
:1045100000916F03109170030E94E2A860936903F9
:1045200070936A0380936B0390936C030023B9F03C
:104530000E94135684E50E94462CB8017727072E67
:10454000000C880B990B0E94BA2C80E20E94462C2A
:104550008DEE93E00E946B5402C00E945A5EE0917F
:10456000D802F0E0E15EFE4E8081882339F08DEFC5
:1045700092E00E946B548AE00E94462CFEA9F093C0
:1045800072037FC40E946E9C80E00E944B510E9487
:10459000E2A86093690370936A0380936B0390931E
:1045A0006C030E949C9281E0809368030E945A955C
:1045B0008AE50E94AC4EF82E88E50E94AC4E182F7A
:1045C00089E50E94AC4E181344C0F11611F0012F7A
:1045D00004C001E011E0FF24F39482E50E94F54E4F
:1045E000882319F00E94754E04C060E070E080EAF4
:1045F00090E469837A838B839C8320E030E0A90177
:104600000E94D3B8882341F0111102C0002371F039
:10461000CE0101960E942B4C112319F080E00E94DC
:104620002DB2002319F081E00E942DB2FF2031F05D
:1046300080E00E94F05382E00E942DB20E942B94F1
:1046400080916703809368030E9483920E942D9457
:1046500086CF082FC2CF0E947C7681CF0E94722D18
:104660000C94D616109273031093720378CF88E5DA
:104670000E94AC4E81115F9889E50E94AC4E811179
:104680008A988AE50E94AC4E882331F08091080117
:10469000817080930601479885E40E94AC4E882380
:1046A00009F45DCF12985BCF60E08AE897E00E9442
:1046B000D5625F988A988091080181708093060185
:1046C000479812984CCF8DE40E94F54E8823A9F0AC
:1046D0000E944D4E813039F020F0823049F462E082
:1046E00003C060E001C061E0802F0E94A3A705C065
:1046F0008BE697E00E946B5432CF83E50E94F54E23
:10470000882309F42CCF0E944D4EF82E39E0E31295
:1047100003C08093C00E23CF61E0802F0E94A3A727
:104720006F2D802F0E9474A76F2D70E0802F0E9444
:10473000DFA715CFA5019401C701B6010E94ECBF08
:10474000181694F08DEB96E09F938F9389EF96E087
:104750009F938F931F920E9425AA0F900F900F9006
:104760000F900F900C945A188CEC96E0EDCF0E94AD
:10477000754E0E94F8BE683771050CF07BC17093CE
:10478000670B6093660B0E94987B60E081E00E945B
:10479000AEAC6091660B7091670B072E000C880B16
:1047A000990B0E94DAB82091620B3091630B409113
:1047B000640B5091650B0E94ECBF18161CF487EC3B
:1047C00096E002C088EB96E060E00E94D56281E04E
:1047D000809320021E8E1F8E18A219A21AA61BA655
:1047E0001CA61DA61AAA5CE35BAB8CE18CAB96E41D
:1047F0009DABC12CD12C10E8E12E0FEBF02E1A8EC0
:10480000A1E0AEA7812C912C54016091660B7091B0
:10481000670B072E000C880B990B0E94DAB8162F35
:10482000072F782E692E9601A7010E94D3B88823FE
:1048300021F12091620B3091630B4091640B5091F8
:10484000650BB9A5612F702F872D962DB11107C06B
:104850000E94D3B8881F8827881F8A8F14C00E949F
:10486000D3B887FF0FC080912002882309F477CE48
:10487000109220020E94495E72CE1C2D0D2D7E2CBE
:104880006F2C01C01A8E0E94E2A86B017C01DC0132
:10489000CB012AA53BA54CA55DA5821B930BA40BC0
:1048A000B50BB7FD33C0D701C60188519C4FAF4F40
:1048B000BF4F8AA79BA7ACA7BDA780E00E948685B3
:1048C00085EF96E00E946B5481149104A104B10419
:1048D000B9F0D501C401805F984DAF4FBF4FBC0107
:1048E000CD016C197D098E099F0928EE33E040E067
:1048F00050E00E94DABCCA01B9010E94BA2C03C080
:104900008FE30E94462C8AE00E94462C0E94722D62
:104910000E94E2A86093690370936A0380936B031B
:1049200090936C039091620B9AA3A091630BAEA33A
:10493000B091640BBFA3E091650BE8A7292F3A2F34
:104940004B2F5E2F612F702F872D962D0E948BBDD0
:104950001B012C0120E030E0A9010E94ECBF87FF81
:1049600004C057FA509457F8509481149104A1044C
:10497000B104E1F420E030E040E85FE3C201B101BE
:104980000E94D3B887FF1EC0FEA5FF2339F0B5E013
:104990008B2EBDE09B2EA12CB12C03C0812C912C21
:1049A00054018C0C9D1CAE1CBF1C0CC020E030E0E0
:1049B00040E450E4C201B1010E94ECBF181614F4A7
:1049C000460157012A8D2223C1F18E8D9F8DA8A10A
:1049D000B9A1892B8A2B8B2B61F0D701C6012E8DB3
:1049E0003F8D48A159A1821B930BA40BB50BB7FDBA
:1049F00024C02AA13EA14FA158A56AA97BA98CA9D0
:104A00009DA90E948BBD20E030E040E85FE30E945A
:104A1000D3B887FD28CFD701C601805A9541AF4F43
:104A2000BF4F8E8F9F8FA8A3B9A39AA19AABAEA1B7
:104A3000ABABBFA1BCABE8A5EDAB80912002882356
:104A400009F411CF81149104A104B10431F41EA61C
:104A5000C12ED02EE72CF62CD8CEF0E1CF1AF7E2FB
:104A6000DF0AE108F108C818D908EA08FB08F7FCD2
:104A7000EECFF9CE68E770E082CE0E946E9C88E5AA
:104A80000E94AC4E882331F05F9A809123118E7F73
:104A90008093231189E50E94AC4E882331F08A9AD5
:104AA000809123118D7F809323118AE50E94AC4E63
:104AB000882361F0809108018095817080930601C0
:104AC000479A809123118B7F8093231185E40E9464
:104AD000AC4E882309F443CD0E94212840CD0E948A
:104AE0007E9C3DCD602F83E50E941D4F0C94181DC8
:104AF00083E50E94F54E882391F00E94754E6093E5
:104B0000A60A7093A70A8093A80A9093A90A6093B3
:104B1000AE0A7093AF0A8093B00A9093B10A80E511
:104B20000E94F54E882351F00E94754E6093A60AAC
:104B30007093A70A8093A80A9093A90A82E50E941D
:104B4000F54E882351F00E94754E6093AA0A709327
:104B5000AB0A8093AC0A9093AD0A84E50E94F54EAF
:104B6000882309F4FCCC0E94754E6093AE0A7093C2
:104B7000AF0A8093B00A9093B10AF1CC82E40E940C
:104B8000AC4E882351F00E94628E6093820A70932B
:104B9000830A8093840A9093850A83E50E94AC4E31
:104BA000882351F00E94754E6093B20A7093B30A45
:104BB0008093B40A9093B50A84E50E94AC4E882392
:104BC00051F00E94754E6093B60A7093B70A8093B5
:104BD000B80A9093B90A8AE40E94AC4E882309F47B
:104BE000BECC0E94754E6B017C012AE037ED43E29A
:104BF0005CE30E94ECBF87FD13C02AE939E949E96B
:104C00005EE3C701B6010E94D3B818164CF0C092FB
:104C1000D604D092D704E092D804F092D9049FCC65
:104C20000E94435583E394E00E946B5498CC0E9409
:104C3000435585E993E00E946B5491CCB7FAB09448
:104C4000B7F8B094D7018D929D92AD92BC92139714
:104C5000DECB0E94435587E793E00E946B5461E0EE
:104C600089E693E00E94D56268E270E088EC90E00B
:104C70000E94896274CC0C5F1F4FBFEFCB1ADB0A16
:104C8000E6EEF7E0E017F10709F092CB82E0E82EBC
:104C900083E0F82E10E0F10181919191A191B19101
:104CA0001F01F70181939193A193B1937F01812F0C
:104CB0000E94D4A11F5F133071F70E942D9460E011
:104CC00087E593E00E94D56263E972E084E690E0B4
:104CD0000E9489626AEB72E084E690E00E94896239
:104CE0003ECCF0912511FA8F8090261170902711FB
:104CF000609028115090291140902A1130902B116A
:104D000020902C11C0902D11D0902E11E0902F11D9
:104D1000F090301188E50E94F54E882361F10E94E1
:104D2000754E5B018C0120E030E04CE553EC0E94B5
:104D3000ECBF87FD0AC020E030E04CE553E4B5014C
:104D4000C8010E94D3B8181694F46CED70E08AE2A2
:104D500093E00E9423556CED70E085E293E00E94A1
:104D6000235582E09EE10E946B5410E005C0AA8E9C
:104D70008B2C702E612E11E089E50E94F54E882360
:104D800081F10E94754E962EA72EB82E092F20E095
:104D900030E04CE553EC0E94ECBF87FD0CC020E0F6
:104DA00030E04CE553E4692D7A2D8B2D902F0E9435
:104DB000D3B8181694F46CED70E082E193E00E9491
:104DC00023556CED70E085E293E00E94235582E06C
:104DD0009EE10E946B5410E004C0592C4A2C3B2CDD
:104DE000202E8AE50E94F54E882339F10E94754EE7
:104DF0006B017C0120E030E040EA51EC0E94ECBF06
:104E000087FD0AC020E030E040EA51E4C701B60166
:104E10000E94D3B818168CF46CEE7FEF80E093E01C
:104E20000E94235564E170E085E293E00E942355DF
:104E300082E09EE10E946B5492CB112309F48FCB48
:104E40008A8D982DA72DB62D80932511909326112C
:104E5000A0932711B0932811852D942DA32DB22D49
:104E60008093291190932A11A0932B11B0932C11A8
:104E7000C0922D11D0922E11E0922F11F09230118C
:104E80006ECBE8960FB6F894DEBF0FBECDBFDF91B4
:104E9000CF911F910F91FF90EF90DF90CF90BF9037
:104EA000AF909F908F907F906F905F904F903F90CA
:104EB0002F900895CF92DF92EF92FF920F931F935E
:104EC000CF93DF936C018B017A01EC01C75FDB4F5D
:104ED000888187FF04C0FB011182108224C02CE06E
:104EE0002C9DC0012D9D900D11242881AC01420FF5
:104EF000511D27FD5A9520911B0F30E04217530793
:104F000094F42881AC01420F511D27FD5A959A0156
:104F1000FA01EE0FFF1F2E0F3F1FF901ED52F14F67
:104F2000208127FD19C088818F5F88832CE02C9D0C
:104F3000C0012D9D900D11242881AC01420F511DFF
:104F400027FD5A9520911B0F30E042175307BCF400
:104F500028812C3044F113C02881820F911D27FD38
:104F60009A95FC01EE0FFF1F8E0F9F1FFC01ED5263
:104F7000F14F808160E08F770E9474A7D4CFF80151
:104F800080819181049680349C4918F480E49CE9E6
:104F900004C0F801808191810496F7019183808398
:104FA0008FEF888345C0F801408151812881BC0181
:104FB000620F711D27FD7A959B01FB01EE0FFF1F0C
:104FC0002E0F3F1FF901ED52F14F21813281240F45
:104FD000351FF701318320832881AC01420F511D19
:104FE00027FD5A959A01FA01EE0FFF1F2E0F3F1F62
:104FF000F901ED52F14F208127FF1AC02881820F5D
:10500000911D27FD9A95FC01EE0FFF1F8E0F9F1F2C
:10501000FC01ED52F14F808161E08F77DF91CF91FC
:105020001F910F91FF90EF90DF90CF900C9474A799
:10503000DF91CF911F910F91FF90EF90DF90CF9074
:105040000895129A08955F9A809123118E7F80931C
:1050500023118A9A809123118D7F8093231180914F
:1050600008018095817080930601479A80912311F1
:105070008B7F809323110C942128C42F0E94D07B16
:105080000E9443558CE199E00E946B548091D40BAF
:1050900080FD07C081608093D40B88E199E00E9475
:1050A000866389EE93E030E6019729F0232F2A9555
:1050B0000000E9F7F9CFF89489EE93E038EE019714
:1050C00029F0232F2A950000E9F7F9CF0E94D07B21
:1050D000CC2319F00E94232802C00E942128A89501
:1050E000FECF0E9400A09091230F9093220F9093E7
:1050F000210F9093200F94E690931F0F20ED33E043
:105100003093700A20936F0A81110E940DA081E0F4
:105110008093080C0E946E9C8EEF0E949B930C94CF
:105120002B94DC01EC91F0E0CF01880F991FE80F80
:10513000F91FED52F14F80818F77808308958F9210
:105140009F92AF92BF92CF92DF92EF92FF920F9316
:10515000CF93DF931F92CDB7DEB75C016B017A016D
:105160004901F501808191810E94B4BC89830023AB
:1051700011F0F6018083BE016F5F7F4FC4010E9472
:1051800038A9F50180819181019691838083FFEF99
:10519000CF1ADF0A81E0E81AF10819F780E00F90D2
:1051A000DF91CF910F91FF90EF90DF90CF90BF9064
:1051B000AF909F908F9008957F928F929F92AF9221
:1051C000BF92CF92DF92EF92FF920F931F93CF93F4
:1051D000DF931F92CDB7DEB77C0159018B016B01C4
:1051E000C40ED51E0C151D0559F1F7018080918064
:1051F000F80171908F017982C4010E94B4BC7816C5
:1052000091F0672DC4010E94BCBCC4010E94B4BCD3
:105210009981891741F00E94135680EF97E00E9410
:105220006B5481E00EC0BE016F5F7F4FC5010E94CD
:1052300038A9F70180819181019691838083D2CF33
:1052400080E00F90DF91CF911F910F91FF90EF9031
:10525000DF90CF90BF90AF909F908F907F900895F8
:10526000009781F41092900082E080939100109258
:10527000950010929400C19A809171008260809391
:1052800071000895019761F41092A00082E080936C
:10529000A1001092A5001092A40089BB8093720017
:1052A00008957F928F929F92AF92BF92CF92DF929A
:1052B000EF92FF920F931F93CF93DF93FC019081A6
:1052C000983108F0CEC06B017F01892F90E0FC017E
:1052D000EE0FFF1F8E0F9F1FFC01ED52F14F8081DB
:1052E00061E08F770E94A3A7F7011182128280816B
:1052F0006CE00E943DBDFCE08F9FB001112440E0B6
:1053000050E09B01240F351FF901EE0FFF1F2E0FF8
:105310003F1FF901ED52F14F908197FD08C04F5F9B
:105320005F4F4C30510569F790E00E943029F7013A
:105330007080C72DD0E08E01000F111FF801EC0F17
:10534000FD1FED52F14F80818068808377FC89C01A
:10535000F0E2CF16F2E0DF060CF041C0F7018281E7
:1053600028E532E0281B310987FD3395220F331FD2
:10537000220F331F032E000C440B550B818168E86C
:1053800070E04B01881A910887FD9394880C991C52
:10539000880C991C092C000CAA08BB08D7FC0BC070
:1053A000B601653B710514F064EB70E0072E000C4C
:1053B000880B990B03C060E070E0CB012819390914
:1053C0004A095B090E94CABC24EB30E040E050E08F
:1053D0000E94FCBC820E931EA41EB51E01C0460195
:1053E000F7E1F71558F1F701218188E890E0821B79
:1053F000910927FD9395880F991F880F991F88168B
:10540000990684F0F701228188E592E0821B9109D8
:1054100027FD9395880F991F880F991F8816990665
:105420000CF4C40102972FB7F894C00FD11FCD52CE
:10543000D14F880F991F9A8389832FBF62E370E051
:1054400080E090E0DF91CF911F910F91FF90EF905E
:10545000DF90CF90BF90AF909F908F907F900C94F3
:10546000AD53DF91CF911F910F91FF90EF90DF909F
:10547000CF90BF90AF909F908F907F9008951F9294
:105480000F920FB60F9211240BB60F922F933F93EA
:105490004F935F936F937F938F939F93AF93BF933C
:1054A000EF93FF9348EA50E064EA70E081E090E017
:1054B0000E945A27FF91EF91BF91AF919F918F91D9
:1054C0007F916F915F914F913F912F910F900BBE04
:1054D0000F900FBE0F901F9018951F920F920FB64E
:1054E0000F9211240BB60F922F933F934F935F931C
:1054F0006F937F938F939F93AF93BF93EF93FF939C
:1055000048E950E064E970E080E090E00E945A27AA
:10551000FF91EF91BF91AF919F918F917F916F918B
:105520005F914F913F912F910F900BBE0F900FBE47
:105530000F901F9018959091310195FD04C09091A6
:10554000300195FD40C0209187032F5F2F770FB664
:1055500007FC26C090918803291327C09091300141
:1055600095FF1DC09091880340918703941791F097
:10557000E92FF0E0E957FC4F32819F5F9F7730932E
:1055800036019093880330913001306430933001BC
:10559000491305C0909131019F7D90933101DACF7D
:1055A00090918803291301C0FBCFE0918703F0E0BD
:1055B000E957FC4F828320938703809131018062F9
:1055C0008093310108958093360180913001806489
:1055D0008093300108958F929F92AF92BF92EF9285
:1055E000FF920F931F93CF93DF93CDB7DEB7A097B2
:1055F0000FB6F894DEBF0FBECDBF611571058105F2
:10560000910591F100E0842E912CA12CB12C102F4A
:10561000EE24E394F12CEC0EFD1EE00EF11C07FDD0
:10562000FA94A50194010E94DABCF7016083B901E4
:10563000CA010F5F611571058105910541F71F3F93
:1056400031F1E1E0F0E0EC0FFD1FE10FF11D17FD7E
:10565000FA9580818A3010F097E301C090E3890FBA
:105660000E949B2A1150EBCF80E3A0960FB6F894CE
:10567000DEBF0FBECDBFDF91CF911F910F91FF9085
:10568000EF90BF90AF909F908F900C949B2AA09624
:105690000FB6F894DEBF0FBECDBFDF91CF911F9143
:1056A0000F91FF90EF90BF90AF909F908F900895D3
:1056B0004F925F926F927F928F929F92AF92BF9222
:1056C000CF92DF92EF92FF92CF934B015C01C42FF8
:1056D00020E030E0A9010E94D3B887FF07C08DE227
:1056E0000E949B2AB7FAB094B7F8B094F12C60E00E
:1056F00070E080E09FE3FC1641F02DEC3CEC4CECBC
:105700005DE30E9439B9F394F6CF9B01AC01C5016A
:10571000B4010E948CBD4B015C010E94FFBE2B01B5
:105720003C014AE00E94EB2AFF2009F442C0C30179
:10573000B2010E94D8B89B01AC01C501B4010E941E
:105740008BBD4B015C018EE20E949B2ACF2D20E095
:1057500030E040E251E4C501B4010E9439B94B0187
:105760005C010E94F8BE6B01770FEE08FF0826016E
:105770003701F7FE0BC08DE20E949B2AF094E09463
:10578000D094C094C11CD11CE11CF11C4AE0C7019B
:10579000B6010E94EB2AB201C3010E94DAB89B0154
:1057A000AC01C501B4010E948BBD4B015C01C1502D
:1057B00071F6CF91FF90EF90DF90CF90BF90AF90B8
:1057C0009F908F907F906F905F904F9008951F9261
:1057D0000F920FB60F9211240BB60F922F938F9347
:1057E0009F93EF93FF938091880320918703821703
:1057F00091F0E82FF0E0E957FC4F92818F5F8F77AF
:105800009093360180938803909130019064909337
:105810003001281305C0809131018F7D80933101C3
:10582000FF91EF919F918F912F910F900BBE0F9051
:105830000FBE0F901F9018951F920F920FB60F92E8
:1058400011240BB60F922F938F939F93EF93FF9397
:105850009091360120918D0BE0918C0B81E08E0FA1
:105860008F73281729F0F0E0E457F44F9283E82F64
:10587000E0938C0BFF91EF919F918F912F910F905F
:105880000BBE0F900FBE0F901F9018959091C00007
:1058900095FFFCCF8093C60008958F929F92AF92A0
:1058A000BF92EF92FF920F931F93CF93DF93CDB7E9
:1058B000DEB7A0970FB6F894DEBF0FBECDBF61155F
:1058C00071058105910591F100E0842E912CA12CA8
:1058D000B12C102FEE24E394F12CEC0EFD1EE00E03
:1058E000F11C07FDFA94A50194010E94DABCF701AE
:1058F0006083B901CA010F5F6115710581059105CA
:1059000041F71F3F31F1E1E0F0E0EC0FFD1FE10F47
:10591000F11D17FDFA9580818A3010F097E301C0E0
:1059200090E3890F0E94462C1150EBCF80E3A096A4
:105930000FB6F894DEBF0FBECDBFDF91CF911F91A0
:105940000F91FF90EF90BF90AF909F908F900C942D
:10595000462CA0960FB6F894DEBF0FBECDBFDF91E8
:10596000CF911F910F91FF90EF90BF90AF909F90BC
:105970008F900895CF92DF92EF92FF926B017C019E
:1059800097FF0BC08DE20E94462CF094E094D094D7
:10599000C094C11CD11CE11CF11C4AE0C701B60136
:1059A000FF90EF90DF90CF900C944D2C8F929F92B0
:1059B000AF92BF92CF92DF92EF92FF92CF936B01A3
:1059C0007C01B42E20E030E0A9010E94D3B887FF0B
:1059D00007C08DE20E94462CF7FAF094F7F8F09495
:1059E000C0E060E070E080E09FE3CB1541F02DEC7B
:1059F0003CEC4CEC5DE30E9439B9CF5FF6CF9B01E4
:105A0000AC01C701B6010E948CBD6B017C010E94F4
:105A1000FFBE4B015C014AE00E944D2CCC2389F172
:105A2000C501B4010E94D8B89B01AC01C701B60101
:105A30000E948BBD6B017C018EE20E94462C20E00F
:105A400030E040E251E4C701B6010E9439B94B0190
:105A50005C010E94F8BE6B01770FEE08FF08C701DA
:105A6000B6010E94BA2CC701B6010E94DAB89B01A8
:105A7000AC01C501B4010E948BBD6B017C01C1501A
:105A8000F1F6CF91FF90EF90DF90CF90BF90AF9065
:105A90009F908F9008958DE00E94462C8AE00C9490
:105AA000462CCF93DF93EC018991882319F00E9453
:105AB000462CFACFDF91CF910C944B2D8091130E91
:105AC0009091140E981759F0E92FF0E0ED5EF14F28
:105AD00082819F5F9F779093140E90E008958FEFDF
