:100000000C9480150C94B1150C94B1150C94B11589
:100010000C94B1150C94B1150C94B1150C94B11548
:100020000C94B1150C94B1150C94B1150C94B11538
:100030000C94B1150C9453720C94B1150C94B11529
:100040000C94B1150C94ECB50C94B1150C94B1153D
:100050000C94B1150C94B1150C9408540C947DC0FB
:100060000C94B1150C94FE430C94C9430C94B11537
:100070000C94B1150C94B1150C94B1150C94B115E8
:100080000C94B1150C94B1150C94B1150C94B115D8
:100090000C94B1150C94B1150C94B1150C94B115C8
:1000A0000C94B1150C94B1150C94B1150C94B115B8
:1000B0000C94B1150C94B1150C94B1150C94B115A8
:1000C0000C94B1150C94B1150C94B1150C94B11598
:1000D0000C94B1150C94B1150C9458410C94234117
:1000E0000C94B115482B532B732B7E2B8D2BB52BDA
:1000F000F52B532C9F2CBA2CD32CDD2C0E2D152D2B
:10010000622DAD306B2DB42DDE2D142E1F2E502EF2
:100110005E2EB22FDB2F04301530AD309A30AD306B
:10012000AD30AD30AD30A53064326B3276327D32D9
:1001300084328F329C328B419D41AF41C041C841D6
:10014000F741CC41F741D041D441F741D841DC419E
:10015000E041E841F741F24144445644684479445F
:100160008144B0448544B04489448D44B0449144B2
:1001700095449944A144B044AB445C8F618F668F31
:10018000708F7A8FF38F848F8C8F948F9E8FA88F30
:10019000B28FC18FCB8FF38FD58FDF8FE98FE8BF01
:1001A000EBBFDABFDEBFE2BF22C0EFBFF3BFF9BFD4
:1001B000FDBF01C007C00BC00FC022C015C019C0D1
:1001C0001DC00C941DC00C94F2410C9415C00C94ED
:1001D00099440C94F52B0C9491440C94AF410C94DD
:1001E000B0440C948F320C949E8F0C9456440C9413
:1001F0006B2D0C948B410C9419C00C949ECB0C94D9
:10020000EFBF0C94668F0C9479440C94532C0C948F
:10021000F9BF0C94FDBF0C94A5300C949C320C9447
:10022000482B0C940BC00C945E2E0C940FC00C94B5
:10023000B42D0C94F3BF0C94C0410C94AB440C94BB
:10024000F7410C94502E0C94C8410C94532B0C94F1
:10025000E8BF0C94DC410C9407C00C94AD300C94B6
:10026000CC410C9485440C94DABF0C9401C00C94DE
:100270009F2C0C947D320C94DEBF0C940E2D0C94AC
:10028000E8410C9468440C94DF8F0C94C18F0C945B
:10029000E98F0C9444440C94F7CB0C94B28F0C94DB
:1002A000D4410C94B22F0C94E0410C9415300C9472
:1002B0009D410C94DE2D0C94BA2C0C94A1440C940A
:1002C000DD2C0C948D2B0C9495440C9404300C94E0
:1002D0007E2B0C94DB2F0C947A8F0C945C8F0C94F7
:1002E000708F0C94152D0C94142E0C9476320C9463
:1002F00089440C9484320C94B52B0C94D0410C940A
:100300009A300C946B320C94948F0C941F2E0C9496
:10031000E2BF0C94F38F0C9481440C94732B0C94D7
:10032000A88F0C9422C00C94D32C0C94622D0C94A6
:100330008D440C94618F0C94CB8F0C94848F0C940F
:100340008C8F0C94D58F0C94EBBF0C94D8410C94EB
:1003500064324E414E494E495459494E46CDCCCC5B
:100360003D0AD7233C17B7D13877CC2B329595E689
:10037000241FB14F0A000020410000C84200401C69
:100380004620BCBE4CCA1B0E5AAEC59D74434F4D91
:100390004D554E49434154494F4E004452595255D0
:1003A0004E004552524F5253004543484F00536C44
:1003B0006565702E2E2E004D65736820706F696E16
:1003C00074206F7574206F662072616E67650A0015
:1003D0004D302053746F70004D312053746F700096
:1003E000436F6E74696E756500436C69636B20744E
:1003F0006F20526573756D652E2E2E004E6F204D49
:100400006F76652E00456E642066696C65206C69A8
:1004100073740A00426567696E2066696C65206CBA
:100420006973740A004E6F206D656469610A005239
:100430006573756D696E6720534400286E6F206682
:10044000696C65290043757272656E742066696C0B
:10045000653A20005344207072696E74696E67209B
:100460006279746520004E6F742053442070726965
:100470006E74696E670A0044656C6574696F6E20FE
:100480006661696C65642C2046696C653A2000469B
:10049000696C652064656C657465643A00507269C6
:1004A0006E742074696D653A20000A537461747328
:1004B0003A2046696C616D656E7420757365643AA7
:1004C00020002C204C6F6E67657374206A6F623A4F
:1004D0002000546F74616C2074696D653A20002CA3
:1004E000204661696C65643A20002C2046696E697B
:1004F000736865643A20005072696E74733A200024
:1005000053746174733A200044454255473A004D94
:10051000313133205300416E79637562696320691C
:1005200033204D6567612053204F46462E004348D7
:10053000414D4245525F54454D50455241545552EC
:100540004500424142595354455050494E4700419D
:10055000524353004D4F54494F4E5F4D4F44455306
:1005600000544845524D414C5F50524F54454354FE
:10057000494F4E004C4F4E475F46494C454E414D0A
:1005800045004155544F5245504F52545F53445FBC
:100590005354415455530053444341524400505224
:1005A0004F4D50545F535550504F525400454D4598
:1005B0005247454E43595F504152534552004341C3
:1005C00053455F4C494748545F4252494748544E4F
:1005D00045535300544F47474C455F4C4947485497
:1005E0005300534F4654574152455F504F57455261
:1005F000004255494C445F50455243454E54004CCF
:100600004556454C494E475F44415441005A5F505E
:10061000524F4245004155544F4C4556454C0050B1
:1006200052494E545F4A4F420050524F4752455331
:1006300053004155544F5245504F52545F54454D0D
:100640005000564F4C554D45545249430045455076
:10065000524F4D0042494E4152595F46494C455F09
:100660005452414E534645520053455249414C5F06
:10067000584F4E5F584F4646004649524D574152DB
:10068000455F4E414D453A4D61726C696E20322E88
:10069000302E372E3220284F6374203138203230EC
:1006A00032302032303A30343A35312920534F55E8
:1006B0005243455F434F44455F55524C3A6874740A
:1006C00070733A2F2F6769746875622E636F6D2F90
:1006D0004D61726C696E4669726D776172652F4DFE
:1006E00061726C696E2050524F544F434F4C5F56AD
:1006F000455253494F4E3A312E30204D41434849DF
:100700004E455F545950453A416E7963756269634D
:10071000206933204D656761205320455854525558
:100720004445525F434F554E543A31205555494444
:100730003A63656465326132662D343161322D343D
:100740003734382D396231322D63353563363266B0
:1007500033363766660A002F2F2000416363656CCD
:1007600065726174696F6E3A2050005741524E496C
:100770004E4721204C6F77205A204A65726B206DBE
:100780006179206C65616420746F20756E77616E8D
:10079000746564207061757365732E0A0020204DA6
:1007A00061783A200020204D696E3A2000536F6630
:1007B0007420656E6473746F70733A200046523A09
:1007C0000020466C6F773A20004D424C2041646A0D
:1007D000757374205A0020643A0020693A00207032
:1007E0003A00496E76616C6964206578747275644C
:1007F00065720A006469730043290A0061626C65CE
:100800006420286D696E2074656D702000436F6CE4
:100810006420657874727564657320617265200068
:1008200046696C616D656E742072756E6F757420AB
:10083000004D34323120696E636F727265637420CB
:10084000706172616D657465722075736167650AA8
:10085000004F666673657473204170706C696564DF
:10086000004572723A20546F6F2066617221005405
:100870006F6F206661722066726F6D2072656665AB
:1008800072656E636520706F696E740A004545502D
:10089000524F4D204F4B0A00205A323A00447561A6
:1008A0006C20456E6473746F702041646A75737454
:1008B0006D656E7420286D6D293A20002028302D3A
:1008C000313029002076616C7565206F7574206F5A
:1008D000662072616E676500416476616E636520B3
:1008E0004B3D004D383400446F6E65207072696E68
:1008F00074696E672066696C650A004D3737004D74
:10090000333100A903441BA2039B038D034A3138F2
:10091000004A3034004A313200473238004A32311E
:10092000004A31340043616E6E6F7420656E7465E9
:1009300072207375626469723A20004D313038005C
:100940005370656369616C204D656E753A2053651F
:100950006E64205573657220436F6E6669726D61B7
:1009600074696F6E0A004D3530300A4D33303020D7
:10097000503130352053313130380A4D333030204A
:10098000503231302053313636310053706563694F
:10099000616C204D656E753A205361766520454542
:1009A00050524F4D0A004D3530320A4D3330302011
:1009B000503130352053313636310A4D3330302006
:1009C0005032313020533131303800537065636913
:1009D000616C204D656E753A204C6F6164204657FE
:1009E0002044656661756C74730A004D33303320A2
:1009F000452D312053363520433620553100537074
:100A0000656369616C204D656E753A204175746F40
:100A10002054756E6520486F746265642050696467
:100A20000A004D31303620533230340A47342050DA
:100A30003530300A4D333033204530205332313594
:100A400020433135205531005370656369616C2056
:100A50004D656E753A204175746F2054756E652032
:100A6000486F74656E64205049440A004732380A62
:100A7000473239005370656369616C204D656E754E
:100A80003A204175746F20426564204C6576656C30
:100A9000696E670A004D313430205336350053708B
:100AA000656369616C204D656E753A2050726568AA
:100AB000656174204265640A0063616E63656C0061
:100AC0005072696E742041626F727465640044698B
:100AD000736D6973730055492041626F7274656468
:100AE000004A313600726573756D65004D323520F0
:100AF000500A4D323400526573756D6500554920BA
:100B00005061757365004739310A473120452D32F0
:100B10002046313830300A473930004A3035002F0E
:100B20002E2E003C5370656369616C204D656E75B7
:100B30003E003C7370656369616C6D6E753E003C90
:100B40004175746F2054756E6520486F74626564DA
:100B5000205049443E003C3034487442656450495A
:100B6000443E003C4175746F2054756E6520486F9B
:100B700074656E64205049443E003C3033487445EF
:100B80006E645049443E003C4175746F2042656478
:100B9000204C6576656C696E673E003C30324142A0
:100BA0004C3E003C50726568656174206265643E2D
:100BB000003C303150726568744265643E003C45CB
:100BC0007869743E003C53656E64205573657220ED
:100BD000436F6E6669726D6174696F6E3E003C3082
:100BE0003753656E644D3130383E003C5361766555
:100BF00020454550524F4D3E003C303653764545DA
:100C000050524F4D3E003C4C6F616420465720448B
:100C1000656661756C74733E003C303546574465BB
:100C2000666C74733E00454E44003C5370656369C6
:100C3000616C5F4D656E753E004A303200464E2055
:100C400000322E302E372E32004A333320004F4BE5
:100C5000004739310A25730A4739300047312045AA
:100C600025694635303000473120452D302E31463C
:100C700025690047312045302E314625690047312E
:100C8000205A2569462569004731205A2D302E31DA
:100C9000462569004731205A302E314625690047E4
:100CA000312059256946256900473120592D302EBC
:100CB000314625690047312059302E3146256900DB
:100CC00047312058256946256900473120582D3085
:100CD0002E314625690047312058302E314625698E
:100CE00000473238205A00473238205900473238FE
:100CF0002058004132305620004731205A31300010
:100D00004A3230005072696E7465722068616C748A
:100D100065642E206B696C6C28292063616C6C659E
:100D2000642100203939393A39393900204D002001
:100D30004820004137562000413656202D2D2D00E9
:100D40004136562000205A3A200020593A200041CE
:100D5000355620583A200041345620004133562061
:100D600000413256200041315620004130562000CB
:100D70004D38340A4D32370024F4D43050C38E201D
:100D8000C2A24017828B7011127A910D816CD90A20
:100D9000A861E108C7586607615143061E4B5D050F
:100DA000C145A7041A411104093D98037139310363
:100DB0004036DB0265339102D4305402802E1D028E
:100DC000632CEE01752AC501B028A001102781010E
:100DD0008F2564012B244B01E0223401AC211F013B
:100DE0008D200D01801FFC00841EED00971DDF008B
:100DF000B81CD200E61BC600201BBC00641AB2005F
:100E0000B219A8000A19A0006A189900D117910018
:100E100040178B00B516840031167E00B31579009B
:100E20003A157300C7146F0058146A00EE13660079
:100E30008813630025135E00C7125B006C12570015
:100E400015125400C111510070114F0021114B00B7
:100E5000D61049008D104700461044000210420091
:100E6000C00F4000800F3E00420F3C00060F3B00C9
:100E7000CB0E3800930E37005C0E3500270E340081
:100E8000F30D3200C10D3100900D3000600D2E00C9
:100E9000320D2D00050D2C00D90C2B00AE0C2900B5
:100EA000850C29005C0C2700350C27000E0C260051
:100EB000E80B2400C40B2400A00B23007D0B2300AF
:100EC0005A0B2100390B2100180B2000F80A1F00D3
:100ED000D90A1E00BB0A1E009D0A1D00800A1D00C3
:100EE000630A1C00470A1B002C0A1B00110A1A0087
:100EF000F7091A00DD091900C4091900AB09190026
:100F0000920917007B091800630917004C091600A5
:100F100036091600200916000A091500F508150003
:100F2000E0081400CC081400B8081400A408140049
:100F3000900813007D0812006B0813005808120077
:100F4000460812003408110023081100120811008D
:100F500001081100F0071000E0071000D007100092
:100F6000C0071000B0070F00A107100091070E0086
:100F700083070F0074070F0065070E0057070E0068
:100F800049070E003B070D002E070E0020070D003D
:100F900013070D0006070D00F9060C00ED060D0005
:100FA000E0060C00D4060C00C8060C00BC060C00C1
:100FB000B0060C00A4060B0099060C008D060B0071
:100FC00082060B0077060B006C060B0061060A0018
:100FD00057060B004C060A0042060A0038060A00B3
:100FE0002E060A0024060A001A060A001006090046
:100FF00007060A00FD050900F4050900EB050900D4
:10100000E2050900D9050900D0050900C705090056
:10101000BE050900B5050800AD050800A5050900D5
:101020009C050800940508008C050800840508004C
:101030007C050800740508006C05070065050800BC
:101040005D050700560508004E0507004705070027
:101050004005080038050700310507002A0507008C
:10106000230507001C050600160507000F050700ED
:101070000805060002050700FB040600F50407004A
:10108000EE040600E8040600E2040700DB040600A4
:10109000D5040600CF040600C9040600C3040600F8
:1010A000BD040600B7040600B1040500AC04060048
:1010B000A6040600A00405009B0406009504050094
:1010C000900406008A0405008504050080040600DB
:1010D0007A04050075040500700405006B04050022
:1010E00066040500610405005C0405005704050062
:1010F000520405004D0405004804050043040500A2
:101100003E0404003A0405003504050030040400E0
:101110002C04050027040400230405001E04040019
:101120001A04040016040500110404000D04040050
:10113000090405000404040000040400FC03040086
:10114000F8030400F4030400F0030400EC030400BB
:10115000E8030400E4030400E0030400DC030400EB
:10116000D8030400D4030400D0030400CC0304001B
:10117000C8030300C503030024F404D9201BC40CD6
:101180005C0E9804C4095F0265077101F405F9005B
:10119000FB04B30048048700C103690058035500ED
:1011A00003034500BE023A008402310053022A00C4
:1011B0002902250004022000E4011C00C8011900D6
:1011C000AF01170098011400840113007101100091
:1011D0006101100051010E0043010D0036010B00AA
:1011E0002B010B0020010B00150109000C01090067
:1011F00003010800FB000800F3000800EB000700F3
:10120000E4000600DE000600D8000600D20006005A
:10121000CC000500C7000500C2000500BD000400A9
:10122000B9000400B5000400B1000400AD000400E2
:10123000A9000400A5000300A20003009F00040011
:101240009B00030098000300950002009300030038
:10125000900003008D0002008B0003008800020054
:101260008600020084000300810002007F0002006B
:101270007D0002007B00020079000200770001007F
:10128000760002007400020072000100710002008A
:101290006F0002006D0001006C0002006A00010096
:1012A000690002006700010066000100650001009E
:1012B00064000200620001006100010060000100A2
:1012C0005F0002005D0001005C0001005B000100A6
:1012D0005A000100590001005800010057000100A8
:1012E00056000100550001005400010053000000A9
:1012F00053000100520001005100010050000100A4
:101300004F0001004E0000004E0001004D000100A2
:101310004C0001004B0000004B0001004A0001009E
:10132000490001004800000048000100470001009A
:101330004600000046000100450000004500010095
:10134000440001004300000043000100420000008F
:101350004200010041000000410001004000010086
:101360003F0000003F0001003E0000003E00010081
:101370003D0000003D0001003C0000003C0000007A
:101380003C0001003B0000003B0001003A0000006F
:101390003A00010039000000390001003800000067
:1013A000380000003800010037000000370001005D
:1013B0003600000036000000360001003500000055
:1013C000350000003500010034000000340000004A
:1013D000340001003300000033000000330001003E
:1013E0003200000032000000320001003100000035
:1013F000310000003100010030000000300000002A
:10140000300001002F0000002F0000002F0000001E
:101410002F0001002E0000002E0000002E00010011
:101420002D0000002D0000002D0000002D00010007
:101430002C0000002C0000002C0000002C000100FB
:101440002B0000002B0000002B0000002B000100EF
:101450002A0000002A0000002A0000002A000100E3
:1014600029000000290000002900000029000000D8
:1014700029000100280000002800000028000000CA
:1014800028000000280001002700000027000000BD
:1014900027000000270000002700010026000000B0
:1014A00026000000260000002600000026000100A3
:1014B0002500000025000000250000002500000098
:1014C0002500000025000100240000002400000089
:1014D000240000002400000024000100230000007C
:1014E0002300000023000000230000002300000070
:1014F0002300000023000100220000002200000061
:101500002200000022000000220000002200010052
:101510002100000021000000210000002100000047
:101520002100000021000000210001002000000037
:10153000200000002000000020000000200000002B
:101540002000000020000000200001001F0000001B
:101550001F0000001F0000001F0000001F0000000F
:101560001F0000001F0001001E0000001E00000000
:101570001E0000001E000000232C0000B822000006
:10158000561800003A0F0000B8080000B10400002F
:10159000710200003E0100004A3137002020506CEB
:1015A000616E6E65724275666665724279746573C6
:1015B0003A20002046726565204D656D6F72793A5C
:1015C0002000436F6D70696C65643A204F6374202E
:1015D000313820323032300A00204C61737420558B
:1015E0007064617465643A20323032302D31302DB0
:1015F0003135207C20417574686F723A202868303C
:1016000073636831383020686F7363686940616E56
:10161000756B69732E6465290A00322E302E372EC1
:10162000320A004D61726C696E0020536F667477E8
:101630006172652052657365740A00205761746396
:1016400068646F672052657365740A002042726F88
:10165000776E206F75742052657365740A0020459B
:10166000787465726E616C2052657365740A0050FF
:101670006F77657255700A006175746F25632E6708
:10168000004732385859004D3130303100657272A0
:101690006F722077726974696E6720746F20666953
:1016A0006C650A00446F6E6520736176696E672011
:1016B00066696C652E0A004D323900656E6473747C
:1016C0006F7073206869743A20001000C90210011D
:1016D0002C014001220170011801B0010E01F0013E
:1016E00004015002FA00B002F0003003E600D0031B
:1016F000DC009004D2007005C800A006BE000008FF
:10170000B400B009AA00D00BA000600E96006011D2
:101710008C000015820020197800C01D6E00A022E8
:101720006400B0275A00902C500000314600E0348D
:101730003C0010383200903A2800603C1E00A03D6A
:101740001400803E0A00203F00004572726F722034
:1017500077726974696E6720746F20454550524FE7
:101760004D210A004361703A00656E7175657565BB
:10177000696E672022006F6B00526573656E643A74
:10178000200025697920256964202569682025695C
:101790006D202569730042656420436F6F6C696E2C
:1017A000672E2E2E004265642048656174696E675D
:1017B0002E2E2E0023646566696E652044454641E1
:1017C000554C545F004B6420004B6920004B702047
:1017D00000504944204175746F74756E65206669C8
:1017E0006E69736865642120507574207468652083
:1017F0006C617374204B702C204B6920616E6420E7
:101800004B6420636F6E7374616E74732066726FC5
:101810006D2062656C6F7720696E746F20436F6E08
:1018200066696775726174696F6E2E680A00504947
:1018300044204175746F74756E65206661696C65CE
:1018400064212074696D656F75740A000A20436C09
:10185000617373696320504944200A00204B643A45
:101860002000204B693A2000204B703A20000A20CB
:101870004E6F206F76657273686F6F740A00205424
:10188000753A2000204B753A2000206D61783A208F
:1018900000206D696E3A200020643A2000206269C1
:1018A00061733A2000504944204175746F74756E1D
:1018B000652073746172740A005049442041757444
:1018C0006F74756E65206661696C6564212054656E
:1018D0006D706572617475726520746F6F206869D0
:1018E00067680A00504944204175746F74756E65CD
:1018F00000504944204175746F74756E65206661AF
:10190000696C656421204261642065787472756435
:101910006572206E756D6265720A00486561746952
:101920006E67204661696C65640048656174696E24
:1019300067206661696C6564004D313132205368FF
:101940007574646F776E00202D20496E76616C6926
:1019500064206578747275646572206E756D626559
:101960007220210A00544845524D414C2052554E98
:101970004157415900546865726D616C2052756E13
:1019800061776179004572723A204D415854454D56
:1019900050004D415854454D502074726967676539
:1019A000726564004572723A204D494E54454D505F
:1019B000004D494E54454D502074726967676572F9
:1019C000656400202F002042403A0020403A007019
:1019D000012C0190012701B0012201C0011D01F07D
:1019E0000118011002130130020E0160020901907A
:1019F000020401C002FF000003FA004003F500806A
:101A000003F000D003EB002004E6007004E100E0E6
:101A100004DC004005D700C005D2004006CD00D050
:101A200006C8008007C3003008BE00F008B900C037
:101A300009B400B00AAF00B00BAA00D00CA500009A
:101A40000EA000500F9B00C0109600501291000095
:101A5000148C00C0158700B0178200B0197D00D02B
:101A60001B7800001E730040206E0090226900F079
:101A700024640040275F0090295A00E02B55001095
:101A80002E500020304B0010324600E033410090D1
:101A9000353C001037370070383200A0392D00B0C7
:101AA0003A2800A03B2300603C1E00103D19009026
:101AB0003D1400103E0F00703E0A00C03E050000BD
:101AC0003F0000403FFBFF803FF6FFC03FF1FF0AB1
:101AD0004D6561737572656420706F696E74733AD9
:101AE0000A00337833206D6573682E205A206F66A4
:101AF000667365743A20002F2F616374696F6E3AC4
:101B000000626567696E00656E640070726F6D706B
:101B1000745F0073686F770044697361626C65522B
:101B2000756E6F75740050757267654D6F726500E4
:101B3000554E4B4E4F574E2053544154450047434A
:101B40004F44455F494E464F004C43445F5041551A
:101B500053455F524553554D450046494C414D450F
:101B60004E545F52554E4F55545F434F4E54494E5D
:101B700055450046494C414D454E545F52554E4FD8
:101B80005554004D38373620526573706F6E646956
:101B90006E672050524F4D50545F0053656E642065
:101BA0004D31303820746F20726573756D650A0091
:101BB00052656865617420446F6E650052656865A2
:101BC0006174696E672E2E2E00526568656174001F
:101BD0004865617465722054696D656F7574005352
:101BE000656E64204D31303820746F2068656174F3
:101BF000206E6F7A7A6C650A00486F74656E642097
:101C0000746F6F20636F6C640A0070617573656434
:101C100000726573756D656400627574746F6E0033
:101C20004C6F61642046696C616D656E7420540070
:101C3000496E736572742066696C616D656E74209F
:101C4000616E642073656E64204D3130380A005235
:101C50006573756D696E670020746F6F206C6F6EB1
:101C60006720657874727573696F6E20707265761F
:101C7000656E7465640A0020636F6C642065787417
:101C8000727573696F6E2070726576656E746564C7
:101C90000A002053697A653A200043616E6E6F74C2
:101CA000206F70656E207375626469722000534402
:101CB00020496E6974204661696C00534420636159
:101CC0007264206F6B0A006F70656E526F6F7420C4
:101CD0006661696C65640A00766F6C756D652E6966
:101CE0006E6974206661696C65640A004E6F2053EA
:101CF0004420636172640A004D3233202573006F03
:101D000070656E206661696C65642C2046696C653F
:101D10003A200046696C652073656C656374656480
:101D20000A0046696C65206F70656E65643A200034
:101D3000454E4420535542524F5554494E450A0092
:101D40002220706F73002220706172656E743A22D7
:101D500000535542524F5554494E452043414C4C37
:101D6000207461726765743A220053756263616C16
:101D70006C204F766572666C6F7700457863656599
:101D8000646564206D617820535542524F55544923
:101D90004E452064657074683A310A005772697460
:101DA000696E6720746F2066696C653A2000667200
:101DB00065736800646F696E67004E6F772000027C
:101DC00020573A007C3C3E5E2B3D3F2F5B5D3B2C19
:101DD0002A225C00000000C000000000000000009B
:101DE000FFFDFCFAF8F6F4F2F0EEECEAE9E7E5E3E1
:101DF000E1E0DEDCDAD9D7D5D4D2D0CFCDCBCAC89A
:101E0000C7C5C3C2C0BFBDBCBAB9B7B6B4B3B2B020
:101E1000AFADACAAA9A8A6A5A4A2A1A09E9D9C9A7C
:101E200099989795949392908F8E8D8B8A898887B5
:101E30008684838281807F7E7D7B7A7978777675D0
:101E400074737271706F6E6D6C6B6A6968676665CA
:101E500064636261605F5E5D5C5B5A5958585756B7
:101E6000555453525150504F4E4D4C4B4A4A49488D
:101E7000474646454443424241403F3E3E3D3C3B4F
:101E80003B3A393838373635353433323231303001
:101E90002F2E2E2D2C2B2B2A2929282727262525A6
:101EA00024232322212120201F1E1E1D1C1C1B1B3E
:101EB0001A191918181716161515141313121211CA
:101EC00011100F0F0E0E0D0D0C0C0B0A0A0909084C
:101ED00008070706060505040403030202010000C3
:101EE000000057430000574300004D43536574748E
:101EF000696E67732053746F726564005365747400
:101F0000696E67732053746F7265642028005354A0
:101F10004F505045442E20005072696E74657220F7
:101F200073746F707065642064756520746F2065CC
:101F300072726F72732E204669782074686520650E
:101F400072726F7220616E6420757365204D39392D
:101F50003920746F20726573746172742E20285456
:101F6000656D706572617475726520697320726544
:101F70007365742E205365742069742061667465DE
:101F8000722072657374617274696E67290A004EFB
:101F90006F20436865636B73756D20776974682083
:101FA0006C696E65206E756D6265722C204C617374
:101FB00074204C696E653A2000636865636B7375C5
:101FC0006D206D69736D617463682C204C6173744E
:101FD000204C696E653A20004C696E65204E756D27
:101FE000626572206973206E6F74204C6173742077
:101FF0004C696E65204E756D6265722B312C204CDC
:10200000617374204C696E653A20004D31313000A7
:1020100053442072656164206572726F720A0021F8
:1020200021204B494C4C20636175736564206279B3
:1020300020746F6F206D75636820696E61637469C9
:1020400076652074696D65202D2063757272656EEA
:102050007420636F6D6D616E643A200062757379F0
:102060003A2070617573656420666F7220696E70C6
:1020700075740A00627573793A20706175736564CE
:1020800020666F7220757365720A00627573793A03
:102090002070726F63657373696E670A004D6564C3
:1020A000696120496E736572746564004D65646989
:1020B000612052656D6F76656400706175736500AF
:1020C0004D363030002066696C616D656E745F72EC
:1020D000756E6F7574200066696C616D656E745FF6
:1020E00072756E6F757420540046696C616D656E13
:1020F0007452756E6F75742054004F46460A004640
:102100006164652048656967687420004661696C90
:10211000656420746F20656E61626C652042656441
:10212000204C6576656C696E670A004D65736820A2
:10213000426564204C6576656C20646174613A0A7E
:1021400000496E76616C6964206D6573682E0A00C3
:10215000206E6F7420656E74657265642E0A0020AF
:102160006F6620004D424C2047323920706F696EF7
:102170007420004A206F7574206F662072616E674C
:10218000652028302D0049206F7574206F662072FD
:10219000616E67652028302D004D65736820707270
:1021A0006F62696E6720646F6E652E0A00537461FA
:1021B0007274206D6573682070726F62696E67203B
:1021C00077697468202247323920533122206669AA
:1021D0007273742E0A004732380A4732392053325C
:1021E00000686173206E6F20646174612E0A004D77
:1021F00065736820426564204C6576656C696E671E
:10220000200053206F7574206F662072616E6765C1
:102210002028302D35292E0A00204D393220580033
:1022200020496E76616C69642065787472756465A6
:10223000722000486F6D696E67204661696C656445
:10224000005761726E696E673A20486F6D696E67FC
:102250002042756D702044697669736F72203C204E
:10226000310A0020456E6473746F703F0A0042614A
:102270006420000000484200004842000080400204
:1022800002040000A0400000A04000000040000048
:1022900059430000574300004D43FFFFFF0000007B
:1022A000010000000100008000555555000000406D
:1022B0000033333300AAAA2A0049922400000020E8
:1022C00000C7711C0099991900D145170055551583
:1022D000003BB1130024491200111111000000103D
:1022E000000F0F0F00E3380E0043790D00CCCC0C2B
:1022F00000C3300C00E8A20B0064210B00AAAA0A5C
:1023000000703D0A009DD80900427B090092240913
:1023100000DCD3080088880800104208000000088C
:1023200000F0C107008787070075500700711C0780
:10233000003EEB0600A1BC0600699006006666063A
:1023400000703E06006118060017F4050074D10500
:10235000005BB00500B2900500627205005555059E
:102360000078390500B81E0500050505004EEC048F
:102370000087D40400A1BD040090A7040049920482
:1023800000C17D0400EE690400C756040044440403
:10239000005C320400082104004110040000000425
:1023A000003FF00300F8E0030026D20300C3C3039C
:1023B00000CCB503003AA803000A9B0300388E0343
:1023C00000C08103009F750300D0690300505E03C5
:1023D000001D53030034480300913D0300333303D1
:1023E0000016290300381F030097150300300C0363
:1023F00000030303000BFA020049F10200BAE802ED
:10240000005CE002002DD802002DD0020059C80265
:1024100000B0C0020031B90200DAB10200AAAA027B
:1024200000A0A30200BC9C0200FA9502005C8F028F
:1024300000DF88020082820200457C0200277602CB
:102440000027700200436A02007C640200D05E0232
:10245000003F590200C85302006F70656E0054526D
:10246000494747455245440066696C616D656E7425
:10247000007A325F6D696E007A5F6D696E00795F18
:102480006D696E00785F6D696E005265706F727471
:10249000696E6720656E6473746F70207374617405
:1024A00075730A006E6F74696669636174696F6E33
:1024B00020002062797465733B2063726320004EB4
:1024C0006F20454550524F4D2E0A00454550524F02
:1024D0004D206461746173697A65206572726F72F0
:1024E0002E0A002073746F726564207365747469BA
:1024F0006E67732072657472696576656420280062
:10250000202863616C63756C6174656429210A001D
:1025100020213D2000454550524F4D20435243203D
:102520006D69736D61746368202D202873746F72F8
:102530006564292000496E6465783A200044494763
:1025400049504F5453204C6F616465640A004449FC
:102550004749504F5453204C6F6164696E670A00BD
:10256000204D61726C696E3D563832290A0045452E
:1025700050524F4D2076657273696F6E206D69738E
:102580006D617463682028454550524F4D3D0020D1
:102590005200454550524F4D20496E697469616C37
:1025A000697A65640A0048617264636F64656420D7
:1025B00044656661756C742053657474696E6773E5
:1025C000204C6F616465640A003B200020204D367A
:1025D0003033200020204D34313220530046696CC6
:1025E000616D656E742072756E6F75742073656EA3
:1025F000736F723A0020550046696C616D656E74A8
:10260000206C6F61642F756E6C6F6164206C656EF9
:10261000677468733A0020204D393030204B004CED
:10262000696E65617220416476616E63653A00206F
:10263000204D33303420500020204D333031205095
:10264000005049442073657474696E67733A0020C2
:10265000204D36363600456E6473746F70206164A9
:102660006A7573746D656E743A00202047323920A4
:102670005334205A00204A00202047323920533357
:1026800020490020204D3432302053004D657368BE
:1026900020426564204C6576656C696E673A00205F
:1026A000204D323036205800486F6D65206F6666C9
:1026B0007365743A0020204D323035204200416469
:1026C00076616E6365643A20423C6D696E5F736546
:1026D000676D656E745F74696D655F75733E2053D9
:1026E0003C6D696E5F66656564726174653E205419
:1026F0003C6D696E5F74726176656C5F666565647A
:10270000726174653E20583C6D61785F785F6A65E0
:10271000726B3E20593C6D61785F795F6A65726BC0
:102720003E205A3C6D61785F7A5F6A65726B3E202D
:10273000453C6D61785F655F6A65726B3E00202085
:102740004D323034205000416363656C65726174B2
:10275000696F6E2028756E6974732F7332293A2061
:10276000503C7072696E745F616363656C3E2052A9
:102770003C726574726163745F616363656C3E2073
:10278000543C74726176656C5F616363656C3E0096
:1027900020204D3230312058004D6178696D756DC3
:1027A00020416363656C65726174696F6E20287582
:1027B0006E6974732F7332293A0020450020204D32
:1027C0003230332058004D6178696D756D20666533
:1027D000656472617465732028756E6974732F73F4
:1027E000293A0053746570732070657220756E69A4
:1027F000743A0020440020204D3230302053002015
:1028000044697361626C65640A0046696C616D6558
:102810006E742073657474696E67733A0020286D56
:102820006D29002020473231202020203B20556E8A
:1028300069747320696E206D6D000000FA4300001A
:10284000F0420000C0400000F0410000A042000043
:10285000A0420000C84314EEC443B80B0000D007E8
:1028600000003C00000010270000000022002500AE
:1028700028002B002E003100340002010000050169
:1028800008010B0100002100240027002A002D0070
:102890003000330001010000040107010A010505B1
:1028A0000505070508080808020202020A0A0808C6
:1028B00004040404010101010101010103030303F4
:1028C00003030303040707070C0C0C0C0C0C0C0C83
:1028D0000202020206060606060606060B0B0B0B94
:1028E0000B0B0B0B010210202008081020401020B9
:1028F00040800201020108040201010204081020C4
:1029000040808040201008040201800402018040C1
:10291000201008040201080402010102040810202A
:10292000408001020408102040804A3031004A30C3
:1029300030004A3233000A4D3330302050323030CC
:102940002053313536370A4D333030205032303055
:102950002053313137340A4D33303020503230304B
:102960002053313536370A4D333030205032303035
:102970002053313137340A4D33303020503230302B
:1029800030205331353637004A313500526568659D
:1029900061742066696E69736865642E004C6F61AE
:1029A000642046696C616D656E74004E6F7A7A6C56
:1029B00065205061726B6564004520255300486FA7
:1029C0006D65202573257325732046697273740025
:1029D00048656174657254696D656F757400466908
:1029E0006C616D656E742050757267696E672E2E0E
:1029F0002E0000000A0B02090C0D0E08070304014B
:102A000000000000000000000000000000000000C6
:102A10000000000000000000000000000000121193
:102A20001000000000000000000000000000000096
:102A3000000000000000000020436F756E742058F5
:102A40003A0042656400453100626564002C2073E1
:102A5000797374656D2073746F707065642120489C
:102A600065617465725F49443A2000004A31310063
:102A7000706F7765726F6666005072696E7465720A
:102A80002068616C7465642E206B696C6C28292049
:102A900063616C6C6564210A006563686F3A004588
:102AA00072726F723A005072696E74205061757361
:102AB000656400416E796375626963206933204DF6
:102AC00065676120532052656164792E00507269F8
:102AD0006E74696E672E2E2E00220A00556E6B6E84
:102AE0006F776E20636F6D6D616E643A20220020F7
:102AF000453A00205A3A0020593A0000F7CB9ECBC5
:102B000011241FBECFEFD1E2DEBFCDBF00E00CBF6E
:102B100012E0A0E0B2E0E6E1F2EB01E00BBF02C0A0
:102B200007900D92AE3BB107D9F72CE1AEEBB2E0C6
:102B300001C01D92A139B207E1F715E1CFE7D5E158
:102B400000E006C021970109802FFE010E946DD68A
:102B5000CE37D10780E00807A9F70E94D0C40C94B3
:102B6000F9D80C9400002F923F924F925F926F928F
:102B70007F928F929F92AF92BF92CF92DF92EF920D
:102B8000FF920F931F93CF93DF93CDB7DEB7E197FB
:102B90000FB6F894DEBF0FBECDBF89AB2091C9023E
:102BA00028A711E01093C9028091C90A8D3409F455
:102BB000C9C2843511F40C94EE26873411F00C94BC
:102BC00013278091C70A9091C80A8C31910509F4A6
:102BD00066C18CF48430910509F408C11CF4029795
:102BE00090F1ACC28531910511F40C9415274B97E7
:102BF00009F43BC1A3C28A35910509F464C144F4C8
:102C00008D31910509F45BC18A9709F4D1C196C24F
:102C10008B35910509F45BC18C35910509F08EC2A5
:102C20001AEA212E12E0312E03EFE02E04E1F02EFD
:102C300088E092E09DA38CA38FE7C82E8CE1D82E6C
:102C400000E010E085C18091E109813011F00C9421
:102C5000152720E0C22E25E1D22E38E0E32E32E007
:102C6000F32E4FE7A42E4CE1B42E10E088E5810F3F
:102C70000E94245C882311F10E949F5B2B013C0180
:102C8000812F0E940893882351F0F7012081318120
:102C900042815381C301B2010E9476D609C0F50179
:102CA0002081318142815381C301B2010E9475D6D6
:102CB000F60160837183828393830AC0F701808168
:102CC0009181A281B381F60180839183A283B38332
:102CD0001F5FF4E0CF0ED11C24E0E20EF11C34E0C3
:102CE000A30EB11C133011F685E40E94245C8823E6
:102CF00001F10E949F5B6B017C0183E00E940893BD
:102D0000882371F02091140230911502409116022F
:102D100050911702C701B6010E9476D66B017C0163
:102D2000C0920C15D0920D15E0920E15F0920F1571
:102D300010C08091140290911502A0911602B091DA
:102D4000170280930C1590930D15A0930E15B09358
:102D50000F1540E050E0BA0186E40E94164520E0DD
:102D600030E0A9010E94F9D7181684F40E949F5BF5
:102D700020E030E040E752E40E94F9D66093680218
:102D80007093690280936A0290936B0280918E1314
:102D900083FD28C08091BC03882321F12091140277
:102DA00030911502409116025091170260910C1556
:102DB00070910D1580910E1590910F150E9475D68A
:102DC0002091C9033091CA034091CB035091CC03A9
:102DD0000E9476D66093C9037093CA038093CB0395
:102DE0009093CC030E94EBA20C94152780E50E94DF
:102DF000245C882329F00E9435946B017C0103C078
:102E0000C12CD12C760183E50E94245C882361F0DB
:102E10000E949F5B20E030E04AE754E40E942FD2FA
:102E20000E9472D76B017C010E943E998091941B95
:102E3000811105C060E08EEA93E00E9416AE0E9408
:102E400071C0C60ED71EE81EF91E0E9471C0DC01BB
:102E5000CB018C199D09AE09BF09B7FD02C00C94C6
:102E6000152780E00E943E8CF0CF0E945BBF81114D
:102E70000C9415278CE0EDE6F2E0DE01119601904E
:102E80000D928A95E1F760E070E080E50E94E7939B
:102E9000BE016F5F7F4F0E9474A90C94152780912B
:102EA000FF148770873011F00C941E2760E08FE4C8
:102EB0000E94929481110C9415270C941E270E9455
:102EC00082970C9415271092C8020C9415278FE056
:102ED0008093C8020C9415270E949F5B2B013C0134
:102EE000133049F0F60120813181428153810E94E3
:102EF00075D62B013C01ECA1FDA1208131814281DD
:102F00005381C301B2010E9475D64B015C012DEBC8
:102F100037E346E855EB0E94F9D787FD21C02DEB3A
:102F200037E346E855E3C501B4010E94C9D118163C
:102F3000BCF01F5FF4E0EF0EF11C2CA13DA12C5F53
:102F40003F4F3DA32CA334E0C30ED11C143031F10C
:102F5000F10181911F010E94245C882351F3BCCFB1
:102F6000133051F4409214025092150260921602EE
:102F70007092170201E0DDCFA5019401F701608195
:102F80007181828193810E9476D6F701608371837B
:102F900082839383812F0E947EA0CBCF002321F0D8
:102FA00084E192E00E94EA8B0E9493A70C9415277B
:102FB0008091E109813011F00C94152789E40E9479
:102FC000245CF82E882321F00E946796182F01C0F8
:102FD00010E08AE40E94245C082F882319F00E94E4
:102FE000679601C080E0FF2011F0133020F4002329
:102FF00041F0833030F087EB93E00E94B6C10C942F
:10300000152790E1E8E0F2E0A0E0B5E101900D9233
:103010009A95E1F7FF2091F094E01902F001112454
:10302000E259F54E408151816281738140930015D0
:10303000509301156093021570930315002391F0CE
:1030400024E08202F0011124EE59F54E8081918135
:10305000A281B3818093041590930515A093061562
:10306000B093071540E050E0BA0186E40E9416458F
:103070006B017C0120E030E0A9010E94F9D718160D
:103080005CF420E030E040E752E4C701B6010E9462
:10309000F9D66B017C0103C0C12CD12C7601809044
:1030A000680290906902A0906A02B0906B0220E0E2
:1030B00030E0A901C701B6010E94C9D1882341F0BF
:1030C000C0926802D0926902E0926A02F0926B02AA
:1030D000009106021091070284E690E090930702A7
:1030E00080930602C0903202D0903302E090340206
:1030F000F090350280E090E0A0E8BFE380933202D8
:1031000090933302A0933402B09335020E94EBA255
:103110008092680290926902A0926A02B0926B0259
:103120001093070200930602C0923202D09233023B
:10313000E0923402F09235020C9415270E94C2C42A
:103140000C9415278091C70A9091C80A873791057A
:1031500011F40C949E200CF0EAC08E34910509F411
:103160000FC40CF05DC08931910509F4CAC21CF589
:103170008431910509F436C27CF48131910509F45A
:103180001DC22CF4029708F4D3C10C94EB2642978D
:1031900009F415C60C94EB268631910509F457C243
:1031A0000CF451C28731910509F45BC2489709F4C8
:1031B0006DC20C94EB268E31910509F40FC3ACF46B
:1031C0008B31910509F4AFC20CF49FC28C3191058B
:1031D00009F4FCC24D9711F00C94EB268091931BDF
:1031E0008E7F8093931B0C9415278B34910509F4E3
:1031F000B9C34CF48F31910509F494C3809709F455
:103200004EC30C94EB268C34910509F4AFC38D3476
:10321000910511F00C94EB260E94D9880C94152787
:103220008B36910509F4E7C40CF043C08535910550
:1032300009F4FCC54CF58235910509F4B0C5D4F408
:103240008135910511F00C94EB260E9491540E9457
:10325000D9880E944F990E94433F68EE73E080E056
:1032600090E00E94976060E086E195E00E9416AED3
:103270000C9415278335910509F499C5843591057A
:1032800009F49DC50C94EB268836910509F40AC40F
:1032900034F48C35910509F4EDC50C94EB26893690
:1032A000910509F471C48A36910509F481C40C941E
:1032B000EB268037910511F40C9415278CF48D368C
:1032C000910509F40FC414F40C9415278E3691055A
:1032D00009F49BC48F36910509F4AAC40C94EB261B
:1032E0008337910509F464C68CF48137910509F49C
:1032F000E3C48237910511F00C94EB260E94C6C3FB
:1033000082E798E10E944EC10C94152785379105FC
:1033100009F4D0C68637910511F00C94EB26009184
:10332000C50A1091C60A94E0F12C40E0EBC6803348
:1033300031E0930711F40C94AD230CF06CC08C3C7D
:10334000910509F497C76CF58B39910509F4FBC415
:1033500084F48937910509F4FCC60CF4F2C68D3764
:10336000910509F418C58C38910509F4CAC40C9468
:10337000EB26883C910509F4F3C64CF48E3B91058D
:1033800011F00C94EB260E94CF4A0C941527893C2F
:10339000910509F42AC78B3C910509F449C70C949F
:1033A000EB268D3D910511F40C945E228CF48E3C3D
:1033B000910509F479C70CF467C7833D910509F4B9
:1033C00090C78C3D910511F40C9437220C94EB2698
:1033D0008D32F1E09F0711F40C942E236CF48232AD
:1033E00031E0930711F40C94B3228C32914011F424
:1033F0000C9419230C94EB268E32F1E09F0711F404
:103400000C9420248F32914011F00C94EB260E94F2
:103410002D450C941527873F31E0930711F40C9448
:10342000A0250CF043C0853AF1E09F0711F40C94FD
:103430006E24FCF48A3931E0930711F40C941527BB
:103440004CF48039914011F00C94EB260E943E9987
:103450000C9415278C3921E0920711F40C94642404
:10346000843A914011F00C94EB260E94A7940C949E
:103470001527843FE1E09E0711F40C949A253CF453
:103480008C3A914011F40C943D250C94EB26853F29
:1034900031E0930711F40C949D25863F914011F083
:1034A0000C94EB260E94AEB60C9415278A39F2E0F4
:1034B0009F0711F40C944126DCF48C3032E0930722
:1034C00011F40C94B9253CF4883F914011F40C940C
:1034D000A8250C94EB26883522E0920711F40C9471
:1034E000C6258B35924011F40C94C9250C94EB261B
:1034F000803AE3E09E0709F407C26CF48C3623E0BF
:10350000920711F40C9415278438934011F40C940D
:103510005A260C94EB26873EE3E09E0711F40C94A8
:10352000C326893E934011F40C94D1260C94EB26CB
:1035300080E50E94245C882329F00E9435946B0169
:103540007C0103C0C12CD12C760183E50E94245C50
:10355000882361F00E949F5B20E030E04AE754E45A
:103560000E942FD20E9472D76B017C010E943E996B
:103570008091C50A9091C60A009719F00E94E3BE97
:1035800004C089EE93E00E9491AE8091C70A9091A9
:10359000C80A892B19F068ED73E002C060ED73E092
:1035A00020E030E040EE53E082E00E94A35C40E087
:1035B000C701B6010E94F73E0C9415278091C10AFD
:1035C00084FF02C00C9400288091C30A87FF02C0C8
:1035D0000C9400288091C40A837011F00C94002888
:1035E0000C941D288091931B83FF25C084E194E0F7
:1035F0000E94B6C18091931B83FF17C08CE198E1B4
:103600000E94707C8BE1ECE1F8E1DE011196019003
:103610000D928A95E1F760E070E0CE0101960E947C
:103620000E77CE0101960E94757C85E094E00E94A1
:10363000B6C10C9415270E9407C285E294E00E944F
:10364000B6C10C9415270E94BF730C9415270E94D5
:103650000A738091931B877F80628093931B0C94E5
:103660001527E091C50AF091C60A8081882329F0C8
:10367000803209F410823196F8CF60E08091C50A5B
:103680009091C60A0E94F6750C9415278091271C0C
:103690008823F9F080E090E0A0E7B2E488A399A342
:1036A000AAA3BBA31C8E1D8E1E8E1F8E19821A828A
:1036B0001B821C8200E010E020E0AE01405E5F4F04
:1036C000BE01645E7F4FCE0101960E94D35C0C94D4
:1036D00015270E94353F882321F00E941B730E940A
:1036E000718861E085EE9AE00E94315C4EEC5AE010
:1036F0006FE274E085E00E94B5BE0E944AC20C945D
:1037000015270E9421930C9415278091931B83FD0C
:1037100002C00C94152783E50E94245C81110C944F
:103720002C280C94152783E40E94D65B882319F17A
:1037300085E494E00E94B6C18091C617882391F079
:10374000BE016F5F7F4F83EC97E10E94377B8E0154
:103750000F5F1F4FF80181918F01882339F00E947C
:103760003B42F8CF8BE394E00E94B6C18AE00E940E
:103770003B420C9415278091931B82FF21C084E566
:1037800094E00E94B6C160918F1B7091901B809154
:10379000911B9091921B4AE00E948B428FE20E9403
:1037A0003B4260918B1B70918C1B80918D1B909183
:1037B0008E1B4AE00E948B420E9489430C9415277D
:1037C00086E694E00E94B6C10C9415278091C50A44
:1037D0009091C60A0E94AC750C9415278091931B9A
:1037E00083FD02C00C9415270E94A8C48091931BEE
:1037F00083FD02C00C9415274091C50A5091C60A5A
:10380000BE01645E7F4F80E00E9478C28C01009709
:1038100011F40C9415276C8D7D8D19821C8222E089
:10382000AC01CE0101960E942481811102C0F12CCD
:1038300014C0CE0101960E9465BD8823C1F361E0EA
:10384000CE0101960E941B7B009789F325EEFC01B7
:1038500020831C820E940278F82ECE0101960E94DD
:10386000757CB801FF2089F08FE894E00E94F0C1D8
:103870008AE00E943B4210928F1B1092901B109284
:10388000911B1092921B0C94152787E794E00E94DD
:10389000F0C186E192E20E94B6C10C941527809196
:1038A000931B82FD0E943E998091931B83FD02C071
:1038B0000C94152760E080E50E949294182F682FE1
:1038C0008091C50A9091C60A0E94F67583E50E9410
:1038D000245C882381F00E948F5BAB01BC01409384
:1038E0008F1B5093901B6093911B7093921B83ECE2
:1038F00097E10E94287A0E941B7311110C941527DE
:103900000E9471880C9415272091C50A3091C60A2F
:103910009091931B92609093931BC9010E94AC7588
:103920000C9415270E94D5A86C8F7D8F8E8F9F8F4A
:10393000BE016F5F7F4FCE014C960E94AC4C60E0A1
:10394000CE0101960E9458AE0E9407C2BE016F5F71
:103950007F4F8DE994E00E94F0C18AE00E943B42D3
:103960000C9415270E9471880C9415278091281CAF
:10397000813011F00C9415270E94B6A80C941527DD
:1039800060E070E083E50E946B968E34910531F41F
:103990000E945C890E944AC20C94152780E095E041
:1039A0000E94B6C16091BD037091BE0387EF94E0A1
:1039B0000E94C5C16091BF037091C0038AEE94E07C
:1039C0000E94C5C16091BD037091BE038091BF0389
:1039D0009091C003681B790B8091281C815021E0D5
:1039E00030E0823010F020E030E0621B730B8FED8E
:1039F00094E00E94C5C18AE00E943B4280E095E0CD
:103A00000E94B6C18091C1039091C203A091C303EB
:103A1000B091C4038C8F9D8FAE8FBF8FBE016F5F3F
:103A20007F4FCE014C960E94AC4CBE016F5F7F4F22
:103A300082ED94E00E94F0C18091C5039091C6038D
:103A4000A091C703B091C8038C8F9D8FAE8FBF8F9D
:103A5000BE016F5F7F4FCE014C960E94AC4CBE0101
:103A60006F5F7F4F82EC94E00E94F0C120E030E075
:103A70004AE754E46091C9037091CA038091CB0373
:103A80009091CC030E94F9D6AB01BC018AEA94E084
:103A90000E94D2C18DE60E943B428AE00E943B42D6
:103AA0000C94152780918E1383FF02C00C94152768
:103AB0000E94599487FF02C00C94152783E50E9449
:103AC000245C882359F00E949F5B0E946BD7CB0136
:103AD0000E94158261E080E00E9440540E94B8CBB1
:103AE0000C94152780918E1383FF02C00C94152728
:103AF0000E945994F82E87FF02C00C94152783E585
:103B00000E94245C182F811107C082E50E94245C6A
:103B1000811102C000E02CC00E949F5B0E946BD705
:103B2000CB010E94158261E081E00E9440546091C7
:103B3000A7157091A815072E000C880B990B0E94F1
:103B4000D0D14B015C014090A3155090A41560901A
:103B5000A5157090A615A30192010E94F9D7181619
:103B600014F40C945728112311F40C943D2801E00F
:103B70000E94B8CB002311F40C941527612F8F2DD0
:103B80000E9425820C9415270E945994182F87FDB6
:103B90000AC086E797E10E94B6C1812F0E94A45116
:103BA0008AE00E943B42F8A5F093C9020C941C2ABB
:103BB00080E50E94B2BF81110C94152781E40E9418
:103BC000D65B882321F060917715062F02C00FEF96
:103BD00010E083E50E94245C882349F00E948F5BFB
:103BE0008B016F3F710519F010F00FEF10E000939B
:103BF00077150C94152780E50E94B2BF81110C94B3
:103C00001527109277150C9415278EE40E94245CDA
:103C1000882311F40C9415270E948F5B6093D30CBA
:103C20007093D40C8093D50C9093D60C0C941527DC
:103C300083E50E94D65B882329F083E50E94B2BF0A
:103C400080938E130E9407C288E095E00E94B6C15F
:103C500080918E13882369F1B3E0EB2EB9E0FB2E3F
:103C600000E010E020E080918E1390E0A0E0B0E052
:103C7000002E04C0B695A795979587950A94D2F71C
:103C800080FF0EC0DD24D394D20E222319F08CE2E3
:103C90000E943B42F701859194910E94B6C12D2D5F
:103CA0000F5F1F4F32E0E30EF11C05301105D9F60E
:103CB0005DCD85E79AE258CD83E50E94245C882398
:103CC00081F00E944594282F30E02D33310524F4F3
:103CD000809300020C9415278CE3809300020C94CF
:103CE00015270E9407C24091000250E060E070E09A
:103CF0008FE095E00E94D8618AE00E943B420C94DC
:103D0000152780918E1383FF02C00C94152783E53D
:103D10000E94245C882311F40C9415270E949F5B59
:103D20000E946BD76837710514F068E770E07093F4
:103D30008115609380150E94595461E080E00E94D3
:103D400040540C94152783E50E94245C882311F4C9
:103D50000C9415270E944594182F90E0CD970CF0F5
:103D60001CE31093C2020E9471C06B017C01212FE1
:103D700030E0A8EEB3E00E941CD6C60ED71EE81EA7
:103D8000F91EC092BE02D092BF02E092C002F09231
:103D9000C1020C9415270E9421930C941527809141
:103DA000C8028F7D80618093C8020C941527809192
:103DB000C8028F7E80628093C8020C94152783E529
:103DC0000E94245C8823F1F00E9471C0609350141B
:103DD0007093511480935214909353140E949F5BDC
:103DE00020E030E04AE754E40E942FD20E9472D7CC
:103DF0006093010270930202809303029093040285
:103E00000C9415278091C10A84FF02C00C945A2893
:103E10008091C30A87FF02C00C945A288091C40A7B
:103E2000837011F00C945A280C948C2883E50E941E
:103E3000D65B882311F40C9415270E9471C06093FF
:103E400050147093511480935214909353140E9401
:103E50009F5B20E030E04AE754E40E942FD20E94AA
:103E600072D76093C3027093C4028093C50290938B
:103E7000C602DBC70E94599487FDD7C79091C10A3B
:103E800094FD04C09091C30A97FF0AC0FAEACF2EAE
:103E9000F2E0DF2EAFE8EA2EA3E1FA2E10E009C02F
:103EA0009091C40A937091F7682F81E00E94FA9371
:103EB000BCC7F60181916F010E94245C882309F43C
:103EC0006DC0133009F063C00E949F5B4B015C0121
:103ED00020E030E040EA51E40E94C9D187FF4EC0A3
:103EE000A50194016091AF137091B0138091B1134B
:103EF0009091B2130E94F9D62B013C019B01AC01B9
:103F00006091530D7091540D8091550D9091560D07
:103F10000E942FD26093530D7093540D8093550DD2
:103F20009093560DA30192016091BF137091C0133D
:103F30008091C1139091C2130E942FD26093BF133E
:103F40007093C0138093C1139093C21360913F0D7F
:103F50007091400D8091410D9091420D0E94CED103
:103F6000A30192010E942FD20E9472D760933F0D4D
:103F70007093400D8093410D9093420D8092AF134A
:103F80009092B013A092B113B092B21307C00E94E6
:103F90009F5BF701648B758B868B978B1F5FF4E0BB
:103FA000EF0EF11C143009F084CF0E94028B3DC744
:103FB00089E796E00E94B6C160E089E696E00E943B
:103FC000FF4F60E084E596E00E94FF4F61E08DE4E2
:103FD00096E00E94FF4F61E082E496E00E94FF4F6E
:103FE00061E082E396E00E94FF4F60E089E296E0A4
:103FF0000E94FF4F61E08FE196E00E94FF4F60E07A
:1040000085E196E00E94FF4F61E08CE79BE10E9412
:10401000FF4F60E08DE096E00E94FF4F61E08FEF80
:1040200095E00E94FF4F60E081EF95E00E94FF4F16
:1040300060E082EE95E00E94FF4F60E084ED95E045
:104040000E94FF4F60E08EEB95E00E94FF4F61E021
:104050008DEA95E00E94FF4F61E08EE995E00E94B5
:10406000FF4F61E087E995E00E94FF4F60E082E842
:1040700095E00E94FF4F60E084E795E00E94FF4FCB
:1040800061E081E695E00E94FF4F60E084E595E005
:104090000E94FF4F60E08FE495E00E94FF4F61E0D7
:1040A00082E495E00E94FF4F60E08EE295E00E947E
:1040B000FF4FBBC68091C50A9091C60A009741F098
:1040C000FC012081222321F060E00E9458AEADC6A1
:1040D0000E944AC2AAC6F8018081282F2B7F213472
:1040E000A1F08035F1F4F801818180538A30C8F461
:1040F00098012E5F3F4F89012F5F3F4FF80180816C
:104100008032C9F3915039F70CC02181213349F431
:10411000813421F0853461F741E0EACFFF24F39444
:10412000E7CF41110E9407C2FF2021F087E597E009
:104130000E94B6C1C8010E948F4377C60E946FA833
:1041400074C681E08093CE038093CD030E94ABA818
:104150006CC61092CE031092CD030E94ABA865C628
:104160000E945994182F87FD60C60091711584E450
:104170000E94245C882309F4D2C70E949F5B6B01D4
:104180007C0120E030E0A9010E94C9D1882339F1E7
:1041900024E01202F0011124E359FA4EC082D182C8
:1041A000E282F38220E030E0A90160916D15709108
:1041B0006E1580916F15909170150E94C9D1811173
:1041C0000CC080E090E0A0EEBFE380936D1590936B
:1041D0006E15A0936F15B093701501E0A0C780E035
:1041E000809371150E94619920C60E94599487FDA1
:1041F0001CC6EAEAEE2EE2E0FE2E0FE813E1F7011C
:1042000081917F010E94D65B882359F00E949F5BB9
:104210000E9472D7F80160837183828393830E9426
:10422000BB8A0C5F1F4FF3E10F391F0741F7FDC534
:104230000E94599487FDF9C56AEAE62E62E0F62EDF
:104240000FE813E17FE9C72E73E1D72EF7018191C3
:104250007F010E94D65B882339F00E949F5BF801A2
:1042600064A375A386A397A30C5F1F4FC016D10646
:1042700069F7DBC58091C20A87FD56C78091C30AE2
:104280008E7009F051C796C78091C10A827109F0FA
:10429000B9C78091C30A8C7809F0B4C78091C40A69
:1042A000837009F0AFC7C1C551EDE52E53E0F52E7F
:1042B00010E088E5810F0E94D65B882351F00E94B0
:1042C0009F5BF7016083718382839383812F0E94B8
:1042D0007EA01F5FF4E0EF0EF11C133051F70C9439
:1042E000D41740907F1C5090801C6090811C70906F
:1042F000821C20914702309148024091490250911E
:104300004A02C301B2010E9476D66CA37DA38EA39C
:104310009FA38090831C9090841CA090851CB090DB
:10432000861C20914B0230914C0240914D025091DD
:104330004E02C501B4010E9476D669A77AA78BA761
:104340009CA7C090871CD090881CE090891CF0909E
:104350008A1C20914F02309150024091510250919D
:104360005202C701B6010E9476D66DA77EA78FA71D
:1043700098AB2091530230915402409155025091D4
:104380005602C301B2010E9476D62B013C01209156
:104390005702309158024091590250915A02C5017A
:1043A000B4010E9476D64B015C0120915B023091F2
:1043B0005C0240915D0250915E02C701B6010E940D
:1043C00076D66B017C010E9407C28DEA97E00E94BD
:1043D000B6C183E50E94D65B882321F00E948294B7
:1043E0008093450280914502882319F088E993E083
:1043F00002C085E796E00E94B6C185EA97E00E9478
:10440000B6C14CA15DA16EA17FA186E997E20E9491
:10441000D2C149A55AA56BA57CA58AEE9CE00E9455
:10442000D2C14DA55EA56FA578A982E796E20E944C
:10443000D2C183E395E20E94B6C18DE997E00E9464
:10444000B6C1B301A20186E997E20E94D2C1B501CB
:10445000A4018AEE9CE00E94D2C1B701A60182E7C6
:1044600096E20E94D2C18AE00E943B42DEC483E50C
:104470000E94245C882331F00E9467969093070283
:10448000809306028091C10A9091C20AA091C30A4A
:10449000B091C40A892B8A2B8B2B09F0C6C460917A
:1044A0000602709107028DEB97E00E94E3C185E25E
:1044B0000E943B428AE00E943B42B7C40E9459944A
:1044C000F82E87FDB2C483E50E94245C0F2D0F2CCB
:1044D000000C110B882361F10E946796F801EE0F22
:1044E000FF1FEA59FD4F91838083000F111F000FBA
:1044F000111F98012E5C3D4F7901BC01990F880B6B
:10450000990B0E94D0D12AE037ED43E25CE30E9490
:104510002FD2F801E05FFA4E208131814281538130
:104520000E942FD2F70160837183828393837DC4BD
:104530000E9407C285E40E943B4280E38F0D0E94E7
:104540003B42F801EE0FFF1FEA59FD4F6081718178
:1045500081EC97E00E94E3C185E20E943B428AE041
:104560000E943B4262C48AE50E94245C811106C01D
:1045700083E50E94245C882309F440C00E949F5B6D
:1045800020E030E040E050EC0E94C9D187FDB7C682
:104590000E949F5B20E030E040E050E40E94F9D7A9
:1045A00018160CF4A6C60E949F5B6B017C0184E088
:1045B0000E94D8A2811122C02091AB133091AC137C
:1045C0004091AD135091AE13C701B6010E942FD296
:1045D0000E946BD72091D0023091D102260F371F55
:1045E0003093D1022093D0022091E60C3091E70C59
:1045F000620F731F7093E70C6093E60C8091C30AFF
:1046000087FD83C68091C40A837009F07EC60E942C
:1046100007C240914515509146156091471570911C
:10462000481589EC97E00E94D2C18AE00E943B4283
:10463000FCC364E071E083E50E94E7938C0168EEBF
:1046400073E080E50E94E7938938F3E19F0710F05B
:1046500088E893E1B8010E94E9ADE7C385E40E94D0
:10466000B2BF811173C080E50E94D65B882351F0F0
:104670000E949F5B6093AA157093AB158093AC1555
:104680009093AD1589E40E94D65B882381F00E9447
:104690009F5B2CEA35EC47E25EE30E942FD26093E9
:1046A000AE157093AF158093B0159093B11584E457
:1046B0000E94D65B882381F00E949F5B2CEA35EC38
:1046C00047E25EE30E94F9D66093B2157093B3158A
:1046D0008093B4159093B5150E9407C24091AA1516
:1046E0005091AB156091AC157091AD158EED97E0C2
:1046F0000E94D2C12CEA35EC47E25EE36091AE1530
:104700007091AF158091B0159091B1150E94F9D6B6
:10471000AB01BC018AED97E00E94D2C12CEA35ECD6
:1047200047E25EE36091B2157091B3158091B415C4
:104730009091B5150E942FD2AB01BC0186ED97E098
:104740000E94D2C18AE00E943B426FC30E9403C212
:1047500082EE97E00E94B6C168C380E50E94D65BF6
:10476000882351F00E949F5B60938315709384159A
:10477000809385159093861589E40E94D65B8823E3
:1047800081F00E949F5B2CEA35EC47E25EE30E94D9
:104790002FD2609387157093881580938915909315
:1047A0008A1584E40E94D65B882381F00E949F5B77
:1047B0002CEA35EC47E25EE30E94F9D660938B1554
:1047C00070938C1580938D1590938E150E9407C25F
:1047D00040918315509184156091851570918615CF
:1047E0008EED97E00E94D2C12CEA35EC47E25EE301
:1047F00060918715709188158091891590918A151F
:104800000E94F9D6AB01BC018AED97E00E94D2C1AB
:104810002CEA35EC47E25EE360918B1570918C15C4
:1048200080918D1590918E150E942FD2AB01BC0105
:1048300086ED97E00E94D2C18AE00E943B42F5C219
:1048400083E50E94D65B182F882371F00E949F5B3E
:104850000E946BD7709337026093360221E0672B7A
:1048600009F020E02093670D80E50E94D65B882345
:1048700059F02091360230913702232B11F00E941B
:1048800082948093670DD1C21111CFC20E9407C2DA
:104890008DE098E00E94B6C18091670D882319F0E1
:1048A0008BE594E202C084EF97E00E94B6C160916C
:1048B0003602709137028CEF97E00E94E3C188EFD7
:1048C00097E00E94B6C1B1C28091C10A87FD23C59D
:1048D0008091C30A867009F01EC53DC588E50E9417
:1048E000D65BD82E89E40E94D65BC82E882321F09F
:1048F0000E946796A82E28C0DD2011F10E949F5BC0
:1049000020917F1C3091801C4091811C5091821C11
:104910000E9475D620E030E040E251E40E9475D656
:1049200020E030E043E452E40E9476D621E83AE009
:1049300048E25CE30E942FD20E946BD7633018F0EC
:10494000AA24AA9401C0A62E89E50E94D65BF82E5F
:104950008AE40E94D65B182F882321F00E94679674
:10496000B82E28C0FF2011F10E949F5B2091831C6C
:104970003091841C4091851C5091861C0E9475D6F4
:1049800020E030E040E251E40E9475D620E030E0C3
:1049900043E452E40E9476D621E83AE048E25CE340
:1049A0000E942FD20E946BD7633018F0BB24BA94B8
:1049B00001C0B62E8AE50E94D65BE82E811105C0A3
:1049C00081E50E94D65B082F01C000E0C11001C044
:1049D00010E0212F30E0D11001C0F12C2F0D311D3E
:1049E0002130310521F4E11009C0011107C00E94F6
:1049F00003C281E398E00E94B6C117C2A7FC02C0BF
:104A0000B7FE07C00E9403C287EB93E00E94B6C1C5
:104A10000CC20E949F5BEA2CAA0CFF08AB2DBB0CBA
:104A2000BB0B002391F0F701EE0FFF1FEE0DFF1DF2
:104A3000EA0FFB1FEE0FFF1FEE0FFF1FE75BFA4EA3
:104A4000208131814281538103C020E030E0A901FF
:104A50008701000F111F0E0D1F1D0A0F1B1F000FD6
:104A6000111F000F111F075B1A4E0E9476D6F80126
:104A70006083718382839383D8C10E945BBF81115D
:104A8000D4C104ED1DE128E032E03DA32CA3CE010A
:104A900001961C014AE9C42E42E2D42E7C01F801A1
:104AA0006591759185919491ECA1FDA18190919072
:104AB000A190B190FDA3ECA3A50194010E9475D62D
:104AC0002B013C01F701608371838283938320E093
:104AD00030E040EA51EC0E94F9D787FD0AC020E09F
:104AE00030E040EA51E4C301B2010E94C9D1181676
:104AF0002CF4F601849118160CF438C4F701819057
:104B00009190A190B1907F0120E030E040EA51EC1B
:104B1000C501B4010E94F9D787FD32C420E030E01E
:104B200040EA51E4C501B4010E94C9D118160CF045
:104B300039C426C40E94B48378C10E9404B875C1E8
:104B400061E083E50E94929481270E941AB86DC1AA
:104B500081E0809334150E9438AF10923415882379
:104B600009F463C10E9407C28DE898E00E94B6C1B3
:104B70005CC18091931B82FF04C080648093931B6F
:104B800054C183FF52C10E94A8C44FC10E947A96AB
:104B90004CC10E945994082F87FD47C185E50E94AA
:104BA000D65B8823A9F1E02E002E000CFF080E949E
:104BB0009F5B4B015C0120E030E0A9010E94F9D726
:104BC00087FF04C0B7FAB094B7F8B094C70123E0E8
:104BD000880F991F2A95E1F79C01275C3A4E7901CD
:104BE000F90180829182A282B38220E030E046E126
:104BF00054E4C501B4010E94F9D718164CF480E0C2
:104C000090E0A6E1B4E4F70180839183A283B383AB
:104C10008CE40E94D65B882309F407C1002E000CA7
:104C2000110B0E949F5B6B017C0120E030E0A90129
:104C30000E94F9D787FF04C0F7FAF094F7F8F094D0
:104C400020E030E046E154E4C701B6010E94F9D704
:104C5000980193E0220F331F9A95E1F7F901E75C81
:104C6000FA4E18162CF0C482D582E682F782DDC097
:104C700080E090E0A6E1B4E484839583A683B783C3
:104C8000D4C08AE50E94245C882351F00E949F5B77
:104C9000609341157093421580934315909344158A
:104CA0008091C30A87FDC1C08091C40A837009F056
:104CB000BCC0AEC3A090680DB090690DC0906A0DE5
:104CC000D0906B0D8BE40E94245C882339F10E9404
:104CD0009F5B7B018C0120E030E0A9010E94F9D7A5
:104CE00087FD0AC020E030E040E251E4B701C8018E
:104CF0000E94C9D11816A4F48FE30E943B428BE4B2
:104D00000E943B4284EC98E00E94B6C18CEB98E094
:104D10000E94B6C186E192E20E94B6C17501860189
:104D20009701A801B501C6010E94C9D1882361F08D
:104D30000E943E99C701D8018093680D9093690D38
:104D4000A0936A0DB0936B0D8091C10A9091C20A35
:104D5000A091C30AB091C40A892B8A2B8B2B09F02E
:104D600064C00E9407C24091680D5091690D609126
:104D70006A0D70916B0D88ED98E00E94D2C18AE0B7
:104D80000E943B4252C081E08093E1091092D41B03
:104D900060E083E50E949294811147C00E94D64D45
:104DA00044C00E94D5A86D3371058105910520F09E
:104DB0008FEF98E00E9419508BEF98E00E941950F5
:104DC00087EE98E00E94B6C183EE98E09093C217F8
:104DD0008093C1172AC00E94C2C427C00091C70A8D
:104DE0001091C80A0E9471C06093501470935114BE
:104DF00080935214909353140023B9F00E9407C279
:104E000084E50E943B42B8017727072E000C880BEF
:104E1000990B0E94F84280E20E943B4282EE97E0AA
:104E20000E94B6C102C00E94C2C4F9A9F11102C019
:104E30000E94C64D28A52093C902FEC20E943E9939
:104E40001092460280E00E944F600E9471C0609301
:104E50005014709351148093521490935314809172
:104E6000680290916902A0916A02B0916B028093EE
:104E7000CC029093CD02A093CE02B093CF0280914A
:104E80000602909107029093CB028093CA0284E6B7
:104E900090E0909307028093060281E08093CE0316
:104EA0000E94ABA88AE50E94D65BF82E88E50E9496
:104EB000D65B182F89E50E94D65B18139FC0F116A8
:104EC00011F0012F04C001E011E0FF24F39482E50A
:104ED0000E94245C882369F00E949F5B4B015C0167
:104EE00020E030E0A9010E94C9D1882309F456C00E
:104EF00006C0812C912C90EAA92E90E4B92E1111B4
:104F000003C0002309F454C020E030E0A901C5012A
:104F1000B4010E9476D6762E872E982EA92EB090B8
:104F20001002C0901102D0901202E09013022B2DBB
:104F30003C2D4D2D5E2D0E94C9D187FD03C0B72C9D
:104F40006401EA2C80E090E0A0E8B0E48C8F9D8FB3
:104F5000AE8FBF8F20E030E04DE453E46B2D7C2D0D
:104F60008D2D9E2D0E94C9D187FF05C04B2D3C2D54
:104F70002D2D9E2D04C040E030E02DE493E4842EDE
:104F8000932EA22EB92E89829A82AB82BC82BE0158
:104F9000645E7F4FCE0101960E9442A7112319F053
:104FA00080E00E949EA0002319F081E00E949EA054
:104FB000FF2019F082E00E949EA00E9491A780919C
:104FC000CD038093CE038091CC029091CD02A0912D
:104FD000CE02B091CF028093680290936902A093B1
:104FE0006A02B0936B028091CA029091CB029093B7
:104FF0000702809306020E9493A717CF082F67CF5E
:1050000088E50E94D65B81115F9889E50E94D65B96
:1050100081118A988AE50E94D65B882331F08091BD
:105020000801817080930601479885E40E94D65B51
:10503000882309F4FACE1298F8CE60E08CEF93E062
:105040000E9416AE5F988A988091080181708093C3
:10505000060147981298E9CE0E948F5BAB01BC0114
:1050600040938F1B5093901B6093911B7093921BE6
:1050700083EC97E10E94287AD8CEA3019201C50162
:10508000B4010E94F9D7181694F08AE997E19F932A
:105090008F9389EB99E29F938F931F920E943DCD4E
:1050A0000F900F900F900F900F900C94B71D89EAFE
:1050B00097E1EDCF0E943E9988E50E94D65B882358
:1050C00031F05F9A8091D0038E7F8093D00389E581
:1050D0000E94D65B882331F08A9A8091D0038D7F1D
:1050E0008093D0038AE50E94D65B882361F080918B
:1050F00008018095817080930601479A8091D003C2
:105100008B7F8093D00385E40E94D65B882309F4CB
:105110008CCE0E94623E89CE0E944F9986CE602F2F
:1051200083E50E9492945CC883E50E94245C8823F6
:1051300091F00E949F5B6093C3137093C41380939C
:10514000C5139093C6136093CB137093CC138093C5
:10515000CD139093CE1380E50E94245C882351F0F8
:105160000E949F5B6093C3137093C4138093C51315
:105170009093C61382E50E94245C882351F00E941C
:105180009F5B6093C7137093C8138093C913909368
:10519000CA1384E50E94245C882309F446CE0E9449
:1051A0009F5B6093CB137093CC138093CD1390933C
:1051B000CE133BCE4091C3135091C4136091C513DD
:1051C0007091C6138BE597E00E94D2C14091C7133E
:1051D0005091C8136091C9137091CA138FE895E27A
:1051E0000E94D2C14091CB135091CC136091CD134A
:1051F0007091CE138DE29CE10E94D2C18AE00E94A0
:105200003B4213CE82E40E94D65B882351F00E9479
:10521000359460939F137093A0138093A113909380
:10522000A21383E50E94D65B882351F00E949F5B06
:105230006093CF137093D0138093D1139093D213B4
:1052400084E50E94D65B882351F00E949F5B6093A7
:10525000D3137093D4138093D5139093D61388E50A
:105260000E94D65B882351F00E949F5B6093470D9C
:105270007093480D8093490D90934A0D89E50E94E3
:10528000D65B882351F00E949F5B60934B0D709317
:105290004C0D80934D0D90934E0D8AE50E94D65B88
:1052A0008823B1F00E949F5B60934F0D7093500D67
:1052B0008093510D9093520D2DEC3CEC4CEC5DE342
:1052C0000E94C9D1181624F08BE697E00E94B6C15F
:1052D00085E40E94D65B882309F4A7CD0E949F5BDA
:1052E0006093530D7093540D8093550D9093560D0C
:1052F0009CCDC12CD12CE12C90E4F92E58C9C12CA5
:10530000D12CE12C80ECF82E52C982E50E94D65BAC
:1053100081117DC98ACD88E40E94D65B882321F063
:105320000E9482948093C70282E50E94D65B082F78
:1053300083E50E94D65B182F011103C0882309F46E
:1053400074CD0E940BC2112309F46FCD0E94829488
:1053500080936C026ACD0E9407C280E298E00E94AE
:10536000B6C180916C020E94CC615FCDB7FAB09457
:10537000B7F8B094F70180829182A282B382BECB4B
:105380000E9403C28FE698E00E94B6C161E081E608
:1053900098E00E9416AE68E270E088EC90E00E940F
:1053A000E9AD43CD0C5F1F4FFFEFCF1ADF0A20EEB0
:1053B0003DE12017310709F072CB31EDE32E33E0E8
:1053C000F32E10E0F10181919191A191B1911F0112
:1053D000F70181939193A193B1937F01812F0E9453
:1053E0007EA01F5F133071F70E9493A760E081E5F4
:1053F00098E00E9416AE63E972E084E690E00E94B5
:10540000E9AD6AEB72E084E690E00E94E9AD0DCD73
:105410008DE998E00E94B6C1409141155091421526
:10542000609143157091441588E998E00E94D2C1BB
:105430008AE00E943B42F9CCE1960FB6F894DEBFB9
:105440000FBECDBFDF91CF911F910F91FF90EF90D5
:10545000DF90CF90BF90AF909F908F907F906F9094
:105460005F904F903F902F9008952F923F924F92D0
:105470005F926F927F928F929F92AF92BF92CF92E4
:10548000DF92EF92FF920F931F93CF93DF93CDB7ED
:10549000DEB7C854D1090FB6F894DEBF0FBECDBF3A
:1054A0000E9471C000915D0310915E0320915F0323
:1054B000309160036B017C01C01AD10AE20AF30A41
:1054C000F7FC4EC0DC01CB0188519C4FAF4FBF4F62
:1054D00080935D0390935E03A0935F03B09360039A
:1054E0008091221A9091231A0497D1F5C090080256
:1054F000D0900902E0900A02F0900B0226E636E610
:1055000046E050ECC701B6010E94F9D787FD28C0DC
:1055100023E333E343EF5FEBC701B6010E94C9D138
:105520001816F4F0C0900C02D0900D02E0900E021C
:10553000F0900F022DEC3CEC4CEC5DEBC701B6019A
:105540000E94F9D787FD0CC02DEC3CEC4CEC5DE3E0
:10555000C701B6010E94C9D1181614F00C94A932E3
:105560008091161A9091171A039794F59E012F5F58
:105570003F4F19018E01095D1F4F6CE3462E512CE0
:10558000612C712C80911B0390911C03891B8F73DC
:10559000F9F08091161A9091171A0497CCF4909113
:1055A0001B0380911C03981779F1E82FF0E0E55E6A
:1055B000FC4F22818F5F8F7380931C0320931C1AF2
:1055C00080911D1A90911E1A2A3001F5009739F525
:1055D0008091161A9091171A009711F40C94FF32CB
:1055E00001979093171A8093161A8091181A909128
:1055F000191A019664E070E00E9459D69093191A26
:105600008093181A0C94FF322FEFD8CF2D30F1F27F
:105610002A33E1F28F3591050CF4BAC5D7CF20912A
:105620001A1A30911B1A40E6429F6001439FD00C2A
:105630001124D601AA56B74E7D01FD01E80FF91FCE
:10564000108261E470E0CD010E94BFD8009709F498
:1056500084C59093201A80931F1A8E199F098C0D70
:105660009D1D60E070E08956974E0E9453CD0E94C8
:105670006BD7CB01770FAA0BBB0B8232910508F0D9
:105680006CC5FC018827EE58FF4F8F4F0C946DD6E8
:10569000C090A315D090A415E090A515F090A61584
:1056A0008BE69DE00EC06091A7157091A815072E9E
:1056B000000C880B990B0E94D0D16B017C0186E60F
:1056C0009DE00E940DAF20E030E040E05FE3C701C5
:1056D000B6010E9476D60E946BD7CB010E9424A906
:1056E0000E9430AF3AC5C0907C15D0907D15E090F7
:1056F0007E15F0907F1581E69DE0E3CF60918015E7
:1057000070918115072E000C880B990B0E94D0D147
:105710006B017C018CE59DE0D4CF80917715B4E6D8
:105720008B9FC001112481589F4F6FEF70E00E9442
:1057300059D670E080E090E00E94CED16B017C01F0
:1057400020E030E048EC52E40E94F9D7181634F417
:10575000C12CD12C58ECE52E52E4F52E87E59DE0C6
:105760000E940DAFC701B601B6CFC0900802D0901D
:105770000902E0900A02F0900B022996CCAEDDAE51
:10578000EEAEFFAE299780900C0290900D02A09093
:105790000E02B0900F02C0901002D0901102E09063
:1057A0001202F09013028FE49DE00E940DAF42E0E0
:1057B00029966CAD7DAD8EAD9FAD29970E9494402A
:1057C0008AE49DE00E940DAF42E0C501B4010E9451
:1057D000944085E49DE00E940DAF42E0C701B60110
:1057E0000E9494408BE598E1B6C40E94CFAE882316
:1057F00009F456C080E49DE00E940DAF0E94C3AE44
:10580000882309F44AC00E94353F882351F18091D2
:105810008B1B90918C1BA0918D1BB0918E1B0097C0
:10582000A105B105F1F0BC01CD016D597F4F8F4F3E
:105830009F4F24E630E040E050E00E94D0D56091D8
:105840008F1B7091901B8091911B9091921B0E94D5
:10585000D0D5243638F0822F64E60E942BD6805DA6
:1058600002C020E080E2809317032A3048F03AE03B
:10587000822F632F0E942BD60E942BD6905D01C0F1
:1058800090E290931803822F6AE00E942BD6905DDD
:105890009093190387E193E023CF89E39CE05BC4F5
:1058A00088E39DE058C40E94D5A84B015C0183E3C6
:1058B0009DE00E940DAF81149104A104B104E1F1B7
:1058C000C501B40120E13EE040E050E00E94D0D5A7
:1058D000822F4AE0F42E6F2D0E942BD6292F0E9492
:1058E0002BD6905D90931803205D2093190388E1D7
:1058F00093E00E9424AF8FE29DE00E940DAFC501AE
:10590000B401A30192010E94D0D5CA01B901A3013B
:1059100092010E94D0D5862F6F2D0E942BD6805DDC
:1059200080931803905D9093190388E193E00E949F
:1059300024AF8CE29DE00FC483E29DE00CC4109282
:10594000441A1092261A8DE39CE00E941CAF0E941C
:10595000C3AE811135C48091211A811131C489E30C
:105960009CE00E941CAF8AE29CE00E941CAF8AE28D
:105970009CE057C40E94CFAE882309F4EEC30E9476
:10598000CFAE882309F4E9C38091221A9091231A9B
:10599000049709F4E2C38091241A9091251A892B67
:1059A00009F4F5C4DAC30E94CFAE882309F4D5C345
:1059B0008091931B82FDD1C311C5A4E0B0E0B093E8
:1059C000231AA093221A1092251A1092241A81EEFB
:1059D0009AE00E941CAF86E09BE09093C2178093F0
:1059E000C11710921203109205028091931B8064DC
:1059F0008093931B61E089EB9AE00E94315C4EEC4E
:105A00005AE066ED7AE085E00E94B5BE0E94D98832
:105A100060E080EC9AE00E9416AE9FC340E060E038
:105A200070E084E09DE00E9411C20E94C3AE882312
:105A300009F493C3E0901F1AF090201A6701B4E0B4
:105A4000CB0ED11C6AE270E0C6010E94BFD8F701FC
:105A500024812F3281F4B7016B5F7F4F86E29AE198
:105A60000E94CAD81092441A8DE199E00E941CAF9E
:105A70008BE598E170C32C3389F4B60186E29AE194
:105A80000E94CAD881E08093211A1092441A8DE1B5
:105A900099E00E941CAF8BE598E15DC31092261A35
:105AA000009719F0FC013197108260911F1A7091D4
:105AB000201A6C5F7F4F84E49AE10E94CAD880E08C
:105AC0009DE049C30E94E2AE811147C38091441A10
:105AD0008111C5C442C383E50E944ABD811120C023
